{"contracts/OrgId.sol":{"OrgId":{"abi":[{"inputs":[],"name":"CalledNotByOrgIdOwner","type":"error"},{"inputs":[],"name":"InvalidDelegatesInput","type":"error"},{"inputs":[{"internalType":"bytes32","name":"orgId","type":"bytes32"}],"name":"OrgIdAlreadyExists","type":"error"},{"inputs":[{"internalType":"bytes32","name":"orgId","type":"bytes32"}],"name":"OrgIdNotFound","type":"error"},{"inputs":[],"name":"OrgJsonUriEmpty","type":"error"},{"inputs":[{"internalType":"uint256","name":"tokenId","type":"uint256"}],"name":"TokenNotFound","type":"error"},{"anonymous":false,"inputs":[{"indexed":true,"internalType":"address","name":"owner","type":"address"},{"indexed":true,"internalType":"address","name":"approved","type":"address"},{"indexed":true,"internalType":"uint256","name":"tokenId","type":"uint256"}],"name":"Approval","type":"event"},{"anonymous":false,"inputs":[{"indexed":true,"internalType":"address","name":"owner","type":"address"},{"indexed":true,"internalType":"address","name":"operator","type":"address"},{"indexed":false,"internalType":"bool","name":"approved","type":"bool"}],"name":"ApprovalForAll","type":"event"},{"anonymous":false,"inputs":[{"indexed":true,"internalType":"bytes32","name":"orgId","type":"bytes32"},{"indexed":true,"internalType":"address","name":"owner","type":"address"}],"name":"OrgIdCreated","type":"event"},{"anonymous":false,"inputs":[{"indexed":true,"internalType":"bytes32","name":"orgId","type":"bytes32"},{"indexed":false,"internalType":"string[]","name":"delegates","type":"string[]"}],"name":"OrgIdDelegatesAdded","type":"event"},{"anonymous":false,"inputs":[{"indexed":true,"internalType":"bytes32","name":"orgId","type":"bytes32"},{"indexed":false,"internalType":"string[]","name":"delegates","type":"string[]"}],"name":"OrgIdDelegatesRemoved","type":"event"},{"anonymous":false,"inputs":[{"indexed":true,"internalType":"bytes32","name":"orgId","type":"bytes32"},{"indexed":false,"internalType":"string","name":"orgJsonUri","type":"string"}],"name":"OrgJsonUriChanged","type":"event"},{"anonymous":false,"inputs":[{"indexed":true,"internalType":"address","name":"from","type":"address"},{"indexed":true,"internalType":"address","name":"to","type":"address"},{"indexed":true,"internalType":"uint256","name":"tokenId","type":"uint256"}],"name":"Transfer","type":"event"},{"inputs":[{"internalType":"bytes32","name":"orgId","type":"bytes32"},{"internalType":"string[]","name":"dids","type":"string[]"}],"name":"addDelegates","outputs":[],"stateMutability":"nonpayable","type":"function"},{"inputs":[{"internalType":"address","name":"to","type":"address"},{"internalType":"uint256","name":"tokenId","type":"uint256"}],"name":"approve","outputs":[],"stateMutability":"nonpayable","type":"function"},{"inputs":[{"internalType":"address","name":"owner","type":"address"}],"name":"balanceOf","outputs":[{"internalType":"uint256","name":"","type":"uint256"}],"stateMutability":"view","type":"function"},{"inputs":[{"internalType":"bytes32","name":"salt","type":"bytes32"},{"internalType":"string","name":"orgJsonUri","type":"string"}],"name":"createOrgId","outputs":[],"stateMutability":"nonpayable","type":"function"},{"inputs":[{"internalType":"uint256","name":"tokenId","type":"uint256"}],"name":"getApproved","outputs":[{"internalType":"address","name":"","type":"address"}],"stateMutability":"view","type":"function"},{"inputs":[{"internalType":"bytes32","name":"orgId","type":"bytes32"}],"name":"getDelegates","outputs":[{"internalType":"string[]","name":"dids","type":"string[]"}],"stateMutability":"view","type":"function"},{"inputs":[{"internalType":"uint256","name":"tokenId","type":"uint256"}],"name":"getOrgId","outputs":[{"internalType":"bool","name":"exists","type":"bool"},{"internalType":"bytes32","name":"orgId","type":"bytes32"},{"internalType":"string","name":"orgJsonUri","type":"string"},{"internalType":"address","name":"owner","type":"address"}],"stateMutability":"view","type":"function"},{"inputs":[{"internalType":"uint256","name":"cursor","type":"uint256"},{"internalType":"uint256","name":"count","type":"uint256"}],"name":"getOrgIds","outputs":[{"internalType":"bytes32[]","name":"orgIds","type":"bytes32[]"}],"stateMutability":"view","type":"function"},{"inputs":[],"name":"getOrgIds","outputs":[{"internalType":"bytes32[]","name":"orgIds","type":"bytes32[]"}],"stateMutability":"view","type":"function"},{"inputs":[{"internalType":"bytes32","name":"orgId","type":"bytes32"}],"name":"getTokenId","outputs":[{"internalType":"uint256","name":"tokenId","type":"uint256"}],"stateMutability":"view","type":"function"},{"inputs":[],"name":"initialize","outputs":[],"stateMutability":"nonpayable","type":"function"},{"inputs":[{"internalType":"address","name":"owner","type":"address"},{"internalType":"address","name":"operator","type":"address"}],"name":"isApprovedForAll","outputs":[{"internalType":"bool","name":"","type":"bool"}],"stateMutability":"view","type":"function"},{"inputs":[],"name":"name","outputs":[{"internalType":"string","name":"","type":"string"}],"stateMutability":"view","type":"function"},{"inputs":[{"internalType":"uint256","name":"tokenId","type":"uint256"}],"name":"ownerOf","outputs":[{"internalType":"address","name":"","type":"address"}],"stateMutability":"view","type":"function"},{"inputs":[{"internalType":"bytes32","name":"orgId","type":"bytes32"}],"name":"removeDelegates","outputs":[],"stateMutability":"nonpayable","type":"function"},{"inputs":[{"internalType":"bytes32","name":"orgId","type":"bytes32"},{"internalType":"string[]","name":"dids","type":"string[]"}],"name":"removeDelegates","outputs":[],"stateMutability":"nonpayable","type":"function"},{"inputs":[{"internalType":"address","name":"from","type":"address"},{"internalType":"address","name":"to","type":"address"},{"internalType":"uint256","name":"tokenId","type":"uint256"}],"name":"safeTransferFrom","outputs":[],"stateMutability":"nonpayable","type":"function"},{"inputs":[{"internalType":"address","name":"from","type":"address"},{"internalType":"address","name":"to","type":"address"},{"internalType":"uint256","name":"tokenId","type":"uint256"},{"internalType":"bytes","name":"_data","type":"bytes"}],"name":"safeTransferFrom","outputs":[],"stateMutability":"nonpayable","type":"function"},{"inputs":[{"internalType":"address","name":"operator","type":"address"},{"internalType":"bool","name":"approved","type":"bool"}],"name":"setApprovalForAll","outputs":[],"stateMutability":"nonpayable","type":"function"},{"inputs":[{"internalType":"bytes32","name":"orgId","type":"bytes32"},{"internalType":"string","name":"orgJsonUri","type":"string"}],"name":"setOrgJson","outputs":[],"stateMutability":"nonpayable","type":"function"},{"inputs":[{"internalType":"bytes4","name":"interfaceId","type":"bytes4"}],"name":"supportsInterface","outputs":[{"internalType":"bool","name":"","type":"bool"}],"stateMutability":"view","type":"function"},{"inputs":[],"name":"symbol","outputs":[{"internalType":"string","name":"","type":"string"}],"stateMutability":"view","type":"function"},{"inputs":[{"internalType":"uint256","name":"index","type":"uint256"}],"name":"tokenByIndex","outputs":[{"internalType":"uint256","name":"","type":"uint256"}],"stateMutability":"view","type":"function"},{"inputs":[{"internalType":"address","name":"owner","type":"address"},{"internalType":"uint256","name":"index","type":"uint256"}],"name":"tokenOfOwnerByIndex","outputs":[{"internalType":"uint256","name":"","type":"uint256"}],"stateMutability":"view","type":"function"},{"inputs":[{"internalType":"uint256","name":"tokenId","type":"uint256"}],"name":"tokenURI","outputs":[{"internalType":"string","name":"","type":"string"}],"stateMutability":"view","type":"function"},{"inputs":[],"name":"totalSupply","outputs":[{"internalType":"uint256","name":"","type":"uint256"}],"stateMutability":"view","type":"function"},{"inputs":[{"internalType":"address","name":"from","type":"address"},{"internalType":"address","name":"to","type":"address"},{"internalType":"uint256","name":"tokenId","type":"uint256"}],"name":"transferFrom","outputs":[],"stateMutability":"nonpayable","type":"function"}],"evm":{"bytecode":{"linkReferences":{},"object":"608060405234801561001057600080fd5b50612e0d806100206000396000f3fe608060405234801561001057600080fd5b50600436106101a95760003560e01c80636352211e116100f9578063b88d4fde11610097578063c9cb65e111610071578063c9cb65e1146103ab578063dfe0f511146103cb578063e4f64990146103de578063e985e9c5146103e657600080fd5b8063b88d4fde14610372578063bc52570b14610385578063c87b56dd1461039857600080fd5b80638129fc1c116100d35780638129fc1c1461032c57806395d89b411461033457806398980a8a1461033c578063a22cb4651461035f57600080fd5b80636352211e146102e657806363ceab54146102f957806370a082311461031957600080fd5b806318160ddd1161016657806335178d911161014057806335178d911461029a57806342842e0e146102ad5780634f6ccce7146102c05780635d96b739146102d357600080fd5b806318160ddd1461026257806323b872dd146102745780632f745c591461028757600080fd5b80630193eda6146101ae57806301ffc9a7146101d757806306fdde03146101fa578063081812fc1461020f578063095ea7b31461023a5780630ad0abce1461024f575b600080fd5b6101c16101bc3660046129f6565b610422565b6040516101ce9190612a9d565b60405180910390f35b6101ea6101e53660046129bc565b6105f9565b60405190151581526020016101ce565b61020261060a565b6040516101ce9190612bac565b61022261021d36600461283e565b61069c565b6040516001600160a01b0390911681526020016101ce565b61024d610248366004612814565b610736565b005b61024d61025d366004612940565b61084c565b6099545b6040519081526020016101ce565b61024d610282366004612720565b6109e0565b610266610295366004612814565b610a11565b61024d6102a8366004612940565b610aa7565b61024d6102bb366004612720565b610ba8565b6102666102ce36600461283e565b610bc3565b61024d6102e1366004612857565b610c56565b6102226102f436600461283e565b610da0565b61030c61030736600461283e565b610e17565b6040516101ce9190612ae1565b6102666103273660046126cb565b610e32565b61024d610eb9565b610202610f71565b61034f61034a36600461283e565b610f80565b6040516101ce9493929190612b43565b61024d61036d3660046127d8565b61105a565b61024d61038036600461275c565b61111f565b61024d61039336600461283e565b611157565b6102026103a636600461283e565b611257565b6102666103b936600461283e565b600090815260c9602052604090205490565b61024d6103d9366004612857565b611330565b6101c161147a565b6101ea6103f43660046126ed565b6001600160a01b039182166000908152606a6020908152604080832093909416825291909152205460ff1690565b606060008267ffffffffffffffff81111561043f5761043f612dd4565b604051908082528060200260200182016040528015610468578160200160208202803683370190505b509050600080855b60cc548110801561048957506104868688612ce1565b81105b1561051f5760cc81815481106104a1576104a1612dbe565b90600052602060002001548484815181106104be576104be612dbe565b6020026020010181815250506000801b60cc82815481106104e1576104e1612dbe565b9060005260206000200154146104ff57816104fb81612d77565b9250505b8261050981612d77565b935050808061051790612d77565b915050610470565b508067ffffffffffffffff81111561053957610539612dd4565b604051908082528060200260200182016040528015610562578160200160208202803683370190505b5093506000915060005b83518110156105ef576000801b84828151811061058b5761058b612dbe565b6020026020010151146105dd578381815181106105aa576105aa612dbe565b60200260200101518584815181106105c4576105c4612dbe565b6020908102919091010152826105d981612d77565b9350505b806105e781612d77565b91505061056c565b5050505092915050565b6000610604826114d1565b92915050565b60606065805461061990612d3c565b80601f016020809104026020016040519081016040528092919081815260200182805461064590612d3c565b80156106925780601f1061066757610100808354040283529160200191610692565b820191906000526020600020905b81548152906001019060200180831161067557829003601f168201915b5050505050905090565b6000818152606760205260408120546001600160a01b031661071a5760405162461bcd60e51b815260206004820152602c60248201527f4552433732313a20617070726f76656420717565727920666f72206e6f6e657860448201526b34b9ba32b73a103a37b5b2b760a11b60648201526084015b60405180910390fd5b506000908152606960205260409020546001600160a01b031690565b600061074182610da0565b9050806001600160a01b0316836001600160a01b031614156107af5760405162461bcd60e51b815260206004820152602160248201527f4552433732313a20617070726f76616c20746f2063757272656e74206f776e656044820152603960f91b6064820152608401610711565b336001600160a01b03821614806107cb57506107cb81336103f4565b61083d5760405162461bcd60e51b815260206004820152603860248201527f4552433732313a20617070726f76652063616c6c6572206973206e6f74206f7760448201527f6e6572206e6f7220617070726f76656420666f7220616c6c00000000000000006064820152608401610711565b61084783836114f6565b505050565b8061086a57604051633f0e0a7f60e21b815260040160405180910390fd5b6000336040516bffffffffffffffffffffffff19606083901b1660208201526034810186905290915060009060540160408051601f19818403018152918152815160209283012060cc8054600181019091557f47197230e1e4b29fc0bd84d7d78966c0925452aff72a2a121538b102457e9ebe01819055600081815260c990935291205490915015610912576040516358dc901360e01b815260048101829052602401610711565b600061091d60995490565b610928906001612ce1565b90506109348382611564565b600082815260c96020908152604080832084905583835260ca825280832085905560cb90915290206109679086866124de565b506040516001600160a01b0384169083907f49422f7ad2eca08595f1596952d2d805b5d5ba06f8c371dcb617c86a5b42ba0790600090a3817f4e0249d19860daeb2f0627d804cc93426e237cb754fef478c3a6cbcbc276265786866040516109d0929190612b7d565b60405180910390a2505050505050565b6109ea3382611582565b610a065760405162461bcd60e51b815260040161071190612c5f565b610847838383611679565b6000610a1c83610e32565b8210610a7e5760405162461bcd60e51b815260206004820152602b60248201527f455243373231456e756d657261626c653a206f776e657220696e646578206f7560448201526a74206f6620626f756e647360a81b6064820152608401610711565b506001600160a01b03919091166000908152609760209081526040808320938352929052205490565b82801580610ac15750600081815260c96020526040902054155b15610ae2576040516387fe3aad60e01b815260048101829052602401610711565b600081815260c960205260409020543390610afc90610da0565b6001600160a01b031614610b2357604051635612e54f60e11b815260040160405180910390fd5b81610b4157604051633f0e0a7f60e21b815260040160405180910390fd5b600084815260c96020908152604080832054835260cb9091529020610b679084846124de565b50837f4e0249d19860daeb2f0627d804cc93426e237cb754fef478c3a6cbcbc27626578484604051610b9a929190612b7d565b60405180910390a250505050565b6108478383836040518060200160405280600081525061111f565b6000610bce60995490565b8210610c315760405162461bcd60e51b815260206004820152602c60248201527f455243373231456e756d657261626c653a20676c6f62616c20696e646578206f60448201526b7574206f6620626f756e647360a01b6064820152608401610711565b60998281548110610c4457610c44612dbe565b90600052602060002001549050919050565b81801580610c705750600081815260c96020526040902054155b15610c91576040516387fe3aad60e01b815260048101829052602401610711565b600081815260c960205260409020543390610cab90610da0565b6001600160a01b031614610cd257604051635612e54f60e11b815260040160405180910390fd5b8151610cf157604051634816a76760e01b815260040160405180910390fd5b6000805b8351811015610d6f57610d3d848281518110610d1357610d13612dbe565b6020026020010151610100600088815260200190815260200160002061182490919063ffffffff16565b915081610d5d57604051634816a76760e01b815260040160405180910390fd5b80610d6781612d77565b915050610cf5565b50837f9af1bf1f55d94dc29bfe249a6e5c1f9b82c06fee0cdaeada46f044b69f68c7cc84604051610b9a9190612ae1565b6000818152606760205260408120546001600160a01b0316806106045760405162461bcd60e51b815260206004820152602960248201527f4552433732313a206f776e657220717565727920666f72206e6f6e657869737460448201526832b73a103a37b5b2b760b91b6064820152608401610711565b600081815261010060205260409020606090610604906118d0565b60006001600160a01b038216610e9d5760405162461bcd60e51b815260206004820152602a60248201527f4552433732313a2062616c616e636520717565727920666f7220746865207a65604482015269726f206164647265737360b01b6064820152608401610711565b506001600160a01b031660009081526068602052604090205490565b600054610100900460ff1680610ed2575060005460ff16155b610eee5760405162461bcd60e51b815260040161071190612c11565b600054610100900460ff16158015610f10576000805461ffff19166101011790555b610f546040518060400160405280600581526020016413d491da5160da1b8152506040518060400160405280600581526020016413d491da5160da1b8152506119ad565b610f5c611a34565b8015610f6e576000805461ff00191690555b50565b60606066805461061990612d3c565b600081815260ca602090815260408083205460679092528220546001600160a01b03161580159260609161105357600085815260cb602052604090208054610fc790612d3c565b80601f0160208091040260200160405190810160405280929190818152602001828054610ff390612d3c565b80156110405780601f1061101557610100808354040283529160200191611040565b820191906000526020600020905b81548152906001019060200180831161102357829003601f168201915b5050505050915061105085610da0565b90505b9193509193565b6001600160a01b0382163314156110b35760405162461bcd60e51b815260206004820152601960248201527f4552433732313a20617070726f766520746f2063616c6c6572000000000000006044820152606401610711565b336000818152606a602090815260408083206001600160a01b03871680855290835292819020805460ff191686151590811790915590519081529192917f17307eab39ab6107e8899845ad3d59bd9653f200f220920489ca2b5937696c31910160405180910390a35050565b6111293383611582565b6111455760405162461bcd60e51b815260040161071190612c5f565b61115184848484611a93565b50505050565b808015806111715750600081815260c96020526040902054155b15611192576040516387fe3aad60e01b815260048101829052602401610711565b600081815260c9602052604090205433906111ac90610da0565b6001600160a01b0316146111d357604051635612e54f60e11b815260040160405180910390fd5b6000828152610100602052604081206111eb906118d0565b6000848152610100602052604081209192509061120790611ac6565b90508061122757604051634816a76760e01b815260040160405180910390fd5b837fb3c3b87d0ea8237b590c2dbf7d3acf90e54a40cf0ef1e4c0d948736e1fabd8a983604051610b9a9190612ae1565b6000818152606760205260409020546060906001600160a01b0316611292576040516306caeb1360e41b815260048101839052602401610711565b600082815260cb6020526040902080546112ab90612d3c565b80601f01602080910402602001604051908101604052809291908181526020018280546112d790612d3c565b80156113245780601f106112f957610100808354040283529160200191611324565b820191906000526020600020905b81548152906001019060200180831161130757829003601f168201915b50505050509050919050565b8180158061134a5750600081815260c96020526040902054155b1561136b576040516387fe3aad60e01b815260048101829052602401610711565b600081815260c96020526040902054339061138590610da0565b6001600160a01b0316146113ac57604051635612e54f60e11b815260040160405180910390fd5b81516113cb57604051634816a76760e01b815260040160405180910390fd5b6000805b8351811015611449576114178482815181106113ed576113ed612dbe565b60200260200101516101006000888152602001908152602001600020611bea90919063ffffffff16565b91508161143757604051634816a76760e01b815260040160405180910390fd5b8061144181612d77565b9150506113cf565b50837fb3c3b87d0ea8237b590c2dbf7d3acf90e54a40cf0ef1e4c0d948736e1fabd8a984604051610b9a9190612ae1565b606060cc80548060200260200160405190810160405280929190818152602001828054801561069257602002820191906000526020600020905b8154815260200190600101908083116114b4575050505050905090565b60006001600160e01b03198216635deabe7760e01b1480610604575061060482611dd0565b600081815260696020526040902080546001600160a01b0319166001600160a01b038416908117909155819061152b82610da0565b6001600160a01b03167f8c5be1e5ebec7d5bd14f71427d1e84f3dd0314c0f7b2291e5b200ac8c7c3b92560405160405180910390a45050565b61157e828260405180602001604052806000815250611df5565b5050565b6000818152606760205260408120546001600160a01b03166115fb5760405162461bcd60e51b815260206004820152602c60248201527f4552433732313a206f70657261746f7220717565727920666f72206e6f6e657860448201526b34b9ba32b73a103a37b5b2b760a11b6064820152608401610711565b600061160683610da0565b9050806001600160a01b0316846001600160a01b031614806116415750836001600160a01b03166116368461069c565b6001600160a01b0316145b8061167157506001600160a01b038082166000908152606a602090815260408083209388168352929052205460ff165b949350505050565b826001600160a01b031661168c82610da0565b6001600160a01b0316146116f45760405162461bcd60e51b815260206004820152602960248201527f4552433732313a207472616e73666572206f6620746f6b656e2074686174206960448201526839903737ba1037bbb760b91b6064820152608401610711565b6001600160a01b0382166117565760405162461bcd60e51b8152602060048201526024808201527f4552433732313a207472616e7366657220746f20746865207a65726f206164646044820152637265737360e01b6064820152608401610711565b611761838383611e28565b61176c6000826114f6565b6001600160a01b0383166000908152606860205260408120805460019290611795908490612cf9565b90915550506001600160a01b03821660009081526068602052604081208054600192906117c3908490612ce1565b909155505060008181526067602052604080822080546001600160a01b0319166001600160a01b0386811691821790925591518493918716917fddf252ad1be2c89b69c2b068fc378daa952ba7f163c4a11628f55a4df523b3ef91a4505050565b600081516000141561183857506000610604565b600061184383611ee0565b600081815260018601602052604090205490915060ff166118b5576000818152600185810160209081526040808420805460ff191684179055875460028901835290842081905591820187558683529182902085516118aa93919092019190860190612562565b506001915050610604565b600090815260018401602052604090205460ff169050610604565b606081600001805480602002602001604051908101604052809291908181526020016000905b828210156119a257838290600052602060002001805461191590612d3c565b80601f016020809104026020016040519081016040528092919081815260200182805461194190612d3c565b801561198e5780601f106119635761010080835404028352916020019161198e565b820191906000526020600020905b81548152906001019060200180831161197157829003601f168201915b5050505050815260200190600101906118f6565b505050509050919050565b600054610100900460ff16806119c6575060005460ff16155b6119e25760405162461bcd60e51b815260040161071190612c11565b600054610100900460ff16158015611a04576000805461ffff19166101011790555b611a0c611f10565b611a14611f10565b611a1e8383611f7a565b8015610847576000805461ff0019169055505050565b600054610100900460ff1680611a4d575060005460ff16155b611a695760405162461bcd60e51b815260040161071190612c11565b600054610100900460ff16158015611a8b576000805461ffff19166101011790555b610f5c61200f565b611a9e848484611679565b611aaa8484848461207e565b6111515760405162461bcd60e51b815260040161071190612bbf565b805460009015611bdd576000805b8354811015611bc857611b8d846000018281548110611af557611af5612dbe565b906000526020600020018054611b0a90612d3c565b80601f0160208091040260200160405190810160405280929190818152602001828054611b3690612d3c565b8015611b835780601f10611b5857610100808354040283529160200191611b83565b820191906000526020600020905b815481529060010190602001808311611b6657829003601f168201915b5050505050611ee0565b60008181526002860160209081526040808320839055600188019091529020805460ff19169055915080611bc081612d77565b915050611ad4565b50611bd48360006125d6565b50600192915050565b506000919050565b919050565b6000815160001415611bfe57506000610604565b6000611c0983611ee0565b600081815260018601602052604090205490915060ff1615611db45760008181526002850160205260408120548554909190611c4790600190612cf9565b9050818114611d53576000866000018281548110611c6757611c67612dbe565b906000526020600020018054611c7c90612d3c565b80601f0160208091040260200160405190810160405280929190818152602001828054611ca890612d3c565b8015611cf55780601f10611cca57610100808354040283529160200191611cf5565b820191906000526020600020905b815481529060010190602001808311611cd857829003601f168201915b5050505050905080876000018481548110611d1257611d12612dbe565b906000526020600020019080519060200190611d2f929190612562565b5082876002016000611d4084611ee0565b8152602081019190915260400160002055505b8554869080611d6457611d64612da8565b600190038181906000526020600020016000611d8091906125f4565b90555050600090815260028401602090815260408083208390556001808701909252909120805460ff191690559050610604565b600090815260018401602052604090205460ff16159050610604565b60006001600160e01b031982166345f8f68160e11b148061060457506106048261218b565b611dff83836121b0565b611e0c600084848461207e565b6108475760405162461bcd60e51b815260040161071190612bbf565b6001600160a01b038316611e8357611e7e81609980546000838152609a60205260408120829055600182018355919091527f72a152ddfb8e864297c917af52ea6c1c68aead0fee1a62673fcc7e0c94979d000155565b611ea6565b816001600160a01b0316836001600160a01b031614611ea657611ea683826122fe565b6001600160a01b038216611ebd576108478161239b565b826001600160a01b0316826001600160a01b03161461084757610847828261244a565b600081604051602001611ef39190612a44565b604051602081830303815290604052805190602001209050919050565b600054610100900460ff1680611f29575060005460ff16155b611f455760405162461bcd60e51b815260040161071190612c11565b600054610100900460ff16158015610f5c576000805461ffff19166101011790558015610f6e576000805461ff001916905550565b600054610100900460ff1680611f93575060005460ff16155b611faf5760405162461bcd60e51b815260040161071190612c11565b600054610100900460ff16158015611fd1576000805461ffff19166101011790555b8251611fe4906065906020860190612562565b508151611ff8906066906020850190612562565b508015610847576000805461ff0019169055505050565b600054610100900460ff1680612028575060005460ff16155b6120445760405162461bcd60e51b815260040161071190612c11565b600054610100900460ff16158015612066576000805461ffff19166101011790555b61206e611f10565b612076611f10565b610f5c611f10565b60006001600160a01b0384163b1561218057604051630a85bd0160e11b81526001600160a01b0385169063150b7a02906120c2903390899088908890600401612a60565b602060405180830381600087803b1580156120dc57600080fd5b505af192505050801561210c575060408051601f3d908101601f19168201909252612109918101906129d9565b60015b612166573d80801561213a576040519150601f19603f3d011682016040523d82523d6000602084013e61213f565b606091505b50805161215e5760405162461bcd60e51b815260040161071190612bbf565b805181602001fd5b6001600160e01b031916630a85bd0160e11b149050611671565b506001949350505050565b60006001600160e01b0319821663780e9d6360e01b148061060457506106048261248e565b6001600160a01b0382166122065760405162461bcd60e51b815260206004820181905260248201527f4552433732313a206d696e7420746f20746865207a65726f20616464726573736044820152606401610711565b6000818152606760205260409020546001600160a01b03161561226b5760405162461bcd60e51b815260206004820152601c60248201527f4552433732313a20746f6b656e20616c7265616479206d696e746564000000006044820152606401610711565b61227760008383611e28565b6001600160a01b03821660009081526068602052604081208054600192906122a0908490612ce1565b909155505060008181526067602052604080822080546001600160a01b0319166001600160a01b03861690811790915590518392907fddf252ad1be2c89b69c2b068fc378daa952ba7f163c4a11628f55a4df523b3ef908290a45050565b6000600161230b84610e32565b6123159190612cf9565b600083815260986020526040902054909150808214612368576001600160a01b03841660009081526097602090815260408083208584528252808320548484528184208190558352609890915290208190555b5060009182526098602090815260408084208490556001600160a01b039094168352609781528383209183525290812055565b6099546000906123ad90600190612cf9565b6000838152609a6020526040812054609980549394509092849081106123d5576123d5612dbe565b9060005260206000200154905080609983815481106123f6576123f6612dbe565b6000918252602080832090910192909255828152609a9091526040808220849055858252812055609980548061242e5761242e612da8565b6001900381819060005260206000200160009055905550505050565b600061245583610e32565b6001600160a01b039093166000908152609760209081526040808320868452825280832085905593825260989052919091209190915550565b60006001600160e01b031982166380ac58cd60e01b14806124bf57506001600160e01b03198216635b5e139f60e01b145b8061060457506301ffc9a760e01b6001600160e01b0319831614610604565b8280546124ea90612d3c565b90600052602060002090601f01602090048101928261250c5760008555612552565b82601f106125255782800160ff19823516178555612552565b82800160010185558215612552579182015b82811115612552578235825591602001919060010190612537565b5061255e92915061262a565b5090565b82805461256e90612d3c565b90600052602060002090601f0160209004810192826125905760008555612552565b82601f106125a957805160ff1916838001178555612552565b82800160010185558215612552579182015b828111156125525782518255916020019190600101906125bb565b5080546000825590600052602060002090810190610f6e919061263f565b50805461260090612d3c565b6000825580601f10612610575050565b601f016020900490600052602060002090810190610f6e91905b5b8082111561255e576000815560010161262b565b8082111561255e57600061265382826125f4565b5060010161263f565b600067ffffffffffffffff83111561267657612676612dd4565b612689601f8401601f1916602001612cb0565b905082815283838301111561269d57600080fd5b828260208301376000602084830101529392505050565b80356001600160a01b0381168114611be557600080fd5b6000602082840312156126dd57600080fd5b6126e6826126b4565b9392505050565b6000806040838503121561270057600080fd5b612709836126b4565b9150612717602084016126b4565b90509250929050565b60008060006060848603121561273557600080fd5b61273e846126b4565b925061274c602085016126b4565b9150604084013590509250925092565b6000806000806080858703121561277257600080fd5b61277b856126b4565b9350612789602086016126b4565b925060408501359150606085013567ffffffffffffffff8111156127ac57600080fd5b8501601f810187136127bd57600080fd5b6127cc8782356020840161265c565b91505092959194509250565b600080604083850312156127eb57600080fd5b6127f4836126b4565b91506020830135801515811461280957600080fd5b809150509250929050565b6000806040838503121561282757600080fd5b612830836126b4565b946020939093013593505050565b60006020828403121561285057600080fd5b5035919050565b600080604080848603121561286b57600080fd5b8335925060208085013567ffffffffffffffff8082111561288b57600080fd5b818701915087601f83011261289f57600080fd5b8135818111156128b1576128b1612dd4565b8060051b6128c0858201612cb0565b8281528581019085870183870188018d10156128db57600080fd5b600093505b8484101561292d578035868111156128f757600080fd5b8701603f81018e1361290857600080fd5b6129188e8a8301358c840161265c565b845250600193909301929187019187016128e0565b5080985050505050505050509250929050565b60008060006040848603121561295557600080fd5b83359250602084013567ffffffffffffffff8082111561297457600080fd5b818601915086601f83011261298857600080fd5b81358181111561299757600080fd5b8760208285010111156129a957600080fd5b6020830194508093505050509250925092565b6000602082840312156129ce57600080fd5b81356126e681612dea565b6000602082840312156129eb57600080fd5b81516126e681612dea565b60008060408385031215612a0957600080fd5b50508035926020909101359150565b60008151808452612a30816020860160208601612d10565b601f01601f19169290920160200192915050565b60008251612a56818460208701612d10565b9190910192915050565b6001600160a01b0385811682528416602082015260408101839052608060608201819052600090612a9390830184612a18565b9695505050505050565b6020808252825182820181905260009190848201906040850190845b81811015612ad557835183529284019291840191600101612ab9565b50909695505050505050565b6000602080830181845280855180835260408601915060408160051b870101925083870160005b82811015612b3657603f19888603018452612b24858351612a18565b94509285019290850190600101612b08565b5092979650505050505050565b8415158152836020820152608060408201526000612b646080830185612a18565b905060018060a01b038316606083015295945050505050565b60208152816020820152818360408301376000818301604090810191909152601f909201601f19160101919050565b6020815260006126e66020830184612a18565b60208082526032908201527f4552433732313a207472616e7366657220746f206e6f6e20455243373231526560408201527131b2b4bb32b91034b6b83632b6b2b73a32b960711b606082015260800190565b6020808252602e908201527f496e697469616c697a61626c653a20636f6e747261637420697320616c72656160408201526d191e481a5b9a5d1a585b1a5e995960921b606082015260800190565b60208082526031908201527f4552433732313a207472616e736665722063616c6c6572206973206e6f74206f6040820152701ddb995c881b9bdc88185c1c1c9bdd9959607a1b606082015260800190565b604051601f8201601f1916810167ffffffffffffffff81118282101715612cd957612cd9612dd4565b604052919050565b60008219821115612cf457612cf4612d92565b500190565b600082821015612d0b57612d0b612d92565b500390565b60005b83811015612d2b578181015183820152602001612d13565b838111156111515750506000910152565b600181811c90821680612d5057607f821691505b60208210811415612d7157634e487b7160e01b600052602260045260246000fd5b50919050565b6000600019821415612d8b57612d8b612d92565b5060010190565b634e487b7160e01b600052601160045260246000fd5b634e487b7160e01b600052603160045260246000fd5b634e487b7160e01b600052603260045260246000fd5b634e487b7160e01b600052604160045260246000fd5b6001600160e01b031981168114610f6e57600080fdfea164736f6c6343000807000a","opcodes":"PUSH1 0x80 PUSH1 0x40 MSTORE CALLVALUE DUP1 ISZERO PUSH2 0x10 JUMPI PUSH1 0x0 DUP1 REVERT JUMPDEST POP PUSH2 0x2E0D DUP1 PUSH2 0x20 PUSH1 0x0 CODECOPY PUSH1 0x0 RETURN INVALID PUSH1 0x80 PUSH1 0x40 MSTORE CALLVALUE DUP1 ISZERO PUSH2 0x10 JUMPI PUSH1 0x0 DUP1 REVERT JUMPDEST POP PUSH1 0x4 CALLDATASIZE LT PUSH2 0x1A9 JUMPI PUSH1 0x0 CALLDATALOAD PUSH1 0xE0 SHR DUP1 PUSH4 0x6352211E GT PUSH2 0xF9 JUMPI DUP1 PUSH4 0xB88D4FDE GT PUSH2 0x97 JUMPI DUP1 PUSH4 0xC9CB65E1 GT PUSH2 0x71 JUMPI DUP1 PUSH4 0xC9CB65E1 EQ PUSH2 0x3AB JUMPI DUP1 PUSH4 0xDFE0F511 EQ PUSH2 0x3CB JUMPI DUP1 PUSH4 0xE4F64990 EQ PUSH2 0x3DE JUMPI DUP1 PUSH4 0xE985E9C5 EQ PUSH2 0x3E6 JUMPI PUSH1 0x0 DUP1 REVERT JUMPDEST DUP1 PUSH4 0xB88D4FDE EQ PUSH2 0x372 JUMPI DUP1 PUSH4 0xBC52570B EQ PUSH2 0x385 JUMPI DUP1 PUSH4 0xC87B56DD EQ PUSH2 0x398 JUMPI PUSH1 0x0 DUP1 REVERT JUMPDEST DUP1 PUSH4 0x8129FC1C GT PUSH2 0xD3 JUMPI DUP1 PUSH4 0x8129FC1C EQ PUSH2 0x32C JUMPI DUP1 PUSH4 0x95D89B41 EQ PUSH2 0x334 JUMPI DUP1 PUSH4 0x98980A8A EQ PUSH2 0x33C JUMPI DUP1 PUSH4 0xA22CB465 EQ PUSH2 0x35F JUMPI PUSH1 0x0 DUP1 REVERT JUMPDEST DUP1 PUSH4 0x6352211E EQ PUSH2 0x2E6 JUMPI DUP1 PUSH4 0x63CEAB54 EQ PUSH2 0x2F9 JUMPI DUP1 PUSH4 0x70A08231 EQ PUSH2 0x319 JUMPI PUSH1 0x0 DUP1 REVERT JUMPDEST DUP1 PUSH4 0x18160DDD GT PUSH2 0x166 JUMPI DUP1 PUSH4 0x35178D91 GT PUSH2 0x140 JUMPI DUP1 PUSH4 0x35178D91 EQ PUSH2 0x29A JUMPI DUP1 PUSH4 0x42842E0E EQ PUSH2 0x2AD JUMPI DUP1 PUSH4 0x4F6CCCE7 EQ PUSH2 0x2C0 JUMPI DUP1 PUSH4 0x5D96B739 EQ PUSH2 0x2D3 JUMPI PUSH1 0x0 DUP1 REVERT JUMPDEST DUP1 PUSH4 0x18160DDD EQ PUSH2 0x262 JUMPI DUP1 PUSH4 0x23B872DD EQ PUSH2 0x274 JUMPI DUP1 PUSH4 0x2F745C59 EQ PUSH2 0x287 JUMPI PUSH1 0x0 DUP1 REVERT JUMPDEST DUP1 PUSH4 0x193EDA6 EQ PUSH2 0x1AE JUMPI DUP1 PUSH4 0x1FFC9A7 EQ PUSH2 0x1D7 JUMPI DUP1 PUSH4 0x6FDDE03 EQ PUSH2 0x1FA JUMPI DUP1 PUSH4 0x81812FC EQ PUSH2 0x20F JUMPI DUP1 PUSH4 0x95EA7B3 EQ PUSH2 0x23A JUMPI DUP1 PUSH4 0xAD0ABCE EQ PUSH2 0x24F JUMPI JUMPDEST PUSH1 0x0 DUP1 REVERT JUMPDEST PUSH2 0x1C1 PUSH2 0x1BC CALLDATASIZE PUSH1 0x4 PUSH2 0x29F6 JUMP JUMPDEST PUSH2 0x422 JUMP JUMPDEST PUSH1 0x40 MLOAD PUSH2 0x1CE SWAP2 SWAP1 PUSH2 0x2A9D JUMP JUMPDEST PUSH1 0x40 MLOAD DUP1 SWAP2 SUB SWAP1 RETURN JUMPDEST PUSH2 0x1EA PUSH2 0x1E5 CALLDATASIZE PUSH1 0x4 PUSH2 0x29BC JUMP JUMPDEST PUSH2 0x5F9 JUMP JUMPDEST PUSH1 0x40 MLOAD SWAP1 ISZERO ISZERO DUP2 MSTORE PUSH1 0x20 ADD PUSH2 0x1CE JUMP JUMPDEST PUSH2 0x202 PUSH2 0x60A JUMP JUMPDEST PUSH1 0x40 MLOAD PUSH2 0x1CE SWAP2 SWAP1 PUSH2 0x2BAC JUMP JUMPDEST PUSH2 0x222 PUSH2 0x21D CALLDATASIZE PUSH1 0x4 PUSH2 0x283E JUMP JUMPDEST PUSH2 0x69C JUMP JUMPDEST PUSH1 0x40 MLOAD PUSH1 0x1 PUSH1 0x1 PUSH1 0xA0 SHL SUB SWAP1 SWAP2 AND DUP2 MSTORE PUSH1 0x20 ADD PUSH2 0x1CE JUMP JUMPDEST PUSH2 0x24D PUSH2 0x248 CALLDATASIZE PUSH1 0x4 PUSH2 0x2814 JUMP JUMPDEST PUSH2 0x736 JUMP JUMPDEST STOP JUMPDEST PUSH2 0x24D PUSH2 0x25D CALLDATASIZE PUSH1 0x4 PUSH2 0x2940 JUMP JUMPDEST PUSH2 0x84C JUMP JUMPDEST PUSH1 0x99 SLOAD JUMPDEST PUSH1 0x40 MLOAD SWAP1 DUP2 MSTORE PUSH1 0x20 ADD PUSH2 0x1CE JUMP JUMPDEST PUSH2 0x24D PUSH2 0x282 CALLDATASIZE PUSH1 0x4 PUSH2 0x2720 JUMP JUMPDEST PUSH2 0x9E0 JUMP JUMPDEST PUSH2 0x266 PUSH2 0x295 CALLDATASIZE PUSH1 0x4 PUSH2 0x2814 JUMP JUMPDEST PUSH2 0xA11 JUMP JUMPDEST PUSH2 0x24D PUSH2 0x2A8 CALLDATASIZE PUSH1 0x4 PUSH2 0x2940 JUMP JUMPDEST PUSH2 0xAA7 JUMP JUMPDEST PUSH2 0x24D PUSH2 0x2BB CALLDATASIZE PUSH1 0x4 PUSH2 0x2720 JUMP JUMPDEST PUSH2 0xBA8 JUMP JUMPDEST PUSH2 0x266 PUSH2 0x2CE CALLDATASIZE PUSH1 0x4 PUSH2 0x283E JUMP JUMPDEST PUSH2 0xBC3 JUMP JUMPDEST PUSH2 0x24D PUSH2 0x2E1 CALLDATASIZE PUSH1 0x4 PUSH2 0x2857 JUMP JUMPDEST PUSH2 0xC56 JUMP JUMPDEST PUSH2 0x222 PUSH2 0x2F4 CALLDATASIZE PUSH1 0x4 PUSH2 0x283E JUMP JUMPDEST PUSH2 0xDA0 JUMP JUMPDEST PUSH2 0x30C PUSH2 0x307 CALLDATASIZE PUSH1 0x4 PUSH2 0x283E JUMP JUMPDEST PUSH2 0xE17 JUMP JUMPDEST PUSH1 0x40 MLOAD PUSH2 0x1CE SWAP2 SWAP1 PUSH2 0x2AE1 JUMP JUMPDEST PUSH2 0x266 PUSH2 0x327 CALLDATASIZE PUSH1 0x4 PUSH2 0x26CB JUMP JUMPDEST PUSH2 0xE32 JUMP JUMPDEST PUSH2 0x24D PUSH2 0xEB9 JUMP JUMPDEST PUSH2 0x202 PUSH2 0xF71 JUMP JUMPDEST PUSH2 0x34F PUSH2 0x34A CALLDATASIZE PUSH1 0x4 PUSH2 0x283E JUMP JUMPDEST PUSH2 0xF80 JUMP JUMPDEST PUSH1 0x40 MLOAD PUSH2 0x1CE SWAP5 SWAP4 SWAP3 SWAP2 SWAP1 PUSH2 0x2B43 JUMP JUMPDEST PUSH2 0x24D PUSH2 0x36D CALLDATASIZE PUSH1 0x4 PUSH2 0x27D8 JUMP JUMPDEST PUSH2 0x105A JUMP JUMPDEST PUSH2 0x24D PUSH2 0x380 CALLDATASIZE PUSH1 0x4 PUSH2 0x275C JUMP JUMPDEST PUSH2 0x111F JUMP JUMPDEST PUSH2 0x24D PUSH2 0x393 CALLDATASIZE PUSH1 0x4 PUSH2 0x283E JUMP JUMPDEST PUSH2 0x1157 JUMP JUMPDEST PUSH2 0x202 PUSH2 0x3A6 CALLDATASIZE PUSH1 0x4 PUSH2 0x283E JUMP JUMPDEST PUSH2 0x1257 JUMP JUMPDEST PUSH2 0x266 PUSH2 0x3B9 CALLDATASIZE PUSH1 0x4 PUSH2 0x283E JUMP JUMPDEST PUSH1 0x0 SWAP1 DUP2 MSTORE PUSH1 0xC9 PUSH1 0x20 MSTORE PUSH1 0x40 SWAP1 KECCAK256 SLOAD SWAP1 JUMP JUMPDEST PUSH2 0x24D PUSH2 0x3D9 CALLDATASIZE PUSH1 0x4 PUSH2 0x2857 JUMP JUMPDEST PUSH2 0x1330 JUMP JUMPDEST PUSH2 0x1C1 PUSH2 0x147A JUMP JUMPDEST PUSH2 0x1EA PUSH2 0x3F4 CALLDATASIZE PUSH1 0x4 PUSH2 0x26ED JUMP JUMPDEST PUSH1 0x1 PUSH1 0x1 PUSH1 0xA0 SHL SUB SWAP2 DUP3 AND PUSH1 0x0 SWAP1 DUP2 MSTORE PUSH1 0x6A PUSH1 0x20 SWAP1 DUP2 MSTORE PUSH1 0x40 DUP1 DUP4 KECCAK256 SWAP4 SWAP1 SWAP5 AND DUP3 MSTORE SWAP2 SWAP1 SWAP2 MSTORE KECCAK256 SLOAD PUSH1 0xFF AND SWAP1 JUMP JUMPDEST PUSH1 0x60 PUSH1 0x0 DUP3 PUSH8 0xFFFFFFFFFFFFFFFF DUP2 GT ISZERO PUSH2 0x43F JUMPI PUSH2 0x43F PUSH2 0x2DD4 JUMP JUMPDEST PUSH1 0x40 MLOAD SWAP1 DUP1 DUP3 MSTORE DUP1 PUSH1 0x20 MUL PUSH1 0x20 ADD DUP3 ADD PUSH1 0x40 MSTORE DUP1 ISZERO PUSH2 0x468 JUMPI DUP2 PUSH1 0x20 ADD PUSH1 0x20 DUP3 MUL DUP1 CALLDATASIZE DUP4 CALLDATACOPY ADD SWAP1 POP JUMPDEST POP SWAP1 POP PUSH1 0x0 DUP1 DUP6 JUMPDEST PUSH1 0xCC SLOAD DUP2 LT DUP1 ISZERO PUSH2 0x489 JUMPI POP PUSH2 0x486 DUP7 DUP9 PUSH2 0x2CE1 JUMP JUMPDEST DUP2 LT JUMPDEST ISZERO PUSH2 0x51F JUMPI PUSH1 0xCC DUP2 DUP2 SLOAD DUP2 LT PUSH2 0x4A1 JUMPI PUSH2 0x4A1 PUSH2 0x2DBE JUMP JUMPDEST SWAP1 PUSH1 0x0 MSTORE PUSH1 0x20 PUSH1 0x0 KECCAK256 ADD SLOAD DUP5 DUP5 DUP2 MLOAD DUP2 LT PUSH2 0x4BE JUMPI PUSH2 0x4BE PUSH2 0x2DBE JUMP JUMPDEST PUSH1 0x20 MUL PUSH1 0x20 ADD ADD DUP2 DUP2 MSTORE POP POP PUSH1 0x0 DUP1 SHL PUSH1 0xCC DUP3 DUP2 SLOAD DUP2 LT PUSH2 0x4E1 JUMPI PUSH2 0x4E1 PUSH2 0x2DBE JUMP JUMPDEST SWAP1 PUSH1 0x0 MSTORE PUSH1 0x20 PUSH1 0x0 KECCAK256 ADD SLOAD EQ PUSH2 0x4FF JUMPI DUP2 PUSH2 0x4FB DUP2 PUSH2 0x2D77 JUMP JUMPDEST SWAP3 POP POP JUMPDEST DUP3 PUSH2 0x509 DUP2 PUSH2 0x2D77 JUMP JUMPDEST SWAP4 POP POP DUP1 DUP1 PUSH2 0x517 SWAP1 PUSH2 0x2D77 JUMP JUMPDEST SWAP2 POP POP PUSH2 0x470 JUMP JUMPDEST POP DUP1 PUSH8 0xFFFFFFFFFFFFFFFF DUP2 GT ISZERO PUSH2 0x539 JUMPI PUSH2 0x539 PUSH2 0x2DD4 JUMP JUMPDEST PUSH1 0x40 MLOAD SWAP1 DUP1 DUP3 MSTORE DUP1 PUSH1 0x20 MUL PUSH1 0x20 ADD DUP3 ADD PUSH1 0x40 MSTORE DUP1 ISZERO PUSH2 0x562 JUMPI DUP2 PUSH1 0x20 ADD PUSH1 0x20 DUP3 MUL DUP1 CALLDATASIZE DUP4 CALLDATACOPY ADD SWAP1 POP JUMPDEST POP SWAP4 POP PUSH1 0x0 SWAP2 POP PUSH1 0x0 JUMPDEST DUP4 MLOAD DUP2 LT ISZERO PUSH2 0x5EF JUMPI PUSH1 0x0 DUP1 SHL DUP5 DUP3 DUP2 MLOAD DUP2 LT PUSH2 0x58B JUMPI PUSH2 0x58B PUSH2 0x2DBE JUMP JUMPDEST PUSH1 0x20 MUL PUSH1 0x20 ADD ADD MLOAD EQ PUSH2 0x5DD JUMPI DUP4 DUP2 DUP2 MLOAD DUP2 LT PUSH2 0x5AA JUMPI PUSH2 0x5AA PUSH2 0x2DBE JUMP JUMPDEST PUSH1 0x20 MUL PUSH1 0x20 ADD ADD MLOAD DUP6 DUP5 DUP2 MLOAD DUP2 LT PUSH2 0x5C4 JUMPI PUSH2 0x5C4 PUSH2 0x2DBE JUMP JUMPDEST PUSH1 0x20 SWAP1 DUP2 MUL SWAP2 SWAP1 SWAP2 ADD ADD MSTORE DUP3 PUSH2 0x5D9 DUP2 PUSH2 0x2D77 JUMP JUMPDEST SWAP4 POP POP JUMPDEST DUP1 PUSH2 0x5E7 DUP2 PUSH2 0x2D77 JUMP JUMPDEST SWAP2 POP POP PUSH2 0x56C JUMP JUMPDEST POP POP POP POP SWAP3 SWAP2 POP POP JUMP JUMPDEST PUSH1 0x0 PUSH2 0x604 DUP3 PUSH2 0x14D1 JUMP JUMPDEST SWAP3 SWAP2 POP POP JUMP JUMPDEST PUSH1 0x60 PUSH1 0x65 DUP1 SLOAD PUSH2 0x619 SWAP1 PUSH2 0x2D3C JUMP JUMPDEST DUP1 PUSH1 0x1F ADD PUSH1 0x20 DUP1 SWAP2 DIV MUL PUSH1 0x20 ADD PUSH1 0x40 MLOAD SWAP1 DUP2 ADD PUSH1 0x40 MSTORE DUP1 SWAP3 SWAP2 SWAP1 DUP2 DUP2 MSTORE PUSH1 0x20 ADD DUP3 DUP1 SLOAD PUSH2 0x645 SWAP1 PUSH2 0x2D3C JUMP JUMPDEST DUP1 ISZERO PUSH2 0x692 JUMPI DUP1 PUSH1 0x1F LT PUSH2 0x667 JUMPI PUSH2 0x100 DUP1 DUP4 SLOAD DIV MUL DUP4 MSTORE SWAP2 PUSH1 0x20 ADD SWAP2 PUSH2 0x692 JUMP JUMPDEST DUP3 ADD SWAP2 SWAP1 PUSH1 0x0 MSTORE PUSH1 0x20 PUSH1 0x0 KECCAK256 SWAP1 JUMPDEST DUP2 SLOAD DUP2 MSTORE SWAP1 PUSH1 0x1 ADD SWAP1 PUSH1 0x20 ADD DUP1 DUP4 GT PUSH2 0x675 JUMPI DUP3 SWAP1 SUB PUSH1 0x1F AND DUP3 ADD SWAP2 JUMPDEST POP POP POP POP POP SWAP1 POP SWAP1 JUMP JUMPDEST PUSH1 0x0 DUP2 DUP2 MSTORE PUSH1 0x67 PUSH1 0x20 MSTORE PUSH1 0x40 DUP2 KECCAK256 SLOAD PUSH1 0x1 PUSH1 0x1 PUSH1 0xA0 SHL SUB AND PUSH2 0x71A JUMPI PUSH1 0x40 MLOAD PUSH3 0x461BCD PUSH1 0xE5 SHL DUP2 MSTORE PUSH1 0x20 PUSH1 0x4 DUP3 ADD MSTORE PUSH1 0x2C PUSH1 0x24 DUP3 ADD MSTORE PUSH32 0x4552433732313A20617070726F76656420717565727920666F72206E6F6E6578 PUSH1 0x44 DUP3 ADD MSTORE PUSH12 0x34B9BA32B73A103A37B5B2B7 PUSH1 0xA1 SHL PUSH1 0x64 DUP3 ADD MSTORE PUSH1 0x84 ADD JUMPDEST PUSH1 0x40 MLOAD DUP1 SWAP2 SUB SWAP1 REVERT JUMPDEST POP PUSH1 0x0 SWAP1 DUP2 MSTORE PUSH1 0x69 PUSH1 0x20 MSTORE PUSH1 0x40 SWAP1 KECCAK256 SLOAD PUSH1 0x1 PUSH1 0x1 PUSH1 0xA0 SHL SUB AND SWAP1 JUMP JUMPDEST PUSH1 0x0 PUSH2 0x741 DUP3 PUSH2 0xDA0 JUMP JUMPDEST SWAP1 POP DUP1 PUSH1 0x1 PUSH1 0x1 PUSH1 0xA0 SHL SUB AND DUP4 PUSH1 0x1 PUSH1 0x1 PUSH1 0xA0 SHL SUB AND EQ ISZERO PUSH2 0x7AF JUMPI PUSH1 0x40 MLOAD PUSH3 0x461BCD PUSH1 0xE5 SHL DUP2 MSTORE PUSH1 0x20 PUSH1 0x4 DUP3 ADD MSTORE PUSH1 0x21 PUSH1 0x24 DUP3 ADD MSTORE PUSH32 0x4552433732313A20617070726F76616C20746F2063757272656E74206F776E65 PUSH1 0x44 DUP3 ADD MSTORE PUSH1 0x39 PUSH1 0xF9 SHL PUSH1 0x64 DUP3 ADD MSTORE PUSH1 0x84 ADD PUSH2 0x711 JUMP JUMPDEST CALLER PUSH1 0x1 PUSH1 0x1 PUSH1 0xA0 SHL SUB DUP3 AND EQ DUP1 PUSH2 0x7CB JUMPI POP PUSH2 0x7CB DUP2 CALLER PUSH2 0x3F4 JUMP JUMPDEST PUSH2 0x83D JUMPI PUSH1 0x40 MLOAD PUSH3 0x461BCD PUSH1 0xE5 SHL DUP2 MSTORE PUSH1 0x20 PUSH1 0x4 DUP3 ADD MSTORE PUSH1 0x38 PUSH1 0x24 DUP3 ADD MSTORE PUSH32 0x4552433732313A20617070726F76652063616C6C6572206973206E6F74206F77 PUSH1 0x44 DUP3 ADD MSTORE PUSH32 0x6E6572206E6F7220617070726F76656420666F7220616C6C0000000000000000 PUSH1 0x64 DUP3 ADD MSTORE PUSH1 0x84 ADD PUSH2 0x711 JUMP JUMPDEST PUSH2 0x847 DUP4 DUP4 PUSH2 0x14F6 JUMP JUMPDEST POP POP POP JUMP JUMPDEST DUP1 PUSH2 0x86A JUMPI PUSH1 0x40 MLOAD PUSH4 0x3F0E0A7F PUSH1 0xE2 SHL DUP2 MSTORE PUSH1 0x4 ADD PUSH1 0x40 MLOAD DUP1 SWAP2 SUB SWAP1 REVERT JUMPDEST PUSH1 0x0 CALLER PUSH1 0x40 MLOAD PUSH12 0xFFFFFFFFFFFFFFFFFFFFFFFF NOT PUSH1 0x60 DUP4 SWAP1 SHL AND PUSH1 0x20 DUP3 ADD MSTORE PUSH1 0x34 DUP2 ADD DUP7 SWAP1 MSTORE SWAP1 SWAP2 POP PUSH1 0x0 SWAP1 PUSH1 0x54 ADD PUSH1 0x40 DUP1 MLOAD PUSH1 0x1F NOT DUP2 DUP5 SUB ADD DUP2 MSTORE SWAP2 DUP2 MSTORE DUP2 MLOAD PUSH1 0x20 SWAP3 DUP4 ADD KECCAK256 PUSH1 0xCC DUP1 SLOAD PUSH1 0x1 DUP2 ADD SWAP1 SWAP2 SSTORE PUSH32 0x47197230E1E4B29FC0BD84D7D78966C0925452AFF72A2A121538B102457E9EBE ADD DUP2 SWAP1 SSTORE PUSH1 0x0 DUP2 DUP2 MSTORE PUSH1 0xC9 SWAP1 SWAP4 MSTORE SWAP2 KECCAK256 SLOAD SWAP1 SWAP2 POP ISZERO PUSH2 0x912 JUMPI PUSH1 0x40 MLOAD PUSH4 0x58DC9013 PUSH1 0xE0 SHL DUP2 MSTORE PUSH1 0x4 DUP2 ADD DUP3 SWAP1 MSTORE PUSH1 0x24 ADD PUSH2 0x711 JUMP JUMPDEST PUSH1 0x0 PUSH2 0x91D PUSH1 0x99 SLOAD SWAP1 JUMP JUMPDEST PUSH2 0x928 SWAP1 PUSH1 0x1 PUSH2 0x2CE1 JUMP JUMPDEST SWAP1 POP PUSH2 0x934 DUP4 DUP3 PUSH2 0x1564 JUMP JUMPDEST PUSH1 0x0 DUP3 DUP2 MSTORE PUSH1 0xC9 PUSH1 0x20 SWAP1 DUP2 MSTORE PUSH1 0x40 DUP1 DUP4 KECCAK256 DUP5 SWAP1 SSTORE DUP4 DUP4 MSTORE PUSH1 0xCA DUP3 MSTORE DUP1 DUP4 KECCAK256 DUP6 SWAP1 SSTORE PUSH1 0xCB SWAP1 SWAP2 MSTORE SWAP1 KECCAK256 PUSH2 0x967 SWAP1 DUP7 DUP7 PUSH2 0x24DE JUMP JUMPDEST POP PUSH1 0x40 MLOAD PUSH1 0x1 PUSH1 0x1 PUSH1 0xA0 SHL SUB DUP5 AND SWAP1 DUP4 SWAP1 PUSH32 0x49422F7AD2ECA08595F1596952D2D805B5D5BA06F8C371DCB617C86A5B42BA07 SWAP1 PUSH1 0x0 SWAP1 LOG3 DUP2 PUSH32 0x4E0249D19860DAEB2F0627D804CC93426E237CB754FEF478C3A6CBCBC2762657 DUP7 DUP7 PUSH1 0x40 MLOAD PUSH2 0x9D0 SWAP3 SWAP2 SWAP1 PUSH2 0x2B7D JUMP JUMPDEST PUSH1 0x40 MLOAD DUP1 SWAP2 SUB SWAP1 LOG2 POP POP POP POP POP POP JUMP JUMPDEST PUSH2 0x9EA CALLER DUP3 PUSH2 0x1582 JUMP JUMPDEST PUSH2 0xA06 JUMPI PUSH1 0x40 MLOAD PUSH3 0x461BCD PUSH1 0xE5 SHL DUP2 MSTORE PUSH1 0x4 ADD PUSH2 0x711 SWAP1 PUSH2 0x2C5F JUMP JUMPDEST PUSH2 0x847 DUP4 DUP4 DUP4 PUSH2 0x1679 JUMP JUMPDEST PUSH1 0x0 PUSH2 0xA1C DUP4 PUSH2 0xE32 JUMP JUMPDEST DUP3 LT PUSH2 0xA7E JUMPI PUSH1 0x40 MLOAD PUSH3 0x461BCD PUSH1 0xE5 SHL DUP2 MSTORE PUSH1 0x20 PUSH1 0x4 DUP3 ADD MSTORE PUSH1 0x2B PUSH1 0x24 DUP3 ADD MSTORE PUSH32 0x455243373231456E756D657261626C653A206F776E657220696E646578206F75 PUSH1 0x44 DUP3 ADD MSTORE PUSH11 0x74206F6620626F756E6473 PUSH1 0xA8 SHL PUSH1 0x64 DUP3 ADD MSTORE PUSH1 0x84 ADD PUSH2 0x711 JUMP JUMPDEST POP PUSH1 0x1 PUSH1 0x1 PUSH1 0xA0 SHL SUB SWAP2 SWAP1 SWAP2 AND PUSH1 0x0 SWAP1 DUP2 MSTORE PUSH1 0x97 PUSH1 0x20 SWAP1 DUP2 MSTORE PUSH1 0x40 DUP1 DUP4 KECCAK256 SWAP4 DUP4 MSTORE SWAP3 SWAP1 MSTORE KECCAK256 SLOAD SWAP1 JUMP JUMPDEST DUP3 DUP1 ISZERO DUP1 PUSH2 0xAC1 JUMPI POP PUSH1 0x0 DUP2 DUP2 MSTORE PUSH1 0xC9 PUSH1 0x20 MSTORE PUSH1 0x40 SWAP1 KECCAK256 SLOAD ISZERO JUMPDEST ISZERO PUSH2 0xAE2 JUMPI PUSH1 0x40 MLOAD PUSH4 0x87FE3AAD PUSH1 0xE0 SHL DUP2 MSTORE PUSH1 0x4 DUP2 ADD DUP3 SWAP1 MSTORE PUSH1 0x24 ADD PUSH2 0x711 JUMP JUMPDEST PUSH1 0x0 DUP2 DUP2 MSTORE PUSH1 0xC9 PUSH1 0x20 MSTORE PUSH1 0x40 SWAP1 KECCAK256 SLOAD CALLER SWAP1 PUSH2 0xAFC SWAP1 PUSH2 0xDA0 JUMP JUMPDEST PUSH1 0x1 PUSH1 0x1 PUSH1 0xA0 SHL SUB AND EQ PUSH2 0xB23 JUMPI PUSH1 0x40 MLOAD PUSH4 0x5612E54F PUSH1 0xE1 SHL DUP2 MSTORE PUSH1 0x4 ADD PUSH1 0x40 MLOAD DUP1 SWAP2 SUB SWAP1 REVERT JUMPDEST DUP2 PUSH2 0xB41 JUMPI PUSH1 0x40 MLOAD PUSH4 0x3F0E0A7F PUSH1 0xE2 SHL DUP2 MSTORE PUSH1 0x4 ADD PUSH1 0x40 MLOAD DUP1 SWAP2 SUB SWAP1 REVERT JUMPDEST PUSH1 0x0 DUP5 DUP2 MSTORE PUSH1 0xC9 PUSH1 0x20 SWAP1 DUP2 MSTORE PUSH1 0x40 DUP1 DUP4 KECCAK256 SLOAD DUP4 MSTORE PUSH1 0xCB SWAP1 SWAP2 MSTORE SWAP1 KECCAK256 PUSH2 0xB67 SWAP1 DUP5 DUP5 PUSH2 0x24DE JUMP JUMPDEST POP DUP4 PUSH32 0x4E0249D19860DAEB2F0627D804CC93426E237CB754FEF478C3A6CBCBC2762657 DUP5 DUP5 PUSH1 0x40 MLOAD PUSH2 0xB9A SWAP3 SWAP2 SWAP1 PUSH2 0x2B7D JUMP JUMPDEST PUSH1 0x40 MLOAD DUP1 SWAP2 SUB SWAP1 LOG2 POP POP POP POP JUMP JUMPDEST PUSH2 0x847 DUP4 DUP4 DUP4 PUSH1 0x40 MLOAD DUP1 PUSH1 0x20 ADD PUSH1 0x40 MSTORE DUP1 PUSH1 0x0 DUP2 MSTORE POP PUSH2 0x111F JUMP JUMPDEST PUSH1 0x0 PUSH2 0xBCE PUSH1 0x99 SLOAD SWAP1 JUMP JUMPDEST DUP3 LT PUSH2 0xC31 JUMPI PUSH1 0x40 MLOAD PUSH3 0x461BCD PUSH1 0xE5 SHL DUP2 MSTORE PUSH1 0x20 PUSH1 0x4 DUP3 ADD MSTORE PUSH1 0x2C PUSH1 0x24 DUP3 ADD MSTORE PUSH32 0x455243373231456E756D657261626C653A20676C6F62616C20696E646578206F PUSH1 0x44 DUP3 ADD MSTORE PUSH12 0x7574206F6620626F756E6473 PUSH1 0xA0 SHL PUSH1 0x64 DUP3 ADD MSTORE PUSH1 0x84 ADD PUSH2 0x711 JUMP JUMPDEST PUSH1 0x99 DUP3 DUP2 SLOAD DUP2 LT PUSH2 0xC44 JUMPI PUSH2 0xC44 PUSH2 0x2DBE JUMP JUMPDEST SWAP1 PUSH1 0x0 MSTORE PUSH1 0x20 PUSH1 0x0 KECCAK256 ADD SLOAD SWAP1 POP SWAP2 SWAP1 POP JUMP JUMPDEST DUP2 DUP1 ISZERO DUP1 PUSH2 0xC70 JUMPI POP PUSH1 0x0 DUP2 DUP2 MSTORE PUSH1 0xC9 PUSH1 0x20 MSTORE PUSH1 0x40 SWAP1 KECCAK256 SLOAD ISZERO JUMPDEST ISZERO PUSH2 0xC91 JUMPI PUSH1 0x40 MLOAD PUSH4 0x87FE3AAD PUSH1 0xE0 SHL DUP2 MSTORE PUSH1 0x4 DUP2 ADD DUP3 SWAP1 MSTORE PUSH1 0x24 ADD PUSH2 0x711 JUMP JUMPDEST PUSH1 0x0 DUP2 DUP2 MSTORE PUSH1 0xC9 PUSH1 0x20 MSTORE PUSH1 0x40 SWAP1 KECCAK256 SLOAD CALLER SWAP1 PUSH2 0xCAB SWAP1 PUSH2 0xDA0 JUMP JUMPDEST PUSH1 0x1 PUSH1 0x1 PUSH1 0xA0 SHL SUB AND EQ PUSH2 0xCD2 JUMPI PUSH1 0x40 MLOAD PUSH4 0x5612E54F PUSH1 0xE1 SHL DUP2 MSTORE PUSH1 0x4 ADD PUSH1 0x40 MLOAD DUP1 SWAP2 SUB SWAP1 REVERT JUMPDEST DUP2 MLOAD PUSH2 0xCF1 JUMPI PUSH1 0x40 MLOAD PUSH4 0x4816A767 PUSH1 0xE0 SHL DUP2 MSTORE PUSH1 0x4 ADD PUSH1 0x40 MLOAD DUP1 SWAP2 SUB SWAP1 REVERT JUMPDEST PUSH1 0x0 DUP1 JUMPDEST DUP4 MLOAD DUP2 LT ISZERO PUSH2 0xD6F JUMPI PUSH2 0xD3D DUP5 DUP3 DUP2 MLOAD DUP2 LT PUSH2 0xD13 JUMPI PUSH2 0xD13 PUSH2 0x2DBE JUMP JUMPDEST PUSH1 0x20 MUL PUSH1 0x20 ADD ADD MLOAD PUSH2 0x100 PUSH1 0x0 DUP9 DUP2 MSTORE PUSH1 0x20 ADD SWAP1 DUP2 MSTORE PUSH1 0x20 ADD PUSH1 0x0 KECCAK256 PUSH2 0x1824 SWAP1 SWAP2 SWAP1 PUSH4 0xFFFFFFFF AND JUMP JUMPDEST SWAP2 POP DUP2 PUSH2 0xD5D JUMPI PUSH1 0x40 MLOAD PUSH4 0x4816A767 PUSH1 0xE0 SHL DUP2 MSTORE PUSH1 0x4 ADD PUSH1 0x40 MLOAD DUP1 SWAP2 SUB SWAP1 REVERT JUMPDEST DUP1 PUSH2 0xD67 DUP2 PUSH2 0x2D77 JUMP JUMPDEST SWAP2 POP POP PUSH2 0xCF5 JUMP JUMPDEST POP DUP4 PUSH32 0x9AF1BF1F55D94DC29BFE249A6E5C1F9B82C06FEE0CDAEADA46F044B69F68C7CC DUP5 PUSH1 0x40 MLOAD PUSH2 0xB9A SWAP2 SWAP1 PUSH2 0x2AE1 JUMP JUMPDEST PUSH1 0x0 DUP2 DUP2 MSTORE PUSH1 0x67 PUSH1 0x20 MSTORE PUSH1 0x40 DUP2 KECCAK256 SLOAD PUSH1 0x1 PUSH1 0x1 PUSH1 0xA0 SHL SUB AND DUP1 PUSH2 0x604 JUMPI PUSH1 0x40 MLOAD PUSH3 0x461BCD PUSH1 0xE5 SHL DUP2 MSTORE PUSH1 0x20 PUSH1 0x4 DUP3 ADD MSTORE PUSH1 0x29 PUSH1 0x24 DUP3 ADD MSTORE PUSH32 0x4552433732313A206F776E657220717565727920666F72206E6F6E6578697374 PUSH1 0x44 DUP3 ADD MSTORE PUSH9 0x32B73A103A37B5B2B7 PUSH1 0xB9 SHL PUSH1 0x64 DUP3 ADD MSTORE PUSH1 0x84 ADD PUSH2 0x711 JUMP JUMPDEST PUSH1 0x0 DUP2 DUP2 MSTORE PUSH2 0x100 PUSH1 0x20 MSTORE PUSH1 0x40 SWAP1 KECCAK256 PUSH1 0x60 SWAP1 PUSH2 0x604 SWAP1 PUSH2 0x18D0 JUMP JUMPDEST PUSH1 0x0 PUSH1 0x1 PUSH1 0x1 PUSH1 0xA0 SHL SUB DUP3 AND PUSH2 0xE9D JUMPI PUSH1 0x40 MLOAD PUSH3 0x461BCD PUSH1 0xE5 SHL DUP2 MSTORE PUSH1 0x20 PUSH1 0x4 DUP3 ADD MSTORE PUSH1 0x2A PUSH1 0x24 DUP3 ADD MSTORE PUSH32 0x4552433732313A2062616C616E636520717565727920666F7220746865207A65 PUSH1 0x44 DUP3 ADD MSTORE PUSH10 0x726F2061646472657373 PUSH1 0xB0 SHL PUSH1 0x64 DUP3 ADD MSTORE PUSH1 0x84 ADD PUSH2 0x711 JUMP JUMPDEST POP PUSH1 0x1 PUSH1 0x1 PUSH1 0xA0 SHL SUB AND PUSH1 0x0 SWAP1 DUP2 MSTORE PUSH1 0x68 PUSH1 0x20 MSTORE PUSH1 0x40 SWAP1 KECCAK256 SLOAD SWAP1 JUMP JUMPDEST PUSH1 0x0 SLOAD PUSH2 0x100 SWAP1 DIV PUSH1 0xFF AND DUP1 PUSH2 0xED2 JUMPI POP PUSH1 0x0 SLOAD PUSH1 0xFF AND ISZERO JUMPDEST PUSH2 0xEEE JUMPI PUSH1 0x40 MLOAD PUSH3 0x461BCD PUSH1 0xE5 SHL DUP2 MSTORE PUSH1 0x4 ADD PUSH2 0x711 SWAP1 PUSH2 0x2C11 JUMP JUMPDEST PUSH1 0x0 SLOAD PUSH2 0x100 SWAP1 DIV PUSH1 0xFF AND ISZERO DUP1 ISZERO PUSH2 0xF10 JUMPI PUSH1 0x0 DUP1 SLOAD PUSH2 0xFFFF NOT AND PUSH2 0x101 OR SWAP1 SSTORE JUMPDEST PUSH2 0xF54 PUSH1 0x40 MLOAD DUP1 PUSH1 0x40 ADD PUSH1 0x40 MSTORE DUP1 PUSH1 0x5 DUP2 MSTORE PUSH1 0x20 ADD PUSH5 0x13D491DA51 PUSH1 0xDA SHL DUP2 MSTORE POP PUSH1 0x40 MLOAD DUP1 PUSH1 0x40 ADD PUSH1 0x40 MSTORE DUP1 PUSH1 0x5 DUP2 MSTORE PUSH1 0x20 ADD PUSH5 0x13D491DA51 PUSH1 0xDA SHL DUP2 MSTORE POP PUSH2 0x19AD JUMP JUMPDEST PUSH2 0xF5C PUSH2 0x1A34 JUMP JUMPDEST DUP1 ISZERO PUSH2 0xF6E JUMPI PUSH1 0x0 DUP1 SLOAD PUSH2 0xFF00 NOT AND SWAP1 SSTORE JUMPDEST POP JUMP JUMPDEST PUSH1 0x60 PUSH1 0x66 DUP1 SLOAD PUSH2 0x619 SWAP1 PUSH2 0x2D3C JUMP JUMPDEST PUSH1 0x0 DUP2 DUP2 MSTORE PUSH1 0xCA PUSH1 0x20 SWAP1 DUP2 MSTORE PUSH1 0x40 DUP1 DUP4 KECCAK256 SLOAD PUSH1 0x67 SWAP1 SWAP3 MSTORE DUP3 KECCAK256 SLOAD PUSH1 0x1 PUSH1 0x1 PUSH1 0xA0 SHL SUB AND ISZERO DUP1 ISZERO SWAP3 PUSH1 0x60 SWAP2 PUSH2 0x1053 JUMPI PUSH1 0x0 DUP6 DUP2 MSTORE PUSH1 0xCB PUSH1 0x20 MSTORE PUSH1 0x40 SWAP1 KECCAK256 DUP1 SLOAD PUSH2 0xFC7 SWAP1 PUSH2 0x2D3C JUMP JUMPDEST DUP1 PUSH1 0x1F ADD PUSH1 0x20 DUP1 SWAP2 DIV MUL PUSH1 0x20 ADD PUSH1 0x40 MLOAD SWAP1 DUP2 ADD PUSH1 0x40 MSTORE DUP1 SWAP3 SWAP2 SWAP1 DUP2 DUP2 MSTORE PUSH1 0x20 ADD DUP3 DUP1 SLOAD PUSH2 0xFF3 SWAP1 PUSH2 0x2D3C JUMP JUMPDEST DUP1 ISZERO PUSH2 0x1040 JUMPI DUP1 PUSH1 0x1F LT PUSH2 0x1015 JUMPI PUSH2 0x100 DUP1 DUP4 SLOAD DIV MUL DUP4 MSTORE SWAP2 PUSH1 0x20 ADD SWAP2 PUSH2 0x1040 JUMP JUMPDEST DUP3 ADD SWAP2 SWAP1 PUSH1 0x0 MSTORE PUSH1 0x20 PUSH1 0x0 KECCAK256 SWAP1 JUMPDEST DUP2 SLOAD DUP2 MSTORE SWAP1 PUSH1 0x1 ADD SWAP1 PUSH1 0x20 ADD DUP1 DUP4 GT PUSH2 0x1023 JUMPI DUP3 SWAP1 SUB PUSH1 0x1F AND DUP3 ADD SWAP2 JUMPDEST POP POP POP POP POP SWAP2 POP PUSH2 0x1050 DUP6 PUSH2 0xDA0 JUMP JUMPDEST SWAP1 POP JUMPDEST SWAP2 SWAP4 POP SWAP2 SWAP4 JUMP JUMPDEST PUSH1 0x1 PUSH1 0x1 PUSH1 0xA0 SHL SUB DUP3 AND CALLER EQ ISZERO PUSH2 0x10B3 JUMPI PUSH1 0x40 MLOAD PUSH3 0x461BCD PUSH1 0xE5 SHL DUP2 MSTORE PUSH1 0x20 PUSH1 0x4 DUP3 ADD MSTORE PUSH1 0x19 PUSH1 0x24 DUP3 ADD MSTORE PUSH32 0x4552433732313A20617070726F766520746F2063616C6C657200000000000000 PUSH1 0x44 DUP3 ADD MSTORE PUSH1 0x64 ADD PUSH2 0x711 JUMP JUMPDEST CALLER PUSH1 0x0 DUP2 DUP2 MSTORE PUSH1 0x6A PUSH1 0x20 SWAP1 DUP2 MSTORE PUSH1 0x40 DUP1 DUP4 KECCAK256 PUSH1 0x1 PUSH1 0x1 PUSH1 0xA0 SHL SUB DUP8 AND DUP1 DUP6 MSTORE SWAP1 DUP4 MSTORE SWAP3 DUP2 SWAP1 KECCAK256 DUP1 SLOAD PUSH1 0xFF NOT AND DUP7 ISZERO ISZERO SWAP1 DUP2 OR SWAP1 SWAP2 SSTORE SWAP1 MLOAD SWAP1 DUP2 MSTORE SWAP2 SWAP3 SWAP2 PUSH32 0x17307EAB39AB6107E8899845AD3D59BD9653F200F220920489CA2B5937696C31 SWAP2 ADD PUSH1 0x40 MLOAD DUP1 SWAP2 SUB SWAP1 LOG3 POP POP JUMP JUMPDEST PUSH2 0x1129 CALLER DUP4 PUSH2 0x1582 JUMP JUMPDEST PUSH2 0x1145 JUMPI PUSH1 0x40 MLOAD PUSH3 0x461BCD PUSH1 0xE5 SHL DUP2 MSTORE PUSH1 0x4 ADD PUSH2 0x711 SWAP1 PUSH2 0x2C5F JUMP JUMPDEST PUSH2 0x1151 DUP5 DUP5 DUP5 DUP5 PUSH2 0x1A93 JUMP JUMPDEST POP POP POP POP JUMP JUMPDEST DUP1 DUP1 ISZERO DUP1 PUSH2 0x1171 JUMPI POP PUSH1 0x0 DUP2 DUP2 MSTORE PUSH1 0xC9 PUSH1 0x20 MSTORE PUSH1 0x40 SWAP1 KECCAK256 SLOAD ISZERO JUMPDEST ISZERO PUSH2 0x1192 JUMPI PUSH1 0x40 MLOAD PUSH4 0x87FE3AAD PUSH1 0xE0 SHL DUP2 MSTORE PUSH1 0x4 DUP2 ADD DUP3 SWAP1 MSTORE PUSH1 0x24 ADD PUSH2 0x711 JUMP JUMPDEST PUSH1 0x0 DUP2 DUP2 MSTORE PUSH1 0xC9 PUSH1 0x20 MSTORE PUSH1 0x40 SWAP1 KECCAK256 SLOAD CALLER SWAP1 PUSH2 0x11AC SWAP1 PUSH2 0xDA0 JUMP JUMPDEST PUSH1 0x1 PUSH1 0x1 PUSH1 0xA0 SHL SUB AND EQ PUSH2 0x11D3 JUMPI PUSH1 0x40 MLOAD PUSH4 0x5612E54F PUSH1 0xE1 SHL DUP2 MSTORE PUSH1 0x4 ADD PUSH1 0x40 MLOAD DUP1 SWAP2 SUB SWAP1 REVERT JUMPDEST PUSH1 0x0 DUP3 DUP2 MSTORE PUSH2 0x100 PUSH1 0x20 MSTORE PUSH1 0x40 DUP2 KECCAK256 PUSH2 0x11EB SWAP1 PUSH2 0x18D0 JUMP JUMPDEST PUSH1 0x0 DUP5 DUP2 MSTORE PUSH2 0x100 PUSH1 0x20 MSTORE PUSH1 0x40 DUP2 KECCAK256 SWAP2 SWAP3 POP SWAP1 PUSH2 0x1207 SWAP1 PUSH2 0x1AC6 JUMP JUMPDEST SWAP1 POP DUP1 PUSH2 0x1227 JUMPI PUSH1 0x40 MLOAD PUSH4 0x4816A767 PUSH1 0xE0 SHL DUP2 MSTORE PUSH1 0x4 ADD PUSH1 0x40 MLOAD DUP1 SWAP2 SUB SWAP1 REVERT JUMPDEST DUP4 PUSH32 0xB3C3B87D0EA8237B590C2DBF7D3ACF90E54A40CF0EF1E4C0D948736E1FABD8A9 DUP4 PUSH1 0x40 MLOAD PUSH2 0xB9A SWAP2 SWAP1 PUSH2 0x2AE1 JUMP JUMPDEST PUSH1 0x0 DUP2 DUP2 MSTORE PUSH1 0x67 PUSH1 0x20 MSTORE PUSH1 0x40 SWAP1 KECCAK256 SLOAD PUSH1 0x60 SWAP1 PUSH1 0x1 PUSH1 0x1 PUSH1 0xA0 SHL SUB AND PUSH2 0x1292 JUMPI PUSH1 0x40 MLOAD PUSH4 0x6CAEB13 PUSH1 0xE4 SHL DUP2 MSTORE PUSH1 0x4 DUP2 ADD DUP4 SWAP1 MSTORE PUSH1 0x24 ADD PUSH2 0x711 JUMP JUMPDEST PUSH1 0x0 DUP3 DUP2 MSTORE PUSH1 0xCB PUSH1 0x20 MSTORE PUSH1 0x40 SWAP1 KECCAK256 DUP1 SLOAD PUSH2 0x12AB SWAP1 PUSH2 0x2D3C JUMP JUMPDEST DUP1 PUSH1 0x1F ADD PUSH1 0x20 DUP1 SWAP2 DIV MUL PUSH1 0x20 ADD PUSH1 0x40 MLOAD SWAP1 DUP2 ADD PUSH1 0x40 MSTORE DUP1 SWAP3 SWAP2 SWAP1 DUP2 DUP2 MSTORE PUSH1 0x20 ADD DUP3 DUP1 SLOAD PUSH2 0x12D7 SWAP1 PUSH2 0x2D3C JUMP JUMPDEST DUP1 ISZERO PUSH2 0x1324 JUMPI DUP1 PUSH1 0x1F LT PUSH2 0x12F9 JUMPI PUSH2 0x100 DUP1 DUP4 SLOAD DIV MUL DUP4 MSTORE SWAP2 PUSH1 0x20 ADD SWAP2 PUSH2 0x1324 JUMP JUMPDEST DUP3 ADD SWAP2 SWAP1 PUSH1 0x0 MSTORE PUSH1 0x20 PUSH1 0x0 KECCAK256 SWAP1 JUMPDEST DUP2 SLOAD DUP2 MSTORE SWAP1 PUSH1 0x1 ADD SWAP1 PUSH1 0x20 ADD DUP1 DUP4 GT PUSH2 0x1307 JUMPI DUP3 SWAP1 SUB PUSH1 0x1F AND DUP3 ADD SWAP2 JUMPDEST POP POP POP POP POP SWAP1 POP SWAP2 SWAP1 POP JUMP JUMPDEST DUP2 DUP1 ISZERO DUP1 PUSH2 0x134A JUMPI POP PUSH1 0x0 DUP2 DUP2 MSTORE PUSH1 0xC9 PUSH1 0x20 MSTORE PUSH1 0x40 SWAP1 KECCAK256 SLOAD ISZERO JUMPDEST ISZERO PUSH2 0x136B JUMPI PUSH1 0x40 MLOAD PUSH4 0x87FE3AAD PUSH1 0xE0 SHL DUP2 MSTORE PUSH1 0x4 DUP2 ADD DUP3 SWAP1 MSTORE PUSH1 0x24 ADD PUSH2 0x711 JUMP JUMPDEST PUSH1 0x0 DUP2 DUP2 MSTORE PUSH1 0xC9 PUSH1 0x20 MSTORE PUSH1 0x40 SWAP1 KECCAK256 SLOAD CALLER SWAP1 PUSH2 0x1385 SWAP1 PUSH2 0xDA0 JUMP JUMPDEST PUSH1 0x1 PUSH1 0x1 PUSH1 0xA0 SHL SUB AND EQ PUSH2 0x13AC JUMPI PUSH1 0x40 MLOAD PUSH4 0x5612E54F PUSH1 0xE1 SHL DUP2 MSTORE PUSH1 0x4 ADD PUSH1 0x40 MLOAD DUP1 SWAP2 SUB SWAP1 REVERT JUMPDEST DUP2 MLOAD PUSH2 0x13CB JUMPI PUSH1 0x40 MLOAD PUSH4 0x4816A767 PUSH1 0xE0 SHL DUP2 MSTORE PUSH1 0x4 ADD PUSH1 0x40 MLOAD DUP1 SWAP2 SUB SWAP1 REVERT JUMPDEST PUSH1 0x0 DUP1 JUMPDEST DUP4 MLOAD DUP2 LT ISZERO PUSH2 0x1449 JUMPI PUSH2 0x1417 DUP5 DUP3 DUP2 MLOAD DUP2 LT PUSH2 0x13ED JUMPI PUSH2 0x13ED PUSH2 0x2DBE JUMP JUMPDEST PUSH1 0x20 MUL PUSH1 0x20 ADD ADD MLOAD PUSH2 0x100 PUSH1 0x0 DUP9 DUP2 MSTORE PUSH1 0x20 ADD SWAP1 DUP2 MSTORE PUSH1 0x20 ADD PUSH1 0x0 KECCAK256 PUSH2 0x1BEA SWAP1 SWAP2 SWAP1 PUSH4 0xFFFFFFFF AND JUMP JUMPDEST SWAP2 POP DUP2 PUSH2 0x1437 JUMPI PUSH1 0x40 MLOAD PUSH4 0x4816A767 PUSH1 0xE0 SHL DUP2 MSTORE PUSH1 0x4 ADD PUSH1 0x40 MLOAD DUP1 SWAP2 SUB SWAP1 REVERT JUMPDEST DUP1 PUSH2 0x1441 DUP2 PUSH2 0x2D77 JUMP JUMPDEST SWAP2 POP POP PUSH2 0x13CF JUMP JUMPDEST POP DUP4 PUSH32 0xB3C3B87D0EA8237B590C2DBF7D3ACF90E54A40CF0EF1E4C0D948736E1FABD8A9 DUP5 PUSH1 0x40 MLOAD PUSH2 0xB9A SWAP2 SWAP1 PUSH2 0x2AE1 JUMP JUMPDEST PUSH1 0x60 PUSH1 0xCC DUP1 SLOAD DUP1 PUSH1 0x20 MUL PUSH1 0x20 ADD PUSH1 0x40 MLOAD SWAP1 DUP2 ADD PUSH1 0x40 MSTORE DUP1 SWAP3 SWAP2 SWAP1 DUP2 DUP2 MSTORE PUSH1 0x20 ADD DUP3 DUP1 SLOAD DUP1 ISZERO PUSH2 0x692 JUMPI PUSH1 0x20 MUL DUP3 ADD SWAP2 SWAP1 PUSH1 0x0 MSTORE PUSH1 0x20 PUSH1 0x0 KECCAK256 SWAP1 JUMPDEST DUP2 SLOAD DUP2 MSTORE PUSH1 0x20 ADD SWAP1 PUSH1 0x1 ADD SWAP1 DUP1 DUP4 GT PUSH2 0x14B4 JUMPI POP POP POP POP POP SWAP1 POP SWAP1 JUMP JUMPDEST PUSH1 0x0 PUSH1 0x1 PUSH1 0x1 PUSH1 0xE0 SHL SUB NOT DUP3 AND PUSH4 0x5DEABE77 PUSH1 0xE0 SHL EQ DUP1 PUSH2 0x604 JUMPI POP PUSH2 0x604 DUP3 PUSH2 0x1DD0 JUMP JUMPDEST PUSH1 0x0 DUP2 DUP2 MSTORE PUSH1 0x69 PUSH1 0x20 MSTORE PUSH1 0x40 SWAP1 KECCAK256 DUP1 SLOAD PUSH1 0x1 PUSH1 0x1 PUSH1 0xA0 SHL SUB NOT AND PUSH1 0x1 PUSH1 0x1 PUSH1 0xA0 SHL SUB DUP5 AND SWAP1 DUP2 OR SWAP1 SWAP2 SSTORE DUP2 SWAP1 PUSH2 0x152B DUP3 PUSH2 0xDA0 JUMP JUMPDEST PUSH1 0x1 PUSH1 0x1 PUSH1 0xA0 SHL SUB AND PUSH32 0x8C5BE1E5EBEC7D5BD14F71427D1E84F3DD0314C0F7B2291E5B200AC8C7C3B925 PUSH1 0x40 MLOAD PUSH1 0x40 MLOAD DUP1 SWAP2 SUB SWAP1 LOG4 POP POP JUMP JUMPDEST PUSH2 0x157E DUP3 DUP3 PUSH1 0x40 MLOAD DUP1 PUSH1 0x20 ADD PUSH1 0x40 MSTORE DUP1 PUSH1 0x0 DUP2 MSTORE POP PUSH2 0x1DF5 JUMP JUMPDEST POP POP JUMP JUMPDEST PUSH1 0x0 DUP2 DUP2 MSTORE PUSH1 0x67 PUSH1 0x20 MSTORE PUSH1 0x40 DUP2 KECCAK256 SLOAD PUSH1 0x1 PUSH1 0x1 PUSH1 0xA0 SHL SUB AND PUSH2 0x15FB JUMPI PUSH1 0x40 MLOAD PUSH3 0x461BCD PUSH1 0xE5 SHL DUP2 MSTORE PUSH1 0x20 PUSH1 0x4 DUP3 ADD MSTORE PUSH1 0x2C PUSH1 0x24 DUP3 ADD MSTORE PUSH32 0x4552433732313A206F70657261746F7220717565727920666F72206E6F6E6578 PUSH1 0x44 DUP3 ADD MSTORE PUSH12 0x34B9BA32B73A103A37B5B2B7 PUSH1 0xA1 SHL PUSH1 0x64 DUP3 ADD MSTORE PUSH1 0x84 ADD PUSH2 0x711 JUMP JUMPDEST PUSH1 0x0 PUSH2 0x1606 DUP4 PUSH2 0xDA0 JUMP JUMPDEST SWAP1 POP DUP1 PUSH1 0x1 PUSH1 0x1 PUSH1 0xA0 SHL SUB AND DUP5 PUSH1 0x1 PUSH1 0x1 PUSH1 0xA0 SHL SUB AND EQ DUP1 PUSH2 0x1641 JUMPI POP DUP4 PUSH1 0x1 PUSH1 0x1 PUSH1 0xA0 SHL SUB AND PUSH2 0x1636 DUP5 PUSH2 0x69C JUMP JUMPDEST PUSH1 0x1 PUSH1 0x1 PUSH1 0xA0 SHL SUB AND EQ JUMPDEST DUP1 PUSH2 0x1671 JUMPI POP PUSH1 0x1 PUSH1 0x1 PUSH1 0xA0 SHL SUB DUP1 DUP3 AND PUSH1 0x0 SWAP1 DUP2 MSTORE PUSH1 0x6A PUSH1 0x20 SWAP1 DUP2 MSTORE PUSH1 0x40 DUP1 DUP4 KECCAK256 SWAP4 DUP9 AND DUP4 MSTORE SWAP3 SWAP1 MSTORE KECCAK256 SLOAD PUSH1 0xFF AND JUMPDEST SWAP5 SWAP4 POP POP POP POP JUMP JUMPDEST DUP3 PUSH1 0x1 PUSH1 0x1 PUSH1 0xA0 SHL SUB AND PUSH2 0x168C DUP3 PUSH2 0xDA0 JUMP JUMPDEST PUSH1 0x1 PUSH1 0x1 PUSH1 0xA0 SHL SUB AND EQ PUSH2 0x16F4 JUMPI PUSH1 0x40 MLOAD PUSH3 0x461BCD PUSH1 0xE5 SHL DUP2 MSTORE PUSH1 0x20 PUSH1 0x4 DUP3 ADD MSTORE PUSH1 0x29 PUSH1 0x24 DUP3 ADD MSTORE PUSH32 0x4552433732313A207472616E73666572206F6620746F6B656E20746861742069 PUSH1 0x44 DUP3 ADD MSTORE PUSH9 0x39903737BA1037BBB7 PUSH1 0xB9 SHL PUSH1 0x64 DUP3 ADD MSTORE PUSH1 0x84 ADD PUSH2 0x711 JUMP JUMPDEST PUSH1 0x1 PUSH1 0x1 PUSH1 0xA0 SHL SUB DUP3 AND PUSH2 0x1756 JUMPI PUSH1 0x40 MLOAD PUSH3 0x461BCD PUSH1 0xE5 SHL DUP2 MSTORE PUSH1 0x20 PUSH1 0x4 DUP3 ADD MSTORE PUSH1 0x24 DUP1 DUP3 ADD MSTORE PUSH32 0x4552433732313A207472616E7366657220746F20746865207A65726F20616464 PUSH1 0x44 DUP3 ADD MSTORE PUSH4 0x72657373 PUSH1 0xE0 SHL PUSH1 0x64 DUP3 ADD MSTORE PUSH1 0x84 ADD PUSH2 0x711 JUMP JUMPDEST PUSH2 0x1761 DUP4 DUP4 DUP4 PUSH2 0x1E28 JUMP JUMPDEST PUSH2 0x176C PUSH1 0x0 DUP3 PUSH2 0x14F6 JUMP JUMPDEST PUSH1 0x1 PUSH1 0x1 PUSH1 0xA0 SHL SUB DUP4 AND PUSH1 0x0 SWAP1 DUP2 MSTORE PUSH1 0x68 PUSH1 0x20 MSTORE PUSH1 0x40 DUP2 KECCAK256 DUP1 SLOAD PUSH1 0x1 SWAP3 SWAP1 PUSH2 0x1795 SWAP1 DUP5 SWAP1 PUSH2 0x2CF9 JUMP JUMPDEST SWAP1 SWAP2 SSTORE POP POP PUSH1 0x1 PUSH1 0x1 PUSH1 0xA0 SHL SUB DUP3 AND PUSH1 0x0 SWAP1 DUP2 MSTORE PUSH1 0x68 PUSH1 0x20 MSTORE PUSH1 0x40 DUP2 KECCAK256 DUP1 SLOAD PUSH1 0x1 SWAP3 SWAP1 PUSH2 0x17C3 SWAP1 DUP5 SWAP1 PUSH2 0x2CE1 JUMP JUMPDEST SWAP1 SWAP2 SSTORE POP POP PUSH1 0x0 DUP2 DUP2 MSTORE PUSH1 0x67 PUSH1 0x20 MSTORE PUSH1 0x40 DUP1 DUP3 KECCAK256 DUP1 SLOAD PUSH1 0x1 PUSH1 0x1 PUSH1 0xA0 SHL SUB NOT AND PUSH1 0x1 PUSH1 0x1 PUSH1 0xA0 SHL SUB DUP7 DUP2 AND SWAP2 DUP3 OR SWAP1 SWAP3 SSTORE SWAP2 MLOAD DUP5 SWAP4 SWAP2 DUP8 AND SWAP2 PUSH32 0xDDF252AD1BE2C89B69C2B068FC378DAA952BA7F163C4A11628F55A4DF523B3EF SWAP2 LOG4 POP POP POP JUMP JUMPDEST PUSH1 0x0 DUP2 MLOAD PUSH1 0x0 EQ ISZERO PUSH2 0x1838 JUMPI POP PUSH1 0x0 PUSH2 0x604 JUMP JUMPDEST PUSH1 0x0 PUSH2 0x1843 DUP4 PUSH2 0x1EE0 JUMP JUMPDEST PUSH1 0x0 DUP2 DUP2 MSTORE PUSH1 0x1 DUP7 ADD PUSH1 0x20 MSTORE PUSH1 0x40 SWAP1 KECCAK256 SLOAD SWAP1 SWAP2 POP PUSH1 0xFF AND PUSH2 0x18B5 JUMPI PUSH1 0x0 DUP2 DUP2 MSTORE PUSH1 0x1 DUP6 DUP2 ADD PUSH1 0x20 SWAP1 DUP2 MSTORE PUSH1 0x40 DUP1 DUP5 KECCAK256 DUP1 SLOAD PUSH1 0xFF NOT AND DUP5 OR SWAP1 SSTORE DUP8 SLOAD PUSH1 0x2 DUP10 ADD DUP4 MSTORE SWAP1 DUP5 KECCAK256 DUP2 SWAP1 SSTORE SWAP2 DUP3 ADD DUP8 SSTORE DUP7 DUP4 MSTORE SWAP2 DUP3 SWAP1 KECCAK256 DUP6 MLOAD PUSH2 0x18AA SWAP4 SWAP2 SWAP1 SWAP3 ADD SWAP2 SWAP1 DUP7 ADD SWAP1 PUSH2 0x2562 JUMP JUMPDEST POP PUSH1 0x1 SWAP2 POP POP PUSH2 0x604 JUMP JUMPDEST PUSH1 0x0 SWAP1 DUP2 MSTORE PUSH1 0x1 DUP5 ADD PUSH1 0x20 MSTORE PUSH1 0x40 SWAP1 KECCAK256 SLOAD PUSH1 0xFF AND SWAP1 POP PUSH2 0x604 JUMP JUMPDEST PUSH1 0x60 DUP2 PUSH1 0x0 ADD DUP1 SLOAD DUP1 PUSH1 0x20 MUL PUSH1 0x20 ADD PUSH1 0x40 MLOAD SWAP1 DUP2 ADD PUSH1 0x40 MSTORE DUP1 SWAP3 SWAP2 SWAP1 DUP2 DUP2 MSTORE PUSH1 0x20 ADD PUSH1 0x0 SWAP1 JUMPDEST DUP3 DUP3 LT ISZERO PUSH2 0x19A2 JUMPI DUP4 DUP3 SWAP1 PUSH1 0x0 MSTORE PUSH1 0x20 PUSH1 0x0 KECCAK256 ADD DUP1 SLOAD PUSH2 0x1915 SWAP1 PUSH2 0x2D3C JUMP JUMPDEST DUP1 PUSH1 0x1F ADD PUSH1 0x20 DUP1 SWAP2 DIV MUL PUSH1 0x20 ADD PUSH1 0x40 MLOAD SWAP1 DUP2 ADD PUSH1 0x40 MSTORE DUP1 SWAP3 SWAP2 SWAP1 DUP2 DUP2 MSTORE PUSH1 0x20 ADD DUP3 DUP1 SLOAD PUSH2 0x1941 SWAP1 PUSH2 0x2D3C JUMP JUMPDEST DUP1 ISZERO PUSH2 0x198E JUMPI DUP1 PUSH1 0x1F LT PUSH2 0x1963 JUMPI PUSH2 0x100 DUP1 DUP4 SLOAD DIV MUL DUP4 MSTORE SWAP2 PUSH1 0x20 ADD SWAP2 PUSH2 0x198E JUMP JUMPDEST DUP3 ADD SWAP2 SWAP1 PUSH1 0x0 MSTORE PUSH1 0x20 PUSH1 0x0 KECCAK256 SWAP1 JUMPDEST DUP2 SLOAD DUP2 MSTORE SWAP1 PUSH1 0x1 ADD SWAP1 PUSH1 0x20 ADD DUP1 DUP4 GT PUSH2 0x1971 JUMPI DUP3 SWAP1 SUB PUSH1 0x1F AND DUP3 ADD SWAP2 JUMPDEST POP POP POP POP POP DUP2 MSTORE PUSH1 0x20 ADD SWAP1 PUSH1 0x1 ADD SWAP1 PUSH2 0x18F6 JUMP JUMPDEST POP POP POP POP SWAP1 POP SWAP2 SWAP1 POP JUMP JUMPDEST PUSH1 0x0 SLOAD PUSH2 0x100 SWAP1 DIV PUSH1 0xFF AND DUP1 PUSH2 0x19C6 JUMPI POP PUSH1 0x0 SLOAD PUSH1 0xFF AND ISZERO JUMPDEST PUSH2 0x19E2 JUMPI PUSH1 0x40 MLOAD PUSH3 0x461BCD PUSH1 0xE5 SHL DUP2 MSTORE PUSH1 0x4 ADD PUSH2 0x711 SWAP1 PUSH2 0x2C11 JUMP JUMPDEST PUSH1 0x0 SLOAD PUSH2 0x100 SWAP1 DIV PUSH1 0xFF AND ISZERO DUP1 ISZERO PUSH2 0x1A04 JUMPI PUSH1 0x0 DUP1 SLOAD PUSH2 0xFFFF NOT AND PUSH2 0x101 OR SWAP1 SSTORE JUMPDEST PUSH2 0x1A0C PUSH2 0x1F10 JUMP JUMPDEST PUSH2 0x1A14 PUSH2 0x1F10 JUMP JUMPDEST PUSH2 0x1A1E DUP4 DUP4 PUSH2 0x1F7A JUMP JUMPDEST DUP1 ISZERO PUSH2 0x847 JUMPI PUSH1 0x0 DUP1 SLOAD PUSH2 0xFF00 NOT AND SWAP1 SSTORE POP POP POP JUMP JUMPDEST PUSH1 0x0 SLOAD PUSH2 0x100 SWAP1 DIV PUSH1 0xFF AND DUP1 PUSH2 0x1A4D JUMPI POP PUSH1 0x0 SLOAD PUSH1 0xFF AND ISZERO JUMPDEST PUSH2 0x1A69 JUMPI PUSH1 0x40 MLOAD PUSH3 0x461BCD PUSH1 0xE5 SHL DUP2 MSTORE PUSH1 0x4 ADD PUSH2 0x711 SWAP1 PUSH2 0x2C11 JUMP JUMPDEST PUSH1 0x0 SLOAD PUSH2 0x100 SWAP1 DIV PUSH1 0xFF AND ISZERO DUP1 ISZERO PUSH2 0x1A8B JUMPI PUSH1 0x0 DUP1 SLOAD PUSH2 0xFFFF NOT AND PUSH2 0x101 OR SWAP1 SSTORE JUMPDEST PUSH2 0xF5C PUSH2 0x200F JUMP JUMPDEST PUSH2 0x1A9E DUP5 DUP5 DUP5 PUSH2 0x1679 JUMP JUMPDEST PUSH2 0x1AAA DUP5 DUP5 DUP5 DUP5 PUSH2 0x207E JUMP JUMPDEST PUSH2 0x1151 JUMPI PUSH1 0x40 MLOAD PUSH3 0x461BCD PUSH1 0xE5 SHL DUP2 MSTORE PUSH1 0x4 ADD PUSH2 0x711 SWAP1 PUSH2 0x2BBF JUMP JUMPDEST DUP1 SLOAD PUSH1 0x0 SWAP1 ISZERO PUSH2 0x1BDD JUMPI PUSH1 0x0 DUP1 JUMPDEST DUP4 SLOAD DUP2 LT ISZERO PUSH2 0x1BC8 JUMPI PUSH2 0x1B8D DUP5 PUSH1 0x0 ADD DUP3 DUP2 SLOAD DUP2 LT PUSH2 0x1AF5 JUMPI PUSH2 0x1AF5 PUSH2 0x2DBE JUMP JUMPDEST SWAP1 PUSH1 0x0 MSTORE PUSH1 0x20 PUSH1 0x0 KECCAK256 ADD DUP1 SLOAD PUSH2 0x1B0A SWAP1 PUSH2 0x2D3C JUMP JUMPDEST DUP1 PUSH1 0x1F ADD PUSH1 0x20 DUP1 SWAP2 DIV MUL PUSH1 0x20 ADD PUSH1 0x40 MLOAD SWAP1 DUP2 ADD PUSH1 0x40 MSTORE DUP1 SWAP3 SWAP2 SWAP1 DUP2 DUP2 MSTORE PUSH1 0x20 ADD DUP3 DUP1 SLOAD PUSH2 0x1B36 SWAP1 PUSH2 0x2D3C JUMP JUMPDEST DUP1 ISZERO PUSH2 0x1B83 JUMPI DUP1 PUSH1 0x1F LT PUSH2 0x1B58 JUMPI PUSH2 0x100 DUP1 DUP4 SLOAD DIV MUL DUP4 MSTORE SWAP2 PUSH1 0x20 ADD SWAP2 PUSH2 0x1B83 JUMP JUMPDEST DUP3 ADD SWAP2 SWAP1 PUSH1 0x0 MSTORE PUSH1 0x20 PUSH1 0x0 KECCAK256 SWAP1 JUMPDEST DUP2 SLOAD DUP2 MSTORE SWAP1 PUSH1 0x1 ADD SWAP1 PUSH1 0x20 ADD DUP1 DUP4 GT PUSH2 0x1B66 JUMPI DUP3 SWAP1 SUB PUSH1 0x1F AND DUP3 ADD SWAP2 JUMPDEST POP POP POP POP POP PUSH2 0x1EE0 JUMP JUMPDEST PUSH1 0x0 DUP2 DUP2 MSTORE PUSH1 0x2 DUP7 ADD PUSH1 0x20 SWAP1 DUP2 MSTORE PUSH1 0x40 DUP1 DUP4 KECCAK256 DUP4 SWAP1 SSTORE PUSH1 0x1 DUP9 ADD SWAP1 SWAP2 MSTORE SWAP1 KECCAK256 DUP1 SLOAD PUSH1 0xFF NOT AND SWAP1 SSTORE SWAP2 POP DUP1 PUSH2 0x1BC0 DUP2 PUSH2 0x2D77 JUMP JUMPDEST SWAP2 POP POP PUSH2 0x1AD4 JUMP JUMPDEST POP PUSH2 0x1BD4 DUP4 PUSH1 0x0 PUSH2 0x25D6 JUMP JUMPDEST POP PUSH1 0x1 SWAP3 SWAP2 POP POP JUMP JUMPDEST POP PUSH1 0x0 SWAP2 SWAP1 POP JUMP JUMPDEST SWAP2 SWAP1 POP JUMP JUMPDEST PUSH1 0x0 DUP2 MLOAD PUSH1 0x0 EQ ISZERO PUSH2 0x1BFE JUMPI POP PUSH1 0x0 PUSH2 0x604 JUMP JUMPDEST PUSH1 0x0 PUSH2 0x1C09 DUP4 PUSH2 0x1EE0 JUMP JUMPDEST PUSH1 0x0 DUP2 DUP2 MSTORE PUSH1 0x1 DUP7 ADD PUSH1 0x20 MSTORE PUSH1 0x40 SWAP1 KECCAK256 SLOAD SWAP1 SWAP2 POP PUSH1 0xFF AND ISZERO PUSH2 0x1DB4 JUMPI PUSH1 0x0 DUP2 DUP2 MSTORE PUSH1 0x2 DUP6 ADD PUSH1 0x20 MSTORE PUSH1 0x40 DUP2 KECCAK256 SLOAD DUP6 SLOAD SWAP1 SWAP2 SWAP1 PUSH2 0x1C47 SWAP1 PUSH1 0x1 SWAP1 PUSH2 0x2CF9 JUMP JUMPDEST SWAP1 POP DUP2 DUP2 EQ PUSH2 0x1D53 JUMPI PUSH1 0x0 DUP7 PUSH1 0x0 ADD DUP3 DUP2 SLOAD DUP2 LT PUSH2 0x1C67 JUMPI PUSH2 0x1C67 PUSH2 0x2DBE JUMP JUMPDEST SWAP1 PUSH1 0x0 MSTORE PUSH1 0x20 PUSH1 0x0 KECCAK256 ADD DUP1 SLOAD PUSH2 0x1C7C SWAP1 PUSH2 0x2D3C JUMP JUMPDEST DUP1 PUSH1 0x1F ADD PUSH1 0x20 DUP1 SWAP2 DIV MUL PUSH1 0x20 ADD PUSH1 0x40 MLOAD SWAP1 DUP2 ADD PUSH1 0x40 MSTORE DUP1 SWAP3 SWAP2 SWAP1 DUP2 DUP2 MSTORE PUSH1 0x20 ADD DUP3 DUP1 SLOAD PUSH2 0x1CA8 SWAP1 PUSH2 0x2D3C JUMP JUMPDEST DUP1 ISZERO PUSH2 0x1CF5 JUMPI DUP1 PUSH1 0x1F LT PUSH2 0x1CCA JUMPI PUSH2 0x100 DUP1 DUP4 SLOAD DIV MUL DUP4 MSTORE SWAP2 PUSH1 0x20 ADD SWAP2 PUSH2 0x1CF5 JUMP JUMPDEST DUP3 ADD SWAP2 SWAP1 PUSH1 0x0 MSTORE PUSH1 0x20 PUSH1 0x0 KECCAK256 SWAP1 JUMPDEST DUP2 SLOAD DUP2 MSTORE SWAP1 PUSH1 0x1 ADD SWAP1 PUSH1 0x20 ADD DUP1 DUP4 GT PUSH2 0x1CD8 JUMPI DUP3 SWAP1 SUB PUSH1 0x1F AND DUP3 ADD SWAP2 JUMPDEST POP POP POP POP POP SWAP1 POP DUP1 DUP8 PUSH1 0x0 ADD DUP5 DUP2 SLOAD DUP2 LT PUSH2 0x1D12 JUMPI PUSH2 0x1D12 PUSH2 0x2DBE JUMP JUMPDEST SWAP1 PUSH1 0x0 MSTORE PUSH1 0x20 PUSH1 0x0 KECCAK256 ADD SWAP1 DUP1 MLOAD SWAP1 PUSH1 0x20 ADD SWAP1 PUSH2 0x1D2F SWAP3 SWAP2 SWAP1 PUSH2 0x2562 JUMP JUMPDEST POP DUP3 DUP8 PUSH1 0x2 ADD PUSH1 0x0 PUSH2 0x1D40 DUP5 PUSH2 0x1EE0 JUMP JUMPDEST DUP2 MSTORE PUSH1 0x20 DUP2 ADD SWAP2 SWAP1 SWAP2 MSTORE PUSH1 0x40 ADD PUSH1 0x0 KECCAK256 SSTORE POP JUMPDEST DUP6 SLOAD DUP7 SWAP1 DUP1 PUSH2 0x1D64 JUMPI PUSH2 0x1D64 PUSH2 0x2DA8 JUMP JUMPDEST PUSH1 0x1 SWAP1 SUB DUP2 DUP2 SWAP1 PUSH1 0x0 MSTORE PUSH1 0x20 PUSH1 0x0 KECCAK256 ADD PUSH1 0x0 PUSH2 0x1D80 SWAP2 SWAP1 PUSH2 0x25F4 JUMP JUMPDEST SWAP1 SSTORE POP POP PUSH1 0x0 SWAP1 DUP2 MSTORE PUSH1 0x2 DUP5 ADD PUSH1 0x20 SWAP1 DUP2 MSTORE PUSH1 0x40 DUP1 DUP4 KECCAK256 DUP4 SWAP1 SSTORE PUSH1 0x1 DUP1 DUP8 ADD SWAP1 SWAP3 MSTORE SWAP1 SWAP2 KECCAK256 DUP1 SLOAD PUSH1 0xFF NOT AND SWAP1 SSTORE SWAP1 POP PUSH2 0x604 JUMP JUMPDEST PUSH1 0x0 SWAP1 DUP2 MSTORE PUSH1 0x1 DUP5 ADD PUSH1 0x20 MSTORE PUSH1 0x40 SWAP1 KECCAK256 SLOAD PUSH1 0xFF AND ISZERO SWAP1 POP PUSH2 0x604 JUMP JUMPDEST PUSH1 0x0 PUSH1 0x1 PUSH1 0x1 PUSH1 0xE0 SHL SUB NOT DUP3 AND PUSH4 0x45F8F681 PUSH1 0xE1 SHL EQ DUP1 PUSH2 0x604 JUMPI POP PUSH2 0x604 DUP3 PUSH2 0x218B JUMP JUMPDEST PUSH2 0x1DFF DUP4 DUP4 PUSH2 0x21B0 JUMP JUMPDEST PUSH2 0x1E0C PUSH1 0x0 DUP5 DUP5 DUP5 PUSH2 0x207E JUMP JUMPDEST PUSH2 0x847 JUMPI PUSH1 0x40 MLOAD PUSH3 0x461BCD PUSH1 0xE5 SHL DUP2 MSTORE PUSH1 0x4 ADD PUSH2 0x711 SWAP1 PUSH2 0x2BBF JUMP JUMPDEST PUSH1 0x1 PUSH1 0x1 PUSH1 0xA0 SHL SUB DUP4 AND PUSH2 0x1E83 JUMPI PUSH2 0x1E7E DUP2 PUSH1 0x99 DUP1 SLOAD PUSH1 0x0 DUP4 DUP2 MSTORE PUSH1 0x9A PUSH1 0x20 MSTORE PUSH1 0x40 DUP2 KECCAK256 DUP3 SWAP1 SSTORE PUSH1 0x1 DUP3 ADD DUP4 SSTORE SWAP2 SWAP1 SWAP2 MSTORE PUSH32 0x72A152DDFB8E864297C917AF52EA6C1C68AEAD0FEE1A62673FCC7E0C94979D00 ADD SSTORE JUMP JUMPDEST PUSH2 0x1EA6 JUMP JUMPDEST DUP2 PUSH1 0x1 PUSH1 0x1 PUSH1 0xA0 SHL SUB AND DUP4 PUSH1 0x1 PUSH1 0x1 PUSH1 0xA0 SHL SUB AND EQ PUSH2 0x1EA6 JUMPI PUSH2 0x1EA6 DUP4 DUP3 PUSH2 0x22FE JUMP JUMPDEST PUSH1 0x1 PUSH1 0x1 PUSH1 0xA0 SHL SUB DUP3 AND PUSH2 0x1EBD JUMPI PUSH2 0x847 DUP2 PUSH2 0x239B JUMP JUMPDEST DUP3 PUSH1 0x1 PUSH1 0x1 PUSH1 0xA0 SHL SUB AND DUP3 PUSH1 0x1 PUSH1 0x1 PUSH1 0xA0 SHL SUB AND EQ PUSH2 0x847 JUMPI PUSH2 0x847 DUP3 DUP3 PUSH2 0x244A JUMP JUMPDEST PUSH1 0x0 DUP2 PUSH1 0x40 MLOAD PUSH1 0x20 ADD PUSH2 0x1EF3 SWAP2 SWAP1 PUSH2 0x2A44 JUMP JUMPDEST PUSH1 0x40 MLOAD PUSH1 0x20 DUP2 DUP4 SUB SUB DUP2 MSTORE SWAP1 PUSH1 0x40 MSTORE DUP1 MLOAD SWAP1 PUSH1 0x20 ADD KECCAK256 SWAP1 POP SWAP2 SWAP1 POP JUMP JUMPDEST PUSH1 0x0 SLOAD PUSH2 0x100 SWAP1 DIV PUSH1 0xFF AND DUP1 PUSH2 0x1F29 JUMPI POP PUSH1 0x0 SLOAD PUSH1 0xFF AND ISZERO JUMPDEST PUSH2 0x1F45 JUMPI PUSH1 0x40 MLOAD PUSH3 0x461BCD PUSH1 0xE5 SHL DUP2 MSTORE PUSH1 0x4 ADD PUSH2 0x711 SWAP1 PUSH2 0x2C11 JUMP JUMPDEST PUSH1 0x0 SLOAD PUSH2 0x100 SWAP1 DIV PUSH1 0xFF AND ISZERO DUP1 ISZERO PUSH2 0xF5C JUMPI PUSH1 0x0 DUP1 SLOAD PUSH2 0xFFFF NOT AND PUSH2 0x101 OR SWAP1 SSTORE DUP1 ISZERO PUSH2 0xF6E JUMPI PUSH1 0x0 DUP1 SLOAD PUSH2 0xFF00 NOT AND SWAP1 SSTORE POP JUMP JUMPDEST PUSH1 0x0 SLOAD PUSH2 0x100 SWAP1 DIV PUSH1 0xFF AND DUP1 PUSH2 0x1F93 JUMPI POP PUSH1 0x0 SLOAD PUSH1 0xFF AND ISZERO JUMPDEST PUSH2 0x1FAF JUMPI PUSH1 0x40 MLOAD PUSH3 0x461BCD PUSH1 0xE5 SHL DUP2 MSTORE PUSH1 0x4 ADD PUSH2 0x711 SWAP1 PUSH2 0x2C11 JUMP JUMPDEST PUSH1 0x0 SLOAD PUSH2 0x100 SWAP1 DIV PUSH1 0xFF AND ISZERO DUP1 ISZERO PUSH2 0x1FD1 JUMPI PUSH1 0x0 DUP1 SLOAD PUSH2 0xFFFF NOT AND PUSH2 0x101 OR SWAP1 SSTORE JUMPDEST DUP3 MLOAD PUSH2 0x1FE4 SWAP1 PUSH1 0x65 SWAP1 PUSH1 0x20 DUP7 ADD SWAP1 PUSH2 0x2562 JUMP JUMPDEST POP DUP2 MLOAD PUSH2 0x1FF8 SWAP1 PUSH1 0x66 SWAP1 PUSH1 0x20 DUP6 ADD SWAP1 PUSH2 0x2562 JUMP JUMPDEST POP DUP1 ISZERO PUSH2 0x847 JUMPI PUSH1 0x0 DUP1 SLOAD PUSH2 0xFF00 NOT AND SWAP1 SSTORE POP POP POP JUMP JUMPDEST PUSH1 0x0 SLOAD PUSH2 0x100 SWAP1 DIV PUSH1 0xFF AND DUP1 PUSH2 0x2028 JUMPI POP PUSH1 0x0 SLOAD PUSH1 0xFF AND ISZERO JUMPDEST PUSH2 0x2044 JUMPI PUSH1 0x40 MLOAD PUSH3 0x461BCD PUSH1 0xE5 SHL DUP2 MSTORE PUSH1 0x4 ADD PUSH2 0x711 SWAP1 PUSH2 0x2C11 JUMP JUMPDEST PUSH1 0x0 SLOAD PUSH2 0x100 SWAP1 DIV PUSH1 0xFF AND ISZERO DUP1 ISZERO PUSH2 0x2066 JUMPI PUSH1 0x0 DUP1 SLOAD PUSH2 0xFFFF NOT AND PUSH2 0x101 OR SWAP1 SSTORE JUMPDEST PUSH2 0x206E PUSH2 0x1F10 JUMP JUMPDEST PUSH2 0x2076 PUSH2 0x1F10 JUMP JUMPDEST PUSH2 0xF5C PUSH2 0x1F10 JUMP JUMPDEST PUSH1 0x0 PUSH1 0x1 PUSH1 0x1 PUSH1 0xA0 SHL SUB DUP5 AND EXTCODESIZE ISZERO PUSH2 0x2180 JUMPI PUSH1 0x40 MLOAD PUSH4 0xA85BD01 PUSH1 0xE1 SHL DUP2 MSTORE PUSH1 0x1 PUSH1 0x1 PUSH1 0xA0 SHL SUB DUP6 AND SWAP1 PUSH4 0x150B7A02 SWAP1 PUSH2 0x20C2 SWAP1 CALLER SWAP1 DUP10 SWAP1 DUP9 SWAP1 DUP9 SWAP1 PUSH1 0x4 ADD PUSH2 0x2A60 JUMP JUMPDEST PUSH1 0x20 PUSH1 0x40 MLOAD DUP1 DUP4 SUB DUP2 PUSH1 0x0 DUP8 DUP1 EXTCODESIZE ISZERO DUP1 ISZERO PUSH2 0x20DC JUMPI PUSH1 0x0 DUP1 REVERT JUMPDEST POP GAS CALL SWAP3 POP POP POP DUP1 ISZERO PUSH2 0x210C JUMPI POP PUSH1 0x40 DUP1 MLOAD PUSH1 0x1F RETURNDATASIZE SWAP1 DUP2 ADD PUSH1 0x1F NOT AND DUP3 ADD SWAP1 SWAP3 MSTORE PUSH2 0x2109 SWAP2 DUP2 ADD SWAP1 PUSH2 0x29D9 JUMP JUMPDEST PUSH1 0x1 JUMPDEST PUSH2 0x2166 JUMPI RETURNDATASIZE DUP1 DUP1 ISZERO PUSH2 0x213A JUMPI PUSH1 0x40 MLOAD SWAP2 POP PUSH1 0x1F NOT PUSH1 0x3F RETURNDATASIZE ADD AND DUP3 ADD PUSH1 0x40 MSTORE RETURNDATASIZE DUP3 MSTORE RETURNDATASIZE PUSH1 0x0 PUSH1 0x20 DUP5 ADD RETURNDATACOPY PUSH2 0x213F JUMP JUMPDEST PUSH1 0x60 SWAP2 POP JUMPDEST POP DUP1 MLOAD PUSH2 0x215E JUMPI PUSH1 0x40 MLOAD PUSH3 0x461BCD PUSH1 0xE5 SHL DUP2 MSTORE PUSH1 0x4 ADD PUSH2 0x711 SWAP1 PUSH2 0x2BBF JUMP JUMPDEST DUP1 MLOAD DUP2 PUSH1 0x20 ADD REVERT JUMPDEST PUSH1 0x1 PUSH1 0x1 PUSH1 0xE0 SHL SUB NOT AND PUSH4 0xA85BD01 PUSH1 0xE1 SHL EQ SWAP1 POP PUSH2 0x1671 JUMP JUMPDEST POP PUSH1 0x1 SWAP5 SWAP4 POP POP POP POP JUMP JUMPDEST PUSH1 0x0 PUSH1 0x1 PUSH1 0x1 PUSH1 0xE0 SHL SUB NOT DUP3 AND PUSH4 0x780E9D63 PUSH1 0xE0 SHL EQ DUP1 PUSH2 0x604 JUMPI POP PUSH2 0x604 DUP3 PUSH2 0x248E JUMP JUMPDEST PUSH1 0x1 PUSH1 0x1 PUSH1 0xA0 SHL SUB DUP3 AND PUSH2 0x2206 JUMPI PUSH1 0x40 MLOAD PUSH3 0x461BCD PUSH1 0xE5 SHL DUP2 MSTORE PUSH1 0x20 PUSH1 0x4 DUP3 ADD DUP2 SWAP1 MSTORE PUSH1 0x24 DUP3 ADD MSTORE PUSH32 0x4552433732313A206D696E7420746F20746865207A65726F2061646472657373 PUSH1 0x44 DUP3 ADD MSTORE PUSH1 0x64 ADD PUSH2 0x711 JUMP JUMPDEST PUSH1 0x0 DUP2 DUP2 MSTORE PUSH1 0x67 PUSH1 0x20 MSTORE PUSH1 0x40 SWAP1 KECCAK256 SLOAD PUSH1 0x1 PUSH1 0x1 PUSH1 0xA0 SHL SUB AND ISZERO PUSH2 0x226B JUMPI PUSH1 0x40 MLOAD PUSH3 0x461BCD PUSH1 0xE5 SHL DUP2 MSTORE PUSH1 0x20 PUSH1 0x4 DUP3 ADD MSTORE PUSH1 0x1C PUSH1 0x24 DUP3 ADD MSTORE PUSH32 0x4552433732313A20746F6B656E20616C7265616479206D696E74656400000000 PUSH1 0x44 DUP3 ADD MSTORE PUSH1 0x64 ADD PUSH2 0x711 JUMP JUMPDEST PUSH2 0x2277 PUSH1 0x0 DUP4 DUP4 PUSH2 0x1E28 JUMP JUMPDEST PUSH1 0x1 PUSH1 0x1 PUSH1 0xA0 SHL SUB DUP3 AND PUSH1 0x0 SWAP1 DUP2 MSTORE PUSH1 0x68 PUSH1 0x20 MSTORE PUSH1 0x40 DUP2 KECCAK256 DUP1 SLOAD PUSH1 0x1 SWAP3 SWAP1 PUSH2 0x22A0 SWAP1 DUP5 SWAP1 PUSH2 0x2CE1 JUMP JUMPDEST SWAP1 SWAP2 SSTORE POP POP PUSH1 0x0 DUP2 DUP2 MSTORE PUSH1 0x67 PUSH1 0x20 MSTORE PUSH1 0x40 DUP1 DUP3 KECCAK256 DUP1 SLOAD PUSH1 0x1 PUSH1 0x1 PUSH1 0xA0 SHL SUB NOT AND PUSH1 0x1 PUSH1 0x1 PUSH1 0xA0 SHL SUB DUP7 AND SWAP1 DUP2 OR SWAP1 SWAP2 SSTORE SWAP1 MLOAD DUP4 SWAP3 SWAP1 PUSH32 0xDDF252AD1BE2C89B69C2B068FC378DAA952BA7F163C4A11628F55A4DF523B3EF SWAP1 DUP3 SWAP1 LOG4 POP POP JUMP JUMPDEST PUSH1 0x0 PUSH1 0x1 PUSH2 0x230B DUP5 PUSH2 0xE32 JUMP JUMPDEST PUSH2 0x2315 SWAP2 SWAP1 PUSH2 0x2CF9 JUMP JUMPDEST PUSH1 0x0 DUP4 DUP2 MSTORE PUSH1 0x98 PUSH1 0x20 MSTORE PUSH1 0x40 SWAP1 KECCAK256 SLOAD SWAP1 SWAP2 POP DUP1 DUP3 EQ PUSH2 0x2368 JUMPI PUSH1 0x1 PUSH1 0x1 PUSH1 0xA0 SHL SUB DUP5 AND PUSH1 0x0 SWAP1 DUP2 MSTORE PUSH1 0x97 PUSH1 0x20 SWAP1 DUP2 MSTORE PUSH1 0x40 DUP1 DUP4 KECCAK256 DUP6 DUP5 MSTORE DUP3 MSTORE DUP1 DUP4 KECCAK256 SLOAD DUP5 DUP5 MSTORE DUP2 DUP5 KECCAK256 DUP2 SWAP1 SSTORE DUP4 MSTORE PUSH1 0x98 SWAP1 SWAP2 MSTORE SWAP1 KECCAK256 DUP2 SWAP1 SSTORE JUMPDEST POP PUSH1 0x0 SWAP2 DUP3 MSTORE PUSH1 0x98 PUSH1 0x20 SWAP1 DUP2 MSTORE PUSH1 0x40 DUP1 DUP5 KECCAK256 DUP5 SWAP1 SSTORE PUSH1 0x1 PUSH1 0x1 PUSH1 0xA0 SHL SUB SWAP1 SWAP5 AND DUP4 MSTORE PUSH1 0x97 DUP2 MSTORE DUP4 DUP4 KECCAK256 SWAP2 DUP4 MSTORE MSTORE SWAP1 DUP2 KECCAK256 SSTORE JUMP JUMPDEST PUSH1 0x99 SLOAD PUSH1 0x0 SWAP1 PUSH2 0x23AD SWAP1 PUSH1 0x1 SWAP1 PUSH2 0x2CF9 JUMP JUMPDEST PUSH1 0x0 DUP4 DUP2 MSTORE PUSH1 0x9A PUSH1 0x20 MSTORE PUSH1 0x40 DUP2 KECCAK256 SLOAD PUSH1 0x99 DUP1 SLOAD SWAP4 SWAP5 POP SWAP1 SWAP3 DUP5 SWAP1 DUP2 LT PUSH2 0x23D5 JUMPI PUSH2 0x23D5 PUSH2 0x2DBE JUMP JUMPDEST SWAP1 PUSH1 0x0 MSTORE PUSH1 0x20 PUSH1 0x0 KECCAK256 ADD SLOAD SWAP1 POP DUP1 PUSH1 0x99 DUP4 DUP2 SLOAD DUP2 LT PUSH2 0x23F6 JUMPI PUSH2 0x23F6 PUSH2 0x2DBE JUMP JUMPDEST PUSH1 0x0 SWAP2 DUP3 MSTORE PUSH1 0x20 DUP1 DUP4 KECCAK256 SWAP1 SWAP2 ADD SWAP3 SWAP1 SWAP3 SSTORE DUP3 DUP2 MSTORE PUSH1 0x9A SWAP1 SWAP2 MSTORE PUSH1 0x40 DUP1 DUP3 KECCAK256 DUP5 SWAP1 SSTORE DUP6 DUP3 MSTORE DUP2 KECCAK256 SSTORE PUSH1 0x99 DUP1 SLOAD DUP1 PUSH2 0x242E JUMPI PUSH2 0x242E PUSH2 0x2DA8 JUMP JUMPDEST PUSH1 0x1 SWAP1 SUB DUP2 DUP2 SWAP1 PUSH1 0x0 MSTORE PUSH1 0x20 PUSH1 0x0 KECCAK256 ADD PUSH1 0x0 SWAP1 SSTORE SWAP1 SSTORE POP POP POP POP JUMP JUMPDEST PUSH1 0x0 PUSH2 0x2455 DUP4 PUSH2 0xE32 JUMP JUMPDEST PUSH1 0x1 PUSH1 0x1 PUSH1 0xA0 SHL SUB SWAP1 SWAP4 AND PUSH1 0x0 SWAP1 DUP2 MSTORE PUSH1 0x97 PUSH1 0x20 SWAP1 DUP2 MSTORE PUSH1 0x40 DUP1 DUP4 KECCAK256 DUP7 DUP5 MSTORE DUP3 MSTORE DUP1 DUP4 KECCAK256 DUP6 SWAP1 SSTORE SWAP4 DUP3 MSTORE PUSH1 0x98 SWAP1 MSTORE SWAP2 SWAP1 SWAP2 KECCAK256 SWAP2 SWAP1 SWAP2 SSTORE POP JUMP JUMPDEST PUSH1 0x0 PUSH1 0x1 PUSH1 0x1 PUSH1 0xE0 SHL SUB NOT DUP3 AND PUSH4 0x80AC58CD PUSH1 0xE0 SHL EQ DUP1 PUSH2 0x24BF JUMPI POP PUSH1 0x1 PUSH1 0x1 PUSH1 0xE0 SHL SUB NOT DUP3 AND PUSH4 0x5B5E139F PUSH1 0xE0 SHL EQ JUMPDEST DUP1 PUSH2 0x604 JUMPI POP PUSH4 0x1FFC9A7 PUSH1 0xE0 SHL PUSH1 0x1 PUSH1 0x1 PUSH1 0xE0 SHL SUB NOT DUP4 AND EQ PUSH2 0x604 JUMP JUMPDEST DUP3 DUP1 SLOAD PUSH2 0x24EA SWAP1 PUSH2 0x2D3C JUMP JUMPDEST SWAP1 PUSH1 0x0 MSTORE PUSH1 0x20 PUSH1 0x0 KECCAK256 SWAP1 PUSH1 0x1F ADD PUSH1 0x20 SWAP1 DIV DUP2 ADD SWAP3 DUP3 PUSH2 0x250C JUMPI PUSH1 0x0 DUP6 SSTORE PUSH2 0x2552 JUMP JUMPDEST DUP3 PUSH1 0x1F LT PUSH2 0x2525 JUMPI DUP3 DUP1 ADD PUSH1 0xFF NOT DUP3 CALLDATALOAD AND OR DUP6 SSTORE PUSH2 0x2552 JUMP JUMPDEST DUP3 DUP1 ADD PUSH1 0x1 ADD DUP6 SSTORE DUP3 ISZERO PUSH2 0x2552 JUMPI SWAP2 DUP3 ADD JUMPDEST DUP3 DUP2 GT ISZERO PUSH2 0x2552 JUMPI DUP3 CALLDATALOAD DUP3 SSTORE SWAP2 PUSH1 0x20 ADD SWAP2 SWAP1 PUSH1 0x1 ADD SWAP1 PUSH2 0x2537 JUMP JUMPDEST POP PUSH2 0x255E SWAP3 SWAP2 POP PUSH2 0x262A JUMP JUMPDEST POP SWAP1 JUMP JUMPDEST DUP3 DUP1 SLOAD PUSH2 0x256E SWAP1 PUSH2 0x2D3C JUMP JUMPDEST SWAP1 PUSH1 0x0 MSTORE PUSH1 0x20 PUSH1 0x0 KECCAK256 SWAP1 PUSH1 0x1F ADD PUSH1 0x20 SWAP1 DIV DUP2 ADD SWAP3 DUP3 PUSH2 0x2590 JUMPI PUSH1 0x0 DUP6 SSTORE PUSH2 0x2552 JUMP JUMPDEST DUP3 PUSH1 0x1F LT PUSH2 0x25A9 JUMPI DUP1 MLOAD PUSH1 0xFF NOT AND DUP4 DUP1 ADD OR DUP6 SSTORE PUSH2 0x2552 JUMP JUMPDEST DUP3 DUP1 ADD PUSH1 0x1 ADD DUP6 SSTORE DUP3 ISZERO PUSH2 0x2552 JUMPI SWAP2 DUP3 ADD JUMPDEST DUP3 DUP2 GT ISZERO PUSH2 0x2552 JUMPI DUP3 MLOAD DUP3 SSTORE SWAP2 PUSH1 0x20 ADD SWAP2 SWAP1 PUSH1 0x1 ADD SWAP1 PUSH2 0x25BB JUMP JUMPDEST POP DUP1 SLOAD PUSH1 0x0 DUP3 SSTORE SWAP1 PUSH1 0x0 MSTORE PUSH1 0x20 PUSH1 0x0 KECCAK256 SWAP1 DUP2 ADD SWAP1 PUSH2 0xF6E SWAP2 SWAP1 PUSH2 0x263F JUMP JUMPDEST POP DUP1 SLOAD PUSH2 0x2600 SWAP1 PUSH2 0x2D3C JUMP JUMPDEST PUSH1 0x0 DUP3 SSTORE DUP1 PUSH1 0x1F LT PUSH2 0x2610 JUMPI POP POP JUMP JUMPDEST PUSH1 0x1F ADD PUSH1 0x20 SWAP1 DIV SWAP1 PUSH1 0x0 MSTORE PUSH1 0x20 PUSH1 0x0 KECCAK256 SWAP1 DUP2 ADD SWAP1 PUSH2 0xF6E SWAP2 SWAP1 JUMPDEST JUMPDEST DUP1 DUP3 GT ISZERO PUSH2 0x255E JUMPI PUSH1 0x0 DUP2 SSTORE PUSH1 0x1 ADD PUSH2 0x262B JUMP JUMPDEST DUP1 DUP3 GT ISZERO PUSH2 0x255E JUMPI PUSH1 0x0 PUSH2 0x2653 DUP3 DUP3 PUSH2 0x25F4 JUMP JUMPDEST POP PUSH1 0x1 ADD PUSH2 0x263F JUMP JUMPDEST PUSH1 0x0 PUSH8 0xFFFFFFFFFFFFFFFF DUP4 GT ISZERO PUSH2 0x2676 JUMPI PUSH2 0x2676 PUSH2 0x2DD4 JUMP JUMPDEST PUSH2 0x2689 PUSH1 0x1F DUP5 ADD PUSH1 0x1F NOT AND PUSH1 0x20 ADD PUSH2 0x2CB0 JUMP JUMPDEST SWAP1 POP DUP3 DUP2 MSTORE DUP4 DUP4 DUP4 ADD GT ISZERO PUSH2 0x269D JUMPI PUSH1 0x0 DUP1 REVERT JUMPDEST DUP3 DUP3 PUSH1 0x20 DUP4 ADD CALLDATACOPY PUSH1 0x0 PUSH1 0x20 DUP5 DUP4 ADD ADD MSTORE SWAP4 SWAP3 POP POP POP JUMP JUMPDEST DUP1 CALLDATALOAD PUSH1 0x1 PUSH1 0x1 PUSH1 0xA0 SHL SUB DUP2 AND DUP2 EQ PUSH2 0x1BE5 JUMPI PUSH1 0x0 DUP1 REVERT JUMPDEST PUSH1 0x0 PUSH1 0x20 DUP3 DUP5 SUB SLT ISZERO PUSH2 0x26DD JUMPI PUSH1 0x0 DUP1 REVERT JUMPDEST PUSH2 0x26E6 DUP3 PUSH2 0x26B4 JUMP JUMPDEST SWAP4 SWAP3 POP POP POP JUMP JUMPDEST PUSH1 0x0 DUP1 PUSH1 0x40 DUP4 DUP6 SUB SLT ISZERO PUSH2 0x2700 JUMPI PUSH1 0x0 DUP1 REVERT JUMPDEST PUSH2 0x2709 DUP4 PUSH2 0x26B4 JUMP JUMPDEST SWAP2 POP PUSH2 0x2717 PUSH1 0x20 DUP5 ADD PUSH2 0x26B4 JUMP JUMPDEST SWAP1 POP SWAP3 POP SWAP3 SWAP1 POP JUMP JUMPDEST PUSH1 0x0 DUP1 PUSH1 0x0 PUSH1 0x60 DUP5 DUP7 SUB SLT ISZERO PUSH2 0x2735 JUMPI PUSH1 0x0 DUP1 REVERT JUMPDEST PUSH2 0x273E DUP5 PUSH2 0x26B4 JUMP JUMPDEST SWAP3 POP PUSH2 0x274C PUSH1 0x20 DUP6 ADD PUSH2 0x26B4 JUMP JUMPDEST SWAP2 POP PUSH1 0x40 DUP5 ADD CALLDATALOAD SWAP1 POP SWAP3 POP SWAP3 POP SWAP3 JUMP JUMPDEST PUSH1 0x0 DUP1 PUSH1 0x0 DUP1 PUSH1 0x80 DUP6 DUP8 SUB SLT ISZERO PUSH2 0x2772 JUMPI PUSH1 0x0 DUP1 REVERT JUMPDEST PUSH2 0x277B DUP6 PUSH2 0x26B4 JUMP JUMPDEST SWAP4 POP PUSH2 0x2789 PUSH1 0x20 DUP7 ADD PUSH2 0x26B4 JUMP JUMPDEST SWAP3 POP PUSH1 0x40 DUP6 ADD CALLDATALOAD SWAP2 POP PUSH1 0x60 DUP6 ADD CALLDATALOAD PUSH8 0xFFFFFFFFFFFFFFFF DUP2 GT ISZERO PUSH2 0x27AC JUMPI PUSH1 0x0 DUP1 REVERT JUMPDEST DUP6 ADD PUSH1 0x1F DUP2 ADD DUP8 SGT PUSH2 0x27BD JUMPI PUSH1 0x0 DUP1 REVERT JUMPDEST PUSH2 0x27CC DUP8 DUP3 CALLDATALOAD PUSH1 0x20 DUP5 ADD PUSH2 0x265C JUMP JUMPDEST SWAP2 POP POP SWAP3 SWAP6 SWAP2 SWAP5 POP SWAP3 POP JUMP JUMPDEST PUSH1 0x0 DUP1 PUSH1 0x40 DUP4 DUP6 SUB SLT ISZERO PUSH2 0x27EB JUMPI PUSH1 0x0 DUP1 REVERT JUMPDEST PUSH2 0x27F4 DUP4 PUSH2 0x26B4 JUMP JUMPDEST SWAP2 POP PUSH1 0x20 DUP4 ADD CALLDATALOAD DUP1 ISZERO ISZERO DUP2 EQ PUSH2 0x2809 JUMPI PUSH1 0x0 DUP1 REVERT JUMPDEST DUP1 SWAP2 POP POP SWAP3 POP SWAP3 SWAP1 POP JUMP JUMPDEST PUSH1 0x0 DUP1 PUSH1 0x40 DUP4 DUP6 SUB SLT ISZERO PUSH2 0x2827 JUMPI PUSH1 0x0 DUP1 REVERT JUMPDEST PUSH2 0x2830 DUP4 PUSH2 0x26B4 JUMP JUMPDEST SWAP5 PUSH1 0x20 SWAP4 SWAP1 SWAP4 ADD CALLDATALOAD SWAP4 POP POP POP JUMP JUMPDEST PUSH1 0x0 PUSH1 0x20 DUP3 DUP5 SUB SLT ISZERO PUSH2 0x2850 JUMPI PUSH1 0x0 DUP1 REVERT JUMPDEST POP CALLDATALOAD SWAP2 SWAP1 POP JUMP JUMPDEST PUSH1 0x0 DUP1 PUSH1 0x40 DUP1 DUP5 DUP7 SUB SLT ISZERO PUSH2 0x286B JUMPI PUSH1 0x0 DUP1 REVERT JUMPDEST DUP4 CALLDATALOAD SWAP3 POP PUSH1 0x20 DUP1 DUP6 ADD CALLDATALOAD PUSH8 0xFFFFFFFFFFFFFFFF DUP1 DUP3 GT ISZERO PUSH2 0x288B JUMPI PUSH1 0x0 DUP1 REVERT JUMPDEST DUP2 DUP8 ADD SWAP2 POP DUP8 PUSH1 0x1F DUP4 ADD SLT PUSH2 0x289F JUMPI PUSH1 0x0 DUP1 REVERT JUMPDEST DUP2 CALLDATALOAD DUP2 DUP2 GT ISZERO PUSH2 0x28B1 JUMPI PUSH2 0x28B1 PUSH2 0x2DD4 JUMP JUMPDEST DUP1 PUSH1 0x5 SHL PUSH2 0x28C0 DUP6 DUP3 ADD PUSH2 0x2CB0 JUMP JUMPDEST DUP3 DUP2 MSTORE DUP6 DUP2 ADD SWAP1 DUP6 DUP8 ADD DUP4 DUP8 ADD DUP9 ADD DUP14 LT ISZERO PUSH2 0x28DB JUMPI PUSH1 0x0 DUP1 REVERT JUMPDEST PUSH1 0x0 SWAP4 POP JUMPDEST DUP5 DUP5 LT ISZERO PUSH2 0x292D JUMPI DUP1 CALLDATALOAD DUP7 DUP2 GT ISZERO PUSH2 0x28F7 JUMPI PUSH1 0x0 DUP1 REVERT JUMPDEST DUP8 ADD PUSH1 0x3F DUP2 ADD DUP15 SGT PUSH2 0x2908 JUMPI PUSH1 0x0 DUP1 REVERT JUMPDEST PUSH2 0x2918 DUP15 DUP11 DUP4 ADD CALLDATALOAD DUP13 DUP5 ADD PUSH2 0x265C JUMP JUMPDEST DUP5 MSTORE POP PUSH1 0x1 SWAP4 SWAP1 SWAP4 ADD SWAP3 SWAP2 DUP8 ADD SWAP2 DUP8 ADD PUSH2 0x28E0 JUMP JUMPDEST POP DUP1 SWAP9 POP POP POP POP POP POP POP POP POP SWAP3 POP SWAP3 SWAP1 POP JUMP JUMPDEST PUSH1 0x0 DUP1 PUSH1 0x0 PUSH1 0x40 DUP5 DUP7 SUB SLT ISZERO PUSH2 0x2955 JUMPI PUSH1 0x0 DUP1 REVERT JUMPDEST DUP4 CALLDATALOAD SWAP3 POP PUSH1 0x20 DUP5 ADD CALLDATALOAD PUSH8 0xFFFFFFFFFFFFFFFF DUP1 DUP3 GT ISZERO PUSH2 0x2974 JUMPI PUSH1 0x0 DUP1 REVERT JUMPDEST DUP2 DUP7 ADD SWAP2 POP DUP7 PUSH1 0x1F DUP4 ADD SLT PUSH2 0x2988 JUMPI PUSH1 0x0 DUP1 REVERT JUMPDEST DUP2 CALLDATALOAD DUP2 DUP2 GT ISZERO PUSH2 0x2997 JUMPI PUSH1 0x0 DUP1 REVERT JUMPDEST DUP8 PUSH1 0x20 DUP3 DUP6 ADD ADD GT ISZERO PUSH2 0x29A9 JUMPI PUSH1 0x0 DUP1 REVERT JUMPDEST PUSH1 0x20 DUP4 ADD SWAP5 POP DUP1 SWAP4 POP POP POP POP SWAP3 POP SWAP3 POP SWAP3 JUMP JUMPDEST PUSH1 0x0 PUSH1 0x20 DUP3 DUP5 SUB SLT ISZERO PUSH2 0x29CE JUMPI PUSH1 0x0 DUP1 REVERT JUMPDEST DUP2 CALLDATALOAD PUSH2 0x26E6 DUP2 PUSH2 0x2DEA JUMP JUMPDEST PUSH1 0x0 PUSH1 0x20 DUP3 DUP5 SUB SLT ISZERO PUSH2 0x29EB JUMPI PUSH1 0x0 DUP1 REVERT JUMPDEST DUP2 MLOAD PUSH2 0x26E6 DUP2 PUSH2 0x2DEA JUMP JUMPDEST PUSH1 0x0 DUP1 PUSH1 0x40 DUP4 DUP6 SUB SLT ISZERO PUSH2 0x2A09 JUMPI PUSH1 0x0 DUP1 REVERT JUMPDEST POP POP DUP1 CALLDATALOAD SWAP3 PUSH1 0x20 SWAP1 SWAP2 ADD CALLDATALOAD SWAP2 POP JUMP JUMPDEST PUSH1 0x0 DUP2 MLOAD DUP1 DUP5 MSTORE PUSH2 0x2A30 DUP2 PUSH1 0x20 DUP7 ADD PUSH1 0x20 DUP7 ADD PUSH2 0x2D10 JUMP JUMPDEST PUSH1 0x1F ADD PUSH1 0x1F NOT AND SWAP3 SWAP1 SWAP3 ADD PUSH1 0x20 ADD SWAP3 SWAP2 POP POP JUMP JUMPDEST PUSH1 0x0 DUP3 MLOAD PUSH2 0x2A56 DUP2 DUP5 PUSH1 0x20 DUP8 ADD PUSH2 0x2D10 JUMP JUMPDEST SWAP2 SWAP1 SWAP2 ADD SWAP3 SWAP2 POP POP JUMP JUMPDEST PUSH1 0x1 PUSH1 0x1 PUSH1 0xA0 SHL SUB DUP6 DUP2 AND DUP3 MSTORE DUP5 AND PUSH1 0x20 DUP3 ADD MSTORE PUSH1 0x40 DUP2 ADD DUP4 SWAP1 MSTORE PUSH1 0x80 PUSH1 0x60 DUP3 ADD DUP2 SWAP1 MSTORE PUSH1 0x0 SWAP1 PUSH2 0x2A93 SWAP1 DUP4 ADD DUP5 PUSH2 0x2A18 JUMP JUMPDEST SWAP7 SWAP6 POP POP POP POP POP POP JUMP JUMPDEST PUSH1 0x20 DUP1 DUP3 MSTORE DUP3 MLOAD DUP3 DUP3 ADD DUP2 SWAP1 MSTORE PUSH1 0x0 SWAP2 SWAP1 DUP5 DUP3 ADD SWAP1 PUSH1 0x40 DUP6 ADD SWAP1 DUP5 JUMPDEST DUP2 DUP2 LT ISZERO PUSH2 0x2AD5 JUMPI DUP4 MLOAD DUP4 MSTORE SWAP3 DUP5 ADD SWAP3 SWAP2 DUP5 ADD SWAP2 PUSH1 0x1 ADD PUSH2 0x2AB9 JUMP JUMPDEST POP SWAP1 SWAP7 SWAP6 POP POP POP POP POP POP JUMP JUMPDEST PUSH1 0x0 PUSH1 0x20 DUP1 DUP4 ADD DUP2 DUP5 MSTORE DUP1 DUP6 MLOAD DUP1 DUP4 MSTORE PUSH1 0x40 DUP7 ADD SWAP2 POP PUSH1 0x40 DUP2 PUSH1 0x5 SHL DUP8 ADD ADD SWAP3 POP DUP4 DUP8 ADD PUSH1 0x0 JUMPDEST DUP3 DUP2 LT ISZERO PUSH2 0x2B36 JUMPI PUSH1 0x3F NOT DUP9 DUP7 SUB ADD DUP5 MSTORE PUSH2 0x2B24 DUP6 DUP4 MLOAD PUSH2 0x2A18 JUMP JUMPDEST SWAP5 POP SWAP3 DUP6 ADD SWAP3 SWAP1 DUP6 ADD SWAP1 PUSH1 0x1 ADD PUSH2 0x2B08 JUMP JUMPDEST POP SWAP3 SWAP8 SWAP7 POP POP POP POP POP POP POP JUMP JUMPDEST DUP5 ISZERO ISZERO DUP2 MSTORE DUP4 PUSH1 0x20 DUP3 ADD MSTORE PUSH1 0x80 PUSH1 0x40 DUP3 ADD MSTORE PUSH1 0x0 PUSH2 0x2B64 PUSH1 0x80 DUP4 ADD DUP6 PUSH2 0x2A18 JUMP JUMPDEST SWAP1 POP PUSH1 0x1 DUP1 PUSH1 0xA0 SHL SUB DUP4 AND PUSH1 0x60 DUP4 ADD MSTORE SWAP6 SWAP5 POP POP POP POP POP JUMP JUMPDEST PUSH1 0x20 DUP2 MSTORE DUP2 PUSH1 0x20 DUP3 ADD MSTORE DUP2 DUP4 PUSH1 0x40 DUP4 ADD CALLDATACOPY PUSH1 0x0 DUP2 DUP4 ADD PUSH1 0x40 SWAP1 DUP2 ADD SWAP2 SWAP1 SWAP2 MSTORE PUSH1 0x1F SWAP1 SWAP3 ADD PUSH1 0x1F NOT AND ADD ADD SWAP2 SWAP1 POP JUMP JUMPDEST PUSH1 0x20 DUP2 MSTORE PUSH1 0x0 PUSH2 0x26E6 PUSH1 0x20 DUP4 ADD DUP5 PUSH2 0x2A18 JUMP JUMPDEST PUSH1 0x20 DUP1 DUP3 MSTORE PUSH1 0x32 SWAP1 DUP3 ADD MSTORE PUSH32 0x4552433732313A207472616E7366657220746F206E6F6E204552433732315265 PUSH1 0x40 DUP3 ADD MSTORE PUSH18 0x31B2B4BB32B91034B6B83632B6B2B73A32B9 PUSH1 0x71 SHL PUSH1 0x60 DUP3 ADD MSTORE PUSH1 0x80 ADD SWAP1 JUMP JUMPDEST PUSH1 0x20 DUP1 DUP3 MSTORE PUSH1 0x2E SWAP1 DUP3 ADD MSTORE PUSH32 0x496E697469616C697A61626C653A20636F6E747261637420697320616C726561 PUSH1 0x40 DUP3 ADD MSTORE PUSH14 0x191E481A5B9A5D1A585B1A5E9959 PUSH1 0x92 SHL PUSH1 0x60 DUP3 ADD MSTORE PUSH1 0x80 ADD SWAP1 JUMP JUMPDEST PUSH1 0x20 DUP1 DUP3 MSTORE PUSH1 0x31 SWAP1 DUP3 ADD MSTORE PUSH32 0x4552433732313A207472616E736665722063616C6C6572206973206E6F74206F PUSH1 0x40 DUP3 ADD MSTORE PUSH17 0x1DDB995C881B9BDC88185C1C1C9BDD9959 PUSH1 0x7A SHL PUSH1 0x60 DUP3 ADD MSTORE PUSH1 0x80 ADD SWAP1 JUMP JUMPDEST PUSH1 0x40 MLOAD PUSH1 0x1F DUP3 ADD PUSH1 0x1F NOT AND DUP2 ADD PUSH8 0xFFFFFFFFFFFFFFFF DUP2 GT DUP3 DUP3 LT OR ISZERO PUSH2 0x2CD9 JUMPI PUSH2 0x2CD9 PUSH2 0x2DD4 JUMP JUMPDEST PUSH1 0x40 MSTORE SWAP2 SWAP1 POP JUMP JUMPDEST PUSH1 0x0 DUP3 NOT DUP3 GT ISZERO PUSH2 0x2CF4 JUMPI PUSH2 0x2CF4 PUSH2 0x2D92 JUMP JUMPDEST POP ADD SWAP1 JUMP JUMPDEST PUSH1 0x0 DUP3 DUP3 LT ISZERO PUSH2 0x2D0B JUMPI PUSH2 0x2D0B PUSH2 0x2D92 JUMP JUMPDEST POP SUB SWAP1 JUMP JUMPDEST PUSH1 0x0 JUMPDEST DUP4 DUP2 LT ISZERO PUSH2 0x2D2B JUMPI DUP2 DUP2 ADD MLOAD DUP4 DUP3 ADD MSTORE PUSH1 0x20 ADD PUSH2 0x2D13 JUMP JUMPDEST DUP4 DUP2 GT ISZERO PUSH2 0x1151 JUMPI POP POP PUSH1 0x0 SWAP2 ADD MSTORE JUMP JUMPDEST PUSH1 0x1 DUP2 DUP2 SHR SWAP1 DUP3 AND DUP1 PUSH2 0x2D50 JUMPI PUSH1 0x7F DUP3 AND SWAP2 POP JUMPDEST PUSH1 0x20 DUP3 LT DUP2 EQ ISZERO PUSH2 0x2D71 JUMPI PUSH4 0x4E487B71 PUSH1 0xE0 SHL PUSH1 0x0 MSTORE PUSH1 0x22 PUSH1 0x4 MSTORE PUSH1 0x24 PUSH1 0x0 REVERT JUMPDEST POP SWAP2 SWAP1 POP JUMP JUMPDEST PUSH1 0x0 PUSH1 0x0 NOT DUP3 EQ ISZERO PUSH2 0x2D8B JUMPI PUSH2 0x2D8B PUSH2 0x2D92 JUMP JUMPDEST POP PUSH1 0x1 ADD SWAP1 JUMP JUMPDEST PUSH4 0x4E487B71 PUSH1 0xE0 SHL PUSH1 0x0 MSTORE PUSH1 0x11 PUSH1 0x4 MSTORE PUSH1 0x24 PUSH1 0x0 REVERT JUMPDEST PUSH4 0x4E487B71 PUSH1 0xE0 SHL PUSH1 0x0 MSTORE PUSH1 0x31 PUSH1 0x4 MSTORE PUSH1 0x24 PUSH1 0x0 REVERT JUMPDEST PUSH4 0x4E487B71 PUSH1 0xE0 SHL PUSH1 0x0 MSTORE PUSH1 0x32 PUSH1 0x4 MSTORE PUSH1 0x24 PUSH1 0x0 REVERT JUMPDEST PUSH4 0x4E487B71 PUSH1 0xE0 SHL PUSH1 0x0 MSTORE PUSH1 0x41 PUSH1 0x4 MSTORE PUSH1 0x24 PUSH1 0x0 REVERT JUMPDEST PUSH1 0x1 PUSH1 0x1 PUSH1 0xE0 SHL SUB NOT DUP2 AND DUP2 EQ PUSH2 0xF6E JUMPI PUSH1 0x0 DUP1 REVERT INVALID LOG1 PUSH5 0x736F6C6343 STOP ADDMOD SMOD STOP EXP "},"methodIdentifiers":{"addDelegates(bytes32,string[])":"5d96b739","approve(address,uint256)":"095ea7b3","balanceOf(address)":"70a08231","createOrgId(bytes32,string)":"0ad0abce","getApproved(uint256)":"081812fc","getDelegates(bytes32)":"63ceab54","getOrgId(uint256)":"98980a8a","getOrgIds()":"e4f64990","getOrgIds(uint256,uint256)":"0193eda6","getTokenId(bytes32)":"c9cb65e1","initialize()":"8129fc1c","isApprovedForAll(address,address)":"e985e9c5","name()":"06fdde03","ownerOf(uint256)":"6352211e","removeDelegates(bytes32)":"bc52570b","removeDelegates(bytes32,string[])":"dfe0f511","safeTransferFrom(address,address,uint256)":"42842e0e","safeTransferFrom(address,address,uint256,bytes)":"b88d4fde","setApprovalForAll(address,bool)":"a22cb465","setOrgJson(bytes32,string)":"35178d91","supportsInterface(bytes4)":"01ffc9a7","symbol()":"95d89b41","tokenByIndex(uint256)":"4f6ccce7","tokenOfOwnerByIndex(address,uint256)":"2f745c59","tokenURI(uint256)":"c87b56dd","totalSupply()":"18160ddd","transferFrom(address,address,uint256)":"23b872dd"}},"storageLayout":{"storage":[{"astId":5,"contract":"contracts/OrgId.sol:OrgId","label":"_initialized","offset":0,"slot":"0","type":"t_bool"},{"astId":8,"contract":"contracts/OrgId.sol:OrgId","label":"_initializing","offset":1,"slot":"0","type":"t_bool"},{"astId":1737,"contract":"contracts/OrgId.sol:OrgId","label":"__gap","offset":0,"slot":"1","type":"t_array(t_uint256)50_storage"},{"astId":1986,"contract":"contracts/OrgId.sol:OrgId","label":"__gap","offset":0,"slot":"51","type":"t_array(t_uint256)50_storage"},{"astId":74,"contract":"contracts/OrgId.sol:OrgId","label":"_name","offset":0,"slot":"101","type":"t_string_storage"},{"astId":76,"contract":"contracts/OrgId.sol:OrgId","label":"_symbol","offset":0,"slot":"102","type":"t_string_storage"},{"astId":80,"contract":"contracts/OrgId.sol:OrgId","label":"_owners","offset":0,"slot":"103","type":"t_mapping(t_uint256,t_address)"},{"astId":84,"contract":"contracts/OrgId.sol:OrgId","label":"_balances","offset":0,"slot":"104","type":"t_mapping(t_address,t_uint256)"},{"astId":88,"contract":"contracts/OrgId.sol:OrgId","label":"_tokenApprovals","offset":0,"slot":"105","type":"t_mapping(t_uint256,t_address)"},{"astId":94,"contract":"contracts/OrgId.sol:OrgId","label":"_operatorApprovals","offset":0,"slot":"106","type":"t_mapping(t_address,t_mapping(t_address,t_bool))"},{"astId":890,"contract":"contracts/OrgId.sol:OrgId","label":"__gap","offset":0,"slot":"107","type":"t_array(t_uint256)44_storage"},{"astId":1064,"contract":"contracts/OrgId.sol:OrgId","label":"_ownedTokens","offset":0,"slot":"151","type":"t_mapping(t_address,t_mapping(t_uint256,t_uint256))"},{"astId":1068,"contract":"contracts/OrgId.sol:OrgId","label":"_ownedTokensIndex","offset":0,"slot":"152","type":"t_mapping(t_uint256,t_uint256)"},{"astId":1071,"contract":"contracts/OrgId.sol:OrgId","label":"_allTokens","offset":0,"slot":"153","type":"t_array(t_uint256)dyn_storage"},{"astId":1075,"contract":"contracts/OrgId.sol:OrgId","label":"_allTokensIndex","offset":0,"slot":"154","type":"t_mapping(t_uint256,t_uint256)"},{"astId":1390,"contract":"contracts/OrgId.sol:OrgId","label":"__gap","offset":0,"slot":"155","type":"t_array(t_uint256)46_storage"},{"astId":2478,"contract":"contracts/OrgId.sol:OrgId","label":"_orgToken","offset":0,"slot":"201","type":"t_mapping(t_bytes32,t_uint256)"},{"astId":2483,"contract":"contracts/OrgId.sol:OrgId","label":"_tokenOrg","offset":0,"slot":"202","type":"t_mapping(t_uint256,t_bytes32)"},{"astId":2488,"contract":"contracts/OrgId.sol:OrgId","label":"_orgJsonUris","offset":0,"slot":"203","type":"t_mapping(t_uint256,t_string_storage)"},{"astId":2492,"contract":"contracts/OrgId.sol:OrgId","label":"_orgIds","offset":0,"slot":"204","type":"t_array(t_bytes32)dyn_storage"},{"astId":2916,"contract":"contracts/OrgId.sol:OrgId","label":"__gap","offset":0,"slot":"205","type":"t_array(t_uint256)51_storage"},{"astId":2252,"contract":"contracts/OrgId.sol:OrgId","label":"_delegates","offset":0,"slot":"256","type":"t_mapping(t_bytes32,t_struct(Set)2932_storage)"}],"types":{"t_address":{"encoding":"inplace","label":"address","numberOfBytes":"20"},"t_array(t_bytes32)dyn_storage":{"base":"t_bytes32","encoding":"dynamic_array","label":"bytes32[]","numberOfBytes":"32"},"t_array(t_string_storage)dyn_storage":{"base":"t_string_storage","encoding":"dynamic_array","label":"string[]","numberOfBytes":"32"},"t_array(t_uint256)44_storage":{"base":"t_uint256","encoding":"inplace","label":"uint256[44]","numberOfBytes":"1408"},"t_array(t_uint256)46_storage":{"base":"t_uint256","encoding":"inplace","label":"uint256[46]","numberOfBytes":"1472"},"t_array(t_uint256)50_storage":{"base":"t_uint256","encoding":"inplace","label":"uint256[50]","numberOfBytes":"1600"},"t_array(t_uint256)51_storage":{"base":"t_uint256","encoding":"inplace","label":"uint256[51]","numberOfBytes":"1632"},"t_array(t_uint256)dyn_storage":{"base":"t_uint256","encoding":"dynamic_array","label":"uint256[]","numberOfBytes":"32"},"t_bool":{"encoding":"inplace","label":"bool","numberOfBytes":"1"},"t_bytes32":{"encoding":"inplace","label":"bytes32","numberOfBytes":"32"},"t_mapping(t_address,t_bool)":{"encoding":"mapping","key":"t_address","label":"mapping(address => bool)","numberOfBytes":"32","value":"t_bool"},"t_mapping(t_address,t_mapping(t_address,t_bool))":{"encoding":"mapping","key":"t_address","label":"mapping(address => mapping(address => bool))","numberOfBytes":"32","value":"t_mapping(t_address,t_bool)"},"t_mapping(t_address,t_mapping(t_uint256,t_uint256))":{"encoding":"mapping","key":"t_address","label":"mapping(address => mapping(uint256 => uint256))","numberOfBytes":"32","value":"t_mapping(t_uint256,t_uint256)"},"t_mapping(t_address,t_uint256)":{"encoding":"mapping","key":"t_address","label":"mapping(address => uint256)","numberOfBytes":"32","value":"t_uint256"},"t_mapping(t_bytes32,t_bool)":{"encoding":"mapping","key":"t_bytes32","label":"mapping(bytes32 => bool)","numberOfBytes":"32","value":"t_bool"},"t_mapping(t_bytes32,t_struct(Set)2932_storage)":{"encoding":"mapping","key":"t_bytes32","label":"mapping(bytes32 => struct StringsSet.Set)","numberOfBytes":"32","value":"t_struct(Set)2932_storage"},"t_mapping(t_bytes32,t_uint256)":{"encoding":"mapping","key":"t_bytes32","label":"mapping(bytes32 => uint256)","numberOfBytes":"32","value":"t_uint256"},"t_mapping(t_uint256,t_address)":{"encoding":"mapping","key":"t_uint256","label":"mapping(uint256 => address)","numberOfBytes":"32","value":"t_address"},"t_mapping(t_uint256,t_bytes32)":{"encoding":"mapping","key":"t_uint256","label":"mapping(uint256 => bytes32)","numberOfBytes":"32","value":"t_bytes32"},"t_mapping(t_uint256,t_string_storage)":{"encoding":"mapping","key":"t_uint256","label":"mapping(uint256 => string)","numberOfBytes":"32","value":"t_string_storage"},"t_mapping(t_uint256,t_uint256)":{"encoding":"mapping","key":"t_uint256","label":"mapping(uint256 => uint256)","numberOfBytes":"32","value":"t_uint256"},"t_string_storage":{"encoding":"bytes","label":"string","numberOfBytes":"32"},"t_struct(Set)2932_storage":{"encoding":"inplace","label":"struct StringsSet.Set","members":[{"astId":2923,"contract":"contracts/OrgId.sol:OrgId","label":"_values","offset":0,"slot":"0","type":"t_array(t_string_storage)dyn_storage"},{"astId":2927,"contract":"contracts/OrgId.sol:OrgId","label":"_hashTable","offset":0,"slot":"1","type":"t_mapping(t_bytes32,t_bool)"},{"astId":2931,"contract":"contracts/OrgId.sol:OrgId","label":"_indexes","offset":0,"slot":"2","type":"t_mapping(t_bytes32,t_uint256)"}],"numberOfBytes":"96"},"t_uint256":{"encoding":"inplace","label":"uint256","numberOfBytes":"32"}}}}}}