{"contracts/OrgId.sol":{"OrgId":{"abi":[{"inputs":[],"name":"CalledNotByOrgIdOwner","type":"error"},{"inputs":[],"name":"InvalidDelegatesInput","type":"error"},{"inputs":[{"internalType":"bytes32","name":"orgId","type":"bytes32"}],"name":"OrgIdAlreadyExists","type":"error"},{"inputs":[{"internalType":"bytes32","name":"orgId","type":"bytes32"}],"name":"OrgIdNotFound","type":"error"},{"inputs":[],"name":"OrgJsonUriEmpty","type":"error"},{"inputs":[{"internalType":"uint256","name":"tokenId","type":"uint256"}],"name":"TokenNotFound","type":"error"},{"anonymous":false,"inputs":[{"indexed":true,"internalType":"address","name":"owner","type":"address"},{"indexed":true,"internalType":"address","name":"approved","type":"address"},{"indexed":true,"internalType":"uint256","name":"tokenId","type":"uint256"}],"name":"Approval","type":"event"},{"anonymous":false,"inputs":[{"indexed":true,"internalType":"address","name":"owner","type":"address"},{"indexed":true,"internalType":"address","name":"operator","type":"address"},{"indexed":false,"internalType":"bool","name":"approved","type":"bool"}],"name":"ApprovalForAll","type":"event"},{"anonymous":false,"inputs":[{"indexed":false,"internalType":"uint8","name":"version","type":"uint8"}],"name":"Initialized","type":"event"},{"anonymous":false,"inputs":[{"indexed":true,"internalType":"bytes32","name":"orgId","type":"bytes32"},{"indexed":true,"internalType":"address","name":"owner","type":"address"}],"name":"OrgIdCreated","type":"event"},{"anonymous":false,"inputs":[{"indexed":true,"internalType":"bytes32","name":"orgId","type":"bytes32"},{"indexed":false,"internalType":"string[]","name":"delegates","type":"string[]"}],"name":"OrgIdDelegatesAdded","type":"event"},{"anonymous":false,"inputs":[{"indexed":true,"internalType":"bytes32","name":"orgId","type":"bytes32"},{"indexed":false,"internalType":"string[]","name":"delegates","type":"string[]"}],"name":"OrgIdDelegatesRemoved","type":"event"},{"anonymous":false,"inputs":[{"indexed":true,"internalType":"bytes32","name":"orgId","type":"bytes32"},{"indexed":false,"internalType":"string","name":"orgJsonUri","type":"string"}],"name":"OrgJsonUriChanged","type":"event"},{"anonymous":false,"inputs":[{"indexed":true,"internalType":"address","name":"from","type":"address"},{"indexed":true,"internalType":"address","name":"to","type":"address"},{"indexed":true,"internalType":"uint256","name":"tokenId","type":"uint256"}],"name":"Transfer","type":"event"},{"inputs":[{"internalType":"bytes32","name":"orgId","type":"bytes32"},{"internalType":"string[]","name":"dids","type":"string[]"}],"name":"addDelegates","outputs":[],"stateMutability":"nonpayable","type":"function"},{"inputs":[{"internalType":"address","name":"to","type":"address"},{"internalType":"uint256","name":"tokenId","type":"uint256"}],"name":"approve","outputs":[],"stateMutability":"nonpayable","type":"function"},{"inputs":[{"internalType":"address","name":"owner","type":"address"}],"name":"balanceOf","outputs":[{"internalType":"uint256","name":"","type":"uint256"}],"stateMutability":"view","type":"function"},{"inputs":[{"internalType":"bytes32","name":"salt","type":"bytes32"},{"internalType":"string","name":"orgJsonUri","type":"string"}],"name":"createOrgId","outputs":[{"internalType":"bytes32","name":"","type":"bytes32"}],"stateMutability":"nonpayable","type":"function"},{"inputs":[{"internalType":"bytes32","name":"salt","type":"bytes32"},{"internalType":"string","name":"orgJsonUri","type":"string"},{"internalType":"string[]","name":"dids","type":"string[]"}],"name":"createOrgId","outputs":[],"stateMutability":"nonpayable","type":"function"},{"inputs":[{"internalType":"uint256","name":"tokenId","type":"uint256"}],"name":"getApproved","outputs":[{"internalType":"address","name":"","type":"address"}],"stateMutability":"view","type":"function"},{"inputs":[{"internalType":"bytes32","name":"orgId","type":"bytes32"}],"name":"getDelegates","outputs":[{"internalType":"string[]","name":"dids","type":"string[]"}],"stateMutability":"view","type":"function"},{"inputs":[{"internalType":"uint256","name":"tokenId","type":"uint256"}],"name":"getOrgId","outputs":[{"internalType":"bool","name":"exists","type":"bool"},{"internalType":"bytes32","name":"orgId","type":"bytes32"},{"internalType":"string","name":"orgJsonUri","type":"string"},{"internalType":"address","name":"owner","type":"address"}],"stateMutability":"view","type":"function"},{"inputs":[{"internalType":"uint256","name":"cursor","type":"uint256"},{"internalType":"uint256","name":"count","type":"uint256"}],"name":"getOrgIds","outputs":[{"internalType":"bytes32[]","name":"orgIds","type":"bytes32[]"}],"stateMutability":"view","type":"function"},{"inputs":[],"name":"getOrgIds","outputs":[{"internalType":"bytes32[]","name":"orgIds","type":"bytes32[]"}],"stateMutability":"view","type":"function"},{"inputs":[{"internalType":"bytes32","name":"orgId","type":"bytes32"}],"name":"getTokenId","outputs":[{"internalType":"uint256","name":"tokenId","type":"uint256"}],"stateMutability":"view","type":"function"},{"inputs":[],"name":"initialize","outputs":[],"stateMutability":"nonpayable","type":"function"},{"inputs":[{"internalType":"address","name":"owner","type":"address"},{"internalType":"address","name":"operator","type":"address"}],"name":"isApprovedForAll","outputs":[{"internalType":"bool","name":"","type":"bool"}],"stateMutability":"view","type":"function"},{"inputs":[],"name":"name","outputs":[{"internalType":"string","name":"","type":"string"}],"stateMutability":"view","type":"function"},{"inputs":[{"internalType":"uint256","name":"tokenId","type":"uint256"}],"name":"ownerOf","outputs":[{"internalType":"address","name":"","type":"address"}],"stateMutability":"view","type":"function"},{"inputs":[{"internalType":"bytes32","name":"orgId","type":"bytes32"}],"name":"removeDelegates","outputs":[],"stateMutability":"nonpayable","type":"function"},{"inputs":[{"internalType":"bytes32","name":"orgId","type":"bytes32"},{"internalType":"string[]","name":"dids","type":"string[]"}],"name":"removeDelegates","outputs":[],"stateMutability":"nonpayable","type":"function"},{"inputs":[{"internalType":"address","name":"from","type":"address"},{"internalType":"address","name":"to","type":"address"},{"internalType":"uint256","name":"tokenId","type":"uint256"}],"name":"safeTransferFrom","outputs":[],"stateMutability":"nonpayable","type":"function"},{"inputs":[{"internalType":"address","name":"from","type":"address"},{"internalType":"address","name":"to","type":"address"},{"internalType":"uint256","name":"tokenId","type":"uint256"},{"internalType":"bytes","name":"data","type":"bytes"}],"name":"safeTransferFrom","outputs":[],"stateMutability":"nonpayable","type":"function"},{"inputs":[{"internalType":"address","name":"operator","type":"address"},{"internalType":"bool","name":"approved","type":"bool"}],"name":"setApprovalForAll","outputs":[],"stateMutability":"nonpayable","type":"function"},{"inputs":[{"internalType":"bytes32","name":"orgId","type":"bytes32"},{"internalType":"string","name":"orgJsonUri","type":"string"}],"name":"setOrgJson","outputs":[],"stateMutability":"nonpayable","type":"function"},{"inputs":[{"internalType":"bytes32","name":"orgId","type":"bytes32"},{"internalType":"string","name":"orgJsonUri","type":"string"},{"internalType":"string[]","name":"dids","type":"string[]"}],"name":"setOrgJson","outputs":[],"stateMutability":"nonpayable","type":"function"},{"inputs":[{"internalType":"bytes4","name":"interfaceId","type":"bytes4"}],"name":"supportsInterface","outputs":[{"internalType":"bool","name":"","type":"bool"}],"stateMutability":"view","type":"function"},{"inputs":[],"name":"symbol","outputs":[{"internalType":"string","name":"","type":"string"}],"stateMutability":"view","type":"function"},{"inputs":[{"internalType":"uint256","name":"index","type":"uint256"}],"name":"tokenByIndex","outputs":[{"internalType":"uint256","name":"","type":"uint256"}],"stateMutability":"view","type":"function"},{"inputs":[{"internalType":"address","name":"owner","type":"address"},{"internalType":"uint256","name":"index","type":"uint256"}],"name":"tokenOfOwnerByIndex","outputs":[{"internalType":"uint256","name":"","type":"uint256"}],"stateMutability":"view","type":"function"},{"inputs":[{"internalType":"uint256","name":"tokenId","type":"uint256"}],"name":"tokenURI","outputs":[{"internalType":"string","name":"","type":"string"}],"stateMutability":"view","type":"function"},{"inputs":[],"name":"totalSupply","outputs":[{"internalType":"uint256","name":"","type":"uint256"}],"stateMutability":"view","type":"function"},{"inputs":[{"internalType":"address","name":"from","type":"address"},{"internalType":"address","name":"to","type":"address"},{"internalType":"uint256","name":"tokenId","type":"uint256"}],"name":"transferFrom","outputs":[],"stateMutability":"nonpayable","type":"function"}],"evm":{"bytecode":{"linkReferences":{},"object":"608060405234801561001057600080fd5b5061314d806100206000396000f3fe608060405234801561001057600080fd5b50600436106101cf5760003560e01c806363ceab5411610104578063b676e2ff116100a2578063c9cb65e111610071578063c9cb65e1146103fb578063dfe0f5111461041b578063e4f649901461042e578063e985e9c51461043657600080fd5b8063b676e2ff146103af578063b88d4fde146103c2578063bc52570b146103d5578063c87b56dd146103e857600080fd5b80638129fc1c116100de5780638129fc1c1461036957806395d89b411461037157806398980a8a14610379578063a22cb4651461039c57600080fd5b806363ceab54146103235780636bad88351461034357806370a082311461035657600080fd5b806323b872dd1161017157806342842e0e1161014b57806342842e0e146102d75780634f6ccce7146102ea5780635d96b739146102fd5780636352211e1461031057600080fd5b806323b872dd1461029e5780632f745c59146102b157806335178d91146102c457600080fd5b8063081812fc116101ad578063081812fc14610235578063095ea7b3146102605780630ad0abce1461027557806318160ddd1461029657600080fd5b80630193eda6146101d457806301ffc9a7146101fd57806306fdde0314610220575b600080fd5b6101e76101e2366004612676565b610472565b6040516101f49190612698565b60405180910390f35b61021061020b3660046126f2565b610649565b60405190151581526020016101f4565b61022861065a565b6040516101f49190612766565b610248610243366004612779565b6106ec565b6040516001600160a01b0390911681526020016101f4565b61027361026e3660046127a9565b610713565b005b61028861028336600461281c565b61082d565b6040519081526020016101f4565b609954610288565b6102736102ac366004612868565b6109c7565b6102886102bf3660046127a9565b6109f8565b6102736102d236600461281c565b610a8e565b6102736102e5366004612868565b610b93565b6102886102f8366004612779565b610bae565b61027361030b3660046129f7565b610c41565b61024861031e366004612779565b610d8e565b610336610331366004612779565b610dee565b6040516101f49190612a93565b610273610351366004612aa6565b610e09565b610288610364366004612b19565b610f1b565b610273610fa1565b6102286110af565b61038c610387366004612779565b6110be565b6040516101f49493929190612b34565b6102736103aa366004612b6e565b611198565b6102736103bd366004612aa6565b6111a7565b6102736103d0366004612baa565b6112d1565b6102736103e3366004612779565b611303565b6102286103f6366004612779565b611403565b610288610409366004612779565b600090815260c9602052604090205490565b6102736104293660046129f7565b6114dc565b6101e7611629565b610210610444366004612c1a565b6001600160a01b039182166000908152606a6020908152604080832093909416825291909152205460ff1690565b606060008267ffffffffffffffff81111561048f5761048f6128a4565b6040519080825280602002602001820160405280156104b8578160200160208202803683370190505b509050600080855b60cc54811080156104d957506104d68688612c63565b81105b1561056f5760cc81815481106104f1576104f1612c76565b906000526020600020015484848151811061050e5761050e612c76565b6020026020010181815250506000801b60cc828154811061053157610531612c76565b90600052602060002001541461054f578161054b81612c8c565b9250505b8261055981612c8c565b935050808061056790612c8c565b9150506104c0565b508067ffffffffffffffff811115610589576105896128a4565b6040519080825280602002602001820160405280156105b2578160200160208202803683370190505b5093506000915060005b835181101561063f576000801b8482815181106105db576105db612c76565b60200260200101511461062d578381815181106105fa576105fa612c76565b602002602001015185848151811061061457610614612c76565b60209081029190910101528261062981612c8c565b9350505b8061063781612c8c565b9150506105bc565b5050505092915050565b600061065482611680565b92915050565b60606065805461066990612ca5565b80601f016020809104026020016040519081016040528092919081815260200182805461069590612ca5565b80156106e25780601f106106b7576101008083540402835291602001916106e2565b820191906000526020600020905b8154815290600101906020018083116106c557829003601f168201915b5050505050905090565b60006106f78261168b565b506000908152606960205260409020546001600160a01b031690565b600061071e82610d8e565b9050806001600160a01b0316836001600160a01b0316036107905760405162461bcd60e51b815260206004820152602160248201527f4552433732313a20617070726f76616c20746f2063757272656e74206f776e656044820152603960f91b60648201526084015b60405180910390fd5b336001600160a01b03821614806107ac57506107ac8133610444565b61081e5760405162461bcd60e51b815260206004820152603e60248201527f4552433732313a20617070726f76652063616c6c6572206973206e6f7420746f60448201527f6b656e206f776e6572206e6f7220617070726f76656420666f7220616c6c00006064820152608401610787565b61082883836116ea565b505050565b600081810361084f57604051633f0e0a7f60e21b815260040160405180910390fd5b6000336040516bffffffffffffffffffffffff19606083901b1660208201526034810187905290915060009060540160408051601f19818403018152918152815160209283012060cc8054600181019091557f47197230e1e4b29fc0bd84d7d78966c0925452aff72a2a121538b102457e9ebe01819055600081815260c9909352912054909150156108f7576040516358dc901360e01b815260048101829052602401610787565b600061090260995490565b61090d906001612c63565b90506109198382611758565b600082815260c96020908152604080832084905583835260ca825280832085905560cb909152902061094c868883612d2d565b506040516001600160a01b0384169083907f49422f7ad2eca08595f1596952d2d805b5d5ba06f8c371dcb617c86a5b42ba0790600090a3817f4e0249d19860daeb2f0627d804cc93426e237cb754fef478c3a6cbcbc276265787876040516109b5929190612e16565b60405180910390a25095945050505050565b6109d13382611772565b6109ed5760405162461bcd60e51b815260040161078790612e2a565b6108288383836117f1565b6000610a0383610f1b565b8210610a655760405162461bcd60e51b815260206004820152602b60248201527f455243373231456e756d657261626c653a206f776e657220696e646578206f7560448201526a74206f6620626f756e647360a81b6064820152608401610787565b506001600160a01b03919091166000908152609760209081526040808320938352929052205490565b82801580610aa85750600081815260c96020526040902054155b15610ac9576040516387fe3aad60e01b815260048101829052602401610787565b600081815260c960205260409020543390610ae390610d8e565b6001600160a01b031614610b0a57604051635612e54f60e11b815260040160405180910390fd5b6000829003610b2c57604051633f0e0a7f60e21b815260040160405180910390fd5b600084815260c96020908152604080832054835260cb9091529020610b52838583612d2d565b50837f4e0249d19860daeb2f0627d804cc93426e237cb754fef478c3a6cbcbc27626578484604051610b85929190612e16565b60405180910390a250505050565b610828838383604051806020016040528060008152506112d1565b6000610bb960995490565b8210610c1c5760405162461bcd60e51b815260206004820152602c60248201527f455243373231456e756d657261626c653a20676c6f62616c20696e646578206f60448201526b7574206f6620626f756e647360a01b6064820152608401610787565b60998281548110610c2f57610c2f612c76565b90600052602060002001549050919050565b81801580610c5b5750600081815260c96020526040902054155b15610c7c576040516387fe3aad60e01b815260048101829052602401610787565b600081815260c960205260409020543390610c9690610d8e565b6001600160a01b031614610cbd57604051635612e54f60e11b815260040160405180910390fd5b8151600003610cdf57604051634816a76760e01b815260040160405180910390fd5b6000805b8351811015610d5d57610d2b848281518110610d0157610d01612c76565b6020026020010151610100600088815260200190815260200160002061199890919063ffffffff16565b915081610d4b57604051634816a76760e01b815260040160405180910390fd5b80610d5581612c8c565b915050610ce3565b50837f9af1bf1f55d94dc29bfe249a6e5c1f9b82c06fee0cdaeada46f044b69f68c7cc84604051610b859190612a93565b6000818152606760205260408120546001600160a01b0316806106545760405162461bcd60e51b8152602060048201526018602482015277115490cdcc8c4e881a5b9d985b1a59081d1bdad95b88125160421b6044820152606401610787565b60008181526101006020526040902060609061065490611a39565b6040516335178d9160e01b815230906335178d9190610e3090879087908790600401612e78565b600060405180830381600087803b158015610e4a57600080fd5b505af1158015610e5e573d6000803e3d6000fd5b505060405163bc52570b60e01b81526004810187905230925063bc52570b9150602401600060405180830381600087803b158015610e9b57600080fd5b505af1158015610eaf573d6000803e3d6000fd5b50505050600081511115610f1557604051635d96b73960e01b81523090635d96b73990610ee29087908590600401612e9b565b600060405180830381600087803b158015610efc57600080fd5b505af1158015610f10573d6000803e3d6000fd5b505050505b50505050565b60006001600160a01b038216610f855760405162461bcd60e51b815260206004820152602960248201527f4552433732313a2061646472657373207a65726f206973206e6f7420612076616044820152683634b21037bbb732b960b91b6064820152608401610787565b506001600160a01b031660009081526068602052604090205490565b600054610100900460ff1615808015610fc15750600054600160ff909116105b80610fdb5750303b158015610fdb575060005460ff166001145b610ff75760405162461bcd60e51b815260040161078790612eb4565b6000805460ff19166001179055801561101a576000805461ff0019166101001790555b61105e6040518060400160405280600581526020016413d491da5160da1b8152506040518060400160405280600581526020016413d491da5160da1b815250611b16565b611066611b47565b80156110ac576000805461ff0019169055604051600181527f7f26b83ff96e1f2b6a682f133852f6798a09c465da95921460cefb38474024989060200160405180910390a15b50565b60606066805461066990612ca5565b600081815260ca602090815260408083205460679092528220546001600160a01b03161580159260609161119157600085815260cb60205260409020805461110590612ca5565b80601f016020809104026020016040519081016040528092919081815260200182805461113190612ca5565b801561117e5780601f106111535761010080835404028352916020019161117e565b820191906000526020600020905b81548152906001019060200180831161116157829003601f168201915b5050505050915061118e85610d8e565b90505b9193509193565b6111a3338383611bc8565b5050565b60405163056855e760e11b81526000903090630ad0abce906111d190889088908890600401612e78565b6020604051808303816000875af11580156111f0573d6000803e3d6000fd5b505050506040513d601f19601f820116820180604052508101906112149190612f02565b60405163bc52570b60e01b815260048101829052909150309063bc52570b90602401600060405180830381600087803b15801561125057600080fd5b505af1158015611264573d6000803e3d6000fd5b505050506000825111156112ca57604051635d96b73960e01b81523090635d96b739906112979084908690600401612e9b565b600060405180830381600087803b1580156112b157600080fd5b505af11580156112c5573d6000803e3d6000fd5b505050505b5050505050565b6112db3383611772565b6112f75760405162461bcd60e51b815260040161078790612e2a565b610f1584848484611c96565b8080158061131d5750600081815260c96020526040902054155b1561133e576040516387fe3aad60e01b815260048101829052602401610787565b600081815260c96020526040902054339061135890610d8e565b6001600160a01b03161461137f57604051635612e54f60e11b815260040160405180910390fd5b60008281526101006020526040812061139790611a39565b600084815261010060205260408120919250906113b390611cc9565b9050806113d357604051634816a76760e01b815260040160405180910390fd5b837fb3c3b87d0ea8237b590c2dbf7d3acf90e54a40cf0ef1e4c0d948736e1fabd8a983604051610b859190612a93565b6000818152606760205260409020546060906001600160a01b031661143e576040516306caeb1360e41b815260048101839052602401610787565b600082815260cb60205260409020805461145790612ca5565b80601f016020809104026020016040519081016040528092919081815260200182805461148390612ca5565b80156114d05780601f106114a5576101008083540402835291602001916114d0565b820191906000526020600020905b8154815290600101906020018083116114b357829003601f168201915b50505050509050919050565b818015806114f65750600081815260c96020526040902054155b15611517576040516387fe3aad60e01b815260048101829052602401610787565b600081815260c96020526040902054339061153190610d8e565b6001600160a01b03161461155857604051635612e54f60e11b815260040160405180910390fd5b815160000361157a57604051634816a76760e01b815260040160405180910390fd5b6000805b83518110156115f8576115c684828151811061159c5761159c612c76565b60200260200101516101006000888152602001908152602001600020611ded90919063ffffffff16565b9150816115e657604051634816a76760e01b815260040160405180910390fd5b806115f081612c8c565b91505061157e565b50837fb3c3b87d0ea8237b590c2dbf7d3acf90e54a40cf0ef1e4c0d948736e1fabd8a984604051610b859190612a93565b606060cc8054806020026020016040519081016040528092919081815260200182805480156106e257602002820191906000526020600020905b815481526020019060010190808311611663575050505050905090565b600061065482611fcb565b6000818152606760205260409020546001600160a01b03166110ac5760405162461bcd60e51b8152602060048201526018602482015277115490cdcc8c4e881a5b9d985b1a59081d1bdad95b88125160421b6044820152606401610787565b600081815260696020526040902080546001600160a01b0319166001600160a01b038416908117909155819061171f82610d8e565b6001600160a01b03167f8c5be1e5ebec7d5bd14f71427d1e84f3dd0314c0f7b2291e5b200ac8c7c3b92560405160405180910390a45050565b6111a3828260405180602001604052806000815250611ff0565b60008061177e83610d8e565b9050806001600160a01b0316846001600160a01b031614806117c557506001600160a01b038082166000908152606a602090815260408083209388168352929052205460ff165b806117e95750836001600160a01b03166117de846106ec565b6001600160a01b0316145b949350505050565b826001600160a01b031661180482610d8e565b6001600160a01b0316146118685760405162461bcd60e51b815260206004820152602560248201527f4552433732313a207472616e736665722066726f6d20696e636f72726563742060448201526437bbb732b960d91b6064820152608401610787565b6001600160a01b0382166118ca5760405162461bcd60e51b8152602060048201526024808201527f4552433732313a207472616e7366657220746f20746865207a65726f206164646044820152637265737360e01b6064820152608401610787565b6118d5838383612023565b6118e06000826116ea565b6001600160a01b0383166000908152606860205260408120805460019290611909908490612f1b565b90915550506001600160a01b0382166000908152606860205260408120805460019290611937908490612c63565b909155505060008181526067602052604080822080546001600160a01b0319166001600160a01b0386811691821790925591518493918716917fddf252ad1be2c89b69c2b068fc378daa952ba7f163c4a11628f55a4df523b3ef91a4505050565b600081516000036119ab57506000610654565b60006119b6836120db565b600081815260018601602052604090205490915060ff16611a1e576000818152600185810160209081526040808420805460ff1916841790558754600289018352908420819055918201875586835290912001611a138482612f2e565b506001915050610654565b600090815260018401602052604090205460ff169050610654565b606081600001805480602002602001604051908101604052809291908181526020016000905b82821015611b0b578382906000526020600020018054611a7e90612ca5565b80601f0160208091040260200160405190810160405280929190818152602001828054611aaa90612ca5565b8015611af75780601f10611acc57610100808354040283529160200191611af7565b820191906000526020600020905b815481529060010190602001808311611ada57829003601f168201915b505050505081526020019060010190611a5f565b505050509050919050565b600054610100900460ff16611b3d5760405162461bcd60e51b815260040161078790612fee565b6111a3828261210b565b600054610100900460ff1615808015611b675750600054600160ff909116105b80611b815750303b158015611b81575060005460ff166001145b611b9d5760405162461bcd60e51b815260040161078790612eb4565b6000805460ff191660011790558015611bc0576000805461ff0019166101001790555b61106661214b565b816001600160a01b0316836001600160a01b031603611c295760405162461bcd60e51b815260206004820152601960248201527f4552433732313a20617070726f766520746f2063616c6c6572000000000000006044820152606401610787565b6001600160a01b038381166000818152606a6020908152604080832094871680845294825291829020805460ff191686151590811790915591519182527f17307eab39ab6107e8899845ad3d59bd9653f200f220920489ca2b5937696c31910160405180910390a3505050565b611ca18484846117f1565b611cad84848484612174565b610f155760405162461bcd60e51b815260040161078790613039565b805460009015611de0576000805b8354811015611dcb57611d90846000018281548110611cf857611cf8612c76565b906000526020600020018054611d0d90612ca5565b80601f0160208091040260200160405190810160405280929190818152602001828054611d3990612ca5565b8015611d865780601f10611d5b57610100808354040283529160200191611d86565b820191906000526020600020905b815481529060010190602001808311611d6957829003601f168201915b50505050506120db565b60008181526002860160209081526040808320839055600188019091529020805460ff19169055915080611dc381612c8c565b915050611cd7565b50611dd78360006125e8565b50600192915050565b506000919050565b919050565b60008151600003611e0057506000610654565b6000611e0b836120db565b600081815260018601602052604090205490915060ff1615611faf5760008181526002850160205260408120548554909190611e4990600190612f1b565b9050818114611f4e576000866000018281548110611e6957611e69612c76565b906000526020600020018054611e7e90612ca5565b80601f0160208091040260200160405190810160405280929190818152602001828054611eaa90612ca5565b8015611ef75780601f10611ecc57610100808354040283529160200191611ef7565b820191906000526020600020905b815481529060010190602001808311611eda57829003601f168201915b5050505050905080876000018481548110611f1457611f14612c76565b906000526020600020019081611f2a9190612f2e565b5082876002016000611f3b846120db565b8152602081019190915260400160002055505b8554869080611f5f57611f5f61308b565b600190038181906000526020600020016000611f7b9190612606565b90555050600090815260028401602090815260408083208390556001808701909252909120805460ff191690559050610654565b600090815260018401602052604090205460ff16159050610654565b60006001600160e01b03198216635deabe7760e01b1480610654575061065482612275565b611ffa838361229a565b6120076000848484612174565b6108285760405162461bcd60e51b815260040161078790613039565b6001600160a01b03831661207e5761207981609980546000838152609a60205260408120829055600182018355919091527f72a152ddfb8e864297c917af52ea6c1c68aead0fee1a62673fcc7e0c94979d000155565b6120a1565b816001600160a01b0316836001600160a01b0316146120a1576120a183826123e8565b6001600160a01b0382166120b85761082881612485565b826001600160a01b0316826001600160a01b031614610828576108288282612534565b6000816040516020016120ee91906130a1565b604051602081830303815290604052805190602001209050919050565b600054610100900460ff166121325760405162461bcd60e51b815260040161078790612fee565b606561213e8382612f2e565b5060666108288282612f2e565b600054610100900460ff166121725760405162461bcd60e51b815260040161078790612fee565b565b60006001600160a01b0384163b1561226a57604051630a85bd0160e11b81526001600160a01b0385169063150b7a02906121b89033908990889088906004016130bd565b6020604051808303816000875af19250505080156121f3575060408051601f3d908101601f191682019092526121f0918101906130fa565b60015b612250573d808015612221576040519150601f19603f3d011682016040523d82523d6000602084013e612226565b606091505b5080516000036122485760405162461bcd60e51b815260040161078790613039565b805181602001fd5b6001600160e01b031916630a85bd0160e11b1490506117e9565b506001949350505050565b60006001600160e01b031982166345f8f68160e11b1480610654575061065482612578565b6001600160a01b0382166122f05760405162461bcd60e51b815260206004820181905260248201527f4552433732313a206d696e7420746f20746865207a65726f20616464726573736044820152606401610787565b6000818152606760205260409020546001600160a01b0316156123555760405162461bcd60e51b815260206004820152601c60248201527f4552433732313a20746f6b656e20616c7265616479206d696e746564000000006044820152606401610787565b61236160008383612023565b6001600160a01b038216600090815260686020526040812080546001929061238a908490612c63565b909155505060008181526067602052604080822080546001600160a01b0319166001600160a01b03861690811790915590518392907fddf252ad1be2c89b69c2b068fc378daa952ba7f163c4a11628f55a4df523b3ef908290a45050565b600060016123f584610f1b565b6123ff9190612f1b565b600083815260986020526040902054909150808214612452576001600160a01b03841660009081526097602090815260408083208584528252808320548484528184208190558352609890915290208190555b5060009182526098602090815260408084208490556001600160a01b039094168352609781528383209183525290812055565b60995460009061249790600190612f1b565b6000838152609a6020526040812054609980549394509092849081106124bf576124bf612c76565b9060005260206000200154905080609983815481106124e0576124e0612c76565b6000918252602080832090910192909255828152609a909152604080822084905585825281205560998054806125185761251861308b565b6001900381819060005260206000200160009055905550505050565b600061253f83610f1b565b6001600160a01b039093166000908152609760209081526040808320868452825280832085905593825260989052919091209190915550565b60006001600160e01b0319821663780e9d6360e01b148061065457506106548260006001600160e01b031982166380ac58cd60e01b14806125c957506001600160e01b03198216635b5e139f60e01b145b8061065457506301ffc9a760e01b6001600160e01b0319831614610654565b50805460008255906000526020600020908101906110ac9190612640565b50805461261290612ca5565b6000825580601f10612622575050565b601f0160209004906000526020600020908101906110ac9190612661565b8082111561265d5760006126548282612606565b50600101612640565b5090565b5b8082111561265d5760008155600101612662565b6000806040838503121561268957600080fd5b50508035926020909101359150565b6020808252825182820181905260009190848201906040850190845b818110156126d0578351835292840192918401916001016126b4565b50909695505050505050565b6001600160e01b0319811681146110ac57600080fd5b60006020828403121561270457600080fd5b813561270f816126dc565b9392505050565b60005b83811015612731578181015183820152602001612719565b50506000910152565b60008151808452612752816020860160208601612716565b601f01601f19169290920160200192915050565b60208152600061270f602083018461273a565b60006020828403121561278b57600080fd5b5035919050565b80356001600160a01b0381168114611de857600080fd5b600080604083850312156127bc57600080fd5b6127c583612792565b946020939093013593505050565b60008083601f8401126127e557600080fd5b50813567ffffffffffffffff8111156127fd57600080fd5b60208301915083602082850101111561281557600080fd5b9250929050565b60008060006040848603121561283157600080fd5b83359250602084013567ffffffffffffffff81111561284f57600080fd5b61285b868287016127d3565b9497909650939450505050565b60008060006060848603121561287d57600080fd5b61288684612792565b925061289460208501612792565b9150604084013590509250925092565b634e487b7160e01b600052604160045260246000fd5b604051601f8201601f1916810167ffffffffffffffff811182821017156128e3576128e36128a4565b604052919050565b600067ffffffffffffffff831115612905576129056128a4565b612918601f8401601f19166020016128ba565b905082815283838301111561292c57600080fd5b828260208301376000602084830101529392505050565b600082601f83011261295457600080fd5b8135602067ffffffffffffffff80831115612971576129716128a4565b8260051b6129808382016128ba565b938452858101830193838101908886111561299a57600080fd5b84880192505b858310156129eb578235848111156129b85760008081fd5b8801603f81018a136129ca5760008081fd5b6129db8a87830135604084016128eb565b83525091840191908401906129a0565b98975050505050505050565b60008060408385031215612a0a57600080fd5b82359150602083013567ffffffffffffffff811115612a2857600080fd5b612a3485828601612943565b9150509250929050565b600081518084526020808501808196508360051b8101915082860160005b85811015612a86578284038952612a7484835161273a565b98850198935090840190600101612a5c565b5091979650505050505050565b60208152600061270f6020830184612a3e565b60008060008060608587031215612abc57600080fd5b84359350602085013567ffffffffffffffff80821115612adb57600080fd5b612ae7888389016127d3565b90955093506040870135915080821115612b0057600080fd5b50612b0d87828801612943565b91505092959194509250565b600060208284031215612b2b57600080fd5b61270f82612792565b8415158152836020820152608060408201526000612b55608083018561273a565b905060018060a01b038316606083015295945050505050565b60008060408385031215612b8157600080fd5b612b8a83612792565b915060208301358015158114612b9f57600080fd5b809150509250929050565b60008060008060808587031215612bc057600080fd5b612bc985612792565b9350612bd760208601612792565b925060408501359150606085013567ffffffffffffffff811115612bfa57600080fd5b8501601f81018713612c0b57600080fd5b612b0d878235602084016128eb565b60008060408385031215612c2d57600080fd5b612c3683612792565b9150612c4460208401612792565b90509250929050565b634e487b7160e01b600052601160045260246000fd5b8082018082111561065457610654612c4d565b634e487b7160e01b600052603260045260246000fd5b600060018201612c9e57612c9e612c4d565b5060010190565b600181811c90821680612cb957607f821691505b602082108103612cd957634e487b7160e01b600052602260045260246000fd5b50919050565b601f82111561082857600081815260208120601f850160051c81016020861015612d065750805b601f850160051c820191505b81811015612d2557828155600101612d12565b505050505050565b67ffffffffffffffff831115612d4557612d456128a4565b612d5983612d538354612ca5565b83612cdf565b6000601f841160018114612d8d5760008515612d755750838201355b600019600387901b1c1916600186901b1783556112ca565b600083815260209020601f19861690835b82811015612dbe5786850135825560209485019460019092019101612d9e565b5086821015612ddb5760001960f88860031b161c19848701351681555b505060018560011b0183555050505050565b81835281816020850137506000828201602090810191909152601f909101601f19169091010190565b6020815260006117e9602083018486612ded565b6020808252602e908201527f4552433732313a2063616c6c6572206973206e6f7420746f6b656e206f776e6560408201526d1c881b9bdc88185c1c1c9bdd995960921b606082015260800190565b838152604060208201526000612e92604083018486612ded565b95945050505050565b8281526040602082015260006117e96040830184612a3e565b6020808252602e908201527f496e697469616c697a61626c653a20636f6e747261637420697320616c72656160408201526d191e481a5b9a5d1a585b1a5e995960921b606082015260800190565b600060208284031215612f1457600080fd5b5051919050565b8181038181111561065457610654612c4d565b815167ffffffffffffffff811115612f4857612f486128a4565b612f5c81612f568454612ca5565b84612cdf565b602080601f831160018114612f915760008415612f795750858301515b600019600386901b1c1916600185901b178555612d25565b600085815260208120601f198616915b82811015612fc057888601518255948401946001909101908401612fa1565b5085821015612fde5787850151600019600388901b60f8161c191681555b5050505050600190811b01905550565b6020808252602b908201527f496e697469616c697a61626c653a20636f6e7472616374206973206e6f74206960408201526a6e697469616c697a696e6760a81b606082015260800190565b60208082526032908201527f4552433732313a207472616e7366657220746f206e6f6e20455243373231526560408201527131b2b4bb32b91034b6b83632b6b2b73a32b960711b606082015260800190565b634e487b7160e01b600052603160045260246000fd5b600082516130b3818460208701612716565b9190910192915050565b6001600160a01b03858116825284166020820152604081018390526080606082018190526000906130f09083018461273a565b9695505050505050565b60006020828403121561310c57600080fd5b815161270f816126dc56fea264697066735822122032c394d2ba0fa9c0d39a23ab3b8cf94a57e44c29375458a5414ba033aa7b58ec64736f6c63430008110033","opcodes":"PUSH1 0x80 PUSH1 0x40 MSTORE CALLVALUE DUP1 ISZERO PUSH2 0x10 JUMPI PUSH1 0x0 DUP1 REVERT JUMPDEST POP PUSH2 0x314D DUP1 PUSH2 0x20 PUSH1 0x0 CODECOPY PUSH1 0x0 RETURN INVALID PUSH1 0x80 PUSH1 0x40 MSTORE CALLVALUE DUP1 ISZERO PUSH2 0x10 JUMPI PUSH1 0x0 DUP1 REVERT JUMPDEST POP PUSH1 0x4 CALLDATASIZE LT PUSH2 0x1CF JUMPI PUSH1 0x0 CALLDATALOAD PUSH1 0xE0 SHR DUP1 PUSH4 0x63CEAB54 GT PUSH2 0x104 JUMPI DUP1 PUSH4 0xB676E2FF GT PUSH2 0xA2 JUMPI DUP1 PUSH4 0xC9CB65E1 GT PUSH2 0x71 JUMPI DUP1 PUSH4 0xC9CB65E1 EQ PUSH2 0x3FB JUMPI DUP1 PUSH4 0xDFE0F511 EQ PUSH2 0x41B JUMPI DUP1 PUSH4 0xE4F64990 EQ PUSH2 0x42E JUMPI DUP1 PUSH4 0xE985E9C5 EQ PUSH2 0x436 JUMPI PUSH1 0x0 DUP1 REVERT JUMPDEST DUP1 PUSH4 0xB676E2FF EQ PUSH2 0x3AF JUMPI DUP1 PUSH4 0xB88D4FDE EQ PUSH2 0x3C2 JUMPI DUP1 PUSH4 0xBC52570B EQ PUSH2 0x3D5 JUMPI DUP1 PUSH4 0xC87B56DD EQ PUSH2 0x3E8 JUMPI PUSH1 0x0 DUP1 REVERT JUMPDEST DUP1 PUSH4 0x8129FC1C GT PUSH2 0xDE JUMPI DUP1 PUSH4 0x8129FC1C EQ PUSH2 0x369 JUMPI DUP1 PUSH4 0x95D89B41 EQ PUSH2 0x371 JUMPI DUP1 PUSH4 0x98980A8A EQ PUSH2 0x379 JUMPI DUP1 PUSH4 0xA22CB465 EQ PUSH2 0x39C JUMPI PUSH1 0x0 DUP1 REVERT JUMPDEST DUP1 PUSH4 0x63CEAB54 EQ PUSH2 0x323 JUMPI DUP1 PUSH4 0x6BAD8835 EQ PUSH2 0x343 JUMPI DUP1 PUSH4 0x70A08231 EQ PUSH2 0x356 JUMPI PUSH1 0x0 DUP1 REVERT JUMPDEST DUP1 PUSH4 0x23B872DD GT PUSH2 0x171 JUMPI DUP1 PUSH4 0x42842E0E GT PUSH2 0x14B JUMPI DUP1 PUSH4 0x42842E0E EQ PUSH2 0x2D7 JUMPI DUP1 PUSH4 0x4F6CCCE7 EQ PUSH2 0x2EA JUMPI DUP1 PUSH4 0x5D96B739 EQ PUSH2 0x2FD JUMPI DUP1 PUSH4 0x6352211E EQ PUSH2 0x310 JUMPI PUSH1 0x0 DUP1 REVERT JUMPDEST DUP1 PUSH4 0x23B872DD EQ PUSH2 0x29E JUMPI DUP1 PUSH4 0x2F745C59 EQ PUSH2 0x2B1 JUMPI DUP1 PUSH4 0x35178D91 EQ PUSH2 0x2C4 JUMPI PUSH1 0x0 DUP1 REVERT JUMPDEST DUP1 PUSH4 0x81812FC GT PUSH2 0x1AD JUMPI DUP1 PUSH4 0x81812FC EQ PUSH2 0x235 JUMPI DUP1 PUSH4 0x95EA7B3 EQ PUSH2 0x260 JUMPI DUP1 PUSH4 0xAD0ABCE EQ PUSH2 0x275 JUMPI DUP1 PUSH4 0x18160DDD EQ PUSH2 0x296 JUMPI PUSH1 0x0 DUP1 REVERT JUMPDEST DUP1 PUSH4 0x193EDA6 EQ PUSH2 0x1D4 JUMPI DUP1 PUSH4 0x1FFC9A7 EQ PUSH2 0x1FD JUMPI DUP1 PUSH4 0x6FDDE03 EQ PUSH2 0x220 JUMPI JUMPDEST PUSH1 0x0 DUP1 REVERT JUMPDEST PUSH2 0x1E7 PUSH2 0x1E2 CALLDATASIZE PUSH1 0x4 PUSH2 0x2676 JUMP JUMPDEST PUSH2 0x472 JUMP JUMPDEST PUSH1 0x40 MLOAD PUSH2 0x1F4 SWAP2 SWAP1 PUSH2 0x2698 JUMP JUMPDEST PUSH1 0x40 MLOAD DUP1 SWAP2 SUB SWAP1 RETURN JUMPDEST PUSH2 0x210 PUSH2 0x20B CALLDATASIZE PUSH1 0x4 PUSH2 0x26F2 JUMP JUMPDEST PUSH2 0x649 JUMP JUMPDEST PUSH1 0x40 MLOAD SWAP1 ISZERO ISZERO DUP2 MSTORE PUSH1 0x20 ADD PUSH2 0x1F4 JUMP JUMPDEST PUSH2 0x228 PUSH2 0x65A JUMP JUMPDEST PUSH1 0x40 MLOAD PUSH2 0x1F4 SWAP2 SWAP1 PUSH2 0x2766 JUMP JUMPDEST PUSH2 0x248 PUSH2 0x243 CALLDATASIZE PUSH1 0x4 PUSH2 0x2779 JUMP JUMPDEST PUSH2 0x6EC JUMP JUMPDEST PUSH1 0x40 MLOAD PUSH1 0x1 PUSH1 0x1 PUSH1 0xA0 SHL SUB SWAP1 SWAP2 AND DUP2 MSTORE PUSH1 0x20 ADD PUSH2 0x1F4 JUMP JUMPDEST PUSH2 0x273 PUSH2 0x26E CALLDATASIZE PUSH1 0x4 PUSH2 0x27A9 JUMP JUMPDEST PUSH2 0x713 JUMP JUMPDEST STOP JUMPDEST PUSH2 0x288 PUSH2 0x283 CALLDATASIZE PUSH1 0x4 PUSH2 0x281C JUMP JUMPDEST PUSH2 0x82D JUMP JUMPDEST PUSH1 0x40 MLOAD SWAP1 DUP2 MSTORE PUSH1 0x20 ADD PUSH2 0x1F4 JUMP JUMPDEST PUSH1 0x99 SLOAD PUSH2 0x288 JUMP JUMPDEST PUSH2 0x273 PUSH2 0x2AC CALLDATASIZE PUSH1 0x4 PUSH2 0x2868 JUMP JUMPDEST PUSH2 0x9C7 JUMP JUMPDEST PUSH2 0x288 PUSH2 0x2BF CALLDATASIZE PUSH1 0x4 PUSH2 0x27A9 JUMP JUMPDEST PUSH2 0x9F8 JUMP JUMPDEST PUSH2 0x273 PUSH2 0x2D2 CALLDATASIZE PUSH1 0x4 PUSH2 0x281C JUMP JUMPDEST PUSH2 0xA8E JUMP JUMPDEST PUSH2 0x273 PUSH2 0x2E5 CALLDATASIZE PUSH1 0x4 PUSH2 0x2868 JUMP JUMPDEST PUSH2 0xB93 JUMP JUMPDEST PUSH2 0x288 PUSH2 0x2F8 CALLDATASIZE PUSH1 0x4 PUSH2 0x2779 JUMP JUMPDEST PUSH2 0xBAE JUMP JUMPDEST PUSH2 0x273 PUSH2 0x30B CALLDATASIZE PUSH1 0x4 PUSH2 0x29F7 JUMP JUMPDEST PUSH2 0xC41 JUMP JUMPDEST PUSH2 0x248 PUSH2 0x31E CALLDATASIZE PUSH1 0x4 PUSH2 0x2779 JUMP JUMPDEST PUSH2 0xD8E JUMP JUMPDEST PUSH2 0x336 PUSH2 0x331 CALLDATASIZE PUSH1 0x4 PUSH2 0x2779 JUMP JUMPDEST PUSH2 0xDEE JUMP JUMPDEST PUSH1 0x40 MLOAD PUSH2 0x1F4 SWAP2 SWAP1 PUSH2 0x2A93 JUMP JUMPDEST PUSH2 0x273 PUSH2 0x351 CALLDATASIZE PUSH1 0x4 PUSH2 0x2AA6 JUMP JUMPDEST PUSH2 0xE09 JUMP JUMPDEST PUSH2 0x288 PUSH2 0x364 CALLDATASIZE PUSH1 0x4 PUSH2 0x2B19 JUMP JUMPDEST PUSH2 0xF1B JUMP JUMPDEST PUSH2 0x273 PUSH2 0xFA1 JUMP JUMPDEST PUSH2 0x228 PUSH2 0x10AF JUMP JUMPDEST PUSH2 0x38C PUSH2 0x387 CALLDATASIZE PUSH1 0x4 PUSH2 0x2779 JUMP JUMPDEST PUSH2 0x10BE JUMP JUMPDEST PUSH1 0x40 MLOAD PUSH2 0x1F4 SWAP5 SWAP4 SWAP3 SWAP2 SWAP1 PUSH2 0x2B34 JUMP JUMPDEST PUSH2 0x273 PUSH2 0x3AA CALLDATASIZE PUSH1 0x4 PUSH2 0x2B6E JUMP JUMPDEST PUSH2 0x1198 JUMP JUMPDEST PUSH2 0x273 PUSH2 0x3BD CALLDATASIZE PUSH1 0x4 PUSH2 0x2AA6 JUMP JUMPDEST PUSH2 0x11A7 JUMP JUMPDEST PUSH2 0x273 PUSH2 0x3D0 CALLDATASIZE PUSH1 0x4 PUSH2 0x2BAA JUMP JUMPDEST PUSH2 0x12D1 JUMP JUMPDEST PUSH2 0x273 PUSH2 0x3E3 CALLDATASIZE PUSH1 0x4 PUSH2 0x2779 JUMP JUMPDEST PUSH2 0x1303 JUMP JUMPDEST PUSH2 0x228 PUSH2 0x3F6 CALLDATASIZE PUSH1 0x4 PUSH2 0x2779 JUMP JUMPDEST PUSH2 0x1403 JUMP JUMPDEST PUSH2 0x288 PUSH2 0x409 CALLDATASIZE PUSH1 0x4 PUSH2 0x2779 JUMP JUMPDEST PUSH1 0x0 SWAP1 DUP2 MSTORE PUSH1 0xC9 PUSH1 0x20 MSTORE PUSH1 0x40 SWAP1 KECCAK256 SLOAD SWAP1 JUMP JUMPDEST PUSH2 0x273 PUSH2 0x429 CALLDATASIZE PUSH1 0x4 PUSH2 0x29F7 JUMP JUMPDEST PUSH2 0x14DC JUMP JUMPDEST PUSH2 0x1E7 PUSH2 0x1629 JUMP JUMPDEST PUSH2 0x210 PUSH2 0x444 CALLDATASIZE PUSH1 0x4 PUSH2 0x2C1A JUMP JUMPDEST PUSH1 0x1 PUSH1 0x1 PUSH1 0xA0 SHL SUB SWAP2 DUP3 AND PUSH1 0x0 SWAP1 DUP2 MSTORE PUSH1 0x6A PUSH1 0x20 SWAP1 DUP2 MSTORE PUSH1 0x40 DUP1 DUP4 KECCAK256 SWAP4 SWAP1 SWAP5 AND DUP3 MSTORE SWAP2 SWAP1 SWAP2 MSTORE KECCAK256 SLOAD PUSH1 0xFF AND SWAP1 JUMP JUMPDEST PUSH1 0x60 PUSH1 0x0 DUP3 PUSH8 0xFFFFFFFFFFFFFFFF DUP2 GT ISZERO PUSH2 0x48F JUMPI PUSH2 0x48F PUSH2 0x28A4 JUMP JUMPDEST PUSH1 0x40 MLOAD SWAP1 DUP1 DUP3 MSTORE DUP1 PUSH1 0x20 MUL PUSH1 0x20 ADD DUP3 ADD PUSH1 0x40 MSTORE DUP1 ISZERO PUSH2 0x4B8 JUMPI DUP2 PUSH1 0x20 ADD PUSH1 0x20 DUP3 MUL DUP1 CALLDATASIZE DUP4 CALLDATACOPY ADD SWAP1 POP JUMPDEST POP SWAP1 POP PUSH1 0x0 DUP1 DUP6 JUMPDEST PUSH1 0xCC SLOAD DUP2 LT DUP1 ISZERO PUSH2 0x4D9 JUMPI POP PUSH2 0x4D6 DUP7 DUP9 PUSH2 0x2C63 JUMP JUMPDEST DUP2 LT JUMPDEST ISZERO PUSH2 0x56F JUMPI PUSH1 0xCC DUP2 DUP2 SLOAD DUP2 LT PUSH2 0x4F1 JUMPI PUSH2 0x4F1 PUSH2 0x2C76 JUMP JUMPDEST SWAP1 PUSH1 0x0 MSTORE PUSH1 0x20 PUSH1 0x0 KECCAK256 ADD SLOAD DUP5 DUP5 DUP2 MLOAD DUP2 LT PUSH2 0x50E JUMPI PUSH2 0x50E PUSH2 0x2C76 JUMP JUMPDEST PUSH1 0x20 MUL PUSH1 0x20 ADD ADD DUP2 DUP2 MSTORE POP POP PUSH1 0x0 DUP1 SHL PUSH1 0xCC DUP3 DUP2 SLOAD DUP2 LT PUSH2 0x531 JUMPI PUSH2 0x531 PUSH2 0x2C76 JUMP JUMPDEST SWAP1 PUSH1 0x0 MSTORE PUSH1 0x20 PUSH1 0x0 KECCAK256 ADD SLOAD EQ PUSH2 0x54F JUMPI DUP2 PUSH2 0x54B DUP2 PUSH2 0x2C8C JUMP JUMPDEST SWAP3 POP POP JUMPDEST DUP3 PUSH2 0x559 DUP2 PUSH2 0x2C8C JUMP JUMPDEST SWAP4 POP POP DUP1 DUP1 PUSH2 0x567 SWAP1 PUSH2 0x2C8C JUMP JUMPDEST SWAP2 POP POP PUSH2 0x4C0 JUMP JUMPDEST POP DUP1 PUSH8 0xFFFFFFFFFFFFFFFF DUP2 GT ISZERO PUSH2 0x589 JUMPI PUSH2 0x589 PUSH2 0x28A4 JUMP JUMPDEST PUSH1 0x40 MLOAD SWAP1 DUP1 DUP3 MSTORE DUP1 PUSH1 0x20 MUL PUSH1 0x20 ADD DUP3 ADD PUSH1 0x40 MSTORE DUP1 ISZERO PUSH2 0x5B2 JUMPI DUP2 PUSH1 0x20 ADD PUSH1 0x20 DUP3 MUL DUP1 CALLDATASIZE DUP4 CALLDATACOPY ADD SWAP1 POP JUMPDEST POP SWAP4 POP PUSH1 0x0 SWAP2 POP PUSH1 0x0 JUMPDEST DUP4 MLOAD DUP2 LT ISZERO PUSH2 0x63F JUMPI PUSH1 0x0 DUP1 SHL DUP5 DUP3 DUP2 MLOAD DUP2 LT PUSH2 0x5DB JUMPI PUSH2 0x5DB PUSH2 0x2C76 JUMP JUMPDEST PUSH1 0x20 MUL PUSH1 0x20 ADD ADD MLOAD EQ PUSH2 0x62D JUMPI DUP4 DUP2 DUP2 MLOAD DUP2 LT PUSH2 0x5FA JUMPI PUSH2 0x5FA PUSH2 0x2C76 JUMP JUMPDEST PUSH1 0x20 MUL PUSH1 0x20 ADD ADD MLOAD DUP6 DUP5 DUP2 MLOAD DUP2 LT PUSH2 0x614 JUMPI PUSH2 0x614 PUSH2 0x2C76 JUMP JUMPDEST PUSH1 0x20 SWAP1 DUP2 MUL SWAP2 SWAP1 SWAP2 ADD ADD MSTORE DUP3 PUSH2 0x629 DUP2 PUSH2 0x2C8C JUMP JUMPDEST SWAP4 POP POP JUMPDEST DUP1 PUSH2 0x637 DUP2 PUSH2 0x2C8C JUMP JUMPDEST SWAP2 POP POP PUSH2 0x5BC JUMP JUMPDEST POP POP POP POP SWAP3 SWAP2 POP POP JUMP JUMPDEST PUSH1 0x0 PUSH2 0x654 DUP3 PUSH2 0x1680 JUMP JUMPDEST SWAP3 SWAP2 POP POP JUMP JUMPDEST PUSH1 0x60 PUSH1 0x65 DUP1 SLOAD PUSH2 0x669 SWAP1 PUSH2 0x2CA5 JUMP JUMPDEST DUP1 PUSH1 0x1F ADD PUSH1 0x20 DUP1 SWAP2 DIV MUL PUSH1 0x20 ADD PUSH1 0x40 MLOAD SWAP1 DUP2 ADD PUSH1 0x40 MSTORE DUP1 SWAP3 SWAP2 SWAP1 DUP2 DUP2 MSTORE PUSH1 0x20 ADD DUP3 DUP1 SLOAD PUSH2 0x695 SWAP1 PUSH2 0x2CA5 JUMP JUMPDEST DUP1 ISZERO PUSH2 0x6E2 JUMPI DUP1 PUSH1 0x1F LT PUSH2 0x6B7 JUMPI PUSH2 0x100 DUP1 DUP4 SLOAD DIV MUL DUP4 MSTORE SWAP2 PUSH1 0x20 ADD SWAP2 PUSH2 0x6E2 JUMP JUMPDEST DUP3 ADD SWAP2 SWAP1 PUSH1 0x0 MSTORE PUSH1 0x20 PUSH1 0x0 KECCAK256 SWAP1 JUMPDEST DUP2 SLOAD DUP2 MSTORE SWAP1 PUSH1 0x1 ADD SWAP1 PUSH1 0x20 ADD DUP1 DUP4 GT PUSH2 0x6C5 JUMPI DUP3 SWAP1 SUB PUSH1 0x1F AND DUP3 ADD SWAP2 JUMPDEST POP POP POP POP POP SWAP1 POP SWAP1 JUMP JUMPDEST PUSH1 0x0 PUSH2 0x6F7 DUP3 PUSH2 0x168B JUMP JUMPDEST POP PUSH1 0x0 SWAP1 DUP2 MSTORE PUSH1 0x69 PUSH1 0x20 MSTORE PUSH1 0x40 SWAP1 KECCAK256 SLOAD PUSH1 0x1 PUSH1 0x1 PUSH1 0xA0 SHL SUB AND SWAP1 JUMP JUMPDEST PUSH1 0x0 PUSH2 0x71E DUP3 PUSH2 0xD8E JUMP JUMPDEST SWAP1 POP DUP1 PUSH1 0x1 PUSH1 0x1 PUSH1 0xA0 SHL SUB AND DUP4 PUSH1 0x1 PUSH1 0x1 PUSH1 0xA0 SHL SUB AND SUB PUSH2 0x790 JUMPI PUSH1 0x40 MLOAD PUSH3 0x461BCD PUSH1 0xE5 SHL DUP2 MSTORE PUSH1 0x20 PUSH1 0x4 DUP3 ADD MSTORE PUSH1 0x21 PUSH1 0x24 DUP3 ADD MSTORE PUSH32 0x4552433732313A20617070726F76616C20746F2063757272656E74206F776E65 PUSH1 0x44 DUP3 ADD MSTORE PUSH1 0x39 PUSH1 0xF9 SHL PUSH1 0x64 DUP3 ADD MSTORE PUSH1 0x84 ADD JUMPDEST PUSH1 0x40 MLOAD DUP1 SWAP2 SUB SWAP1 REVERT JUMPDEST CALLER PUSH1 0x1 PUSH1 0x1 PUSH1 0xA0 SHL SUB DUP3 AND EQ DUP1 PUSH2 0x7AC JUMPI POP PUSH2 0x7AC DUP2 CALLER PUSH2 0x444 JUMP JUMPDEST PUSH2 0x81E JUMPI PUSH1 0x40 MLOAD PUSH3 0x461BCD PUSH1 0xE5 SHL DUP2 MSTORE PUSH1 0x20 PUSH1 0x4 DUP3 ADD MSTORE PUSH1 0x3E PUSH1 0x24 DUP3 ADD MSTORE PUSH32 0x4552433732313A20617070726F76652063616C6C6572206973206E6F7420746F PUSH1 0x44 DUP3 ADD MSTORE PUSH32 0x6B656E206F776E6572206E6F7220617070726F76656420666F7220616C6C0000 PUSH1 0x64 DUP3 ADD MSTORE PUSH1 0x84 ADD PUSH2 0x787 JUMP JUMPDEST PUSH2 0x828 DUP4 DUP4 PUSH2 0x16EA JUMP JUMPDEST POP POP POP JUMP JUMPDEST PUSH1 0x0 DUP2 DUP2 SUB PUSH2 0x84F JUMPI PUSH1 0x40 MLOAD PUSH4 0x3F0E0A7F PUSH1 0xE2 SHL DUP2 MSTORE PUSH1 0x4 ADD PUSH1 0x40 MLOAD DUP1 SWAP2 SUB SWAP1 REVERT JUMPDEST PUSH1 0x0 CALLER PUSH1 0x40 MLOAD PUSH12 0xFFFFFFFFFFFFFFFFFFFFFFFF NOT PUSH1 0x60 DUP4 SWAP1 SHL AND PUSH1 0x20 DUP3 ADD MSTORE PUSH1 0x34 DUP2 ADD DUP8 SWAP1 MSTORE SWAP1 SWAP2 POP PUSH1 0x0 SWAP1 PUSH1 0x54 ADD PUSH1 0x40 DUP1 MLOAD PUSH1 0x1F NOT DUP2 DUP5 SUB ADD DUP2 MSTORE SWAP2 DUP2 MSTORE DUP2 MLOAD PUSH1 0x20 SWAP3 DUP4 ADD KECCAK256 PUSH1 0xCC DUP1 SLOAD PUSH1 0x1 DUP2 ADD SWAP1 SWAP2 SSTORE PUSH32 0x47197230E1E4B29FC0BD84D7D78966C0925452AFF72A2A121538B102457E9EBE ADD DUP2 SWAP1 SSTORE PUSH1 0x0 DUP2 DUP2 MSTORE PUSH1 0xC9 SWAP1 SWAP4 MSTORE SWAP2 KECCAK256 SLOAD SWAP1 SWAP2 POP ISZERO PUSH2 0x8F7 JUMPI PUSH1 0x40 MLOAD PUSH4 0x58DC9013 PUSH1 0xE0 SHL DUP2 MSTORE PUSH1 0x4 DUP2 ADD DUP3 SWAP1 MSTORE PUSH1 0x24 ADD PUSH2 0x787 JUMP JUMPDEST PUSH1 0x0 PUSH2 0x902 PUSH1 0x99 SLOAD SWAP1 JUMP JUMPDEST PUSH2 0x90D SWAP1 PUSH1 0x1 PUSH2 0x2C63 JUMP JUMPDEST SWAP1 POP PUSH2 0x919 DUP4 DUP3 PUSH2 0x1758 JUMP JUMPDEST PUSH1 0x0 DUP3 DUP2 MSTORE PUSH1 0xC9 PUSH1 0x20 SWAP1 DUP2 MSTORE PUSH1 0x40 DUP1 DUP4 KECCAK256 DUP5 SWAP1 SSTORE DUP4 DUP4 MSTORE PUSH1 0xCA DUP3 MSTORE DUP1 DUP4 KECCAK256 DUP6 SWAP1 SSTORE PUSH1 0xCB SWAP1 SWAP2 MSTORE SWAP1 KECCAK256 PUSH2 0x94C DUP7 DUP9 DUP4 PUSH2 0x2D2D JUMP JUMPDEST POP PUSH1 0x40 MLOAD PUSH1 0x1 PUSH1 0x1 PUSH1 0xA0 SHL SUB DUP5 AND SWAP1 DUP4 SWAP1 PUSH32 0x49422F7AD2ECA08595F1596952D2D805B5D5BA06F8C371DCB617C86A5B42BA07 SWAP1 PUSH1 0x0 SWAP1 LOG3 DUP2 PUSH32 0x4E0249D19860DAEB2F0627D804CC93426E237CB754FEF478C3A6CBCBC2762657 DUP8 DUP8 PUSH1 0x40 MLOAD PUSH2 0x9B5 SWAP3 SWAP2 SWAP1 PUSH2 0x2E16 JUMP JUMPDEST PUSH1 0x40 MLOAD DUP1 SWAP2 SUB SWAP1 LOG2 POP SWAP6 SWAP5 POP POP POP POP POP JUMP JUMPDEST PUSH2 0x9D1 CALLER DUP3 PUSH2 0x1772 JUMP JUMPDEST PUSH2 0x9ED JUMPI PUSH1 0x40 MLOAD PUSH3 0x461BCD PUSH1 0xE5 SHL DUP2 MSTORE PUSH1 0x4 ADD PUSH2 0x787 SWAP1 PUSH2 0x2E2A JUMP JUMPDEST PUSH2 0x828 DUP4 DUP4 DUP4 PUSH2 0x17F1 JUMP JUMPDEST PUSH1 0x0 PUSH2 0xA03 DUP4 PUSH2 0xF1B JUMP JUMPDEST DUP3 LT PUSH2 0xA65 JUMPI PUSH1 0x40 MLOAD PUSH3 0x461BCD PUSH1 0xE5 SHL DUP2 MSTORE PUSH1 0x20 PUSH1 0x4 DUP3 ADD MSTORE PUSH1 0x2B PUSH1 0x24 DUP3 ADD MSTORE PUSH32 0x455243373231456E756D657261626C653A206F776E657220696E646578206F75 PUSH1 0x44 DUP3 ADD MSTORE PUSH11 0x74206F6620626F756E6473 PUSH1 0xA8 SHL PUSH1 0x64 DUP3 ADD MSTORE PUSH1 0x84 ADD PUSH2 0x787 JUMP JUMPDEST POP PUSH1 0x1 PUSH1 0x1 PUSH1 0xA0 SHL SUB SWAP2 SWAP1 SWAP2 AND PUSH1 0x0 SWAP1 DUP2 MSTORE PUSH1 0x97 PUSH1 0x20 SWAP1 DUP2 MSTORE PUSH1 0x40 DUP1 DUP4 KECCAK256 SWAP4 DUP4 MSTORE SWAP3 SWAP1 MSTORE KECCAK256 SLOAD SWAP1 JUMP JUMPDEST DUP3 DUP1 ISZERO DUP1 PUSH2 0xAA8 JUMPI POP PUSH1 0x0 DUP2 DUP2 MSTORE PUSH1 0xC9 PUSH1 0x20 MSTORE PUSH1 0x40 SWAP1 KECCAK256 SLOAD ISZERO JUMPDEST ISZERO PUSH2 0xAC9 JUMPI PUSH1 0x40 MLOAD PUSH4 0x87FE3AAD PUSH1 0xE0 SHL DUP2 MSTORE PUSH1 0x4 DUP2 ADD DUP3 SWAP1 MSTORE PUSH1 0x24 ADD PUSH2 0x787 JUMP JUMPDEST PUSH1 0x0 DUP2 DUP2 MSTORE PUSH1 0xC9 PUSH1 0x20 MSTORE PUSH1 0x40 SWAP1 KECCAK256 SLOAD CALLER SWAP1 PUSH2 0xAE3 SWAP1 PUSH2 0xD8E JUMP JUMPDEST PUSH1 0x1 PUSH1 0x1 PUSH1 0xA0 SHL SUB AND EQ PUSH2 0xB0A JUMPI PUSH1 0x40 MLOAD PUSH4 0x5612E54F PUSH1 0xE1 SHL DUP2 MSTORE PUSH1 0x4 ADD PUSH1 0x40 MLOAD DUP1 SWAP2 SUB SWAP1 REVERT JUMPDEST PUSH1 0x0 DUP3 SWAP1 SUB PUSH2 0xB2C JUMPI PUSH1 0x40 MLOAD PUSH4 0x3F0E0A7F PUSH1 0xE2 SHL DUP2 MSTORE PUSH1 0x4 ADD PUSH1 0x40 MLOAD DUP1 SWAP2 SUB SWAP1 REVERT JUMPDEST PUSH1 0x0 DUP5 DUP2 MSTORE PUSH1 0xC9 PUSH1 0x20 SWAP1 DUP2 MSTORE PUSH1 0x40 DUP1 DUP4 KECCAK256 SLOAD DUP4 MSTORE PUSH1 0xCB SWAP1 SWAP2 MSTORE SWAP1 KECCAK256 PUSH2 0xB52 DUP4 DUP6 DUP4 PUSH2 0x2D2D JUMP JUMPDEST POP DUP4 PUSH32 0x4E0249D19860DAEB2F0627D804CC93426E237CB754FEF478C3A6CBCBC2762657 DUP5 DUP5 PUSH1 0x40 MLOAD PUSH2 0xB85 SWAP3 SWAP2 SWAP1 PUSH2 0x2E16 JUMP JUMPDEST PUSH1 0x40 MLOAD DUP1 SWAP2 SUB SWAP1 LOG2 POP POP POP POP JUMP JUMPDEST PUSH2 0x828 DUP4 DUP4 DUP4 PUSH1 0x40 MLOAD DUP1 PUSH1 0x20 ADD PUSH1 0x40 MSTORE DUP1 PUSH1 0x0 DUP2 MSTORE POP PUSH2 0x12D1 JUMP JUMPDEST PUSH1 0x0 PUSH2 0xBB9 PUSH1 0x99 SLOAD SWAP1 JUMP JUMPDEST DUP3 LT PUSH2 0xC1C JUMPI PUSH1 0x40 MLOAD PUSH3 0x461BCD PUSH1 0xE5 SHL DUP2 MSTORE PUSH1 0x20 PUSH1 0x4 DUP3 ADD MSTORE PUSH1 0x2C PUSH1 0x24 DUP3 ADD MSTORE PUSH32 0x455243373231456E756D657261626C653A20676C6F62616C20696E646578206F PUSH1 0x44 DUP3 ADD MSTORE PUSH12 0x7574206F6620626F756E6473 PUSH1 0xA0 SHL PUSH1 0x64 DUP3 ADD MSTORE PUSH1 0x84 ADD PUSH2 0x787 JUMP JUMPDEST PUSH1 0x99 DUP3 DUP2 SLOAD DUP2 LT PUSH2 0xC2F JUMPI PUSH2 0xC2F PUSH2 0x2C76 JUMP JUMPDEST SWAP1 PUSH1 0x0 MSTORE PUSH1 0x20 PUSH1 0x0 KECCAK256 ADD SLOAD SWAP1 POP SWAP2 SWAP1 POP JUMP JUMPDEST DUP2 DUP1 ISZERO DUP1 PUSH2 0xC5B JUMPI POP PUSH1 0x0 DUP2 DUP2 MSTORE PUSH1 0xC9 PUSH1 0x20 MSTORE PUSH1 0x40 SWAP1 KECCAK256 SLOAD ISZERO JUMPDEST ISZERO PUSH2 0xC7C JUMPI PUSH1 0x40 MLOAD PUSH4 0x87FE3AAD PUSH1 0xE0 SHL DUP2 MSTORE PUSH1 0x4 DUP2 ADD DUP3 SWAP1 MSTORE PUSH1 0x24 ADD PUSH2 0x787 JUMP JUMPDEST PUSH1 0x0 DUP2 DUP2 MSTORE PUSH1 0xC9 PUSH1 0x20 MSTORE PUSH1 0x40 SWAP1 KECCAK256 SLOAD CALLER SWAP1 PUSH2 0xC96 SWAP1 PUSH2 0xD8E JUMP JUMPDEST PUSH1 0x1 PUSH1 0x1 PUSH1 0xA0 SHL SUB AND EQ PUSH2 0xCBD JUMPI PUSH1 0x40 MLOAD PUSH4 0x5612E54F PUSH1 0xE1 SHL DUP2 MSTORE PUSH1 0x4 ADD PUSH1 0x40 MLOAD DUP1 SWAP2 SUB SWAP1 REVERT JUMPDEST DUP2 MLOAD PUSH1 0x0 SUB PUSH2 0xCDF JUMPI PUSH1 0x40 MLOAD PUSH4 0x4816A767 PUSH1 0xE0 SHL DUP2 MSTORE PUSH1 0x4 ADD PUSH1 0x40 MLOAD DUP1 SWAP2 SUB SWAP1 REVERT JUMPDEST PUSH1 0x0 DUP1 JUMPDEST DUP4 MLOAD DUP2 LT ISZERO PUSH2 0xD5D JUMPI PUSH2 0xD2B DUP5 DUP3 DUP2 MLOAD DUP2 LT PUSH2 0xD01 JUMPI PUSH2 0xD01 PUSH2 0x2C76 JUMP JUMPDEST PUSH1 0x20 MUL PUSH1 0x20 ADD ADD MLOAD PUSH2 0x100 PUSH1 0x0 DUP9 DUP2 MSTORE PUSH1 0x20 ADD SWAP1 DUP2 MSTORE PUSH1 0x20 ADD PUSH1 0x0 KECCAK256 PUSH2 0x1998 SWAP1 SWAP2 SWAP1 PUSH4 0xFFFFFFFF AND JUMP JUMPDEST SWAP2 POP DUP2 PUSH2 0xD4B JUMPI PUSH1 0x40 MLOAD PUSH4 0x4816A767 PUSH1 0xE0 SHL DUP2 MSTORE PUSH1 0x4 ADD PUSH1 0x40 MLOAD DUP1 SWAP2 SUB SWAP1 REVERT JUMPDEST DUP1 PUSH2 0xD55 DUP2 PUSH2 0x2C8C JUMP JUMPDEST SWAP2 POP POP PUSH2 0xCE3 JUMP JUMPDEST POP DUP4 PUSH32 0x9AF1BF1F55D94DC29BFE249A6E5C1F9B82C06FEE0CDAEADA46F044B69F68C7CC DUP5 PUSH1 0x40 MLOAD PUSH2 0xB85 SWAP2 SWAP1 PUSH2 0x2A93 JUMP JUMPDEST PUSH1 0x0 DUP2 DUP2 MSTORE PUSH1 0x67 PUSH1 0x20 MSTORE PUSH1 0x40 DUP2 KECCAK256 SLOAD PUSH1 0x1 PUSH1 0x1 PUSH1 0xA0 SHL SUB AND DUP1 PUSH2 0x654 JUMPI PUSH1 0x40 MLOAD PUSH3 0x461BCD PUSH1 0xE5 SHL DUP2 MSTORE PUSH1 0x20 PUSH1 0x4 DUP3 ADD MSTORE PUSH1 0x18 PUSH1 0x24 DUP3 ADD MSTORE PUSH24 0x115490CDCC8C4E881A5B9D985B1A59081D1BDAD95B881251 PUSH1 0x42 SHL PUSH1 0x44 DUP3 ADD MSTORE PUSH1 0x64 ADD PUSH2 0x787 JUMP JUMPDEST PUSH1 0x0 DUP2 DUP2 MSTORE PUSH2 0x100 PUSH1 0x20 MSTORE PUSH1 0x40 SWAP1 KECCAK256 PUSH1 0x60 SWAP1 PUSH2 0x654 SWAP1 PUSH2 0x1A39 JUMP JUMPDEST PUSH1 0x40 MLOAD PUSH4 0x35178D91 PUSH1 0xE0 SHL DUP2 MSTORE ADDRESS SWAP1 PUSH4 0x35178D91 SWAP1 PUSH2 0xE30 SWAP1 DUP8 SWAP1 DUP8 SWAP1 DUP8 SWAP1 PUSH1 0x4 ADD PUSH2 0x2E78 JUMP JUMPDEST PUSH1 0x0 PUSH1 0x40 MLOAD DUP1 DUP4 SUB DUP2 PUSH1 0x0 DUP8 DUP1 EXTCODESIZE ISZERO DUP1 ISZERO PUSH2 0xE4A JUMPI PUSH1 0x0 DUP1 REVERT JUMPDEST POP GAS CALL ISZERO DUP1 ISZERO PUSH2 0xE5E JUMPI RETURNDATASIZE PUSH1 0x0 DUP1 RETURNDATACOPY RETURNDATASIZE PUSH1 0x0 REVERT JUMPDEST POP POP PUSH1 0x40 MLOAD PUSH4 0xBC52570B PUSH1 0xE0 SHL DUP2 MSTORE PUSH1 0x4 DUP2 ADD DUP8 SWAP1 MSTORE ADDRESS SWAP3 POP PUSH4 0xBC52570B SWAP2 POP PUSH1 0x24 ADD PUSH1 0x0 PUSH1 0x40 MLOAD DUP1 DUP4 SUB DUP2 PUSH1 0x0 DUP8 DUP1 EXTCODESIZE ISZERO DUP1 ISZERO PUSH2 0xE9B JUMPI PUSH1 0x0 DUP1 REVERT JUMPDEST POP GAS CALL ISZERO DUP1 ISZERO PUSH2 0xEAF JUMPI RETURNDATASIZE PUSH1 0x0 DUP1 RETURNDATACOPY RETURNDATASIZE PUSH1 0x0 REVERT JUMPDEST POP POP POP POP PUSH1 0x0 DUP2 MLOAD GT ISZERO PUSH2 0xF15 JUMPI PUSH1 0x40 MLOAD PUSH4 0x5D96B739 PUSH1 0xE0 SHL DUP2 MSTORE ADDRESS SWAP1 PUSH4 0x5D96B739 SWAP1 PUSH2 0xEE2 SWAP1 DUP8 SWAP1 DUP6 SWAP1 PUSH1 0x4 ADD PUSH2 0x2E9B JUMP JUMPDEST PUSH1 0x0 PUSH1 0x40 MLOAD DUP1 DUP4 SUB DUP2 PUSH1 0x0 DUP8 DUP1 EXTCODESIZE ISZERO DUP1 ISZERO PUSH2 0xEFC JUMPI PUSH1 0x0 DUP1 REVERT JUMPDEST POP GAS CALL ISZERO DUP1 ISZERO PUSH2 0xF10 JUMPI RETURNDATASIZE PUSH1 0x0 DUP1 RETURNDATACOPY RETURNDATASIZE PUSH1 0x0 REVERT JUMPDEST POP POP POP POP JUMPDEST POP POP POP POP JUMP JUMPDEST PUSH1 0x0 PUSH1 0x1 PUSH1 0x1 PUSH1 0xA0 SHL SUB DUP3 AND PUSH2 0xF85 JUMPI PUSH1 0x40 MLOAD PUSH3 0x461BCD PUSH1 0xE5 SHL DUP2 MSTORE PUSH1 0x20 PUSH1 0x4 DUP3 ADD MSTORE PUSH1 0x29 PUSH1 0x24 DUP3 ADD MSTORE PUSH32 0x4552433732313A2061646472657373207A65726F206973206E6F742061207661 PUSH1 0x44 DUP3 ADD MSTORE PUSH9 0x3634B21037BBB732B9 PUSH1 0xB9 SHL PUSH1 0x64 DUP3 ADD MSTORE PUSH1 0x84 ADD PUSH2 0x787 JUMP JUMPDEST POP PUSH1 0x1 PUSH1 0x1 PUSH1 0xA0 SHL SUB AND PUSH1 0x0 SWAP1 DUP2 MSTORE PUSH1 0x68 PUSH1 0x20 MSTORE PUSH1 0x40 SWAP1 KECCAK256 SLOAD SWAP1 JUMP JUMPDEST PUSH1 0x0 SLOAD PUSH2 0x100 SWAP1 DIV PUSH1 0xFF AND ISZERO DUP1 DUP1 ISZERO PUSH2 0xFC1 JUMPI POP PUSH1 0x0 SLOAD PUSH1 0x1 PUSH1 0xFF SWAP1 SWAP2 AND LT JUMPDEST DUP1 PUSH2 0xFDB JUMPI POP ADDRESS EXTCODESIZE ISZERO DUP1 ISZERO PUSH2 0xFDB JUMPI POP PUSH1 0x0 SLOAD PUSH1 0xFF AND PUSH1 0x1 EQ JUMPDEST PUSH2 0xFF7 JUMPI PUSH1 0x40 MLOAD PUSH3 0x461BCD PUSH1 0xE5 SHL DUP2 MSTORE PUSH1 0x4 ADD PUSH2 0x787 SWAP1 PUSH2 0x2EB4 JUMP JUMPDEST PUSH1 0x0 DUP1 SLOAD PUSH1 0xFF NOT AND PUSH1 0x1 OR SWAP1 SSTORE DUP1 ISZERO PUSH2 0x101A JUMPI PUSH1 0x0 DUP1 SLOAD PUSH2 0xFF00 NOT AND PUSH2 0x100 OR SWAP1 SSTORE JUMPDEST PUSH2 0x105E PUSH1 0x40 MLOAD DUP1 PUSH1 0x40 ADD PUSH1 0x40 MSTORE DUP1 PUSH1 0x5 DUP2 MSTORE PUSH1 0x20 ADD PUSH5 0x13D491DA51 PUSH1 0xDA SHL DUP2 MSTORE POP PUSH1 0x40 MLOAD DUP1 PUSH1 0x40 ADD PUSH1 0x40 MSTORE DUP1 PUSH1 0x5 DUP2 MSTORE PUSH1 0x20 ADD PUSH5 0x13D491DA51 PUSH1 0xDA SHL DUP2 MSTORE POP PUSH2 0x1B16 JUMP JUMPDEST PUSH2 0x1066 PUSH2 0x1B47 JUMP JUMPDEST DUP1 ISZERO PUSH2 0x10AC JUMPI PUSH1 0x0 DUP1 SLOAD PUSH2 0xFF00 NOT AND SWAP1 SSTORE PUSH1 0x40 MLOAD PUSH1 0x1 DUP2 MSTORE PUSH32 0x7F26B83FF96E1F2B6A682F133852F6798A09C465DA95921460CEFB3847402498 SWAP1 PUSH1 0x20 ADD PUSH1 0x40 MLOAD DUP1 SWAP2 SUB SWAP1 LOG1 JUMPDEST POP JUMP JUMPDEST PUSH1 0x60 PUSH1 0x66 DUP1 SLOAD PUSH2 0x669 SWAP1 PUSH2 0x2CA5 JUMP JUMPDEST PUSH1 0x0 DUP2 DUP2 MSTORE PUSH1 0xCA PUSH1 0x20 SWAP1 DUP2 MSTORE PUSH1 0x40 DUP1 DUP4 KECCAK256 SLOAD PUSH1 0x67 SWAP1 SWAP3 MSTORE DUP3 KECCAK256 SLOAD PUSH1 0x1 PUSH1 0x1 PUSH1 0xA0 SHL SUB AND ISZERO DUP1 ISZERO SWAP3 PUSH1 0x60 SWAP2 PUSH2 0x1191 JUMPI PUSH1 0x0 DUP6 DUP2 MSTORE PUSH1 0xCB PUSH1 0x20 MSTORE PUSH1 0x40 SWAP1 KECCAK256 DUP1 SLOAD PUSH2 0x1105 SWAP1 PUSH2 0x2CA5 JUMP JUMPDEST DUP1 PUSH1 0x1F ADD PUSH1 0x20 DUP1 SWAP2 DIV MUL PUSH1 0x20 ADD PUSH1 0x40 MLOAD SWAP1 DUP2 ADD PUSH1 0x40 MSTORE DUP1 SWAP3 SWAP2 SWAP1 DUP2 DUP2 MSTORE PUSH1 0x20 ADD DUP3 DUP1 SLOAD PUSH2 0x1131 SWAP1 PUSH2 0x2CA5 JUMP JUMPDEST DUP1 ISZERO PUSH2 0x117E JUMPI DUP1 PUSH1 0x1F LT PUSH2 0x1153 JUMPI PUSH2 0x100 DUP1 DUP4 SLOAD DIV MUL DUP4 MSTORE SWAP2 PUSH1 0x20 ADD SWAP2 PUSH2 0x117E JUMP JUMPDEST DUP3 ADD SWAP2 SWAP1 PUSH1 0x0 MSTORE PUSH1 0x20 PUSH1 0x0 KECCAK256 SWAP1 JUMPDEST DUP2 SLOAD DUP2 MSTORE SWAP1 PUSH1 0x1 ADD SWAP1 PUSH1 0x20 ADD DUP1 DUP4 GT PUSH2 0x1161 JUMPI DUP3 SWAP1 SUB PUSH1 0x1F AND DUP3 ADD SWAP2 JUMPDEST POP POP POP POP POP SWAP2 POP PUSH2 0x118E DUP6 PUSH2 0xD8E JUMP JUMPDEST SWAP1 POP JUMPDEST SWAP2 SWAP4 POP SWAP2 SWAP4 JUMP JUMPDEST PUSH2 0x11A3 CALLER DUP4 DUP4 PUSH2 0x1BC8 JUMP JUMPDEST POP POP JUMP JUMPDEST PUSH1 0x40 MLOAD PUSH4 0x56855E7 PUSH1 0xE1 SHL DUP2 MSTORE PUSH1 0x0 SWAP1 ADDRESS SWAP1 PUSH4 0xAD0ABCE SWAP1 PUSH2 0x11D1 SWAP1 DUP9 SWAP1 DUP9 SWAP1 DUP9 SWAP1 PUSH1 0x4 ADD PUSH2 0x2E78 JUMP JUMPDEST PUSH1 0x20 PUSH1 0x40 MLOAD DUP1 DUP4 SUB DUP2 PUSH1 0x0 DUP8 GAS CALL ISZERO DUP1 ISZERO PUSH2 0x11F0 JUMPI RETURNDATASIZE PUSH1 0x0 DUP1 RETURNDATACOPY RETURNDATASIZE PUSH1 0x0 REVERT JUMPDEST POP POP POP POP PUSH1 0x40 MLOAD RETURNDATASIZE PUSH1 0x1F NOT PUSH1 0x1F DUP3 ADD AND DUP3 ADD DUP1 PUSH1 0x40 MSTORE POP DUP2 ADD SWAP1 PUSH2 0x1214 SWAP2 SWAP1 PUSH2 0x2F02 JUMP JUMPDEST PUSH1 0x40 MLOAD PUSH4 0xBC52570B PUSH1 0xE0 SHL DUP2 MSTORE PUSH1 0x4 DUP2 ADD DUP3 SWAP1 MSTORE SWAP1 SWAP2 POP ADDRESS SWAP1 PUSH4 0xBC52570B SWAP1 PUSH1 0x24 ADD PUSH1 0x0 PUSH1 0x40 MLOAD DUP1 DUP4 SUB DUP2 PUSH1 0x0 DUP8 DUP1 EXTCODESIZE ISZERO DUP1 ISZERO PUSH2 0x1250 JUMPI PUSH1 0x0 DUP1 REVERT JUMPDEST POP GAS CALL ISZERO DUP1 ISZERO PUSH2 0x1264 JUMPI RETURNDATASIZE PUSH1 0x0 DUP1 RETURNDATACOPY RETURNDATASIZE PUSH1 0x0 REVERT JUMPDEST POP POP POP POP PUSH1 0x0 DUP3 MLOAD GT ISZERO PUSH2 0x12CA JUMPI PUSH1 0x40 MLOAD PUSH4 0x5D96B739 PUSH1 0xE0 SHL DUP2 MSTORE ADDRESS SWAP1 PUSH4 0x5D96B739 SWAP1 PUSH2 0x1297 SWAP1 DUP5 SWAP1 DUP7 SWAP1 PUSH1 0x4 ADD PUSH2 0x2E9B JUMP JUMPDEST PUSH1 0x0 PUSH1 0x40 MLOAD DUP1 DUP4 SUB DUP2 PUSH1 0x0 DUP8 DUP1 EXTCODESIZE ISZERO DUP1 ISZERO PUSH2 0x12B1 JUMPI PUSH1 0x0 DUP1 REVERT JUMPDEST POP GAS CALL ISZERO DUP1 ISZERO PUSH2 0x12C5 JUMPI RETURNDATASIZE PUSH1 0x0 DUP1 RETURNDATACOPY RETURNDATASIZE PUSH1 0x0 REVERT JUMPDEST POP POP POP POP JUMPDEST POP POP POP POP POP JUMP JUMPDEST PUSH2 0x12DB CALLER DUP4 PUSH2 0x1772 JUMP JUMPDEST PUSH2 0x12F7 JUMPI PUSH1 0x40 MLOAD PUSH3 0x461BCD PUSH1 0xE5 SHL DUP2 MSTORE PUSH1 0x4 ADD PUSH2 0x787 SWAP1 PUSH2 0x2E2A JUMP JUMPDEST PUSH2 0xF15 DUP5 DUP5 DUP5 DUP5 PUSH2 0x1C96 JUMP JUMPDEST DUP1 DUP1 ISZERO DUP1 PUSH2 0x131D JUMPI POP PUSH1 0x0 DUP2 DUP2 MSTORE PUSH1 0xC9 PUSH1 0x20 MSTORE PUSH1 0x40 SWAP1 KECCAK256 SLOAD ISZERO JUMPDEST ISZERO PUSH2 0x133E JUMPI PUSH1 0x40 MLOAD PUSH4 0x87FE3AAD PUSH1 0xE0 SHL DUP2 MSTORE PUSH1 0x4 DUP2 ADD DUP3 SWAP1 MSTORE PUSH1 0x24 ADD PUSH2 0x787 JUMP JUMPDEST PUSH1 0x0 DUP2 DUP2 MSTORE PUSH1 0xC9 PUSH1 0x20 MSTORE PUSH1 0x40 SWAP1 KECCAK256 SLOAD CALLER SWAP1 PUSH2 0x1358 SWAP1 PUSH2 0xD8E JUMP JUMPDEST PUSH1 0x1 PUSH1 0x1 PUSH1 0xA0 SHL SUB AND EQ PUSH2 0x137F JUMPI PUSH1 0x40 MLOAD PUSH4 0x5612E54F PUSH1 0xE1 SHL DUP2 MSTORE PUSH1 0x4 ADD PUSH1 0x40 MLOAD DUP1 SWAP2 SUB SWAP1 REVERT JUMPDEST PUSH1 0x0 DUP3 DUP2 MSTORE PUSH2 0x100 PUSH1 0x20 MSTORE PUSH1 0x40 DUP2 KECCAK256 PUSH2 0x1397 SWAP1 PUSH2 0x1A39 JUMP JUMPDEST PUSH1 0x0 DUP5 DUP2 MSTORE PUSH2 0x100 PUSH1 0x20 MSTORE PUSH1 0x40 DUP2 KECCAK256 SWAP2 SWAP3 POP SWAP1 PUSH2 0x13B3 SWAP1 PUSH2 0x1CC9 JUMP JUMPDEST SWAP1 POP DUP1 PUSH2 0x13D3 JUMPI PUSH1 0x40 MLOAD PUSH4 0x4816A767 PUSH1 0xE0 SHL DUP2 MSTORE PUSH1 0x4 ADD PUSH1 0x40 MLOAD DUP1 SWAP2 SUB SWAP1 REVERT JUMPDEST DUP4 PUSH32 0xB3C3B87D0EA8237B590C2DBF7D3ACF90E54A40CF0EF1E4C0D948736E1FABD8A9 DUP4 PUSH1 0x40 MLOAD PUSH2 0xB85 SWAP2 SWAP1 PUSH2 0x2A93 JUMP JUMPDEST PUSH1 0x0 DUP2 DUP2 MSTORE PUSH1 0x67 PUSH1 0x20 MSTORE PUSH1 0x40 SWAP1 KECCAK256 SLOAD PUSH1 0x60 SWAP1 PUSH1 0x1 PUSH1 0x1 PUSH1 0xA0 SHL SUB AND PUSH2 0x143E JUMPI PUSH1 0x40 MLOAD PUSH4 0x6CAEB13 PUSH1 0xE4 SHL DUP2 MSTORE PUSH1 0x4 DUP2 ADD DUP4 SWAP1 MSTORE PUSH1 0x24 ADD PUSH2 0x787 JUMP JUMPDEST PUSH1 0x0 DUP3 DUP2 MSTORE PUSH1 0xCB PUSH1 0x20 MSTORE PUSH1 0x40 SWAP1 KECCAK256 DUP1 SLOAD PUSH2 0x1457 SWAP1 PUSH2 0x2CA5 JUMP JUMPDEST DUP1 PUSH1 0x1F ADD PUSH1 0x20 DUP1 SWAP2 DIV MUL PUSH1 0x20 ADD PUSH1 0x40 MLOAD SWAP1 DUP2 ADD PUSH1 0x40 MSTORE DUP1 SWAP3 SWAP2 SWAP1 DUP2 DUP2 MSTORE PUSH1 0x20 ADD DUP3 DUP1 SLOAD PUSH2 0x1483 SWAP1 PUSH2 0x2CA5 JUMP JUMPDEST DUP1 ISZERO PUSH2 0x14D0 JUMPI DUP1 PUSH1 0x1F LT PUSH2 0x14A5 JUMPI PUSH2 0x100 DUP1 DUP4 SLOAD DIV MUL DUP4 MSTORE SWAP2 PUSH1 0x20 ADD SWAP2 PUSH2 0x14D0 JUMP JUMPDEST DUP3 ADD SWAP2 SWAP1 PUSH1 0x0 MSTORE PUSH1 0x20 PUSH1 0x0 KECCAK256 SWAP1 JUMPDEST DUP2 SLOAD DUP2 MSTORE SWAP1 PUSH1 0x1 ADD SWAP1 PUSH1 0x20 ADD DUP1 DUP4 GT PUSH2 0x14B3 JUMPI DUP3 SWAP1 SUB PUSH1 0x1F AND DUP3 ADD SWAP2 JUMPDEST POP POP POP POP POP SWAP1 POP SWAP2 SWAP1 POP JUMP JUMPDEST DUP2 DUP1 ISZERO DUP1 PUSH2 0x14F6 JUMPI POP PUSH1 0x0 DUP2 DUP2 MSTORE PUSH1 0xC9 PUSH1 0x20 MSTORE PUSH1 0x40 SWAP1 KECCAK256 SLOAD ISZERO JUMPDEST ISZERO PUSH2 0x1517 JUMPI PUSH1 0x40 MLOAD PUSH4 0x87FE3AAD PUSH1 0xE0 SHL DUP2 MSTORE PUSH1 0x4 DUP2 ADD DUP3 SWAP1 MSTORE PUSH1 0x24 ADD PUSH2 0x787 JUMP JUMPDEST PUSH1 0x0 DUP2 DUP2 MSTORE PUSH1 0xC9 PUSH1 0x20 MSTORE PUSH1 0x40 SWAP1 KECCAK256 SLOAD CALLER SWAP1 PUSH2 0x1531 SWAP1 PUSH2 0xD8E JUMP JUMPDEST PUSH1 0x1 PUSH1 0x1 PUSH1 0xA0 SHL SUB AND EQ PUSH2 0x1558 JUMPI PUSH1 0x40 MLOAD PUSH4 0x5612E54F PUSH1 0xE1 SHL DUP2 MSTORE PUSH1 0x4 ADD PUSH1 0x40 MLOAD DUP1 SWAP2 SUB SWAP1 REVERT JUMPDEST DUP2 MLOAD PUSH1 0x0 SUB PUSH2 0x157A JUMPI PUSH1 0x40 MLOAD PUSH4 0x4816A767 PUSH1 0xE0 SHL DUP2 MSTORE PUSH1 0x4 ADD PUSH1 0x40 MLOAD DUP1 SWAP2 SUB SWAP1 REVERT JUMPDEST PUSH1 0x0 DUP1 JUMPDEST DUP4 MLOAD DUP2 LT ISZERO PUSH2 0x15F8 JUMPI PUSH2 0x15C6 DUP5 DUP3 DUP2 MLOAD DUP2 LT PUSH2 0x159C JUMPI PUSH2 0x159C PUSH2 0x2C76 JUMP JUMPDEST PUSH1 0x20 MUL PUSH1 0x20 ADD ADD MLOAD PUSH2 0x100 PUSH1 0x0 DUP9 DUP2 MSTORE PUSH1 0x20 ADD SWAP1 DUP2 MSTORE PUSH1 0x20 ADD PUSH1 0x0 KECCAK256 PUSH2 0x1DED SWAP1 SWAP2 SWAP1 PUSH4 0xFFFFFFFF AND JUMP JUMPDEST SWAP2 POP DUP2 PUSH2 0x15E6 JUMPI PUSH1 0x40 MLOAD PUSH4 0x4816A767 PUSH1 0xE0 SHL DUP2 MSTORE PUSH1 0x4 ADD PUSH1 0x40 MLOAD DUP1 SWAP2 SUB SWAP1 REVERT JUMPDEST DUP1 PUSH2 0x15F0 DUP2 PUSH2 0x2C8C JUMP JUMPDEST SWAP2 POP POP PUSH2 0x157E JUMP JUMPDEST POP DUP4 PUSH32 0xB3C3B87D0EA8237B590C2DBF7D3ACF90E54A40CF0EF1E4C0D948736E1FABD8A9 DUP5 PUSH1 0x40 MLOAD PUSH2 0xB85 SWAP2 SWAP1 PUSH2 0x2A93 JUMP JUMPDEST PUSH1 0x60 PUSH1 0xCC DUP1 SLOAD DUP1 PUSH1 0x20 MUL PUSH1 0x20 ADD PUSH1 0x40 MLOAD SWAP1 DUP2 ADD PUSH1 0x40 MSTORE DUP1 SWAP3 SWAP2 SWAP1 DUP2 DUP2 MSTORE PUSH1 0x20 ADD DUP3 DUP1 SLOAD DUP1 ISZERO PUSH2 0x6E2 JUMPI PUSH1 0x20 MUL DUP3 ADD SWAP2 SWAP1 PUSH1 0x0 MSTORE PUSH1 0x20 PUSH1 0x0 KECCAK256 SWAP1 JUMPDEST DUP2 SLOAD DUP2 MSTORE PUSH1 0x20 ADD SWAP1 PUSH1 0x1 ADD SWAP1 DUP1 DUP4 GT PUSH2 0x1663 JUMPI POP POP POP POP POP SWAP1 POP SWAP1 JUMP JUMPDEST PUSH1 0x0 PUSH2 0x654 DUP3 PUSH2 0x1FCB JUMP JUMPDEST PUSH1 0x0 DUP2 DUP2 MSTORE PUSH1 0x67 PUSH1 0x20 MSTORE PUSH1 0x40 SWAP1 KECCAK256 SLOAD PUSH1 0x1 PUSH1 0x1 PUSH1 0xA0 SHL SUB AND PUSH2 0x10AC JUMPI PUSH1 0x40 MLOAD PUSH3 0x461BCD PUSH1 0xE5 SHL DUP2 MSTORE PUSH1 0x20 PUSH1 0x4 DUP3 ADD MSTORE PUSH1 0x18 PUSH1 0x24 DUP3 ADD MSTORE PUSH24 0x115490CDCC8C4E881A5B9D985B1A59081D1BDAD95B881251 PUSH1 0x42 SHL PUSH1 0x44 DUP3 ADD MSTORE PUSH1 0x64 ADD PUSH2 0x787 JUMP JUMPDEST PUSH1 0x0 DUP2 DUP2 MSTORE PUSH1 0x69 PUSH1 0x20 MSTORE PUSH1 0x40 SWAP1 KECCAK256 DUP1 SLOAD PUSH1 0x1 PUSH1 0x1 PUSH1 0xA0 SHL SUB NOT AND PUSH1 0x1 PUSH1 0x1 PUSH1 0xA0 SHL SUB DUP5 AND SWAP1 DUP2 OR SWAP1 SWAP2 SSTORE DUP2 SWAP1 PUSH2 0x171F DUP3 PUSH2 0xD8E JUMP JUMPDEST PUSH1 0x1 PUSH1 0x1 PUSH1 0xA0 SHL SUB AND PUSH32 0x8C5BE1E5EBEC7D5BD14F71427D1E84F3DD0314C0F7B2291E5B200AC8C7C3B925 PUSH1 0x40 MLOAD PUSH1 0x40 MLOAD DUP1 SWAP2 SUB SWAP1 LOG4 POP POP JUMP JUMPDEST PUSH2 0x11A3 DUP3 DUP3 PUSH1 0x40 MLOAD DUP1 PUSH1 0x20 ADD PUSH1 0x40 MSTORE DUP1 PUSH1 0x0 DUP2 MSTORE POP PUSH2 0x1FF0 JUMP JUMPDEST PUSH1 0x0 DUP1 PUSH2 0x177E DUP4 PUSH2 0xD8E JUMP JUMPDEST SWAP1 POP DUP1 PUSH1 0x1 PUSH1 0x1 PUSH1 0xA0 SHL SUB AND DUP5 PUSH1 0x1 PUSH1 0x1 PUSH1 0xA0 SHL SUB AND EQ DUP1 PUSH2 0x17C5 JUMPI POP PUSH1 0x1 PUSH1 0x1 PUSH1 0xA0 SHL SUB DUP1 DUP3 AND PUSH1 0x0 SWAP1 DUP2 MSTORE PUSH1 0x6A PUSH1 0x20 SWAP1 DUP2 MSTORE PUSH1 0x40 DUP1 DUP4 KECCAK256 SWAP4 DUP9 AND DUP4 MSTORE SWAP3 SWAP1 MSTORE KECCAK256 SLOAD PUSH1 0xFF AND JUMPDEST DUP1 PUSH2 0x17E9 JUMPI POP DUP4 PUSH1 0x1 PUSH1 0x1 PUSH1 0xA0 SHL SUB AND PUSH2 0x17DE DUP5 PUSH2 0x6EC JUMP JUMPDEST PUSH1 0x1 PUSH1 0x1 PUSH1 0xA0 SHL SUB AND EQ JUMPDEST SWAP5 SWAP4 POP POP POP POP JUMP JUMPDEST DUP3 PUSH1 0x1 PUSH1 0x1 PUSH1 0xA0 SHL SUB AND PUSH2 0x1804 DUP3 PUSH2 0xD8E JUMP JUMPDEST PUSH1 0x1 PUSH1 0x1 PUSH1 0xA0 SHL SUB AND EQ PUSH2 0x1868 JUMPI PUSH1 0x40 MLOAD PUSH3 0x461BCD PUSH1 0xE5 SHL DUP2 MSTORE PUSH1 0x20 PUSH1 0x4 DUP3 ADD MSTORE PUSH1 0x25 PUSH1 0x24 DUP3 ADD MSTORE PUSH32 0x4552433732313A207472616E736665722066726F6D20696E636F727265637420 PUSH1 0x44 DUP3 ADD MSTORE PUSH5 0x37BBB732B9 PUSH1 0xD9 SHL PUSH1 0x64 DUP3 ADD MSTORE PUSH1 0x84 ADD PUSH2 0x787 JUMP JUMPDEST PUSH1 0x1 PUSH1 0x1 PUSH1 0xA0 SHL SUB DUP3 AND PUSH2 0x18CA JUMPI PUSH1 0x40 MLOAD PUSH3 0x461BCD PUSH1 0xE5 SHL DUP2 MSTORE PUSH1 0x20 PUSH1 0x4 DUP3 ADD MSTORE PUSH1 0x24 DUP1 DUP3 ADD MSTORE PUSH32 0x4552433732313A207472616E7366657220746F20746865207A65726F20616464 PUSH1 0x44 DUP3 ADD MSTORE PUSH4 0x72657373 PUSH1 0xE0 SHL PUSH1 0x64 DUP3 ADD MSTORE PUSH1 0x84 ADD PUSH2 0x787 JUMP JUMPDEST PUSH2 0x18D5 DUP4 DUP4 DUP4 PUSH2 0x2023 JUMP JUMPDEST PUSH2 0x18E0 PUSH1 0x0 DUP3 PUSH2 0x16EA JUMP JUMPDEST PUSH1 0x1 PUSH1 0x1 PUSH1 0xA0 SHL SUB DUP4 AND PUSH1 0x0 SWAP1 DUP2 MSTORE PUSH1 0x68 PUSH1 0x20 MSTORE PUSH1 0x40 DUP2 KECCAK256 DUP1 SLOAD PUSH1 0x1 SWAP3 SWAP1 PUSH2 0x1909 SWAP1 DUP5 SWAP1 PUSH2 0x2F1B JUMP JUMPDEST SWAP1 SWAP2 SSTORE POP POP PUSH1 0x1 PUSH1 0x1 PUSH1 0xA0 SHL SUB DUP3 AND PUSH1 0x0 SWAP1 DUP2 MSTORE PUSH1 0x68 PUSH1 0x20 MSTORE PUSH1 0x40 DUP2 KECCAK256 DUP1 SLOAD PUSH1 0x1 SWAP3 SWAP1 PUSH2 0x1937 SWAP1 DUP5 SWAP1 PUSH2 0x2C63 JUMP JUMPDEST SWAP1 SWAP2 SSTORE POP POP PUSH1 0x0 DUP2 DUP2 MSTORE PUSH1 0x67 PUSH1 0x20 MSTORE PUSH1 0x40 DUP1 DUP3 KECCAK256 DUP1 SLOAD PUSH1 0x1 PUSH1 0x1 PUSH1 0xA0 SHL SUB NOT AND PUSH1 0x1 PUSH1 0x1 PUSH1 0xA0 SHL SUB DUP7 DUP2 AND SWAP2 DUP3 OR SWAP1 SWAP3 SSTORE SWAP2 MLOAD DUP5 SWAP4 SWAP2 DUP8 AND SWAP2 PUSH32 0xDDF252AD1BE2C89B69C2B068FC378DAA952BA7F163C4A11628F55A4DF523B3EF SWAP2 LOG4 POP POP POP JUMP JUMPDEST PUSH1 0x0 DUP2 MLOAD PUSH1 0x0 SUB PUSH2 0x19AB JUMPI POP PUSH1 0x0 PUSH2 0x654 JUMP JUMPDEST PUSH1 0x0 PUSH2 0x19B6 DUP4 PUSH2 0x20DB JUMP JUMPDEST PUSH1 0x0 DUP2 DUP2 MSTORE PUSH1 0x1 DUP7 ADD PUSH1 0x20 MSTORE PUSH1 0x40 SWAP1 KECCAK256 SLOAD SWAP1 SWAP2 POP PUSH1 0xFF AND PUSH2 0x1A1E JUMPI PUSH1 0x0 DUP2 DUP2 MSTORE PUSH1 0x1 DUP6 DUP2 ADD PUSH1 0x20 SWAP1 DUP2 MSTORE PUSH1 0x40 DUP1 DUP5 KECCAK256 DUP1 SLOAD PUSH1 0xFF NOT AND DUP5 OR SWAP1 SSTORE DUP8 SLOAD PUSH1 0x2 DUP10 ADD DUP4 MSTORE SWAP1 DUP5 KECCAK256 DUP2 SWAP1 SSTORE SWAP2 DUP3 ADD DUP8 SSTORE DUP7 DUP4 MSTORE SWAP1 SWAP2 KECCAK256 ADD PUSH2 0x1A13 DUP5 DUP3 PUSH2 0x2F2E JUMP JUMPDEST POP PUSH1 0x1 SWAP2 POP POP PUSH2 0x654 JUMP JUMPDEST PUSH1 0x0 SWAP1 DUP2 MSTORE PUSH1 0x1 DUP5 ADD PUSH1 0x20 MSTORE PUSH1 0x40 SWAP1 KECCAK256 SLOAD PUSH1 0xFF AND SWAP1 POP PUSH2 0x654 JUMP JUMPDEST PUSH1 0x60 DUP2 PUSH1 0x0 ADD DUP1 SLOAD DUP1 PUSH1 0x20 MUL PUSH1 0x20 ADD PUSH1 0x40 MLOAD SWAP1 DUP2 ADD PUSH1 0x40 MSTORE DUP1 SWAP3 SWAP2 SWAP1 DUP2 DUP2 MSTORE PUSH1 0x20 ADD PUSH1 0x0 SWAP1 JUMPDEST DUP3 DUP3 LT ISZERO PUSH2 0x1B0B JUMPI DUP4 DUP3 SWAP1 PUSH1 0x0 MSTORE PUSH1 0x20 PUSH1 0x0 KECCAK256 ADD DUP1 SLOAD PUSH2 0x1A7E SWAP1 PUSH2 0x2CA5 JUMP JUMPDEST DUP1 PUSH1 0x1F ADD PUSH1 0x20 DUP1 SWAP2 DIV MUL PUSH1 0x20 ADD PUSH1 0x40 MLOAD SWAP1 DUP2 ADD PUSH1 0x40 MSTORE DUP1 SWAP3 SWAP2 SWAP1 DUP2 DUP2 MSTORE PUSH1 0x20 ADD DUP3 DUP1 SLOAD PUSH2 0x1AAA SWAP1 PUSH2 0x2CA5 JUMP JUMPDEST DUP1 ISZERO PUSH2 0x1AF7 JUMPI DUP1 PUSH1 0x1F LT PUSH2 0x1ACC JUMPI PUSH2 0x100 DUP1 DUP4 SLOAD DIV MUL DUP4 MSTORE SWAP2 PUSH1 0x20 ADD SWAP2 PUSH2 0x1AF7 JUMP JUMPDEST DUP3 ADD SWAP2 SWAP1 PUSH1 0x0 MSTORE PUSH1 0x20 PUSH1 0x0 KECCAK256 SWAP1 JUMPDEST DUP2 SLOAD DUP2 MSTORE SWAP1 PUSH1 0x1 ADD SWAP1 PUSH1 0x20 ADD DUP1 DUP4 GT PUSH2 0x1ADA JUMPI DUP3 SWAP1 SUB PUSH1 0x1F AND DUP3 ADD SWAP2 JUMPDEST POP POP POP POP POP DUP2 MSTORE PUSH1 0x20 ADD SWAP1 PUSH1 0x1 ADD SWAP1 PUSH2 0x1A5F JUMP JUMPDEST POP POP POP POP SWAP1 POP SWAP2 SWAP1 POP JUMP JUMPDEST PUSH1 0x0 SLOAD PUSH2 0x100 SWAP1 DIV PUSH1 0xFF AND PUSH2 0x1B3D JUMPI PUSH1 0x40 MLOAD PUSH3 0x461BCD PUSH1 0xE5 SHL DUP2 MSTORE PUSH1 0x4 ADD PUSH2 0x787 SWAP1 PUSH2 0x2FEE JUMP JUMPDEST PUSH2 0x11A3 DUP3 DUP3 PUSH2 0x210B JUMP JUMPDEST PUSH1 0x0 SLOAD PUSH2 0x100 SWAP1 DIV PUSH1 0xFF AND ISZERO DUP1 DUP1 ISZERO PUSH2 0x1B67 JUMPI POP PUSH1 0x0 SLOAD PUSH1 0x1 PUSH1 0xFF SWAP1 SWAP2 AND LT JUMPDEST DUP1 PUSH2 0x1B81 JUMPI POP ADDRESS EXTCODESIZE ISZERO DUP1 ISZERO PUSH2 0x1B81 JUMPI POP PUSH1 0x0 SLOAD PUSH1 0xFF AND PUSH1 0x1 EQ JUMPDEST PUSH2 0x1B9D JUMPI PUSH1 0x40 MLOAD PUSH3 0x461BCD PUSH1 0xE5 SHL DUP2 MSTORE PUSH1 0x4 ADD PUSH2 0x787 SWAP1 PUSH2 0x2EB4 JUMP JUMPDEST PUSH1 0x0 DUP1 SLOAD PUSH1 0xFF NOT AND PUSH1 0x1 OR SWAP1 SSTORE DUP1 ISZERO PUSH2 0x1BC0 JUMPI PUSH1 0x0 DUP1 SLOAD PUSH2 0xFF00 NOT AND PUSH2 0x100 OR SWAP1 SSTORE JUMPDEST PUSH2 0x1066 PUSH2 0x214B JUMP JUMPDEST DUP2 PUSH1 0x1 PUSH1 0x1 PUSH1 0xA0 SHL SUB AND DUP4 PUSH1 0x1 PUSH1 0x1 PUSH1 0xA0 SHL SUB AND SUB PUSH2 0x1C29 JUMPI PUSH1 0x40 MLOAD PUSH3 0x461BCD PUSH1 0xE5 SHL DUP2 MSTORE PUSH1 0x20 PUSH1 0x4 DUP3 ADD MSTORE PUSH1 0x19 PUSH1 0x24 DUP3 ADD MSTORE PUSH32 0x4552433732313A20617070726F766520746F2063616C6C657200000000000000 PUSH1 0x44 DUP3 ADD MSTORE PUSH1 0x64 ADD PUSH2 0x787 JUMP JUMPDEST PUSH1 0x1 PUSH1 0x1 PUSH1 0xA0 SHL SUB DUP4 DUP2 AND PUSH1 0x0 DUP2 DUP2 MSTORE PUSH1 0x6A PUSH1 0x20 SWAP1 DUP2 MSTORE PUSH1 0x40 DUP1 DUP4 KECCAK256 SWAP5 DUP8 AND DUP1 DUP5 MSTORE SWAP5 DUP3 MSTORE SWAP2 DUP3 SWAP1 KECCAK256 DUP1 SLOAD PUSH1 0xFF NOT AND DUP7 ISZERO ISZERO SWAP1 DUP2 OR SWAP1 SWAP2 SSTORE SWAP2 MLOAD SWAP2 DUP3 MSTORE PUSH32 0x17307EAB39AB6107E8899845AD3D59BD9653F200F220920489CA2B5937696C31 SWAP2 ADD PUSH1 0x40 MLOAD DUP1 SWAP2 SUB SWAP1 LOG3 POP POP POP JUMP JUMPDEST PUSH2 0x1CA1 DUP5 DUP5 DUP5 PUSH2 0x17F1 JUMP JUMPDEST PUSH2 0x1CAD DUP5 DUP5 DUP5 DUP5 PUSH2 0x2174 JUMP JUMPDEST PUSH2 0xF15 JUMPI PUSH1 0x40 MLOAD PUSH3 0x461BCD PUSH1 0xE5 SHL DUP2 MSTORE PUSH1 0x4 ADD PUSH2 0x787 SWAP1 PUSH2 0x3039 JUMP JUMPDEST DUP1 SLOAD PUSH1 0x0 SWAP1 ISZERO PUSH2 0x1DE0 JUMPI PUSH1 0x0 DUP1 JUMPDEST DUP4 SLOAD DUP2 LT ISZERO PUSH2 0x1DCB JUMPI PUSH2 0x1D90 DUP5 PUSH1 0x0 ADD DUP3 DUP2 SLOAD DUP2 LT PUSH2 0x1CF8 JUMPI PUSH2 0x1CF8 PUSH2 0x2C76 JUMP JUMPDEST SWAP1 PUSH1 0x0 MSTORE PUSH1 0x20 PUSH1 0x0 KECCAK256 ADD DUP1 SLOAD PUSH2 0x1D0D SWAP1 PUSH2 0x2CA5 JUMP JUMPDEST DUP1 PUSH1 0x1F ADD PUSH1 0x20 DUP1 SWAP2 DIV MUL PUSH1 0x20 ADD PUSH1 0x40 MLOAD SWAP1 DUP2 ADD PUSH1 0x40 MSTORE DUP1 SWAP3 SWAP2 SWAP1 DUP2 DUP2 MSTORE PUSH1 0x20 ADD DUP3 DUP1 SLOAD PUSH2 0x1D39 SWAP1 PUSH2 0x2CA5 JUMP JUMPDEST DUP1 ISZERO PUSH2 0x1D86 JUMPI DUP1 PUSH1 0x1F LT PUSH2 0x1D5B JUMPI PUSH2 0x100 DUP1 DUP4 SLOAD DIV MUL DUP4 MSTORE SWAP2 PUSH1 0x20 ADD SWAP2 PUSH2 0x1D86 JUMP JUMPDEST DUP3 ADD SWAP2 SWAP1 PUSH1 0x0 MSTORE PUSH1 0x20 PUSH1 0x0 KECCAK256 SWAP1 JUMPDEST DUP2 SLOAD DUP2 MSTORE SWAP1 PUSH1 0x1 ADD SWAP1 PUSH1 0x20 ADD DUP1 DUP4 GT PUSH2 0x1D69 JUMPI DUP3 SWAP1 SUB PUSH1 0x1F AND DUP3 ADD SWAP2 JUMPDEST POP POP POP POP POP PUSH2 0x20DB JUMP JUMPDEST PUSH1 0x0 DUP2 DUP2 MSTORE PUSH1 0x2 DUP7 ADD PUSH1 0x20 SWAP1 DUP2 MSTORE PUSH1 0x40 DUP1 DUP4 KECCAK256 DUP4 SWAP1 SSTORE PUSH1 0x1 DUP9 ADD SWAP1 SWAP2 MSTORE SWAP1 KECCAK256 DUP1 SLOAD PUSH1 0xFF NOT AND SWAP1 SSTORE SWAP2 POP DUP1 PUSH2 0x1DC3 DUP2 PUSH2 0x2C8C JUMP JUMPDEST SWAP2 POP POP PUSH2 0x1CD7 JUMP JUMPDEST POP PUSH2 0x1DD7 DUP4 PUSH1 0x0 PUSH2 0x25E8 JUMP JUMPDEST POP PUSH1 0x1 SWAP3 SWAP2 POP POP JUMP JUMPDEST POP PUSH1 0x0 SWAP2 SWAP1 POP JUMP JUMPDEST SWAP2 SWAP1 POP JUMP JUMPDEST PUSH1 0x0 DUP2 MLOAD PUSH1 0x0 SUB PUSH2 0x1E00 JUMPI POP PUSH1 0x0 PUSH2 0x654 JUMP JUMPDEST PUSH1 0x0 PUSH2 0x1E0B DUP4 PUSH2 0x20DB JUMP JUMPDEST PUSH1 0x0 DUP2 DUP2 MSTORE PUSH1 0x1 DUP7 ADD PUSH1 0x20 MSTORE PUSH1 0x40 SWAP1 KECCAK256 SLOAD SWAP1 SWAP2 POP PUSH1 0xFF AND ISZERO PUSH2 0x1FAF JUMPI PUSH1 0x0 DUP2 DUP2 MSTORE PUSH1 0x2 DUP6 ADD PUSH1 0x20 MSTORE PUSH1 0x40 DUP2 KECCAK256 SLOAD DUP6 SLOAD SWAP1 SWAP2 SWAP1 PUSH2 0x1E49 SWAP1 PUSH1 0x1 SWAP1 PUSH2 0x2F1B JUMP JUMPDEST SWAP1 POP DUP2 DUP2 EQ PUSH2 0x1F4E JUMPI PUSH1 0x0 DUP7 PUSH1 0x0 ADD DUP3 DUP2 SLOAD DUP2 LT PUSH2 0x1E69 JUMPI PUSH2 0x1E69 PUSH2 0x2C76 JUMP JUMPDEST SWAP1 PUSH1 0x0 MSTORE PUSH1 0x20 PUSH1 0x0 KECCAK256 ADD DUP1 SLOAD PUSH2 0x1E7E SWAP1 PUSH2 0x2CA5 JUMP JUMPDEST DUP1 PUSH1 0x1F ADD PUSH1 0x20 DUP1 SWAP2 DIV MUL PUSH1 0x20 ADD PUSH1 0x40 MLOAD SWAP1 DUP2 ADD PUSH1 0x40 MSTORE DUP1 SWAP3 SWAP2 SWAP1 DUP2 DUP2 MSTORE PUSH1 0x20 ADD DUP3 DUP1 SLOAD PUSH2 0x1EAA SWAP1 PUSH2 0x2CA5 JUMP JUMPDEST DUP1 ISZERO PUSH2 0x1EF7 JUMPI DUP1 PUSH1 0x1F LT PUSH2 0x1ECC JUMPI PUSH2 0x100 DUP1 DUP4 SLOAD DIV MUL DUP4 MSTORE SWAP2 PUSH1 0x20 ADD SWAP2 PUSH2 0x1EF7 JUMP JUMPDEST DUP3 ADD SWAP2 SWAP1 PUSH1 0x0 MSTORE PUSH1 0x20 PUSH1 0x0 KECCAK256 SWAP1 JUMPDEST DUP2 SLOAD DUP2 MSTORE SWAP1 PUSH1 0x1 ADD SWAP1 PUSH1 0x20 ADD DUP1 DUP4 GT PUSH2 0x1EDA JUMPI DUP3 SWAP1 SUB PUSH1 0x1F AND DUP3 ADD SWAP2 JUMPDEST POP POP POP POP POP SWAP1 POP DUP1 DUP8 PUSH1 0x0 ADD DUP5 DUP2 SLOAD DUP2 LT PUSH2 0x1F14 JUMPI PUSH2 0x1F14 PUSH2 0x2C76 JUMP JUMPDEST SWAP1 PUSH1 0x0 MSTORE PUSH1 0x20 PUSH1 0x0 KECCAK256 ADD SWAP1 DUP2 PUSH2 0x1F2A SWAP2 SWAP1 PUSH2 0x2F2E JUMP JUMPDEST POP DUP3 DUP8 PUSH1 0x2 ADD PUSH1 0x0 PUSH2 0x1F3B DUP5 PUSH2 0x20DB JUMP JUMPDEST DUP2 MSTORE PUSH1 0x20 DUP2 ADD SWAP2 SWAP1 SWAP2 MSTORE PUSH1 0x40 ADD PUSH1 0x0 KECCAK256 SSTORE POP JUMPDEST DUP6 SLOAD DUP7 SWAP1 DUP1 PUSH2 0x1F5F JUMPI PUSH2 0x1F5F PUSH2 0x308B JUMP JUMPDEST PUSH1 0x1 SWAP1 SUB DUP2 DUP2 SWAP1 PUSH1 0x0 MSTORE PUSH1 0x20 PUSH1 0x0 KECCAK256 ADD PUSH1 0x0 PUSH2 0x1F7B SWAP2 SWAP1 PUSH2 0x2606 JUMP JUMPDEST SWAP1 SSTORE POP POP PUSH1 0x0 SWAP1 DUP2 MSTORE PUSH1 0x2 DUP5 ADD PUSH1 0x20 SWAP1 DUP2 MSTORE PUSH1 0x40 DUP1 DUP4 KECCAK256 DUP4 SWAP1 SSTORE PUSH1 0x1 DUP1 DUP8 ADD SWAP1 SWAP3 MSTORE SWAP1 SWAP2 KECCAK256 DUP1 SLOAD PUSH1 0xFF NOT AND SWAP1 SSTORE SWAP1 POP PUSH2 0x654 JUMP JUMPDEST PUSH1 0x0 SWAP1 DUP2 MSTORE PUSH1 0x1 DUP5 ADD PUSH1 0x20 MSTORE PUSH1 0x40 SWAP1 KECCAK256 SLOAD PUSH1 0xFF AND ISZERO SWAP1 POP PUSH2 0x654 JUMP JUMPDEST PUSH1 0x0 PUSH1 0x1 PUSH1 0x1 PUSH1 0xE0 SHL SUB NOT DUP3 AND PUSH4 0x5DEABE77 PUSH1 0xE0 SHL EQ DUP1 PUSH2 0x654 JUMPI POP PUSH2 0x654 DUP3 PUSH2 0x2275 JUMP JUMPDEST PUSH2 0x1FFA DUP4 DUP4 PUSH2 0x229A JUMP JUMPDEST PUSH2 0x2007 PUSH1 0x0 DUP5 DUP5 DUP5 PUSH2 0x2174 JUMP JUMPDEST PUSH2 0x828 JUMPI PUSH1 0x40 MLOAD PUSH3 0x461BCD PUSH1 0xE5 SHL DUP2 MSTORE PUSH1 0x4 ADD PUSH2 0x787 SWAP1 PUSH2 0x3039 JUMP JUMPDEST PUSH1 0x1 PUSH1 0x1 PUSH1 0xA0 SHL SUB DUP4 AND PUSH2 0x207E JUMPI PUSH2 0x2079 DUP2 PUSH1 0x99 DUP1 SLOAD PUSH1 0x0 DUP4 DUP2 MSTORE PUSH1 0x9A PUSH1 0x20 MSTORE PUSH1 0x40 DUP2 KECCAK256 DUP3 SWAP1 SSTORE PUSH1 0x1 DUP3 ADD DUP4 SSTORE SWAP2 SWAP1 SWAP2 MSTORE PUSH32 0x72A152DDFB8E864297C917AF52EA6C1C68AEAD0FEE1A62673FCC7E0C94979D00 ADD SSTORE JUMP JUMPDEST PUSH2 0x20A1 JUMP JUMPDEST DUP2 PUSH1 0x1 PUSH1 0x1 PUSH1 0xA0 SHL SUB AND DUP4 PUSH1 0x1 PUSH1 0x1 PUSH1 0xA0 SHL SUB AND EQ PUSH2 0x20A1 JUMPI PUSH2 0x20A1 DUP4 DUP3 PUSH2 0x23E8 JUMP JUMPDEST PUSH1 0x1 PUSH1 0x1 PUSH1 0xA0 SHL SUB DUP3 AND PUSH2 0x20B8 JUMPI PUSH2 0x828 DUP2 PUSH2 0x2485 JUMP JUMPDEST DUP3 PUSH1 0x1 PUSH1 0x1 PUSH1 0xA0 SHL SUB AND DUP3 PUSH1 0x1 PUSH1 0x1 PUSH1 0xA0 SHL SUB AND EQ PUSH2 0x828 JUMPI PUSH2 0x828 DUP3 DUP3 PUSH2 0x2534 JUMP JUMPDEST PUSH1 0x0 DUP2 PUSH1 0x40 MLOAD PUSH1 0x20 ADD PUSH2 0x20EE SWAP2 SWAP1 PUSH2 0x30A1 JUMP JUMPDEST PUSH1 0x40 MLOAD PUSH1 0x20 DUP2 DUP4 SUB SUB DUP2 MSTORE SWAP1 PUSH1 0x40 MSTORE DUP1 MLOAD SWAP1 PUSH1 0x20 ADD KECCAK256 SWAP1 POP SWAP2 SWAP1 POP JUMP JUMPDEST PUSH1 0x0 SLOAD PUSH2 0x100 SWAP1 DIV PUSH1 0xFF AND PUSH2 0x2132 JUMPI PUSH1 0x40 MLOAD PUSH3 0x461BCD PUSH1 0xE5 SHL DUP2 MSTORE PUSH1 0x4 ADD PUSH2 0x787 SWAP1 PUSH2 0x2FEE JUMP JUMPDEST PUSH1 0x65 PUSH2 0x213E DUP4 DUP3 PUSH2 0x2F2E JUMP JUMPDEST POP PUSH1 0x66 PUSH2 0x828 DUP3 DUP3 PUSH2 0x2F2E JUMP JUMPDEST PUSH1 0x0 SLOAD PUSH2 0x100 SWAP1 DIV PUSH1 0xFF AND PUSH2 0x2172 JUMPI PUSH1 0x40 MLOAD PUSH3 0x461BCD PUSH1 0xE5 SHL DUP2 MSTORE PUSH1 0x4 ADD PUSH2 0x787 SWAP1 PUSH2 0x2FEE JUMP JUMPDEST JUMP JUMPDEST PUSH1 0x0 PUSH1 0x1 PUSH1 0x1 PUSH1 0xA0 SHL SUB DUP5 AND EXTCODESIZE ISZERO PUSH2 0x226A JUMPI PUSH1 0x40 MLOAD PUSH4 0xA85BD01 PUSH1 0xE1 SHL DUP2 MSTORE PUSH1 0x1 PUSH1 0x1 PUSH1 0xA0 SHL SUB DUP6 AND SWAP1 PUSH4 0x150B7A02 SWAP1 PUSH2 0x21B8 SWAP1 CALLER SWAP1 DUP10 SWAP1 DUP9 SWAP1 DUP9 SWAP1 PUSH1 0x4 ADD PUSH2 0x30BD JUMP JUMPDEST PUSH1 0x20 PUSH1 0x40 MLOAD DUP1 DUP4 SUB DUP2 PUSH1 0x0 DUP8 GAS CALL SWAP3 POP POP POP DUP1 ISZERO PUSH2 0x21F3 JUMPI POP PUSH1 0x40 DUP1 MLOAD PUSH1 0x1F RETURNDATASIZE SWAP1 DUP2 ADD PUSH1 0x1F NOT AND DUP3 ADD SWAP1 SWAP3 MSTORE PUSH2 0x21F0 SWAP2 DUP2 ADD SWAP1 PUSH2 0x30FA JUMP JUMPDEST PUSH1 0x1 JUMPDEST PUSH2 0x2250 JUMPI RETURNDATASIZE DUP1 DUP1 ISZERO PUSH2 0x2221 JUMPI PUSH1 0x40 MLOAD SWAP2 POP PUSH1 0x1F NOT PUSH1 0x3F RETURNDATASIZE ADD AND DUP3 ADD PUSH1 0x40 MSTORE RETURNDATASIZE DUP3 MSTORE RETURNDATASIZE PUSH1 0x0 PUSH1 0x20 DUP5 ADD RETURNDATACOPY PUSH2 0x2226 JUMP JUMPDEST PUSH1 0x60 SWAP2 POP JUMPDEST POP DUP1 MLOAD PUSH1 0x0 SUB PUSH2 0x2248 JUMPI PUSH1 0x40 MLOAD PUSH3 0x461BCD PUSH1 0xE5 SHL DUP2 MSTORE PUSH1 0x4 ADD PUSH2 0x787 SWAP1 PUSH2 0x3039 JUMP JUMPDEST DUP1 MLOAD DUP2 PUSH1 0x20 ADD REVERT JUMPDEST PUSH1 0x1 PUSH1 0x1 PUSH1 0xE0 SHL SUB NOT AND PUSH4 0xA85BD01 PUSH1 0xE1 SHL EQ SWAP1 POP PUSH2 0x17E9 JUMP JUMPDEST POP PUSH1 0x1 SWAP5 SWAP4 POP POP POP POP JUMP JUMPDEST PUSH1 0x0 PUSH1 0x1 PUSH1 0x1 PUSH1 0xE0 SHL SUB NOT DUP3 AND PUSH4 0x45F8F681 PUSH1 0xE1 SHL EQ DUP1 PUSH2 0x654 JUMPI POP PUSH2 0x654 DUP3 PUSH2 0x2578 JUMP JUMPDEST PUSH1 0x1 PUSH1 0x1 PUSH1 0xA0 SHL SUB DUP3 AND PUSH2 0x22F0 JUMPI PUSH1 0x40 MLOAD PUSH3 0x461BCD PUSH1 0xE5 SHL DUP2 MSTORE PUSH1 0x20 PUSH1 0x4 DUP3 ADD DUP2 SWAP1 MSTORE PUSH1 0x24 DUP3 ADD MSTORE PUSH32 0x4552433732313A206D696E7420746F20746865207A65726F2061646472657373 PUSH1 0x44 DUP3 ADD MSTORE PUSH1 0x64 ADD PUSH2 0x787 JUMP JUMPDEST PUSH1 0x0 DUP2 DUP2 MSTORE PUSH1 0x67 PUSH1 0x20 MSTORE PUSH1 0x40 SWAP1 KECCAK256 SLOAD PUSH1 0x1 PUSH1 0x1 PUSH1 0xA0 SHL SUB AND ISZERO PUSH2 0x2355 JUMPI PUSH1 0x40 MLOAD PUSH3 0x461BCD PUSH1 0xE5 SHL DUP2 MSTORE PUSH1 0x20 PUSH1 0x4 DUP3 ADD MSTORE PUSH1 0x1C PUSH1 0x24 DUP3 ADD MSTORE PUSH32 0x4552433732313A20746F6B656E20616C7265616479206D696E74656400000000 PUSH1 0x44 DUP3 ADD MSTORE PUSH1 0x64 ADD PUSH2 0x787 JUMP JUMPDEST PUSH2 0x2361 PUSH1 0x0 DUP4 DUP4 PUSH2 0x2023 JUMP JUMPDEST PUSH1 0x1 PUSH1 0x1 PUSH1 0xA0 SHL SUB DUP3 AND PUSH1 0x0 SWAP1 DUP2 MSTORE PUSH1 0x68 PUSH1 0x20 MSTORE PUSH1 0x40 DUP2 KECCAK256 DUP1 SLOAD PUSH1 0x1 SWAP3 SWAP1 PUSH2 0x238A SWAP1 DUP5 SWAP1 PUSH2 0x2C63 JUMP JUMPDEST SWAP1 SWAP2 SSTORE POP POP PUSH1 0x0 DUP2 DUP2 MSTORE PUSH1 0x67 PUSH1 0x20 MSTORE PUSH1 0x40 DUP1 DUP3 KECCAK256 DUP1 SLOAD PUSH1 0x1 PUSH1 0x1 PUSH1 0xA0 SHL SUB NOT AND PUSH1 0x1 PUSH1 0x1 PUSH1 0xA0 SHL SUB DUP7 AND SWAP1 DUP2 OR SWAP1 SWAP2 SSTORE SWAP1 MLOAD DUP4 SWAP3 SWAP1 PUSH32 0xDDF252AD1BE2C89B69C2B068FC378DAA952BA7F163C4A11628F55A4DF523B3EF SWAP1 DUP3 SWAP1 LOG4 POP POP JUMP JUMPDEST PUSH1 0x0 PUSH1 0x1 PUSH2 0x23F5 DUP5 PUSH2 0xF1B JUMP JUMPDEST PUSH2 0x23FF SWAP2 SWAP1 PUSH2 0x2F1B JUMP JUMPDEST PUSH1 0x0 DUP4 DUP2 MSTORE PUSH1 0x98 PUSH1 0x20 MSTORE PUSH1 0x40 SWAP1 KECCAK256 SLOAD SWAP1 SWAP2 POP DUP1 DUP3 EQ PUSH2 0x2452 JUMPI PUSH1 0x1 PUSH1 0x1 PUSH1 0xA0 SHL SUB DUP5 AND PUSH1 0x0 SWAP1 DUP2 MSTORE PUSH1 0x97 PUSH1 0x20 SWAP1 DUP2 MSTORE PUSH1 0x40 DUP1 DUP4 KECCAK256 DUP6 DUP5 MSTORE DUP3 MSTORE DUP1 DUP4 KECCAK256 SLOAD DUP5 DUP5 MSTORE DUP2 DUP5 KECCAK256 DUP2 SWAP1 SSTORE DUP4 MSTORE PUSH1 0x98 SWAP1 SWAP2 MSTORE SWAP1 KECCAK256 DUP2 SWAP1 SSTORE JUMPDEST POP PUSH1 0x0 SWAP2 DUP3 MSTORE PUSH1 0x98 PUSH1 0x20 SWAP1 DUP2 MSTORE PUSH1 0x40 DUP1 DUP5 KECCAK256 DUP5 SWAP1 SSTORE PUSH1 0x1 PUSH1 0x1 PUSH1 0xA0 SHL SUB SWAP1 SWAP5 AND DUP4 MSTORE PUSH1 0x97 DUP2 MSTORE DUP4 DUP4 KECCAK256 SWAP2 DUP4 MSTORE MSTORE SWAP1 DUP2 KECCAK256 SSTORE JUMP JUMPDEST PUSH1 0x99 SLOAD PUSH1 0x0 SWAP1 PUSH2 0x2497 SWAP1 PUSH1 0x1 SWAP1 PUSH2 0x2F1B JUMP JUMPDEST PUSH1 0x0 DUP4 DUP2 MSTORE PUSH1 0x9A PUSH1 0x20 MSTORE PUSH1 0x40 DUP2 KECCAK256 SLOAD PUSH1 0x99 DUP1 SLOAD SWAP4 SWAP5 POP SWAP1 SWAP3 DUP5 SWAP1 DUP2 LT PUSH2 0x24BF JUMPI PUSH2 0x24BF PUSH2 0x2C76 JUMP JUMPDEST SWAP1 PUSH1 0x0 MSTORE PUSH1 0x20 PUSH1 0x0 KECCAK256 ADD SLOAD SWAP1 POP DUP1 PUSH1 0x99 DUP4 DUP2 SLOAD DUP2 LT PUSH2 0x24E0 JUMPI PUSH2 0x24E0 PUSH2 0x2C76 JUMP JUMPDEST PUSH1 0x0 SWAP2 DUP3 MSTORE PUSH1 0x20 DUP1 DUP4 KECCAK256 SWAP1 SWAP2 ADD SWAP3 SWAP1 SWAP3 SSTORE DUP3 DUP2 MSTORE PUSH1 0x9A SWAP1 SWAP2 MSTORE PUSH1 0x40 DUP1 DUP3 KECCAK256 DUP5 SWAP1 SSTORE DUP6 DUP3 MSTORE DUP2 KECCAK256 SSTORE PUSH1 0x99 DUP1 SLOAD DUP1 PUSH2 0x2518 JUMPI PUSH2 0x2518 PUSH2 0x308B JUMP JUMPDEST PUSH1 0x1 SWAP1 SUB DUP2 DUP2 SWAP1 PUSH1 0x0 MSTORE PUSH1 0x20 PUSH1 0x0 KECCAK256 ADD PUSH1 0x0 SWAP1 SSTORE SWAP1 SSTORE POP POP POP POP JUMP JUMPDEST PUSH1 0x0 PUSH2 0x253F DUP4 PUSH2 0xF1B JUMP JUMPDEST PUSH1 0x1 PUSH1 0x1 PUSH1 0xA0 SHL SUB SWAP1 SWAP4 AND PUSH1 0x0 SWAP1 DUP2 MSTORE PUSH1 0x97 PUSH1 0x20 SWAP1 DUP2 MSTORE PUSH1 0x40 DUP1 DUP4 KECCAK256 DUP7 DUP5 MSTORE DUP3 MSTORE DUP1 DUP4 KECCAK256 DUP6 SWAP1 SSTORE SWAP4 DUP3 MSTORE PUSH1 0x98 SWAP1 MSTORE SWAP2 SWAP1 SWAP2 KECCAK256 SWAP2 SWAP1 SWAP2 SSTORE POP JUMP JUMPDEST PUSH1 0x0 PUSH1 0x1 PUSH1 0x1 PUSH1 0xE0 SHL SUB NOT DUP3 AND PUSH4 0x780E9D63 PUSH1 0xE0 SHL EQ DUP1 PUSH2 0x654 JUMPI POP PUSH2 0x654 DUP3 PUSH1 0x0 PUSH1 0x1 PUSH1 0x1 PUSH1 0xE0 SHL SUB NOT DUP3 AND PUSH4 0x80AC58CD PUSH1 0xE0 SHL EQ DUP1 PUSH2 0x25C9 JUMPI POP PUSH1 0x1 PUSH1 0x1 PUSH1 0xE0 SHL SUB NOT DUP3 AND PUSH4 0x5B5E139F PUSH1 0xE0 SHL EQ JUMPDEST DUP1 PUSH2 0x654 JUMPI POP PUSH4 0x1FFC9A7 PUSH1 0xE0 SHL PUSH1 0x1 PUSH1 0x1 PUSH1 0xE0 SHL SUB NOT DUP4 AND EQ PUSH2 0x654 JUMP JUMPDEST POP DUP1 SLOAD PUSH1 0x0 DUP3 SSTORE SWAP1 PUSH1 0x0 MSTORE PUSH1 0x20 PUSH1 0x0 KECCAK256 SWAP1 DUP2 ADD SWAP1 PUSH2 0x10AC SWAP2 SWAP1 PUSH2 0x2640 JUMP JUMPDEST POP DUP1 SLOAD PUSH2 0x2612 SWAP1 PUSH2 0x2CA5 JUMP JUMPDEST PUSH1 0x0 DUP3 SSTORE DUP1 PUSH1 0x1F LT PUSH2 0x2622 JUMPI POP POP JUMP JUMPDEST PUSH1 0x1F ADD PUSH1 0x20 SWAP1 DIV SWAP1 PUSH1 0x0 MSTORE PUSH1 0x20 PUSH1 0x0 KECCAK256 SWAP1 DUP2 ADD SWAP1 PUSH2 0x10AC SWAP2 SWAP1 PUSH2 0x2661 JUMP JUMPDEST DUP1 DUP3 GT ISZERO PUSH2 0x265D JUMPI PUSH1 0x0 PUSH2 0x2654 DUP3 DUP3 PUSH2 0x2606 JUMP JUMPDEST POP PUSH1 0x1 ADD PUSH2 0x2640 JUMP JUMPDEST POP SWAP1 JUMP JUMPDEST JUMPDEST DUP1 DUP3 GT ISZERO PUSH2 0x265D JUMPI PUSH1 0x0 DUP2 SSTORE PUSH1 0x1 ADD PUSH2 0x2662 JUMP JUMPDEST PUSH1 0x0 DUP1 PUSH1 0x40 DUP4 DUP6 SUB SLT ISZERO PUSH2 0x2689 JUMPI PUSH1 0x0 DUP1 REVERT JUMPDEST POP POP DUP1 CALLDATALOAD SWAP3 PUSH1 0x20 SWAP1 SWAP2 ADD CALLDATALOAD SWAP2 POP JUMP JUMPDEST PUSH1 0x20 DUP1 DUP3 MSTORE DUP3 MLOAD DUP3 DUP3 ADD DUP2 SWAP1 MSTORE PUSH1 0x0 SWAP2 SWAP1 DUP5 DUP3 ADD SWAP1 PUSH1 0x40 DUP6 ADD SWAP1 DUP5 JUMPDEST DUP2 DUP2 LT ISZERO PUSH2 0x26D0 JUMPI DUP4 MLOAD DUP4 MSTORE SWAP3 DUP5 ADD SWAP3 SWAP2 DUP5 ADD SWAP2 PUSH1 0x1 ADD PUSH2 0x26B4 JUMP JUMPDEST POP SWAP1 SWAP7 SWAP6 POP POP POP POP POP POP JUMP JUMPDEST PUSH1 0x1 PUSH1 0x1 PUSH1 0xE0 SHL SUB NOT DUP2 AND DUP2 EQ PUSH2 0x10AC JUMPI PUSH1 0x0 DUP1 REVERT JUMPDEST PUSH1 0x0 PUSH1 0x20 DUP3 DUP5 SUB SLT ISZERO PUSH2 0x2704 JUMPI PUSH1 0x0 DUP1 REVERT JUMPDEST DUP2 CALLDATALOAD PUSH2 0x270F DUP2 PUSH2 0x26DC JUMP JUMPDEST SWAP4 SWAP3 POP POP POP JUMP JUMPDEST PUSH1 0x0 JUMPDEST DUP4 DUP2 LT ISZERO PUSH2 0x2731 JUMPI DUP2 DUP2 ADD MLOAD DUP4 DUP3 ADD MSTORE PUSH1 0x20 ADD PUSH2 0x2719 JUMP JUMPDEST POP POP PUSH1 0x0 SWAP2 ADD MSTORE JUMP JUMPDEST PUSH1 0x0 DUP2 MLOAD DUP1 DUP5 MSTORE PUSH2 0x2752 DUP2 PUSH1 0x20 DUP7 ADD PUSH1 0x20 DUP7 ADD PUSH2 0x2716 JUMP JUMPDEST PUSH1 0x1F ADD PUSH1 0x1F NOT AND SWAP3 SWAP1 SWAP3 ADD PUSH1 0x20 ADD SWAP3 SWAP2 POP POP JUMP JUMPDEST PUSH1 0x20 DUP2 MSTORE PUSH1 0x0 PUSH2 0x270F PUSH1 0x20 DUP4 ADD DUP5 PUSH2 0x273A JUMP JUMPDEST PUSH1 0x0 PUSH1 0x20 DUP3 DUP5 SUB SLT ISZERO PUSH2 0x278B JUMPI PUSH1 0x0 DUP1 REVERT JUMPDEST POP CALLDATALOAD SWAP2 SWAP1 POP JUMP JUMPDEST DUP1 CALLDATALOAD PUSH1 0x1 PUSH1 0x1 PUSH1 0xA0 SHL SUB DUP2 AND DUP2 EQ PUSH2 0x1DE8 JUMPI PUSH1 0x0 DUP1 REVERT JUMPDEST PUSH1 0x0 DUP1 PUSH1 0x40 DUP4 DUP6 SUB SLT ISZERO PUSH2 0x27BC JUMPI PUSH1 0x0 DUP1 REVERT JUMPDEST PUSH2 0x27C5 DUP4 PUSH2 0x2792 JUMP JUMPDEST SWAP5 PUSH1 0x20 SWAP4 SWAP1 SWAP4 ADD CALLDATALOAD SWAP4 POP POP POP JUMP JUMPDEST PUSH1 0x0 DUP1 DUP4 PUSH1 0x1F DUP5 ADD SLT PUSH2 0x27E5 JUMPI PUSH1 0x0 DUP1 REVERT JUMPDEST POP DUP2 CALLDATALOAD PUSH8 0xFFFFFFFFFFFFFFFF DUP2 GT ISZERO PUSH2 0x27FD JUMPI PUSH1 0x0 DUP1 REVERT JUMPDEST PUSH1 0x20 DUP4 ADD SWAP2 POP DUP4 PUSH1 0x20 DUP3 DUP6 ADD ADD GT ISZERO PUSH2 0x2815 JUMPI PUSH1 0x0 DUP1 REVERT JUMPDEST SWAP3 POP SWAP3 SWAP1 POP JUMP JUMPDEST PUSH1 0x0 DUP1 PUSH1 0x0 PUSH1 0x40 DUP5 DUP7 SUB SLT ISZERO PUSH2 0x2831 JUMPI PUSH1 0x0 DUP1 REVERT JUMPDEST DUP4 CALLDATALOAD SWAP3 POP PUSH1 0x20 DUP5 ADD CALLDATALOAD PUSH8 0xFFFFFFFFFFFFFFFF DUP2 GT ISZERO PUSH2 0x284F JUMPI PUSH1 0x0 DUP1 REVERT JUMPDEST PUSH2 0x285B DUP7 DUP3 DUP8 ADD PUSH2 0x27D3 JUMP JUMPDEST SWAP5 SWAP8 SWAP1 SWAP7 POP SWAP4 SWAP5 POP POP POP POP JUMP JUMPDEST PUSH1 0x0 DUP1 PUSH1 0x0 PUSH1 0x60 DUP5 DUP7 SUB SLT ISZERO PUSH2 0x287D JUMPI PUSH1 0x0 DUP1 REVERT JUMPDEST PUSH2 0x2886 DUP5 PUSH2 0x2792 JUMP JUMPDEST SWAP3 POP PUSH2 0x2894 PUSH1 0x20 DUP6 ADD PUSH2 0x2792 JUMP JUMPDEST SWAP2 POP PUSH1 0x40 DUP5 ADD CALLDATALOAD SWAP1 POP SWAP3 POP SWAP3 POP SWAP3 JUMP JUMPDEST PUSH4 0x4E487B71 PUSH1 0xE0 SHL PUSH1 0x0 MSTORE PUSH1 0x41 PUSH1 0x4 MSTORE PUSH1 0x24 PUSH1 0x0 REVERT JUMPDEST PUSH1 0x40 MLOAD PUSH1 0x1F DUP3 ADD PUSH1 0x1F NOT AND DUP2 ADD PUSH8 0xFFFFFFFFFFFFFFFF DUP2 GT DUP3 DUP3 LT OR ISZERO PUSH2 0x28E3 JUMPI PUSH2 0x28E3 PUSH2 0x28A4 JUMP JUMPDEST PUSH1 0x40 MSTORE SWAP2 SWAP1 POP JUMP JUMPDEST PUSH1 0x0 PUSH8 0xFFFFFFFFFFFFFFFF DUP4 GT ISZERO PUSH2 0x2905 JUMPI PUSH2 0x2905 PUSH2 0x28A4 JUMP JUMPDEST PUSH2 0x2918 PUSH1 0x1F DUP5 ADD PUSH1 0x1F NOT AND PUSH1 0x20 ADD PUSH2 0x28BA JUMP JUMPDEST SWAP1 POP DUP3 DUP2 MSTORE DUP4 DUP4 DUP4 ADD GT ISZERO PUSH2 0x292C JUMPI PUSH1 0x0 DUP1 REVERT JUMPDEST DUP3 DUP3 PUSH1 0x20 DUP4 ADD CALLDATACOPY PUSH1 0x0 PUSH1 0x20 DUP5 DUP4 ADD ADD MSTORE SWAP4 SWAP3 POP POP POP JUMP JUMPDEST PUSH1 0x0 DUP3 PUSH1 0x1F DUP4 ADD SLT PUSH2 0x2954 JUMPI PUSH1 0x0 DUP1 REVERT JUMPDEST DUP2 CALLDATALOAD PUSH1 0x20 PUSH8 0xFFFFFFFFFFFFFFFF DUP1 DUP4 GT ISZERO PUSH2 0x2971 JUMPI PUSH2 0x2971 PUSH2 0x28A4 JUMP JUMPDEST DUP3 PUSH1 0x5 SHL PUSH2 0x2980 DUP4 DUP3 ADD PUSH2 0x28BA JUMP JUMPDEST SWAP4 DUP5 MSTORE DUP6 DUP2 ADD DUP4 ADD SWAP4 DUP4 DUP2 ADD SWAP1 DUP9 DUP7 GT ISZERO PUSH2 0x299A JUMPI PUSH1 0x0 DUP1 REVERT JUMPDEST DUP5 DUP9 ADD SWAP3 POP JUMPDEST DUP6 DUP4 LT ISZERO PUSH2 0x29EB JUMPI DUP3 CALLDATALOAD DUP5 DUP2 GT ISZERO PUSH2 0x29B8 JUMPI PUSH1 0x0 DUP1 DUP2 REVERT JUMPDEST DUP9 ADD PUSH1 0x3F DUP2 ADD DUP11 SGT PUSH2 0x29CA JUMPI PUSH1 0x0 DUP1 DUP2 REVERT JUMPDEST PUSH2 0x29DB DUP11 DUP8 DUP4 ADD CALLDATALOAD PUSH1 0x40 DUP5 ADD PUSH2 0x28EB JUMP JUMPDEST DUP4 MSTORE POP SWAP2 DUP5 ADD SWAP2 SWAP1 DUP5 ADD SWAP1 PUSH2 0x29A0 JUMP JUMPDEST SWAP9 SWAP8 POP POP POP POP POP POP POP POP JUMP JUMPDEST PUSH1 0x0 DUP1 PUSH1 0x40 DUP4 DUP6 SUB SLT ISZERO PUSH2 0x2A0A JUMPI PUSH1 0x0 DUP1 REVERT JUMPDEST DUP3 CALLDATALOAD SWAP2 POP PUSH1 0x20 DUP4 ADD CALLDATALOAD PUSH8 0xFFFFFFFFFFFFFFFF DUP2 GT ISZERO PUSH2 0x2A28 JUMPI PUSH1 0x0 DUP1 REVERT JUMPDEST PUSH2 0x2A34 DUP6 DUP3 DUP7 ADD PUSH2 0x2943 JUMP JUMPDEST SWAP2 POP POP SWAP3 POP SWAP3 SWAP1 POP JUMP JUMPDEST PUSH1 0x0 DUP2 MLOAD DUP1 DUP5 MSTORE PUSH1 0x20 DUP1 DUP6 ADD DUP1 DUP2 SWAP7 POP DUP4 PUSH1 0x5 SHL DUP2 ADD SWAP2 POP DUP3 DUP7 ADD PUSH1 0x0 JUMPDEST DUP6 DUP2 LT ISZERO PUSH2 0x2A86 JUMPI DUP3 DUP5 SUB DUP10 MSTORE PUSH2 0x2A74 DUP5 DUP4 MLOAD PUSH2 0x273A JUMP JUMPDEST SWAP9 DUP6 ADD SWAP9 SWAP4 POP SWAP1 DUP5 ADD SWAP1 PUSH1 0x1 ADD PUSH2 0x2A5C JUMP JUMPDEST POP SWAP2 SWAP8 SWAP7 POP POP POP POP POP POP POP JUMP JUMPDEST PUSH1 0x20 DUP2 MSTORE PUSH1 0x0 PUSH2 0x270F PUSH1 0x20 DUP4 ADD DUP5 PUSH2 0x2A3E JUMP JUMPDEST PUSH1 0x0 DUP1 PUSH1 0x0 DUP1 PUSH1 0x60 DUP6 DUP8 SUB SLT ISZERO PUSH2 0x2ABC JUMPI PUSH1 0x0 DUP1 REVERT JUMPDEST DUP5 CALLDATALOAD SWAP4 POP PUSH1 0x20 DUP6 ADD CALLDATALOAD PUSH8 0xFFFFFFFFFFFFFFFF DUP1 DUP3 GT ISZERO PUSH2 0x2ADB JUMPI PUSH1 0x0 DUP1 REVERT JUMPDEST PUSH2 0x2AE7 DUP9 DUP4 DUP10 ADD PUSH2 0x27D3 JUMP JUMPDEST SWAP1 SWAP6 POP SWAP4 POP PUSH1 0x40 DUP8 ADD CALLDATALOAD SWAP2 POP DUP1 DUP3 GT ISZERO PUSH2 0x2B00 JUMPI PUSH1 0x0 DUP1 REVERT JUMPDEST POP PUSH2 0x2B0D DUP8 DUP3 DUP9 ADD PUSH2 0x2943 JUMP JUMPDEST SWAP2 POP POP SWAP3 SWAP6 SWAP2 SWAP5 POP SWAP3 POP JUMP JUMPDEST PUSH1 0x0 PUSH1 0x20 DUP3 DUP5 SUB SLT ISZERO PUSH2 0x2B2B JUMPI PUSH1 0x0 DUP1 REVERT JUMPDEST PUSH2 0x270F DUP3 PUSH2 0x2792 JUMP JUMPDEST DUP5 ISZERO ISZERO DUP2 MSTORE DUP4 PUSH1 0x20 DUP3 ADD MSTORE PUSH1 0x80 PUSH1 0x40 DUP3 ADD MSTORE PUSH1 0x0 PUSH2 0x2B55 PUSH1 0x80 DUP4 ADD DUP6 PUSH2 0x273A JUMP JUMPDEST SWAP1 POP PUSH1 0x1 DUP1 PUSH1 0xA0 SHL SUB DUP4 AND PUSH1 0x60 DUP4 ADD MSTORE SWAP6 SWAP5 POP POP POP POP POP JUMP JUMPDEST PUSH1 0x0 DUP1 PUSH1 0x40 DUP4 DUP6 SUB SLT ISZERO PUSH2 0x2B81 JUMPI PUSH1 0x0 DUP1 REVERT JUMPDEST PUSH2 0x2B8A DUP4 PUSH2 0x2792 JUMP JUMPDEST SWAP2 POP PUSH1 0x20 DUP4 ADD CALLDATALOAD DUP1 ISZERO ISZERO DUP2 EQ PUSH2 0x2B9F JUMPI PUSH1 0x0 DUP1 REVERT JUMPDEST DUP1 SWAP2 POP POP SWAP3 POP SWAP3 SWAP1 POP JUMP JUMPDEST PUSH1 0x0 DUP1 PUSH1 0x0 DUP1 PUSH1 0x80 DUP6 DUP8 SUB SLT ISZERO PUSH2 0x2BC0 JUMPI PUSH1 0x0 DUP1 REVERT JUMPDEST PUSH2 0x2BC9 DUP6 PUSH2 0x2792 JUMP JUMPDEST SWAP4 POP PUSH2 0x2BD7 PUSH1 0x20 DUP7 ADD PUSH2 0x2792 JUMP JUMPDEST SWAP3 POP PUSH1 0x40 DUP6 ADD CALLDATALOAD SWAP2 POP PUSH1 0x60 DUP6 ADD CALLDATALOAD PUSH8 0xFFFFFFFFFFFFFFFF DUP2 GT ISZERO PUSH2 0x2BFA JUMPI PUSH1 0x0 DUP1 REVERT JUMPDEST DUP6 ADD PUSH1 0x1F DUP2 ADD DUP8 SGT PUSH2 0x2C0B JUMPI PUSH1 0x0 DUP1 REVERT JUMPDEST PUSH2 0x2B0D DUP8 DUP3 CALLDATALOAD PUSH1 0x20 DUP5 ADD PUSH2 0x28EB JUMP JUMPDEST PUSH1 0x0 DUP1 PUSH1 0x40 DUP4 DUP6 SUB SLT ISZERO PUSH2 0x2C2D JUMPI PUSH1 0x0 DUP1 REVERT JUMPDEST PUSH2 0x2C36 DUP4 PUSH2 0x2792 JUMP JUMPDEST SWAP2 POP PUSH2 0x2C44 PUSH1 0x20 DUP5 ADD PUSH2 0x2792 JUMP JUMPDEST SWAP1 POP SWAP3 POP SWAP3 SWAP1 POP JUMP JUMPDEST PUSH4 0x4E487B71 PUSH1 0xE0 SHL PUSH1 0x0 MSTORE PUSH1 0x11 PUSH1 0x4 MSTORE PUSH1 0x24 PUSH1 0x0 REVERT JUMPDEST DUP1 DUP3 ADD DUP1 DUP3 GT ISZERO PUSH2 0x654 JUMPI PUSH2 0x654 PUSH2 0x2C4D JUMP JUMPDEST PUSH4 0x4E487B71 PUSH1 0xE0 SHL PUSH1 0x0 MSTORE PUSH1 0x32 PUSH1 0x4 MSTORE PUSH1 0x24 PUSH1 0x0 REVERT JUMPDEST PUSH1 0x0 PUSH1 0x1 DUP3 ADD PUSH2 0x2C9E JUMPI PUSH2 0x2C9E PUSH2 0x2C4D JUMP JUMPDEST POP PUSH1 0x1 ADD SWAP1 JUMP JUMPDEST PUSH1 0x1 DUP2 DUP2 SHR SWAP1 DUP3 AND DUP1 PUSH2 0x2CB9 JUMPI PUSH1 0x7F DUP3 AND SWAP2 POP JUMPDEST PUSH1 0x20 DUP3 LT DUP2 SUB PUSH2 0x2CD9 JUMPI PUSH4 0x4E487B71 PUSH1 0xE0 SHL PUSH1 0x0 MSTORE PUSH1 0x22 PUSH1 0x4 MSTORE PUSH1 0x24 PUSH1 0x0 REVERT JUMPDEST POP SWAP2 SWAP1 POP JUMP JUMPDEST PUSH1 0x1F DUP3 GT ISZERO PUSH2 0x828 JUMPI PUSH1 0x0 DUP2 DUP2 MSTORE PUSH1 0x20 DUP2 KECCAK256 PUSH1 0x1F DUP6 ADD PUSH1 0x5 SHR DUP2 ADD PUSH1 0x20 DUP7 LT ISZERO PUSH2 0x2D06 JUMPI POP DUP1 JUMPDEST PUSH1 0x1F DUP6 ADD PUSH1 0x5 SHR DUP3 ADD SWAP2 POP JUMPDEST DUP2 DUP2 LT ISZERO PUSH2 0x2D25 JUMPI DUP3 DUP2 SSTORE PUSH1 0x1 ADD PUSH2 0x2D12 JUMP JUMPDEST POP POP POP POP POP POP JUMP JUMPDEST PUSH8 0xFFFFFFFFFFFFFFFF DUP4 GT ISZERO PUSH2 0x2D45 JUMPI PUSH2 0x2D45 PUSH2 0x28A4 JUMP JUMPDEST PUSH2 0x2D59 DUP4 PUSH2 0x2D53 DUP4 SLOAD PUSH2 0x2CA5 JUMP JUMPDEST DUP4 PUSH2 0x2CDF JUMP JUMPDEST PUSH1 0x0 PUSH1 0x1F DUP5 GT PUSH1 0x1 DUP2 EQ PUSH2 0x2D8D JUMPI PUSH1 0x0 DUP6 ISZERO PUSH2 0x2D75 JUMPI POP DUP4 DUP3 ADD CALLDATALOAD JUMPDEST PUSH1 0x0 NOT PUSH1 0x3 DUP8 SWAP1 SHL SHR NOT AND PUSH1 0x1 DUP7 SWAP1 SHL OR DUP4 SSTORE PUSH2 0x12CA JUMP JUMPDEST PUSH1 0x0 DUP4 DUP2 MSTORE PUSH1 0x20 SWAP1 KECCAK256 PUSH1 0x1F NOT DUP7 AND SWAP1 DUP4 JUMPDEST DUP3 DUP2 LT ISZERO PUSH2 0x2DBE JUMPI DUP7 DUP6 ADD CALLDATALOAD DUP3 SSTORE PUSH1 0x20 SWAP5 DUP6 ADD SWAP5 PUSH1 0x1 SWAP1 SWAP3 ADD SWAP2 ADD PUSH2 0x2D9E JUMP JUMPDEST POP DUP7 DUP3 LT ISZERO PUSH2 0x2DDB JUMPI PUSH1 0x0 NOT PUSH1 0xF8 DUP9 PUSH1 0x3 SHL AND SHR NOT DUP5 DUP8 ADD CALLDATALOAD AND DUP2 SSTORE JUMPDEST POP POP PUSH1 0x1 DUP6 PUSH1 0x1 SHL ADD DUP4 SSTORE POP POP POP POP POP JUMP JUMPDEST DUP2 DUP4 MSTORE DUP2 DUP2 PUSH1 0x20 DUP6 ADD CALLDATACOPY POP PUSH1 0x0 DUP3 DUP3 ADD PUSH1 0x20 SWAP1 DUP2 ADD SWAP2 SWAP1 SWAP2 MSTORE PUSH1 0x1F SWAP1 SWAP2 ADD PUSH1 0x1F NOT AND SWAP1 SWAP2 ADD ADD SWAP1 JUMP JUMPDEST PUSH1 0x20 DUP2 MSTORE PUSH1 0x0 PUSH2 0x17E9 PUSH1 0x20 DUP4 ADD DUP5 DUP7 PUSH2 0x2DED JUMP JUMPDEST PUSH1 0x20 DUP1 DUP3 MSTORE PUSH1 0x2E SWAP1 DUP3 ADD MSTORE PUSH32 0x4552433732313A2063616C6C6572206973206E6F7420746F6B656E206F776E65 PUSH1 0x40 DUP3 ADD MSTORE PUSH14 0x1C881B9BDC88185C1C1C9BDD9959 PUSH1 0x92 SHL PUSH1 0x60 DUP3 ADD MSTORE PUSH1 0x80 ADD SWAP1 JUMP JUMPDEST DUP4 DUP2 MSTORE PUSH1 0x40 PUSH1 0x20 DUP3 ADD MSTORE PUSH1 0x0 PUSH2 0x2E92 PUSH1 0x40 DUP4 ADD DUP5 DUP7 PUSH2 0x2DED JUMP JUMPDEST SWAP6 SWAP5 POP POP POP POP POP JUMP JUMPDEST DUP3 DUP2 MSTORE PUSH1 0x40 PUSH1 0x20 DUP3 ADD MSTORE PUSH1 0x0 PUSH2 0x17E9 PUSH1 0x40 DUP4 ADD DUP5 PUSH2 0x2A3E JUMP JUMPDEST PUSH1 0x20 DUP1 DUP3 MSTORE PUSH1 0x2E SWAP1 DUP3 ADD MSTORE PUSH32 0x496E697469616C697A61626C653A20636F6E747261637420697320616C726561 PUSH1 0x40 DUP3 ADD MSTORE PUSH14 0x191E481A5B9A5D1A585B1A5E9959 PUSH1 0x92 SHL PUSH1 0x60 DUP3 ADD MSTORE PUSH1 0x80 ADD SWAP1 JUMP JUMPDEST PUSH1 0x0 PUSH1 0x20 DUP3 DUP5 SUB SLT ISZERO PUSH2 0x2F14 JUMPI PUSH1 0x0 DUP1 REVERT JUMPDEST POP MLOAD SWAP2 SWAP1 POP JUMP JUMPDEST DUP2 DUP2 SUB DUP2 DUP2 GT ISZERO PUSH2 0x654 JUMPI PUSH2 0x654 PUSH2 0x2C4D JUMP JUMPDEST DUP2 MLOAD PUSH8 0xFFFFFFFFFFFFFFFF DUP2 GT ISZERO PUSH2 0x2F48 JUMPI PUSH2 0x2F48 PUSH2 0x28A4 JUMP JUMPDEST PUSH2 0x2F5C DUP2 PUSH2 0x2F56 DUP5 SLOAD PUSH2 0x2CA5 JUMP JUMPDEST DUP5 PUSH2 0x2CDF JUMP JUMPDEST PUSH1 0x20 DUP1 PUSH1 0x1F DUP4 GT PUSH1 0x1 DUP2 EQ PUSH2 0x2F91 JUMPI PUSH1 0x0 DUP5 ISZERO PUSH2 0x2F79 JUMPI POP DUP6 DUP4 ADD MLOAD JUMPDEST PUSH1 0x0 NOT PUSH1 0x3 DUP7 SWAP1 SHL SHR NOT AND PUSH1 0x1 DUP6 SWAP1 SHL OR DUP6 SSTORE PUSH2 0x2D25 JUMP JUMPDEST PUSH1 0x0 DUP6 DUP2 MSTORE PUSH1 0x20 DUP2 KECCAK256 PUSH1 0x1F NOT DUP7 AND SWAP2 JUMPDEST DUP3 DUP2 LT ISZERO PUSH2 0x2FC0 JUMPI DUP9 DUP7 ADD MLOAD DUP3 SSTORE SWAP5 DUP5 ADD SWAP5 PUSH1 0x1 SWAP1 SWAP2 ADD SWAP1 DUP5 ADD PUSH2 0x2FA1 JUMP JUMPDEST POP DUP6 DUP3 LT ISZERO PUSH2 0x2FDE JUMPI DUP8 DUP6 ADD MLOAD PUSH1 0x0 NOT PUSH1 0x3 DUP9 SWAP1 SHL PUSH1 0xF8 AND SHR NOT AND DUP2 SSTORE JUMPDEST POP POP POP POP POP PUSH1 0x1 SWAP1 DUP2 SHL ADD SWAP1 SSTORE POP JUMP JUMPDEST PUSH1 0x20 DUP1 DUP3 MSTORE PUSH1 0x2B SWAP1 DUP3 ADD MSTORE PUSH32 0x496E697469616C697A61626C653A20636F6E7472616374206973206E6F742069 PUSH1 0x40 DUP3 ADD MSTORE PUSH11 0x6E697469616C697A696E67 PUSH1 0xA8 SHL PUSH1 0x60 DUP3 ADD MSTORE PUSH1 0x80 ADD SWAP1 JUMP JUMPDEST PUSH1 0x20 DUP1 DUP3 MSTORE PUSH1 0x32 SWAP1 DUP3 ADD MSTORE PUSH32 0x4552433732313A207472616E7366657220746F206E6F6E204552433732315265 PUSH1 0x40 DUP3 ADD MSTORE PUSH18 0x31B2B4BB32B91034B6B83632B6B2B73A32B9 PUSH1 0x71 SHL PUSH1 0x60 DUP3 ADD MSTORE PUSH1 0x80 ADD SWAP1 JUMP JUMPDEST PUSH4 0x4E487B71 PUSH1 0xE0 SHL PUSH1 0x0 MSTORE PUSH1 0x31 PUSH1 0x4 MSTORE PUSH1 0x24 PUSH1 0x0 REVERT JUMPDEST PUSH1 0x0 DUP3 MLOAD PUSH2 0x30B3 DUP2 DUP5 PUSH1 0x20 DUP8 ADD PUSH2 0x2716 JUMP JUMPDEST SWAP2 SWAP1 SWAP2 ADD SWAP3 SWAP2 POP POP JUMP JUMPDEST PUSH1 0x1 PUSH1 0x1 PUSH1 0xA0 SHL SUB DUP6 DUP2 AND DUP3 MSTORE DUP5 AND PUSH1 0x20 DUP3 ADD MSTORE PUSH1 0x40 DUP2 ADD DUP4 SWAP1 MSTORE PUSH1 0x80 PUSH1 0x60 DUP3 ADD DUP2 SWAP1 MSTORE PUSH1 0x0 SWAP1 PUSH2 0x30F0 SWAP1 DUP4 ADD DUP5 PUSH2 0x273A JUMP JUMPDEST SWAP7 SWAP6 POP POP POP POP POP POP JUMP JUMPDEST PUSH1 0x0 PUSH1 0x20 DUP3 DUP5 SUB SLT ISZERO PUSH2 0x310C JUMPI PUSH1 0x0 DUP1 REVERT JUMPDEST DUP2 MLOAD PUSH2 0x270F DUP2 PUSH2 0x26DC JUMP INVALID LOG2 PUSH5 0x6970667358 0x22 SLT KECCAK256 ORIGIN 0xC3 SWAP5 0xD2 0xBA 0xF 0xA9 0xC0 0xD3 SWAP11 0x23 0xAB EXTCODESIZE DUP13 0xF9 0x4A JUMPI 0xE4 0x4C 0x29 CALLDATACOPY SLOAD PC 0xA5 COINBASE 0x4B LOG0 CALLER 0xAA PUSH28 0x58EC64736F6C63430008110033000000000000000000000000000000 "},"methodIdentifiers":{"addDelegates(bytes32,string[])":"5d96b739","approve(address,uint256)":"095ea7b3","balanceOf(address)":"70a08231","createOrgId(bytes32,string)":"0ad0abce","createOrgId(bytes32,string,string[])":"b676e2ff","getApproved(uint256)":"081812fc","getDelegates(bytes32)":"63ceab54","getOrgId(uint256)":"98980a8a","getOrgIds()":"e4f64990","getOrgIds(uint256,uint256)":"0193eda6","getTokenId(bytes32)":"c9cb65e1","initialize()":"8129fc1c","isApprovedForAll(address,address)":"e985e9c5","name()":"06fdde03","ownerOf(uint256)":"6352211e","removeDelegates(bytes32)":"bc52570b","removeDelegates(bytes32,string[])":"dfe0f511","safeTransferFrom(address,address,uint256)":"42842e0e","safeTransferFrom(address,address,uint256,bytes)":"b88d4fde","setApprovalForAll(address,bool)":"a22cb465","setOrgJson(bytes32,string)":"35178d91","setOrgJson(bytes32,string,string[])":"6bad8835","supportsInterface(bytes4)":"01ffc9a7","symbol()":"95d89b41","tokenByIndex(uint256)":"4f6ccce7","tokenOfOwnerByIndex(address,uint256)":"2f745c59","tokenURI(uint256)":"c87b56dd","totalSupply()":"18160ddd","transferFrom(address,address,uint256)":"23b872dd"}},"storageLayout":{"storage":[{"astId":6,"contract":"contracts/OrgId.sol:OrgId","label":"_initialized","offset":0,"slot":"0","type":"t_uint8"},{"astId":9,"contract":"contracts/OrgId.sol:OrgId","label":"_initializing","offset":1,"slot":"0","type":"t_bool"},{"astId":1876,"contract":"contracts/OrgId.sol:OrgId","label":"__gap","offset":0,"slot":"1","type":"t_array(t_uint256)50_storage"},{"astId":2146,"contract":"contracts/OrgId.sol:OrgId","label":"__gap","offset":0,"slot":"51","type":"t_array(t_uint256)50_storage"},{"astId":179,"contract":"contracts/OrgId.sol:OrgId","label":"_name","offset":0,"slot":"101","type":"t_string_storage"},{"astId":181,"contract":"contracts/OrgId.sol:OrgId","label":"_symbol","offset":0,"slot":"102","type":"t_string_storage"},{"astId":185,"contract":"contracts/OrgId.sol:OrgId","label":"_owners","offset":0,"slot":"103","type":"t_mapping(t_uint256,t_address)"},{"astId":189,"contract":"contracts/OrgId.sol:OrgId","label":"_balances","offset":0,"slot":"104","type":"t_mapping(t_address,t_uint256)"},{"astId":193,"contract":"contracts/OrgId.sol:OrgId","label":"_tokenApprovals","offset":0,"slot":"105","type":"t_mapping(t_uint256,t_address)"},{"astId":199,"contract":"contracts/OrgId.sol:OrgId","label":"_operatorApprovals","offset":0,"slot":"106","type":"t_mapping(t_address,t_mapping(t_address,t_bool))"},{"astId":1041,"contract":"contracts/OrgId.sol:OrgId","label":"__gap","offset":0,"slot":"107","type":"t_array(t_uint256)44_storage"},{"astId":1206,"contract":"contracts/OrgId.sol:OrgId","label":"_ownedTokens","offset":0,"slot":"151","type":"t_mapping(t_address,t_mapping(t_uint256,t_uint256))"},{"astId":1210,"contract":"contracts/OrgId.sol:OrgId","label":"_ownedTokensIndex","offset":0,"slot":"152","type":"t_mapping(t_uint256,t_uint256)"},{"astId":1213,"contract":"contracts/OrgId.sol:OrgId","label":"_allTokens","offset":0,"slot":"153","type":"t_array(t_uint256)dyn_storage"},{"astId":1217,"contract":"contracts/OrgId.sol:OrgId","label":"_allTokensIndex","offset":0,"slot":"154","type":"t_mapping(t_uint256,t_uint256)"},{"astId":1533,"contract":"contracts/OrgId.sol:OrgId","label":"__gap","offset":0,"slot":"155","type":"t_array(t_uint256)46_storage"},{"astId":2781,"contract":"contracts/OrgId.sol:OrgId","label":"_orgToken","offset":0,"slot":"201","type":"t_mapping(t_bytes32,t_uint256)"},{"astId":2786,"contract":"contracts/OrgId.sol:OrgId","label":"_tokenOrg","offset":0,"slot":"202","type":"t_mapping(t_uint256,t_bytes32)"},{"astId":2791,"contract":"contracts/OrgId.sol:OrgId","label":"_orgJsonUris","offset":0,"slot":"203","type":"t_mapping(t_uint256,t_string_storage)"},{"astId":2795,"contract":"contracts/OrgId.sol:OrgId","label":"_orgIds","offset":0,"slot":"204","type":"t_array(t_bytes32)dyn_storage"},{"astId":3223,"contract":"contracts/OrgId.sol:OrgId","label":"__gap","offset":0,"slot":"205","type":"t_array(t_uint256)51_storage"},{"astId":2442,"contract":"contracts/OrgId.sol:OrgId","label":"_delegates","offset":0,"slot":"256","type":"t_mapping(t_bytes32,t_struct(Set)3239_storage)"},{"astId":2763,"contract":"contracts/OrgId.sol:OrgId","label":"__gap","offset":0,"slot":"257","type":"t_array(t_uint256)51_storage"},{"astId":2422,"contract":"contracts/OrgId.sol:OrgId","label":"__gap","offset":0,"slot":"308","type":"t_array(t_uint256)51_storage"}],"types":{"t_address":{"encoding":"inplace","label":"address","numberOfBytes":"20"},"t_array(t_bytes32)dyn_storage":{"base":"t_bytes32","encoding":"dynamic_array","label":"bytes32[]","numberOfBytes":"32"},"t_array(t_string_storage)dyn_storage":{"base":"t_string_storage","encoding":"dynamic_array","label":"string[]","numberOfBytes":"32"},"t_array(t_uint256)44_storage":{"base":"t_uint256","encoding":"inplace","label":"uint256[44]","numberOfBytes":"1408"},"t_array(t_uint256)46_storage":{"base":"t_uint256","encoding":"inplace","label":"uint256[46]","numberOfBytes":"1472"},"t_array(t_uint256)50_storage":{"base":"t_uint256","encoding":"inplace","label":"uint256[50]","numberOfBytes":"1600"},"t_array(t_uint256)51_storage":{"base":"t_uint256","encoding":"inplace","label":"uint256[51]","numberOfBytes":"1632"},"t_array(t_uint256)dyn_storage":{"base":"t_uint256","encoding":"dynamic_array","label":"uint256[]","numberOfBytes":"32"},"t_bool":{"encoding":"inplace","label":"bool","numberOfBytes":"1"},"t_bytes32":{"encoding":"inplace","label":"bytes32","numberOfBytes":"32"},"t_mapping(t_address,t_bool)":{"encoding":"mapping","key":"t_address","label":"mapping(address => bool)","numberOfBytes":"32","value":"t_bool"},"t_mapping(t_address,t_mapping(t_address,t_bool))":{"encoding":"mapping","key":"t_address","label":"mapping(address => mapping(address => bool))","numberOfBytes":"32","value":"t_mapping(t_address,t_bool)"},"t_mapping(t_address,t_mapping(t_uint256,t_uint256))":{"encoding":"mapping","key":"t_address","label":"mapping(address => mapping(uint256 => uint256))","numberOfBytes":"32","value":"t_mapping(t_uint256,t_uint256)"},"t_mapping(t_address,t_uint256)":{"encoding":"mapping","key":"t_address","label":"mapping(address => uint256)","numberOfBytes":"32","value":"t_uint256"},"t_mapping(t_bytes32,t_bool)":{"encoding":"mapping","key":"t_bytes32","label":"mapping(bytes32 => bool)","numberOfBytes":"32","value":"t_bool"},"t_mapping(t_bytes32,t_struct(Set)3239_storage)":{"encoding":"mapping","key":"t_bytes32","label":"mapping(bytes32 => struct StringsSet.Set)","numberOfBytes":"32","value":"t_struct(Set)3239_storage"},"t_mapping(t_bytes32,t_uint256)":{"encoding":"mapping","key":"t_bytes32","label":"mapping(bytes32 => uint256)","numberOfBytes":"32","value":"t_uint256"},"t_mapping(t_uint256,t_address)":{"encoding":"mapping","key":"t_uint256","label":"mapping(uint256 => address)","numberOfBytes":"32","value":"t_address"},"t_mapping(t_uint256,t_bytes32)":{"encoding":"mapping","key":"t_uint256","label":"mapping(uint256 => bytes32)","numberOfBytes":"32","value":"t_bytes32"},"t_mapping(t_uint256,t_string_storage)":{"encoding":"mapping","key":"t_uint256","label":"mapping(uint256 => string)","numberOfBytes":"32","value":"t_string_storage"},"t_mapping(t_uint256,t_uint256)":{"encoding":"mapping","key":"t_uint256","label":"mapping(uint256 => uint256)","numberOfBytes":"32","value":"t_uint256"},"t_string_storage":{"encoding":"bytes","label":"string","numberOfBytes":"32"},"t_struct(Set)3239_storage":{"encoding":"inplace","label":"struct StringsSet.Set","members":[{"astId":3230,"contract":"contracts/OrgId.sol:OrgId","label":"_values","offset":0,"slot":"0","type":"t_array(t_string_storage)dyn_storage"},{"astId":3234,"contract":"contracts/OrgId.sol:OrgId","label":"_hashTable","offset":0,"slot":"1","type":"t_mapping(t_bytes32,t_bool)"},{"astId":3238,"contract":"contracts/OrgId.sol:OrgId","label":"_indexes","offset":0,"slot":"2","type":"t_mapping(t_bytes32,t_uint256)"}],"numberOfBytes":"96"},"t_uint256":{"encoding":"inplace","label":"uint256","numberOfBytes":"32"},"t_uint8":{"encoding":"inplace","label":"uint8","numberOfBytes":"1"}}}}}}