{
  "_format": "hh-sol-artifact-1",
  "contractName": "StringsSet",
  "sourceName": "contracts/libraries/StringsSet.sol",
  "abi": [
    {
      "inputs": [
        {
          "internalType": "bytes32",
          "name": "c__0x57f46b98",
          "type": "bytes32"
        }
      ],
      "name": "c_0x57f46b98",
      "outputs": [],
      "stateMutability": "pure",
      "type": "function"
    }
  ],
  "bytecode": "0x60be610052600b82828239805160001a607314610045577f4e487b7100000000000000000000000000000000000000000000000000000000600052600060045260246000fd5b30600052607381538281f3fe730000000000000000000000000000000000000000301460806040526004361060335760003560e01c80636f51ca31146038575b600080fd5b604e6004803603810190604a91906066565b6050565b005b50565b600081359050606081609d565b92915050565b60006020828403121560795760786098565b5b60006085848285016053565b91505092915050565b6000819050919050565b600080fd5b60a481608e565b811460ae57600080fd5b5056fea164736f6c6343000807000a",
  "linkReferences": {},
  "deployedLinkReferences": {}
}