{
  "_format": "hh-sol-artifact-1",
  "contractName": "OrgId",
  "sourceName": "contracts/OrgId.sol",
  "abi": [
    {
      "inputs": [],
      "name": "CalledNotByOrgIdOwner",
      "type": "error"
    },
    {
      "inputs": [],
      "name": "InvalidDelegatesInput",
      "type": "error"
    },
    {
      "inputs": [
        {
          "internalType": "bytes32",
          "name": "orgId",
          "type": "bytes32"
        }
      ],
      "name": "OrgIdAlreadyExists",
      "type": "error"
    },
    {
      "inputs": [
        {
          "internalType": "bytes32",
          "name": "orgId",
          "type": "bytes32"
        }
      ],
      "name": "OrgIdNotFound",
      "type": "error"
    },
    {
      "inputs": [],
      "name": "OrgJsonUriEmpty",
      "type": "error"
    },
    {
      "inputs": [
        {
          "internalType": "uint256",
          "name": "tokenId",
          "type": "uint256"
        }
      ],
      "name": "TokenNotFound",
      "type": "error"
    },
    {
      "anonymous": false,
      "inputs": [
        {
          "indexed": true,
          "internalType": "address",
          "name": "owner",
          "type": "address"
        },
        {
          "indexed": true,
          "internalType": "address",
          "name": "approved",
          "type": "address"
        },
        {
          "indexed": true,
          "internalType": "uint256",
          "name": "tokenId",
          "type": "uint256"
        }
      ],
      "name": "Approval",
      "type": "event"
    },
    {
      "anonymous": false,
      "inputs": [
        {
          "indexed": true,
          "internalType": "address",
          "name": "owner",
          "type": "address"
        },
        {
          "indexed": true,
          "internalType": "address",
          "name": "operator",
          "type": "address"
        },
        {
          "indexed": false,
          "internalType": "bool",
          "name": "approved",
          "type": "bool"
        }
      ],
      "name": "ApprovalForAll",
      "type": "event"
    },
    {
      "anonymous": false,
      "inputs": [
        {
          "indexed": false,
          "internalType": "uint8",
          "name": "version",
          "type": "uint8"
        }
      ],
      "name": "Initialized",
      "type": "event"
    },
    {
      "anonymous": false,
      "inputs": [
        {
          "indexed": true,
          "internalType": "bytes32",
          "name": "orgId",
          "type": "bytes32"
        },
        {
          "indexed": true,
          "internalType": "address",
          "name": "owner",
          "type": "address"
        }
      ],
      "name": "OrgIdCreated",
      "type": "event"
    },
    {
      "anonymous": false,
      "inputs": [
        {
          "indexed": true,
          "internalType": "bytes32",
          "name": "orgId",
          "type": "bytes32"
        },
        {
          "indexed": false,
          "internalType": "string[]",
          "name": "delegates",
          "type": "string[]"
        }
      ],
      "name": "OrgIdDelegatesAdded",
      "type": "event"
    },
    {
      "anonymous": false,
      "inputs": [
        {
          "indexed": true,
          "internalType": "bytes32",
          "name": "orgId",
          "type": "bytes32"
        },
        {
          "indexed": false,
          "internalType": "string[]",
          "name": "delegates",
          "type": "string[]"
        }
      ],
      "name": "OrgIdDelegatesRemoved",
      "type": "event"
    },
    {
      "anonymous": false,
      "inputs": [
        {
          "indexed": true,
          "internalType": "bytes32",
          "name": "orgId",
          "type": "bytes32"
        },
        {
          "indexed": false,
          "internalType": "string",
          "name": "orgJsonUri",
          "type": "string"
        }
      ],
      "name": "OrgJsonUriChanged",
      "type": "event"
    },
    {
      "anonymous": false,
      "inputs": [
        {
          "indexed": true,
          "internalType": "address",
          "name": "from",
          "type": "address"
        },
        {
          "indexed": true,
          "internalType": "address",
          "name": "to",
          "type": "address"
        },
        {
          "indexed": true,
          "internalType": "uint256",
          "name": "tokenId",
          "type": "uint256"
        }
      ],
      "name": "Transfer",
      "type": "event"
    },
    {
      "inputs": [
        {
          "internalType": "bytes32",
          "name": "orgId",
          "type": "bytes32"
        },
        {
          "internalType": "string[]",
          "name": "dids",
          "type": "string[]"
        }
      ],
      "name": "addDelegates",
      "outputs": [],
      "stateMutability": "nonpayable",
      "type": "function"
    },
    {
      "inputs": [
        {
          "internalType": "address",
          "name": "to",
          "type": "address"
        },
        {
          "internalType": "uint256",
          "name": "tokenId",
          "type": "uint256"
        }
      ],
      "name": "approve",
      "outputs": [],
      "stateMutability": "nonpayable",
      "type": "function"
    },
    {
      "inputs": [
        {
          "internalType": "address",
          "name": "owner",
          "type": "address"
        }
      ],
      "name": "balanceOf",
      "outputs": [
        {
          "internalType": "uint256",
          "name": "",
          "type": "uint256"
        }
      ],
      "stateMutability": "view",
      "type": "function"
    },
    {
      "inputs": [
        {
          "internalType": "bytes32",
          "name": "salt",
          "type": "bytes32"
        },
        {
          "internalType": "string",
          "name": "orgJsonUri",
          "type": "string"
        }
      ],
      "name": "createOrgId",
      "outputs": [
        {
          "internalType": "bytes32",
          "name": "",
          "type": "bytes32"
        }
      ],
      "stateMutability": "nonpayable",
      "type": "function"
    },
    {
      "inputs": [
        {
          "internalType": "bytes32",
          "name": "salt",
          "type": "bytes32"
        },
        {
          "internalType": "string",
          "name": "orgJsonUri",
          "type": "string"
        },
        {
          "internalType": "string[]",
          "name": "dids",
          "type": "string[]"
        }
      ],
      "name": "createOrgId",
      "outputs": [],
      "stateMutability": "nonpayable",
      "type": "function"
    },
    {
      "inputs": [
        {
          "internalType": "uint256",
          "name": "tokenId",
          "type": "uint256"
        }
      ],
      "name": "getApproved",
      "outputs": [
        {
          "internalType": "address",
          "name": "",
          "type": "address"
        }
      ],
      "stateMutability": "view",
      "type": "function"
    },
    {
      "inputs": [
        {
          "internalType": "bytes32",
          "name": "orgId",
          "type": "bytes32"
        }
      ],
      "name": "getDelegates",
      "outputs": [
        {
          "internalType": "string[]",
          "name": "dids",
          "type": "string[]"
        }
      ],
      "stateMutability": "view",
      "type": "function"
    },
    {
      "inputs": [
        {
          "internalType": "uint256",
          "name": "tokenId",
          "type": "uint256"
        }
      ],
      "name": "getOrgId",
      "outputs": [
        {
          "internalType": "bool",
          "name": "exists",
          "type": "bool"
        },
        {
          "internalType": "bytes32",
          "name": "orgId",
          "type": "bytes32"
        },
        {
          "internalType": "string",
          "name": "orgJsonUri",
          "type": "string"
        },
        {
          "internalType": "address",
          "name": "owner",
          "type": "address"
        }
      ],
      "stateMutability": "view",
      "type": "function"
    },
    {
      "inputs": [
        {
          "internalType": "uint256",
          "name": "cursor",
          "type": "uint256"
        },
        {
          "internalType": "uint256",
          "name": "count",
          "type": "uint256"
        }
      ],
      "name": "getOrgIds",
      "outputs": [
        {
          "internalType": "bytes32[]",
          "name": "orgIds",
          "type": "bytes32[]"
        }
      ],
      "stateMutability": "view",
      "type": "function"
    },
    {
      "inputs": [],
      "name": "getOrgIds",
      "outputs": [
        {
          "internalType": "bytes32[]",
          "name": "orgIds",
          "type": "bytes32[]"
        }
      ],
      "stateMutability": "view",
      "type": "function"
    },
    {
      "inputs": [
        {
          "internalType": "bytes32",
          "name": "orgId",
          "type": "bytes32"
        }
      ],
      "name": "getTokenId",
      "outputs": [
        {
          "internalType": "uint256",
          "name": "tokenId",
          "type": "uint256"
        }
      ],
      "stateMutability": "view",
      "type": "function"
    },
    {
      "inputs": [],
      "name": "initialize",
      "outputs": [],
      "stateMutability": "nonpayable",
      "type": "function"
    },
    {
      "inputs": [
        {
          "internalType": "address",
          "name": "owner",
          "type": "address"
        },
        {
          "internalType": "address",
          "name": "operator",
          "type": "address"
        }
      ],
      "name": "isApprovedForAll",
      "outputs": [
        {
          "internalType": "bool",
          "name": "",
          "type": "bool"
        }
      ],
      "stateMutability": "view",
      "type": "function"
    },
    {
      "inputs": [],
      "name": "name",
      "outputs": [
        {
          "internalType": "string",
          "name": "",
          "type": "string"
        }
      ],
      "stateMutability": "view",
      "type": "function"
    },
    {
      "inputs": [
        {
          "internalType": "uint256",
          "name": "tokenId",
          "type": "uint256"
        }
      ],
      "name": "ownerOf",
      "outputs": [
        {
          "internalType": "address",
          "name": "",
          "type": "address"
        }
      ],
      "stateMutability": "view",
      "type": "function"
    },
    {
      "inputs": [
        {
          "internalType": "bytes32",
          "name": "orgId",
          "type": "bytes32"
        }
      ],
      "name": "removeDelegates",
      "outputs": [],
      "stateMutability": "nonpayable",
      "type": "function"
    },
    {
      "inputs": [
        {
          "internalType": "bytes32",
          "name": "orgId",
          "type": "bytes32"
        },
        {
          "internalType": "string[]",
          "name": "dids",
          "type": "string[]"
        }
      ],
      "name": "removeDelegates",
      "outputs": [],
      "stateMutability": "nonpayable",
      "type": "function"
    },
    {
      "inputs": [
        {
          "internalType": "address",
          "name": "from",
          "type": "address"
        },
        {
          "internalType": "address",
          "name": "to",
          "type": "address"
        },
        {
          "internalType": "uint256",
          "name": "tokenId",
          "type": "uint256"
        }
      ],
      "name": "safeTransferFrom",
      "outputs": [],
      "stateMutability": "nonpayable",
      "type": "function"
    },
    {
      "inputs": [
        {
          "internalType": "address",
          "name": "from",
          "type": "address"
        },
        {
          "internalType": "address",
          "name": "to",
          "type": "address"
        },
        {
          "internalType": "uint256",
          "name": "tokenId",
          "type": "uint256"
        },
        {
          "internalType": "bytes",
          "name": "data",
          "type": "bytes"
        }
      ],
      "name": "safeTransferFrom",
      "outputs": [],
      "stateMutability": "nonpayable",
      "type": "function"
    },
    {
      "inputs": [
        {
          "internalType": "address",
          "name": "operator",
          "type": "address"
        },
        {
          "internalType": "bool",
          "name": "approved",
          "type": "bool"
        }
      ],
      "name": "setApprovalForAll",
      "outputs": [],
      "stateMutability": "nonpayable",
      "type": "function"
    },
    {
      "inputs": [
        {
          "internalType": "bytes32",
          "name": "orgId",
          "type": "bytes32"
        },
        {
          "internalType": "string",
          "name": "orgJsonUri",
          "type": "string"
        }
      ],
      "name": "setOrgJson",
      "outputs": [],
      "stateMutability": "nonpayable",
      "type": "function"
    },
    {
      "inputs": [
        {
          "internalType": "bytes32",
          "name": "orgId",
          "type": "bytes32"
        },
        {
          "internalType": "string",
          "name": "orgJsonUri",
          "type": "string"
        },
        {
          "internalType": "string[]",
          "name": "dids",
          "type": "string[]"
        }
      ],
      "name": "setOrgJson",
      "outputs": [],
      "stateMutability": "nonpayable",
      "type": "function"
    },
    {
      "inputs": [
        {
          "internalType": "bytes4",
          "name": "interfaceId",
          "type": "bytes4"
        }
      ],
      "name": "supportsInterface",
      "outputs": [
        {
          "internalType": "bool",
          "name": "",
          "type": "bool"
        }
      ],
      "stateMutability": "view",
      "type": "function"
    },
    {
      "inputs": [],
      "name": "symbol",
      "outputs": [
        {
          "internalType": "string",
          "name": "",
          "type": "string"
        }
      ],
      "stateMutability": "view",
      "type": "function"
    },
    {
      "inputs": [
        {
          "internalType": "uint256",
          "name": "index",
          "type": "uint256"
        }
      ],
      "name": "tokenByIndex",
      "outputs": [
        {
          "internalType": "uint256",
          "name": "",
          "type": "uint256"
        }
      ],
      "stateMutability": "view",
      "type": "function"
    },
    {
      "inputs": [
        {
          "internalType": "address",
          "name": "owner",
          "type": "address"
        },
        {
          "internalType": "uint256",
          "name": "index",
          "type": "uint256"
        }
      ],
      "name": "tokenOfOwnerByIndex",
      "outputs": [
        {
          "internalType": "uint256",
          "name": "",
          "type": "uint256"
        }
      ],
      "stateMutability": "view",
      "type": "function"
    },
    {
      "inputs": [
        {
          "internalType": "uint256",
          "name": "tokenId",
          "type": "uint256"
        }
      ],
      "name": "tokenURI",
      "outputs": [
        {
          "internalType": "string",
          "name": "",
          "type": "string"
        }
      ],
      "stateMutability": "view",
      "type": "function"
    },
    {
      "inputs": [],
      "name": "totalSupply",
      "outputs": [
        {
          "internalType": "uint256",
          "name": "",
          "type": "uint256"
        }
      ],
      "stateMutability": "view",
      "type": "function"
    },
    {
      "inputs": [
        {
          "internalType": "address",
          "name": "from",
          "type": "address"
        },
        {
          "internalType": "address",
          "name": "to",
          "type": "address"
        },
        {
          "internalType": "uint256",
          "name": "tokenId",
          "type": "uint256"
        }
      ],
      "name": "transferFrom",
      "outputs": [],
      "stateMutability": "nonpayable",
      "type": "function"
    }
  ],
  "bytecode": "0x608060405234801561001057600080fd5b506130af806100206000396000f3fe608060405234801561001057600080fd5b50600436106101cf5760003560e01c806363ceab5411610104578063b676e2ff116100a2578063c9cb65e111610071578063c9cb65e1146103fb578063dfe0f5111461041b578063e4f649901461042e578063e985e9c51461043657600080fd5b8063b676e2ff146103af578063b88d4fde146103c2578063bc52570b146103d5578063c87b56dd146103e857600080fd5b80638129fc1c116100de5780638129fc1c1461036957806395d89b411461037157806398980a8a14610379578063a22cb4651461039c57600080fd5b806363ceab54146103235780636bad88351461034357806370a082311461035657600080fd5b806323b872dd1161017157806342842e0e1161014b57806342842e0e146102d75780634f6ccce7146102ea5780635d96b739146102fd5780636352211e1461031057600080fd5b806323b872dd1461029e5780632f745c59146102b157806335178d91146102c457600080fd5b8063081812fc116101ad578063081812fc14610235578063095ea7b3146102605780630ad0abce1461027557806318160ddd1461029657600080fd5b80630193eda6146101d457806301ffc9a7146101fd57806306fdde0314610220575b600080fd5b6101e76101e23660046124e4565b610472565b6040516101f49190612506565b60405180910390f35b61021061020b366004612560565b610647565b60405190151581526020016101f4565b610228610658565b6040516101f491906125d4565b6102486102433660046125e7565b6106ea565b6040516001600160a01b0390911681526020016101f4565b61027361026e366004612617565b610711565b005b610288610283366004612689565b61082b565b6040519081526020016101f4565b609954610288565b6102736102ac3660046126d4565b6109c5565b6102886102bf366004612617565b6109f6565b6102736102d2366004612689565b610a8c565b6102736102e53660046126d4565b610b91565b6102886102f83660046125e7565b610bac565b61027361030b366004612754565b610c3f565b61024861031e3660046125e7565b610dcc565b6103366103313660046125e7565b610e2c565b6040516101f49190612792565b6102736103513660046127f4565b610e47565b61028861036436600461286d565b610e85565b610273610f0b565b610228611019565b61038c6103873660046125e7565b611028565b6040516101f49493929190612888565b6102736103aa3660046128c2565b611102565b6102736103bd3660046127f4565b611111565b6102736103d036600461299b565b611139565b6102736103e33660046125e7565b611171565b6102286103f63660046125e7565b611271565b6102886104093660046125e7565b600090815260c9602052604090205490565b610273610429366004612a16565b61134a565b6101e7611497565b610210610444366004612afa565b6001600160a01b039182166000908152606a6020908152604080832093909416825291909152205460ff1690565b60606000826001600160401b0381111561048e5761048e6128fe565b6040519080825280602002602001820160405280156104b7578160200160208202803683370190505b509050600080855b60cc54811080156104d857506104d58688612b43565b81105b1561056e5760cc81815481106104f0576104f0612b56565b906000526020600020015484848151811061050d5761050d612b56565b6020026020010181815250506000801b60cc828154811061053057610530612b56565b90600052602060002001541461054e578161054a81612b6c565b9250505b8261055881612b6c565b935050808061056690612b6c565b9150506104bf565b50806001600160401b03811115610587576105876128fe565b6040519080825280602002602001820160405280156105b0578160200160208202803683370190505b5093506000915060005b835181101561063d576000801b8482815181106105d9576105d9612b56565b60200260200101511461062b578381815181106105f8576105f8612b56565b602002602001015185848151811061061257610612612b56565b60209081029190910101528261062781612b6c565b9350505b8061063581612b6c565b9150506105ba565b5050505092915050565b6000610652826114ee565b92915050565b60606065805461066790612b85565b80601f016020809104026020016040519081016040528092919081815260200182805461069390612b85565b80156106e05780601f106106b5576101008083540402835291602001916106e0565b820191906000526020600020905b8154815290600101906020018083116106c357829003601f168201915b5050505050905090565b60006106f5826114f9565b506000908152606960205260409020546001600160a01b031690565b600061071c82610dcc565b9050806001600160a01b0316836001600160a01b03160361078e5760405162461bcd60e51b815260206004820152602160248201527f4552433732313a20617070726f76616c20746f2063757272656e74206f776e656044820152603960f91b60648201526084015b60405180910390fd5b336001600160a01b03821614806107aa57506107aa8133610444565b61081c5760405162461bcd60e51b815260206004820152603e60248201527f4552433732313a20617070726f76652063616c6c6572206973206e6f7420746f60448201527f6b656e206f776e6572206e6f7220617070726f76656420666f7220616c6c00006064820152608401610785565b6108268383611558565b505050565b600081810361084d57604051633f0e0a7f60e21b815260040160405180910390fd5b6000336040516bffffffffffffffffffffffff19606083901b1660208201526034810187905290915060009060540160408051601f19818403018152918152815160209283012060cc8054600181019091557f47197230e1e4b29fc0bd84d7d78966c0925452aff72a2a121538b102457e9ebe01819055600081815260c9909352912054909150156108f5576040516358dc901360e01b815260048101829052602401610785565b600061090060995490565b61090b906001612b43565b905061091783826115c6565b600082815260c96020908152604080832084905583835260ca825280832085905560cb909152902061094a868883612c05565b506040516001600160a01b0384169083907f49422f7ad2eca08595f1596952d2d805b5d5ba06f8c371dcb617c86a5b42ba0790600090a3817f4e0249d19860daeb2f0627d804cc93426e237cb754fef478c3a6cbcbc276265787876040516109b3929190612ced565b60405180910390a25095945050505050565b6109cf33826115e0565b6109eb5760405162461bcd60e51b815260040161078590612d01565b61082683838361165f565b6000610a0183610e85565b8210610a635760405162461bcd60e51b815260206004820152602b60248201527f455243373231456e756d657261626c653a206f776e657220696e646578206f7560448201526a74206f6620626f756e647360a81b6064820152608401610785565b506001600160a01b03919091166000908152609760209081526040808320938352929052205490565b82801580610aa65750600081815260c96020526040902054155b15610ac7576040516387fe3aad60e01b815260048101829052602401610785565b600081815260c960205260409020543390610ae190610dcc565b6001600160a01b031614610b0857604051635612e54f60e11b815260040160405180910390fd5b6000829003610b2a57604051633f0e0a7f60e21b815260040160405180910390fd5b600084815260c96020908152604080832054835260cb9091529020610b50838583612c05565b50837f4e0249d19860daeb2f0627d804cc93426e237cb754fef478c3a6cbcbc27626578484604051610b83929190612ced565b60405180910390a250505050565b61082683838360405180602001604052806000815250611139565b6000610bb760995490565b8210610c1a5760405162461bcd60e51b815260206004820152602c60248201527f455243373231456e756d657261626c653a20676c6f62616c20696e646578206f60448201526b7574206f6620626f756e647360a01b6064820152608401610785565b60998281548110610c2d57610c2d612b56565b90600052602060002001549050919050565b82801580610c595750600081815260c96020526040902054155b15610c7a576040516387fe3aad60e01b815260048101829052602401610785565b600081815260c960205260409020543390610c9490610dcc565b6001600160a01b031614610cbb57604051635612e54f60e11b815260040160405180910390fd5b6000829003610cdd57604051634816a76760e01b815260040160405180910390fd5b6000805b83811015610d8a57610d58858583818110610cfe57610cfe612b56565b9050602002810190610d109190612d4f565b8080601f01602080910402602001604051908101604052809392919081815260200183838082843760009201829052508b815261010060205260409020939250506118069050565b915081610d7857604051634816a76760e01b815260040160405180910390fd5b80610d8281612b6c565b915050610ce1565b50847f9af1bf1f55d94dc29bfe249a6e5c1f9b82c06fee0cdaeada46f044b69f68c7cc8585604051610dbd929190612d95565b60405180910390a25050505050565b6000818152606760205260408120546001600160a01b0316806106525760405162461bcd60e51b8152602060048201526018602482015277115490cdcc8c4e881a5b9d985b1a59081d1bdad95b88125160421b6044820152606401610785565b600081815261010060205260409020606090610652906118a7565b610e52858585610a8c565b6000610e5d86610e2c565b511115610e6d57610e6d85611171565b8015610e7e57610e7e858383610c3f565b5050505050565b60006001600160a01b038216610eef5760405162461bcd60e51b815260206004820152602960248201527f4552433732313a2061646472657373207a65726f206973206e6f7420612076616044820152683634b21037bbb732b960b91b6064820152608401610785565b506001600160a01b031660009081526068602052604090205490565b600054610100900460ff1615808015610f2b5750600054600160ff909116105b80610f455750303b158015610f45575060005460ff166001145b610f615760405162461bcd60e51b815260040161078590612e30565b6000805460ff191660011790558015610f84576000805461ff0019166101001790555b610fc86040518060400160405280600581526020016413d491da5160da1b8152506040518060400160405280600581526020016413d491da5160da1b815250611984565b610fd06119b5565b8015611016576000805461ff0019169055604051600181527f7f26b83ff96e1f2b6a682f133852f6798a09c465da95921460cefb38474024989060200160405180910390a15b50565b60606066805461066790612b85565b600081815260ca602090815260408083205460679092528220546001600160a01b0316158015926060916110fb57600085815260cb60205260409020805461106f90612b85565b80601f016020809104026020016040519081016040528092919081815260200182805461109b90612b85565b80156110e85780601f106110bd576101008083540402835291602001916110e8565b820191906000526020600020905b8154815290600101906020018083116110cb57829003601f168201915b505050505091506110f885610dcc565b90505b9193509193565b61110d338383611a36565b5050565b600061111e86868661082b565b9050811561113157611131818484610c3f565b505050505050565b61114333836115e0565b61115f5760405162461bcd60e51b815260040161078590612d01565b61116b84848484611b04565b50505050565b8080158061118b5750600081815260c96020526040902054155b156111ac576040516387fe3aad60e01b815260048101829052602401610785565b600081815260c9602052604090205433906111c690610dcc565b6001600160a01b0316146111ed57604051635612e54f60e11b815260040160405180910390fd5b600082815261010060205260408120611205906118a7565b6000848152610100602052604081209192509061122190611b37565b90508061124157604051634816a76760e01b815260040160405180910390fd5b837fb3c3b87d0ea8237b590c2dbf7d3acf90e54a40cf0ef1e4c0d948736e1fabd8a983604051610b839190612792565b6000818152606760205260409020546060906001600160a01b03166112ac576040516306caeb1360e41b815260048101839052602401610785565b600082815260cb6020526040902080546112c590612b85565b80601f01602080910402602001604051908101604052809291908181526020018280546112f190612b85565b801561133e5780601f106113135761010080835404028352916020019161133e565b820191906000526020600020905b81548152906001019060200180831161132157829003601f168201915b50505050509050919050565b818015806113645750600081815260c96020526040902054155b15611385576040516387fe3aad60e01b815260048101829052602401610785565b600081815260c96020526040902054339061139f90610dcc565b6001600160a01b0316146113c657604051635612e54f60e11b815260040160405180910390fd5b81516000036113e857604051634816a76760e01b815260040160405180910390fd5b6000805b83518110156114665761143484828151811061140a5761140a612b56565b60200260200101516101006000888152602001908152602001600020611c5b90919063ffffffff16565b91508161145457604051634816a76760e01b815260040160405180910390fd5b8061145e81612b6c565b9150506113ec565b50837fb3c3b87d0ea8237b590c2dbf7d3acf90e54a40cf0ef1e4c0d948736e1fabd8a984604051610b839190612792565b606060cc8054806020026020016040519081016040528092919081815260200182805480156106e057602002820191906000526020600020905b8154815260200190600101908083116114d1575050505050905090565b600061065282611e39565b6000818152606760205260409020546001600160a01b03166110165760405162461bcd60e51b8152602060048201526018602482015277115490cdcc8c4e881a5b9d985b1a59081d1bdad95b88125160421b6044820152606401610785565b600081815260696020526040902080546001600160a01b0319166001600160a01b038416908117909155819061158d82610dcc565b6001600160a01b03167f8c5be1e5ebec7d5bd14f71427d1e84f3dd0314c0f7b2291e5b200ac8c7c3b92560405160405180910390a45050565b61110d828260405180602001604052806000815250611e5e565b6000806115ec83610dcc565b9050806001600160a01b0316846001600160a01b0316148061163357506001600160a01b038082166000908152606a602090815260408083209388168352929052205460ff165b806116575750836001600160a01b031661164c846106ea565b6001600160a01b0316145b949350505050565b826001600160a01b031661167282610dcc565b6001600160a01b0316146116d65760405162461bcd60e51b815260206004820152602560248201527f4552433732313a207472616e736665722066726f6d20696e636f72726563742060448201526437bbb732b960d91b6064820152608401610785565b6001600160a01b0382166117385760405162461bcd60e51b8152602060048201526024808201527f4552433732313a207472616e7366657220746f20746865207a65726f206164646044820152637265737360e01b6064820152608401610785565b611743838383611e91565b61174e600082611558565b6001600160a01b0383166000908152606860205260408120805460019290611777908490612e7e565b90915550506001600160a01b03821660009081526068602052604081208054600192906117a5908490612b43565b909155505060008181526067602052604080822080546001600160a01b0319166001600160a01b0386811691821790925591518493918716917fddf252ad1be2c89b69c2b068fc378daa952ba7f163c4a11628f55a4df523b3ef91a4505050565b6000815160000361181957506000610652565b600061182483611f49565b600081815260018601602052604090205490915060ff1661188c576000818152600185810160209081526040808420805460ff19168417905587546002890183529084208190559182018755868352909120016118818482612e91565b506001915050610652565b600090815260018401602052604090205460ff169050610652565b606081600001805480602002602001604051908101604052809291908181526020016000905b828210156119795783829060005260206000200180546118ec90612b85565b80601f016020809104026020016040519081016040528092919081815260200182805461191890612b85565b80156119655780601f1061193a57610100808354040283529160200191611965565b820191906000526020600020905b81548152906001019060200180831161194857829003601f168201915b5050505050815260200190600101906118cd565b505050509050919050565b600054610100900460ff166119ab5760405162461bcd60e51b815260040161078590612f50565b61110d8282611f79565b600054610100900460ff16158080156119d55750600054600160ff909116105b806119ef5750303b1580156119ef575060005460ff166001145b611a0b5760405162461bcd60e51b815260040161078590612e30565b6000805460ff191660011790558015611a2e576000805461ff0019166101001790555b610fd0611fb9565b816001600160a01b0316836001600160a01b031603611a975760405162461bcd60e51b815260206004820152601960248201527f4552433732313a20617070726f766520746f2063616c6c6572000000000000006044820152606401610785565b6001600160a01b038381166000818152606a6020908152604080832094871680845294825291829020805460ff191686151590811790915591519182527f17307eab39ab6107e8899845ad3d59bd9653f200f220920489ca2b5937696c31910160405180910390a3505050565b611b0f84848461165f565b611b1b84848484611fe2565b61116b5760405162461bcd60e51b815260040161078590612f9b565b805460009015611c4e576000805b8354811015611c3957611bfe846000018281548110611b6657611b66612b56565b906000526020600020018054611b7b90612b85565b80601f0160208091040260200160405190810160405280929190818152602001828054611ba790612b85565b8015611bf45780601f10611bc957610100808354040283529160200191611bf4565b820191906000526020600020905b815481529060010190602001808311611bd757829003601f168201915b5050505050611f49565b60008181526002860160209081526040808320839055600188019091529020805460ff19169055915080611c3181612b6c565b915050611b45565b50611c45836000612456565b50600192915050565b506000919050565b919050565b60008151600003611c6e57506000610652565b6000611c7983611f49565b600081815260018601602052604090205490915060ff1615611e1d5760008181526002850160205260408120548554909190611cb790600190612e7e565b9050818114611dbc576000866000018281548110611cd757611cd7612b56565b906000526020600020018054611cec90612b85565b80601f0160208091040260200160405190810160405280929190818152602001828054611d1890612b85565b8015611d655780601f10611d3a57610100808354040283529160200191611d65565b820191906000526020600020905b815481529060010190602001808311611d4857829003601f168201915b5050505050905080876000018481548110611d8257611d82612b56565b906000526020600020019081611d989190612e91565b5082876002016000611da984611f49565b8152602081019190915260400160002055505b8554869080611dcd57611dcd612fed565b600190038181906000526020600020016000611de99190612474565b90555050600090815260028401602090815260408083208390556001808701909252909120805460ff191690559050610652565b600090815260018401602052604090205460ff16159050610652565b60006001600160e01b03198216635deabe7760e01b14806106525750610652826120e3565b611e688383612108565b611e756000848484611fe2565b6108265760405162461bcd60e51b815260040161078590612f9b565b6001600160a01b038316611eec57611ee781609980546000838152609a60205260408120829055600182018355919091527f72a152ddfb8e864297c917af52ea6c1c68aead0fee1a62673fcc7e0c94979d000155565b611f0f565b816001600160a01b0316836001600160a01b031614611f0f57611f0f8382612256565b6001600160a01b038216611f2657610826816122f3565b826001600160a01b0316826001600160a01b0316146108265761082682826123a2565b600081604051602001611f5c9190613003565b604051602081830303815290604052805190602001209050919050565b600054610100900460ff16611fa05760405162461bcd60e51b815260040161078590612f50565b6065611fac8382612e91565b5060666108268282612e91565b600054610100900460ff16611fe05760405162461bcd60e51b815260040161078590612f50565b565b60006001600160a01b0384163b156120d857604051630a85bd0160e11b81526001600160a01b0385169063150b7a029061202690339089908890889060040161301f565b6020604051808303816000875af1925050508015612061575060408051601f3d908101601f1916820190925261205e9181019061305c565b60015b6120be573d80801561208f576040519150601f19603f3d011682016040523d82523d6000602084013e612094565b606091505b5080516000036120b65760405162461bcd60e51b815260040161078590612f9b565b805181602001fd5b6001600160e01b031916630a85bd0160e11b149050611657565b506001949350505050565b60006001600160e01b031982166345f8f68160e11b14806106525750610652826123e6565b6001600160a01b03821661215e5760405162461bcd60e51b815260206004820181905260248201527f4552433732313a206d696e7420746f20746865207a65726f20616464726573736044820152606401610785565b6000818152606760205260409020546001600160a01b0316156121c35760405162461bcd60e51b815260206004820152601c60248201527f4552433732313a20746f6b656e20616c7265616479206d696e746564000000006044820152606401610785565b6121cf60008383611e91565b6001600160a01b03821660009081526068602052604081208054600192906121f8908490612b43565b909155505060008181526067602052604080822080546001600160a01b0319166001600160a01b03861690811790915590518392907fddf252ad1be2c89b69c2b068fc378daa952ba7f163c4a11628f55a4df523b3ef908290a45050565b6000600161226384610e85565b61226d9190612e7e565b6000838152609860205260409020549091508082146122c0576001600160a01b03841660009081526097602090815260408083208584528252808320548484528184208190558352609890915290208190555b5060009182526098602090815260408084208490556001600160a01b039094168352609781528383209183525290812055565b60995460009061230590600190612e7e565b6000838152609a60205260408120546099805493945090928490811061232d5761232d612b56565b90600052602060002001549050806099838154811061234e5761234e612b56565b6000918252602080832090910192909255828152609a9091526040808220849055858252812055609980548061238657612386612fed565b6001900381819060005260206000200160009055905550505050565b60006123ad83610e85565b6001600160a01b039093166000908152609760209081526040808320868452825280832085905593825260989052919091209190915550565b60006001600160e01b0319821663780e9d6360e01b148061065257506106528260006001600160e01b031982166380ac58cd60e01b148061243757506001600160e01b03198216635b5e139f60e01b145b8061065257506301ffc9a760e01b6001600160e01b0319831614610652565b508054600082559060005260206000209081019061101691906124ae565b50805461248090612b85565b6000825580601f10612490575050565b601f01602090049060005260206000209081019061101691906124cf565b808211156124cb5760006124c28282612474565b506001016124ae565b5090565b5b808211156124cb57600081556001016124d0565b600080604083850312156124f757600080fd5b50508035926020909101359150565b6020808252825182820181905260009190848201906040850190845b8181101561253e57835183529284019291840191600101612522565b50909695505050505050565b6001600160e01b03198116811461101657600080fd5b60006020828403121561257257600080fd5b813561257d8161254a565b9392505050565b60005b8381101561259f578181015183820152602001612587565b50506000910152565b600081518084526125c0816020860160208601612584565b601f01601f19169290920160200192915050565b60208152600061257d60208301846125a8565b6000602082840312156125f957600080fd5b5035919050565b80356001600160a01b0381168114611c5657600080fd5b6000806040838503121561262a57600080fd5b61263383612600565b946020939093013593505050565b60008083601f84011261265357600080fd5b5081356001600160401b0381111561266a57600080fd5b60208301915083602082850101111561268257600080fd5b9250929050565b60008060006040848603121561269e57600080fd5b8335925060208401356001600160401b038111156126bb57600080fd5b6126c786828701612641565b9497909650939450505050565b6000806000606084860312156126e957600080fd5b6126f284612600565b925061270060208501612600565b9150604084013590509250925092565b60008083601f84011261272257600080fd5b5081356001600160401b0381111561273957600080fd5b6020830191508360208260051b850101111561268257600080fd5b60008060006040848603121561276957600080fd5b8335925060208401356001600160401b0381111561278657600080fd5b6126c786828701612710565b6000602080830181845280855180835260408601915060408160051b870101925083870160005b828110156127e757603f198886030184526127d58583516125a8565b945092850192908501906001016127b9565b5092979650505050505050565b60008060008060006060868803121561280c57600080fd5b8535945060208601356001600160401b038082111561282a57600080fd5b61283689838a01612641565b9096509450604088013591508082111561284f57600080fd5b5061285c88828901612710565b969995985093965092949392505050565b60006020828403121561287f57600080fd5b61257d82612600565b84151581528360208201526080604082015260006128a960808301856125a8565b905060018060a01b038316606083015295945050505050565b600080604083850312156128d557600080fd5b6128de83612600565b9150602083013580151581146128f357600080fd5b809150509250929050565b634e487b7160e01b600052604160045260246000fd5b604051601f8201601f191681016001600160401b038111828210171561293c5761293c6128fe565b604052919050565b60006001600160401b0383111561295d5761295d6128fe565b612970601f8401601f1916602001612914565b905082815283838301111561298457600080fd5b828260208301376000602084830101529392505050565b600080600080608085870312156129b157600080fd5b6129ba85612600565b93506129c860208601612600565b92506040850135915060608501356001600160401b038111156129ea57600080fd5b8501601f810187136129fb57600080fd5b612a0a87823560208401612944565b91505092959194509250565b6000806040808486031215612a2a57600080fd5b833592506020808501356001600160401b0380821115612a4957600080fd5b818701915087601f830112612a5d57600080fd5b813581811115612a6f57612a6f6128fe565b8060051b612a7e858201612914565b918252838101850191858101908b841115612a9857600080fd5b86860192505b83831015612ae857823585811115612ab65760008081fd5b8601603f81018d13612ac85760008081fd5b612ad88d898301358b8401612944565b8352509186019190860190612a9e565b80985050505050505050509250929050565b60008060408385031215612b0d57600080fd5b612b1683612600565b9150612b2460208401612600565b90509250929050565b634e487b7160e01b600052601160045260246000fd5b8082018082111561065257610652612b2d565b634e487b7160e01b600052603260045260246000fd5b600060018201612b7e57612b7e612b2d565b5060010190565b600181811c90821680612b9957607f821691505b602082108103612bb957634e487b7160e01b600052602260045260246000fd5b50919050565b601f82111561082657600081815260208120601f850160051c81016020861015612be65750805b601f850160051c820191505b8181101561113157828155600101612bf2565b6001600160401b03831115612c1c57612c1c6128fe565b612c3083612c2a8354612b85565b83612bbf565b6000601f841160018114612c645760008515612c4c5750838201355b600019600387901b1c1916600186901b178355610e7e565b600083815260209020601f19861690835b82811015612c955786850135825560209485019460019092019101612c75565b5086821015612cb25760001960f88860031b161c19848701351681555b505060018560011b0183555050505050565b81835281816020850137506000828201602090810191909152601f909101601f19169091010190565b602081526000611657602083018486612cc4565b6020808252602e908201527f4552433732313a2063616c6c6572206973206e6f7420746f6b656e206f776e6560408201526d1c881b9bdc88185c1c1c9bdd995960921b606082015260800190565b6000808335601e19843603018112612d6657600080fd5b8301803591506001600160401b03821115612d8057600080fd5b60200191503681900382131561268257600080fd5b60208082528181018390526000906040600585901b8401810190840186845b87811015612e2357868403603f190183528135368a9003601e19018112612dda57600080fd5b890185810190356001600160401b03811115612df557600080fd5b803603821315612e0457600080fd5b612e0f868284612cc4565b955050509184019190840190600101612db4565b5091979650505050505050565b6020808252602e908201527f496e697469616c697a61626c653a20636f6e747261637420697320616c72656160408201526d191e481a5b9a5d1a585b1a5e995960921b606082015260800190565b8181038181111561065257610652612b2d565b81516001600160401b03811115612eaa57612eaa6128fe565b612ebe81612eb88454612b85565b84612bbf565b602080601f831160018114612ef35760008415612edb5750858301515b600019600386901b1c1916600185901b178555611131565b600085815260208120601f198616915b82811015612f2257888601518255948401946001909101908401612f03565b5085821015612f405787850151600019600388901b60f8161c191681555b5050505050600190811b01905550565b6020808252602b908201527f496e697469616c697a61626c653a20636f6e7472616374206973206e6f74206960408201526a6e697469616c697a696e6760a81b606082015260800190565b60208082526032908201527f4552433732313a207472616e7366657220746f206e6f6e20455243373231526560408201527131b2b4bb32b91034b6b83632b6b2b73a32b960711b606082015260800190565b634e487b7160e01b600052603160045260246000fd5b60008251613015818460208701612584565b9190910192915050565b6001600160a01b0385811682528416602082015260408101839052608060608201819052600090613052908301846125a8565b9695505050505050565b60006020828403121561306e57600080fd5b815161257d8161254a56fea2646970667358221220eb51dc4407db895338724cbe7168f5b6d6d2d1ec9a0ce86f340018622db71cc864736f6c63430008110033",
  "linkReferences": {},
  "deployedLinkReferences": {}
}