{
  "_format": "hh-sol-artifact-1",
  "contractName": "OrgIdUpgradeabilityTest",
  "sourceName": "contracts/test/OrgIdUpgradeabilityTest.sol",
  "abi": [
    {
      "inputs": [],
      "name": "CalledNotByOrgIdOwner",
      "type": "error"
    },
    {
      "inputs": [
        {
          "internalType": "bytes32",
          "name": "versionDomain",
          "type": "bytes32"
        }
      ],
      "name": "ContractAlreadyInitialized",
      "type": "error"
    },
    {
      "inputs": [],
      "name": "InvalidDelegatesInput",
      "type": "error"
    },
    {
      "inputs": [
        {
          "internalType": "bytes32",
          "name": "orgId",
          "type": "bytes32"
        }
      ],
      "name": "OrgIdAlreadyExists",
      "type": "error"
    },
    {
      "inputs": [
        {
          "internalType": "bytes32",
          "name": "orgId",
          "type": "bytes32"
        }
      ],
      "name": "OrgIdNotFound",
      "type": "error"
    },
    {
      "inputs": [],
      "name": "OrgJsonUriEmpty",
      "type": "error"
    },
    {
      "inputs": [
        {
          "internalType": "uint256",
          "name": "tokenId",
          "type": "uint256"
        }
      ],
      "name": "TokenNotFound",
      "type": "error"
    },
    {
      "anonymous": false,
      "inputs": [
        {
          "indexed": true,
          "internalType": "address",
          "name": "owner",
          "type": "address"
        },
        {
          "indexed": true,
          "internalType": "address",
          "name": "approved",
          "type": "address"
        },
        {
          "indexed": true,
          "internalType": "uint256",
          "name": "tokenId",
          "type": "uint256"
        }
      ],
      "name": "Approval",
      "type": "event"
    },
    {
      "anonymous": false,
      "inputs": [
        {
          "indexed": true,
          "internalType": "address",
          "name": "owner",
          "type": "address"
        },
        {
          "indexed": true,
          "internalType": "address",
          "name": "operator",
          "type": "address"
        },
        {
          "indexed": false,
          "internalType": "bool",
          "name": "approved",
          "type": "bool"
        }
      ],
      "name": "ApprovalForAll",
      "type": "event"
    },
    {
      "anonymous": false,
      "inputs": [
        {
          "indexed": false,
          "internalType": "uint8",
          "name": "version",
          "type": "uint8"
        }
      ],
      "name": "Initialized",
      "type": "event"
    },
    {
      "anonymous": false,
      "inputs": [
        {
          "indexed": true,
          "internalType": "bytes32",
          "name": "orgId",
          "type": "bytes32"
        },
        {
          "indexed": true,
          "internalType": "address",
          "name": "owner",
          "type": "address"
        }
      ],
      "name": "OrgIdCreated",
      "type": "event"
    },
    {
      "anonymous": false,
      "inputs": [
        {
          "indexed": true,
          "internalType": "bytes32",
          "name": "orgId",
          "type": "bytes32"
        },
        {
          "indexed": false,
          "internalType": "string[]",
          "name": "delegates",
          "type": "string[]"
        }
      ],
      "name": "OrgIdDelegatesAdded",
      "type": "event"
    },
    {
      "anonymous": false,
      "inputs": [
        {
          "indexed": true,
          "internalType": "bytes32",
          "name": "orgId",
          "type": "bytes32"
        },
        {
          "indexed": false,
          "internalType": "string[]",
          "name": "delegates",
          "type": "string[]"
        }
      ],
      "name": "OrgIdDelegatesRemoved",
      "type": "event"
    },
    {
      "anonymous": false,
      "inputs": [
        {
          "indexed": true,
          "internalType": "bytes32",
          "name": "orgId",
          "type": "bytes32"
        },
        {
          "indexed": false,
          "internalType": "string",
          "name": "orgJsonUri",
          "type": "string"
        }
      ],
      "name": "OrgJsonUriChanged",
      "type": "event"
    },
    {
      "anonymous": false,
      "inputs": [
        {
          "indexed": true,
          "internalType": "address",
          "name": "from",
          "type": "address"
        },
        {
          "indexed": true,
          "internalType": "address",
          "name": "to",
          "type": "address"
        },
        {
          "indexed": true,
          "internalType": "uint256",
          "name": "tokenId",
          "type": "uint256"
        }
      ],
      "name": "Transfer",
      "type": "event"
    },
    {
      "inputs": [],
      "name": "__OrgIdV2_init",
      "outputs": [],
      "stateMutability": "nonpayable",
      "type": "function"
    },
    {
      "inputs": [
        {
          "internalType": "bytes32",
          "name": "orgId",
          "type": "bytes32"
        },
        {
          "internalType": "string[]",
          "name": "dids",
          "type": "string[]"
        }
      ],
      "name": "addDelegates",
      "outputs": [],
      "stateMutability": "nonpayable",
      "type": "function"
    },
    {
      "inputs": [
        {
          "internalType": "address",
          "name": "to",
          "type": "address"
        },
        {
          "internalType": "uint256",
          "name": "tokenId",
          "type": "uint256"
        }
      ],
      "name": "approve",
      "outputs": [],
      "stateMutability": "nonpayable",
      "type": "function"
    },
    {
      "inputs": [
        {
          "internalType": "address",
          "name": "owner",
          "type": "address"
        }
      ],
      "name": "balanceOf",
      "outputs": [
        {
          "internalType": "uint256",
          "name": "",
          "type": "uint256"
        }
      ],
      "stateMutability": "view",
      "type": "function"
    },
    {
      "inputs": [
        {
          "internalType": "bytes32",
          "name": "salt",
          "type": "bytes32"
        },
        {
          "internalType": "string",
          "name": "orgJsonUri",
          "type": "string"
        }
      ],
      "name": "createOrgId",
      "outputs": [
        {
          "internalType": "bytes32",
          "name": "",
          "type": "bytes32"
        }
      ],
      "stateMutability": "nonpayable",
      "type": "function"
    },
    {
      "inputs": [
        {
          "internalType": "bytes32",
          "name": "salt",
          "type": "bytes32"
        },
        {
          "internalType": "string",
          "name": "orgJsonUri",
          "type": "string"
        },
        {
          "internalType": "string[]",
          "name": "dids",
          "type": "string[]"
        }
      ],
      "name": "createOrgId",
      "outputs": [],
      "stateMutability": "nonpayable",
      "type": "function"
    },
    {
      "inputs": [
        {
          "internalType": "uint256",
          "name": "tokenId",
          "type": "uint256"
        }
      ],
      "name": "getApproved",
      "outputs": [
        {
          "internalType": "address",
          "name": "",
          "type": "address"
        }
      ],
      "stateMutability": "view",
      "type": "function"
    },
    {
      "inputs": [
        {
          "internalType": "bytes32",
          "name": "orgId",
          "type": "bytes32"
        }
      ],
      "name": "getDelegates",
      "outputs": [
        {
          "internalType": "string[]",
          "name": "dids",
          "type": "string[]"
        }
      ],
      "stateMutability": "view",
      "type": "function"
    },
    {
      "inputs": [
        {
          "internalType": "uint256",
          "name": "tokenId",
          "type": "uint256"
        }
      ],
      "name": "getOrgId",
      "outputs": [
        {
          "internalType": "bool",
          "name": "exists",
          "type": "bool"
        },
        {
          "internalType": "bytes32",
          "name": "orgId",
          "type": "bytes32"
        },
        {
          "internalType": "string",
          "name": "orgJsonUri",
          "type": "string"
        },
        {
          "internalType": "address",
          "name": "owner",
          "type": "address"
        }
      ],
      "stateMutability": "view",
      "type": "function"
    },
    {
      "inputs": [
        {
          "internalType": "uint256",
          "name": "cursor",
          "type": "uint256"
        },
        {
          "internalType": "uint256",
          "name": "count",
          "type": "uint256"
        }
      ],
      "name": "getOrgIds",
      "outputs": [
        {
          "internalType": "bytes32[]",
          "name": "orgIds",
          "type": "bytes32[]"
        }
      ],
      "stateMutability": "view",
      "type": "function"
    },
    {
      "inputs": [],
      "name": "getOrgIds",
      "outputs": [
        {
          "internalType": "bytes32[]",
          "name": "orgIds",
          "type": "bytes32[]"
        }
      ],
      "stateMutability": "view",
      "type": "function"
    },
    {
      "inputs": [
        {
          "internalType": "bytes32",
          "name": "orgId",
          "type": "bytes32"
        }
      ],
      "name": "getTokenId",
      "outputs": [
        {
          "internalType": "uint256",
          "name": "tokenId",
          "type": "uint256"
        }
      ],
      "stateMutability": "view",
      "type": "function"
    },
    {
      "inputs": [],
      "name": "initialize",
      "outputs": [],
      "stateMutability": "nonpayable",
      "type": "function"
    },
    {
      "inputs": [
        {
          "internalType": "address",
          "name": "owner",
          "type": "address"
        },
        {
          "internalType": "address",
          "name": "operator",
          "type": "address"
        }
      ],
      "name": "isApprovedForAll",
      "outputs": [
        {
          "internalType": "bool",
          "name": "",
          "type": "bool"
        }
      ],
      "stateMutability": "view",
      "type": "function"
    },
    {
      "inputs": [],
      "name": "name",
      "outputs": [
        {
          "internalType": "string",
          "name": "",
          "type": "string"
        }
      ],
      "stateMutability": "view",
      "type": "function"
    },
    {
      "inputs": [
        {
          "internalType": "uint256",
          "name": "tokenId",
          "type": "uint256"
        }
      ],
      "name": "ownerOf",
      "outputs": [
        {
          "internalType": "address",
          "name": "",
          "type": "address"
        }
      ],
      "stateMutability": "view",
      "type": "function"
    },
    {
      "inputs": [
        {
          "internalType": "bytes32",
          "name": "orgId",
          "type": "bytes32"
        }
      ],
      "name": "removeDelegates",
      "outputs": [],
      "stateMutability": "nonpayable",
      "type": "function"
    },
    {
      "inputs": [
        {
          "internalType": "bytes32",
          "name": "orgId",
          "type": "bytes32"
        },
        {
          "internalType": "string[]",
          "name": "dids",
          "type": "string[]"
        }
      ],
      "name": "removeDelegates",
      "outputs": [],
      "stateMutability": "nonpayable",
      "type": "function"
    },
    {
      "inputs": [
        {
          "internalType": "address",
          "name": "from",
          "type": "address"
        },
        {
          "internalType": "address",
          "name": "to",
          "type": "address"
        },
        {
          "internalType": "uint256",
          "name": "tokenId",
          "type": "uint256"
        }
      ],
      "name": "safeTransferFrom",
      "outputs": [],
      "stateMutability": "nonpayable",
      "type": "function"
    },
    {
      "inputs": [
        {
          "internalType": "address",
          "name": "from",
          "type": "address"
        },
        {
          "internalType": "address",
          "name": "to",
          "type": "address"
        },
        {
          "internalType": "uint256",
          "name": "tokenId",
          "type": "uint256"
        },
        {
          "internalType": "bytes",
          "name": "data",
          "type": "bytes"
        }
      ],
      "name": "safeTransferFrom",
      "outputs": [],
      "stateMutability": "nonpayable",
      "type": "function"
    },
    {
      "inputs": [
        {
          "internalType": "address",
          "name": "operator",
          "type": "address"
        },
        {
          "internalType": "bool",
          "name": "approved",
          "type": "bool"
        }
      ],
      "name": "setApprovalForAll",
      "outputs": [],
      "stateMutability": "nonpayable",
      "type": "function"
    },
    {
      "inputs": [
        {
          "internalType": "bytes32",
          "name": "orgId",
          "type": "bytes32"
        },
        {
          "internalType": "string",
          "name": "orgJsonUri",
          "type": "string"
        }
      ],
      "name": "setOrgJson",
      "outputs": [],
      "stateMutability": "nonpayable",
      "type": "function"
    },
    {
      "inputs": [
        {
          "internalType": "bytes32",
          "name": "orgId",
          "type": "bytes32"
        },
        {
          "internalType": "string",
          "name": "orgJsonUri",
          "type": "string"
        },
        {
          "internalType": "string[]",
          "name": "dids",
          "type": "string[]"
        }
      ],
      "name": "setOrgJson",
      "outputs": [],
      "stateMutability": "nonpayable",
      "type": "function"
    },
    {
      "inputs": [
        {
          "internalType": "bytes4",
          "name": "interfaceId",
          "type": "bytes4"
        }
      ],
      "name": "supportsInterface",
      "outputs": [
        {
          "internalType": "bool",
          "name": "",
          "type": "bool"
        }
      ],
      "stateMutability": "view",
      "type": "function"
    },
    {
      "inputs": [],
      "name": "symbol",
      "outputs": [
        {
          "internalType": "string",
          "name": "",
          "type": "string"
        }
      ],
      "stateMutability": "view",
      "type": "function"
    },
    {
      "inputs": [
        {
          "internalType": "uint256",
          "name": "index",
          "type": "uint256"
        }
      ],
      "name": "tokenByIndex",
      "outputs": [
        {
          "internalType": "uint256",
          "name": "",
          "type": "uint256"
        }
      ],
      "stateMutability": "view",
      "type": "function"
    },
    {
      "inputs": [
        {
          "internalType": "address",
          "name": "owner",
          "type": "address"
        },
        {
          "internalType": "uint256",
          "name": "index",
          "type": "uint256"
        }
      ],
      "name": "tokenOfOwnerByIndex",
      "outputs": [
        {
          "internalType": "uint256",
          "name": "",
          "type": "uint256"
        }
      ],
      "stateMutability": "view",
      "type": "function"
    },
    {
      "inputs": [
        {
          "internalType": "uint256",
          "name": "tokenId",
          "type": "uint256"
        }
      ],
      "name": "tokenURI",
      "outputs": [
        {
          "internalType": "string",
          "name": "",
          "type": "string"
        }
      ],
      "stateMutability": "view",
      "type": "function"
    },
    {
      "inputs": [],
      "name": "totalSupply",
      "outputs": [
        {
          "internalType": "uint256",
          "name": "",
          "type": "uint256"
        }
      ],
      "stateMutability": "view",
      "type": "function"
    },
    {
      "inputs": [
        {
          "internalType": "address",
          "name": "from",
          "type": "address"
        },
        {
          "internalType": "address",
          "name": "to",
          "type": "address"
        },
        {
          "internalType": "uint256",
          "name": "tokenId",
          "type": "uint256"
        }
      ],
      "name": "transferFrom",
      "outputs": [],
      "stateMutability": "nonpayable",
      "type": "function"
    },
    {
      "inputs": [],
      "name": "version",
      "outputs": [
        {
          "internalType": "string",
          "name": "",
          "type": "string"
        }
      ],
      "stateMutability": "view",
      "type": "function"
    }
  ],
  "bytecode": "0x608060405234801561001057600080fd5b5061319a806100206000396000f3fe608060405234801561001057600080fd5b50600436106101e55760003560e01c806363ceab541161010f578063b676e2ff116100a2578063c9cb65e111610071578063c9cb65e114610421578063dfe0f51114610441578063e4f6499014610454578063e985e9c51461045c57600080fd5b8063b676e2ff146103d5578063b88d4fde146103e8578063bc52570b146103fb578063c87b56dd1461040e57600080fd5b80638129fc1c116100de5780638129fc1c1461038f57806395d89b411461039757806398980a8a1461039f578063a22cb465146103c257600080fd5b806363ceab54146103415780636bad88351461036157806370a082311461037457806374427b1e1461038757600080fd5b806323b872dd116101875780634f6ccce7116101565780634f6ccce71461030057806354fd4d50146103135780635d96b7391461031b5780636352211e1461032e57600080fd5b806323b872dd146102b45780632f745c59146102c757806335178d91146102da57806342842e0e146102ed57600080fd5b8063081812fc116101c3578063081812fc1461024b578063095ea7b3146102765780630ad0abce1461028b57806318160ddd146102ac57600080fd5b80630193eda6146101ea57806301ffc9a71461021357806306fdde0314610236575b600080fd5b6101fd6101f83660046125cf565b610498565b60405161020a91906125f1565b60405180910390f35b61022661022136600461264b565b61066d565b604051901515815260200161020a565b61023e61067e565b60405161020a91906126bf565b61025e6102593660046126d2565b610710565b6040516001600160a01b03909116815260200161020a565b610289610284366004612702565b610737565b005b61029e610299366004612774565b610851565b60405190815260200161020a565b60995461029e565b6102896102c23660046127bf565b6109eb565b61029e6102d5366004612702565b610a1c565b6102896102e8366004612774565b610ab2565b6102896102fb3660046127bf565b610bb7565b61029e61030e3660046126d2565b610bd2565b61023e610c65565b61028961032936600461283f565b610c75565b61025e61033c3660046126d2565b610e02565b61035461034f3660046126d2565b610e62565b60405161020a919061287d565b61028961036f3660046128df565b610e7d565b61029e610382366004612958565b610ebb565b610289610f41565b610289610ff6565b61023e611104565b6103b26103ad3660046126d2565b611113565b60405161020a9493929190612973565b6102896103d03660046129ad565b6111ed565b6102896103e33660046128df565b6111fc565b6102896103f6366004612a86565b611224565b6102896104093660046126d2565b61125c565b61023e61041c3660046126d2565b61135c565b61029e61042f3660046126d2565b600090815260c9602052604090205490565b61028961044f366004612b01565b611435565b6101fd611582565b61022661046a366004612be5565b6001600160a01b039182166000908152606a6020908152604080832093909416825291909152205460ff1690565b60606000826001600160401b038111156104b4576104b46129e9565b6040519080825280602002602001820160405280156104dd578160200160208202803683370190505b509050600080855b60cc54811080156104fe57506104fb8688612c2e565b81105b156105945760cc818154811061051657610516612c41565b906000526020600020015484848151811061053357610533612c41565b6020026020010181815250506000801b60cc828154811061055657610556612c41565b906000526020600020015414610574578161057081612c57565b9250505b8261057e81612c57565b935050808061058c90612c57565b9150506104e5565b50806001600160401b038111156105ad576105ad6129e9565b6040519080825280602002602001820160405280156105d6578160200160208202803683370190505b5093506000915060005b8351811015610663576000801b8482815181106105ff576105ff612c41565b6020026020010151146106515783818151811061061e5761061e612c41565b602002602001015185848151811061063857610638612c41565b60209081029190910101528261064d81612c57565b9350505b8061065b81612c57565b9150506105e0565b5050505092915050565b6000610678826115d9565b92915050565b60606065805461068d90612c70565b80601f01602080910402602001604051908101604052809291908181526020018280546106b990612c70565b80156107065780601f106106db57610100808354040283529160200191610706565b820191906000526020600020905b8154815290600101906020018083116106e957829003601f168201915b5050505050905090565b600061071b826115e4565b506000908152606960205260409020546001600160a01b031690565b600061074282610e02565b9050806001600160a01b0316836001600160a01b0316036107b45760405162461bcd60e51b815260206004820152602160248201527f4552433732313a20617070726f76616c20746f2063757272656e74206f776e656044820152603960f91b60648201526084015b60405180910390fd5b336001600160a01b03821614806107d057506107d0813361046a565b6108425760405162461bcd60e51b815260206004820152603e60248201527f4552433732313a20617070726f76652063616c6c6572206973206e6f7420746f60448201527f6b656e206f776e6572206e6f7220617070726f76656420666f7220616c6c000060648201526084016107ab565b61084c8383611643565b505050565b600081810361087357604051633f0e0a7f60e21b815260040160405180910390fd5b6000336040516bffffffffffffffffffffffff19606083901b1660208201526034810187905290915060009060540160408051601f19818403018152918152815160209283012060cc8054600181019091557f47197230e1e4b29fc0bd84d7d78966c0925452aff72a2a121538b102457e9ebe01819055600081815260c99093529120549091501561091b576040516358dc901360e01b8152600481018290526024016107ab565b600061092660995490565b610931906001612c2e565b905061093d83826116b1565b600082815260c96020908152604080832084905583835260ca825280832085905560cb9091529020610970868883612cf0565b506040516001600160a01b0384169083907f49422f7ad2eca08595f1596952d2d805b5d5ba06f8c371dcb617c86a5b42ba0790600090a3817f4e0249d19860daeb2f0627d804cc93426e237cb754fef478c3a6cbcbc276265787876040516109d9929190612dd8565b60405180910390a25095945050505050565b6109f533826116cb565b610a115760405162461bcd60e51b81526004016107ab90612dec565b61084c83838361174a565b6000610a2783610ebb565b8210610a895760405162461bcd60e51b815260206004820152602b60248201527f455243373231456e756d657261626c653a206f776e657220696e646578206f7560448201526a74206f6620626f756e647360a81b60648201526084016107ab565b506001600160a01b03919091166000908152609760209081526040808320938352929052205490565b82801580610acc5750600081815260c96020526040902054155b15610aed576040516387fe3aad60e01b8152600481018290526024016107ab565b600081815260c960205260409020543390610b0790610e02565b6001600160a01b031614610b2e57604051635612e54f60e11b815260040160405180910390fd5b6000829003610b5057604051633f0e0a7f60e21b815260040160405180910390fd5b600084815260c96020908152604080832054835260cb9091529020610b76838583612cf0565b50837f4e0249d19860daeb2f0627d804cc93426e237cb754fef478c3a6cbcbc27626578484604051610ba9929190612dd8565b60405180910390a250505050565b61084c83838360405180602001604052806000815250611224565b6000610bdd60995490565b8210610c405760405162461bcd60e51b815260206004820152602c60248201527f455243373231456e756d657261626c653a20676c6f62616c20696e646578206f60448201526b7574206f6620626f756e647360a01b60648201526084016107ab565b60998281548110610c5357610c53612c41565b90600052602060002001549050919050565b606061019a805461068d90612c70565b82801580610c8f5750600081815260c96020526040902054155b15610cb0576040516387fe3aad60e01b8152600481018290526024016107ab565b600081815260c960205260409020543390610cca90610e02565b6001600160a01b031614610cf157604051635612e54f60e11b815260040160405180910390fd5b6000829003610d1357604051634816a76760e01b815260040160405180910390fd5b6000805b83811015610dc057610d8e858583818110610d3457610d34612c41565b9050602002810190610d469190612e3a565b8080601f01602080910402602001604051908101604052809392919081815260200183838082843760009201829052508b815261010060205260409020939250506118f19050565b915081610dae57604051634816a76760e01b815260040160405180910390fd5b80610db881612c57565b915050610d17565b50847f9af1bf1f55d94dc29bfe249a6e5c1f9b82c06fee0cdaeada46f044b69f68c7cc8585604051610df3929190612e80565b60405180910390a25050505050565b6000818152606760205260408120546001600160a01b0316806106785760405162461bcd60e51b8152602060048201526018602482015277115490cdcc8c4e881a5b9d985b1a59081d1bdad95b88125160421b60448201526064016107ab565b60008181526101006020526040902060609061067890611992565b610e88858585610ab2565b6000610e9386610e62565b511115610ea357610ea38561125c565b8015610eb457610eb4858383610c75565b5050505050565b60006001600160a01b038216610f255760405162461bcd60e51b815260206004820152602960248201527f4552433732313a2061646472657373207a65726f206973206e6f7420612076616044820152683634b21037bbb732b960b91b60648201526084016107ab565b506001600160a01b031660009081526068602052604090205490565b7fded1bc4b362adace04037b7f4031e750ed9c50f2b9d021df6a563f7277b743cf60008190526101676020527fd1c3a5aca5368cd2247c266952ca71fd04214e7357f264c2078b9b94c863dd825460ff1615610fb257604051625c34b160e11b8152600481018290526024016107ab565b6040805180820190915260028152612b1960f11b602082015261019a90610fd99082612f1b565b50600090815261016760205260409020805460ff19166001179055565b600054610100900460ff16158080156110165750600054600160ff909116105b806110305750303b158015611030575060005460ff166001145b61104c5760405162461bcd60e51b81526004016107ab90612fda565b6000805460ff19166001179055801561106f576000805461ff0019166101001790555b6110b36040518060400160405280600581526020016413d491da5160da1b8152506040518060400160405280600581526020016413d491da5160da1b815250611a6f565b6110bb611aa0565b8015611101576000805461ff0019169055604051600181527f7f26b83ff96e1f2b6a682f133852f6798a09c465da95921460cefb38474024989060200160405180910390a15b50565b60606066805461068d90612c70565b600081815260ca602090815260408083205460679092528220546001600160a01b0316158015926060916111e657600085815260cb60205260409020805461115a90612c70565b80601f016020809104026020016040519081016040528092919081815260200182805461118690612c70565b80156111d35780601f106111a8576101008083540402835291602001916111d3565b820191906000526020600020905b8154815290600101906020018083116111b657829003601f168201915b505050505091506111e385610e02565b90505b9193509193565b6111f8338383611b21565b5050565b6000611209868686610851565b9050811561121c5761121c818484610c75565b505050505050565b61122e33836116cb565b61124a5760405162461bcd60e51b81526004016107ab90612dec565b61125684848484611bef565b50505050565b808015806112765750600081815260c96020526040902054155b15611297576040516387fe3aad60e01b8152600481018290526024016107ab565b600081815260c9602052604090205433906112b190610e02565b6001600160a01b0316146112d857604051635612e54f60e11b815260040160405180910390fd5b6000828152610100602052604081206112f090611992565b6000848152610100602052604081209192509061130c90611c22565b90508061132c57604051634816a76760e01b815260040160405180910390fd5b837fb3c3b87d0ea8237b590c2dbf7d3acf90e54a40cf0ef1e4c0d948736e1fabd8a983604051610ba9919061287d565b6000818152606760205260409020546060906001600160a01b0316611397576040516306caeb1360e41b8152600481018390526024016107ab565b600082815260cb6020526040902080546113b090612c70565b80601f01602080910402602001604051908101604052809291908181526020018280546113dc90612c70565b80156114295780601f106113fe57610100808354040283529160200191611429565b820191906000526020600020905b81548152906001019060200180831161140c57829003601f168201915b50505050509050919050565b8180158061144f5750600081815260c96020526040902054155b15611470576040516387fe3aad60e01b8152600481018290526024016107ab565b600081815260c96020526040902054339061148a90610e02565b6001600160a01b0316146114b157604051635612e54f60e11b815260040160405180910390fd5b81516000036114d357604051634816a76760e01b815260040160405180910390fd5b6000805b83518110156115515761151f8482815181106114f5576114f5612c41565b60200260200101516101006000888152602001908152602001600020611d4690919063ffffffff16565b91508161153f57604051634816a76760e01b815260040160405180910390fd5b8061154981612c57565b9150506114d7565b50837fb3c3b87d0ea8237b590c2dbf7d3acf90e54a40cf0ef1e4c0d948736e1fabd8a984604051610ba9919061287d565b606060cc80548060200260200160405190810160405280929190818152602001828054801561070657602002820191906000526020600020905b8154815260200190600101908083116115bc575050505050905090565b600061067882611f24565b6000818152606760205260409020546001600160a01b03166111015760405162461bcd60e51b8152602060048201526018602482015277115490cdcc8c4e881a5b9d985b1a59081d1bdad95b88125160421b60448201526064016107ab565b600081815260696020526040902080546001600160a01b0319166001600160a01b038416908117909155819061167882610e02565b6001600160a01b03167f8c5be1e5ebec7d5bd14f71427d1e84f3dd0314c0f7b2291e5b200ac8c7c3b92560405160405180910390a45050565b6111f8828260405180602001604052806000815250611f49565b6000806116d783610e02565b9050806001600160a01b0316846001600160a01b0316148061171e57506001600160a01b038082166000908152606a602090815260408083209388168352929052205460ff165b806117425750836001600160a01b031661173784610710565b6001600160a01b0316145b949350505050565b826001600160a01b031661175d82610e02565b6001600160a01b0316146117c15760405162461bcd60e51b815260206004820152602560248201527f4552433732313a207472616e736665722066726f6d20696e636f72726563742060448201526437bbb732b960d91b60648201526084016107ab565b6001600160a01b0382166118235760405162461bcd60e51b8152602060048201526024808201527f4552433732313a207472616e7366657220746f20746865207a65726f206164646044820152637265737360e01b60648201526084016107ab565b61182e838383611f7c565b611839600082611643565b6001600160a01b0383166000908152606860205260408120805460019290611862908490613028565b90915550506001600160a01b0382166000908152606860205260408120805460019290611890908490612c2e565b909155505060008181526067602052604080822080546001600160a01b0319166001600160a01b0386811691821790925591518493918716917fddf252ad1be2c89b69c2b068fc378daa952ba7f163c4a11628f55a4df523b3ef91a4505050565b6000815160000361190457506000610678565b600061190f83612034565b600081815260018601602052604090205490915060ff16611977576000818152600185810160209081526040808420805460ff191684179055875460028901835290842081905591820187558683529091200161196c8482612f1b565b506001915050610678565b600090815260018401602052604090205460ff169050610678565b606081600001805480602002602001604051908101604052809291908181526020016000905b82821015611a645783829060005260206000200180546119d790612c70565b80601f0160208091040260200160405190810160405280929190818152602001828054611a0390612c70565b8015611a505780601f10611a2557610100808354040283529160200191611a50565b820191906000526020600020905b815481529060010190602001808311611a3357829003601f168201915b5050505050815260200190600101906119b8565b505050509050919050565b600054610100900460ff16611a965760405162461bcd60e51b81526004016107ab9061303b565b6111f88282612064565b600054610100900460ff1615808015611ac05750600054600160ff909116105b80611ada5750303b158015611ada575060005460ff166001145b611af65760405162461bcd60e51b81526004016107ab90612fda565b6000805460ff191660011790558015611b19576000805461ff0019166101001790555b6110bb6120a4565b816001600160a01b0316836001600160a01b031603611b825760405162461bcd60e51b815260206004820152601960248201527f4552433732313a20617070726f766520746f2063616c6c65720000000000000060448201526064016107ab565b6001600160a01b038381166000818152606a6020908152604080832094871680845294825291829020805460ff191686151590811790915591519182527f17307eab39ab6107e8899845ad3d59bd9653f200f220920489ca2b5937696c31910160405180910390a3505050565b611bfa84848461174a565b611c06848484846120cd565b6112565760405162461bcd60e51b81526004016107ab90613086565b805460009015611d39576000805b8354811015611d2457611ce9846000018281548110611c5157611c51612c41565b906000526020600020018054611c6690612c70565b80601f0160208091040260200160405190810160405280929190818152602001828054611c9290612c70565b8015611cdf5780601f10611cb457610100808354040283529160200191611cdf565b820191906000526020600020905b815481529060010190602001808311611cc257829003601f168201915b5050505050612034565b60008181526002860160209081526040808320839055600188019091529020805460ff19169055915080611d1c81612c57565b915050611c30565b50611d30836000612541565b50600192915050565b506000919050565b919050565b60008151600003611d5957506000610678565b6000611d6483612034565b600081815260018601602052604090205490915060ff1615611f085760008181526002850160205260408120548554909190611da290600190613028565b9050818114611ea7576000866000018281548110611dc257611dc2612c41565b906000526020600020018054611dd790612c70565b80601f0160208091040260200160405190810160405280929190818152602001828054611e0390612c70565b8015611e505780601f10611e2557610100808354040283529160200191611e50565b820191906000526020600020905b815481529060010190602001808311611e3357829003601f168201915b5050505050905080876000018481548110611e6d57611e6d612c41565b906000526020600020019081611e839190612f1b565b5082876002016000611e9484612034565b8152602081019190915260400160002055505b8554869080611eb857611eb86130d8565b600190038181906000526020600020016000611ed4919061255f565b90555050600090815260028401602090815260408083208390556001808701909252909120805460ff191690559050610678565b600090815260018401602052604090205460ff16159050610678565b60006001600160e01b03198216635deabe7760e01b14806106785750610678826121ce565b611f5383836121f3565b611f6060008484846120cd565b61084c5760405162461bcd60e51b81526004016107ab90613086565b6001600160a01b038316611fd757611fd281609980546000838152609a60205260408120829055600182018355919091527f72a152ddfb8e864297c917af52ea6c1c68aead0fee1a62673fcc7e0c94979d000155565b611ffa565b816001600160a01b0316836001600160a01b031614611ffa57611ffa8382612341565b6001600160a01b0382166120115761084c816123de565b826001600160a01b0316826001600160a01b03161461084c5761084c828261248d565b60008160405160200161204791906130ee565b604051602081830303815290604052805190602001209050919050565b600054610100900460ff1661208b5760405162461bcd60e51b81526004016107ab9061303b565b60656120978382612f1b565b50606661084c8282612f1b565b600054610100900460ff166120cb5760405162461bcd60e51b81526004016107ab9061303b565b565b60006001600160a01b0384163b156121c357604051630a85bd0160e11b81526001600160a01b0385169063150b7a029061211190339089908890889060040161310a565b6020604051808303816000875af192505050801561214c575060408051601f3d908101601f1916820190925261214991810190613147565b60015b6121a9573d80801561217a576040519150601f19603f3d011682016040523d82523d6000602084013e61217f565b606091505b5080516000036121a15760405162461bcd60e51b81526004016107ab90613086565b805181602001fd5b6001600160e01b031916630a85bd0160e11b149050611742565b506001949350505050565b60006001600160e01b031982166345f8f68160e11b14806106785750610678826124d1565b6001600160a01b0382166122495760405162461bcd60e51b815260206004820181905260248201527f4552433732313a206d696e7420746f20746865207a65726f206164647265737360448201526064016107ab565b6000818152606760205260409020546001600160a01b0316156122ae5760405162461bcd60e51b815260206004820152601c60248201527f4552433732313a20746f6b656e20616c7265616479206d696e7465640000000060448201526064016107ab565b6122ba60008383611f7c565b6001600160a01b03821660009081526068602052604081208054600192906122e3908490612c2e565b909155505060008181526067602052604080822080546001600160a01b0319166001600160a01b03861690811790915590518392907fddf252ad1be2c89b69c2b068fc378daa952ba7f163c4a11628f55a4df523b3ef908290a45050565b6000600161234e84610ebb565b6123589190613028565b6000838152609860205260409020549091508082146123ab576001600160a01b03841660009081526097602090815260408083208584528252808320548484528184208190558352609890915290208190555b5060009182526098602090815260408084208490556001600160a01b039094168352609781528383209183525290812055565b6099546000906123f090600190613028565b6000838152609a60205260408120546099805493945090928490811061241857612418612c41565b90600052602060002001549050806099838154811061243957612439612c41565b6000918252602080832090910192909255828152609a90915260408082208490558582528120556099805480612471576124716130d8565b6001900381819060005260206000200160009055905550505050565b600061249883610ebb565b6001600160a01b039093166000908152609760209081526040808320868452825280832085905593825260989052919091209190915550565b60006001600160e01b0319821663780e9d6360e01b148061067857506106788260006001600160e01b031982166380ac58cd60e01b148061252257506001600160e01b03198216635b5e139f60e01b145b8061067857506301ffc9a760e01b6001600160e01b0319831614610678565b50805460008255906000526020600020908101906111019190612599565b50805461256b90612c70565b6000825580601f1061257b575050565b601f01602090049060005260206000209081019061110191906125ba565b808211156125b65760006125ad828261255f565b50600101612599565b5090565b5b808211156125b657600081556001016125bb565b600080604083850312156125e257600080fd5b50508035926020909101359150565b6020808252825182820181905260009190848201906040850190845b818110156126295783518352928401929184019160010161260d565b50909695505050505050565b6001600160e01b03198116811461110157600080fd5b60006020828403121561265d57600080fd5b813561266881612635565b9392505050565b60005b8381101561268a578181015183820152602001612672565b50506000910152565b600081518084526126ab81602086016020860161266f565b601f01601f19169290920160200192915050565b6020815260006126686020830184612693565b6000602082840312156126e457600080fd5b5035919050565b80356001600160a01b0381168114611d4157600080fd5b6000806040838503121561271557600080fd5b61271e836126eb565b946020939093013593505050565b60008083601f84011261273e57600080fd5b5081356001600160401b0381111561275557600080fd5b60208301915083602082850101111561276d57600080fd5b9250929050565b60008060006040848603121561278957600080fd5b8335925060208401356001600160401b038111156127a657600080fd5b6127b28682870161272c565b9497909650939450505050565b6000806000606084860312156127d457600080fd5b6127dd846126eb565b92506127eb602085016126eb565b9150604084013590509250925092565b60008083601f84011261280d57600080fd5b5081356001600160401b0381111561282457600080fd5b6020830191508360208260051b850101111561276d57600080fd5b60008060006040848603121561285457600080fd5b8335925060208401356001600160401b0381111561287157600080fd5b6127b2868287016127fb565b6000602080830181845280855180835260408601915060408160051b870101925083870160005b828110156128d257603f198886030184526128c0858351612693565b945092850192908501906001016128a4565b5092979650505050505050565b6000806000806000606086880312156128f757600080fd5b8535945060208601356001600160401b038082111561291557600080fd5b61292189838a0161272c565b9096509450604088013591508082111561293a57600080fd5b50612947888289016127fb565b969995985093965092949392505050565b60006020828403121561296a57600080fd5b612668826126eb565b84151581528360208201526080604082015260006129946080830185612693565b905060018060a01b038316606083015295945050505050565b600080604083850312156129c057600080fd5b6129c9836126eb565b9150602083013580151581146129de57600080fd5b809150509250929050565b634e487b7160e01b600052604160045260246000fd5b604051601f8201601f191681016001600160401b0381118282101715612a2757612a276129e9565b604052919050565b60006001600160401b03831115612a4857612a486129e9565b612a5b601f8401601f19166020016129ff565b9050828152838383011115612a6f57600080fd5b828260208301376000602084830101529392505050565b60008060008060808587031215612a9c57600080fd5b612aa5856126eb565b9350612ab3602086016126eb565b92506040850135915060608501356001600160401b03811115612ad557600080fd5b8501601f81018713612ae657600080fd5b612af587823560208401612a2f565b91505092959194509250565b6000806040808486031215612b1557600080fd5b833592506020808501356001600160401b0380821115612b3457600080fd5b818701915087601f830112612b4857600080fd5b813581811115612b5a57612b5a6129e9565b8060051b612b698582016129ff565b918252838101850191858101908b841115612b8357600080fd5b86860192505b83831015612bd357823585811115612ba15760008081fd5b8601603f81018d13612bb35760008081fd5b612bc38d898301358b8401612a2f565b8352509186019190860190612b89565b80985050505050505050509250929050565b60008060408385031215612bf857600080fd5b612c01836126eb565b9150612c0f602084016126eb565b90509250929050565b634e487b7160e01b600052601160045260246000fd5b8082018082111561067857610678612c18565b634e487b7160e01b600052603260045260246000fd5b600060018201612c6957612c69612c18565b5060010190565b600181811c90821680612c8457607f821691505b602082108103612ca457634e487b7160e01b600052602260045260246000fd5b50919050565b601f82111561084c57600081815260208120601f850160051c81016020861015612cd15750805b601f850160051c820191505b8181101561121c57828155600101612cdd565b6001600160401b03831115612d0757612d076129e9565b612d1b83612d158354612c70565b83612caa565b6000601f841160018114612d4f5760008515612d375750838201355b600019600387901b1c1916600186901b178355610eb4565b600083815260209020601f19861690835b82811015612d805786850135825560209485019460019092019101612d60565b5086821015612d9d5760001960f88860031b161c19848701351681555b505060018560011b0183555050505050565b81835281816020850137506000828201602090810191909152601f909101601f19169091010190565b602081526000611742602083018486612daf565b6020808252602e908201527f4552433732313a2063616c6c6572206973206e6f7420746f6b656e206f776e6560408201526d1c881b9bdc88185c1c1c9bdd995960921b606082015260800190565b6000808335601e19843603018112612e5157600080fd5b8301803591506001600160401b03821115612e6b57600080fd5b60200191503681900382131561276d57600080fd5b60208082528181018390526000906040600585901b8401810190840186845b87811015612f0e57868403603f190183528135368a9003601e19018112612ec557600080fd5b890185810190356001600160401b03811115612ee057600080fd5b803603821315612eef57600080fd5b612efa868284612daf565b955050509184019190840190600101612e9f565b5091979650505050505050565b81516001600160401b03811115612f3457612f346129e9565b612f4881612f428454612c70565b84612caa565b602080601f831160018114612f7d5760008415612f655750858301515b600019600386901b1c1916600185901b17855561121c565b600085815260208120601f198616915b82811015612fac57888601518255948401946001909101908401612f8d565b5085821015612fca5787850151600019600388901b60f8161c191681555b5050505050600190811b01905550565b6020808252602e908201527f496e697469616c697a61626c653a20636f6e747261637420697320616c72656160408201526d191e481a5b9a5d1a585b1a5e995960921b606082015260800190565b8181038181111561067857610678612c18565b6020808252602b908201527f496e697469616c697a61626c653a20636f6e7472616374206973206e6f74206960408201526a6e697469616c697a696e6760a81b606082015260800190565b60208082526032908201527f4552433732313a207472616e7366657220746f206e6f6e20455243373231526560408201527131b2b4bb32b91034b6b83632b6b2b73a32b960711b606082015260800190565b634e487b7160e01b600052603160045260246000fd5b6000825161310081846020870161266f565b9190910192915050565b6001600160a01b038581168252841660208201526040810183905260806060820181905260009061313d90830184612693565b9695505050505050565b60006020828403121561315957600080fd5b81516126688161263556fea26469706673582212205c9f99c1ce69cc7a18bb1513e9279cd4ae427b2350ce95326b7cd53a14b7882664736f6c63430008110033",
  "linkReferences": {},
  "deployedLinkReferences": {}
}