{
  "_format": "hh-sol-artifact-1",
  "contractName": "OrgIdUpgradeabilityTest",
  "sourceName": "contracts/test/OrgIdUpgradeabilityTest.sol",
  "abi": [
    {
      "inputs": [],
      "name": "CalledNotByOrgIdOwner",
      "type": "error"
    },
    {
      "inputs": [
        {
          "internalType": "bytes32",
          "name": "versionDomain",
          "type": "bytes32"
        }
      ],
      "name": "ContractAlreadyInitialized",
      "type": "error"
    },
    {
      "inputs": [
        {
          "internalType": "bytes32",
          "name": "orgId",
          "type": "bytes32"
        }
      ],
      "name": "OrgIdAlreadyExists",
      "type": "error"
    },
    {
      "inputs": [
        {
          "internalType": "bytes32",
          "name": "orgId",
          "type": "bytes32"
        }
      ],
      "name": "OrgIdNotFound",
      "type": "error"
    },
    {
      "inputs": [],
      "name": "OrgJsonUriEmpty",
      "type": "error"
    },
    {
      "inputs": [
        {
          "internalType": "uint256",
          "name": "tokenId",
          "type": "uint256"
        }
      ],
      "name": "TokenNotFound",
      "type": "error"
    },
    {
      "anonymous": false,
      "inputs": [
        {
          "indexed": true,
          "internalType": "address",
          "name": "owner",
          "type": "address"
        },
        {
          "indexed": true,
          "internalType": "address",
          "name": "approved",
          "type": "address"
        },
        {
          "indexed": true,
          "internalType": "uint256",
          "name": "tokenId",
          "type": "uint256"
        }
      ],
      "name": "Approval",
      "type": "event"
    },
    {
      "anonymous": false,
      "inputs": [
        {
          "indexed": true,
          "internalType": "address",
          "name": "owner",
          "type": "address"
        },
        {
          "indexed": true,
          "internalType": "address",
          "name": "operator",
          "type": "address"
        },
        {
          "indexed": false,
          "internalType": "bool",
          "name": "approved",
          "type": "bool"
        }
      ],
      "name": "ApprovalForAll",
      "type": "event"
    },
    {
      "anonymous": false,
      "inputs": [
        {
          "indexed": true,
          "internalType": "bytes32",
          "name": "orgId",
          "type": "bytes32"
        },
        {
          "indexed": true,
          "internalType": "address",
          "name": "owner",
          "type": "address"
        }
      ],
      "name": "OrgIdCreated",
      "type": "event"
    },
    {
      "anonymous": false,
      "inputs": [
        {
          "indexed": true,
          "internalType": "bytes32",
          "name": "orgId",
          "type": "bytes32"
        },
        {
          "indexed": false,
          "internalType": "string",
          "name": "orgJsonUri",
          "type": "string"
        }
      ],
      "name": "OrgJsonUriChanged",
      "type": "event"
    },
    {
      "anonymous": false,
      "inputs": [
        {
          "indexed": true,
          "internalType": "address",
          "name": "from",
          "type": "address"
        },
        {
          "indexed": true,
          "internalType": "address",
          "name": "to",
          "type": "address"
        },
        {
          "indexed": true,
          "internalType": "uint256",
          "name": "tokenId",
          "type": "uint256"
        }
      ],
      "name": "Transfer",
      "type": "event"
    },
    {
      "inputs": [],
      "name": "__OrgIdV2_init",
      "outputs": [],
      "stateMutability": "nonpayable",
      "type": "function"
    },
    {
      "inputs": [
        {
          "internalType": "address",
          "name": "to",
          "type": "address"
        },
        {
          "internalType": "uint256",
          "name": "tokenId",
          "type": "uint256"
        }
      ],
      "name": "approve",
      "outputs": [],
      "stateMutability": "nonpayable",
      "type": "function"
    },
    {
      "inputs": [
        {
          "internalType": "address",
          "name": "owner",
          "type": "address"
        }
      ],
      "name": "balanceOf",
      "outputs": [
        {
          "internalType": "uint256",
          "name": "",
          "type": "uint256"
        }
      ],
      "stateMutability": "view",
      "type": "function"
    },
    {
      "inputs": [
        {
          "internalType": "bytes32",
          "name": "salt",
          "type": "bytes32"
        },
        {
          "internalType": "string",
          "name": "orgJsonUri",
          "type": "string"
        }
      ],
      "name": "createOrgId",
      "outputs": [],
      "stateMutability": "nonpayable",
      "type": "function"
    },
    {
      "inputs": [
        {
          "internalType": "uint256",
          "name": "tokenId",
          "type": "uint256"
        }
      ],
      "name": "getApproved",
      "outputs": [
        {
          "internalType": "address",
          "name": "",
          "type": "address"
        }
      ],
      "stateMutability": "view",
      "type": "function"
    },
    {
      "inputs": [
        {
          "internalType": "bytes32",
          "name": "orgId",
          "type": "bytes32"
        }
      ],
      "name": "getOrgId",
      "outputs": [
        {
          "internalType": "bool",
          "name": "exists",
          "type": "bool"
        },
        {
          "internalType": "uint256",
          "name": "tokenId",
          "type": "uint256"
        },
        {
          "internalType": "string",
          "name": "orgJsonUri",
          "type": "string"
        },
        {
          "internalType": "address",
          "name": "owner",
          "type": "address"
        }
      ],
      "stateMutability": "view",
      "type": "function"
    },
    {
      "inputs": [
        {
          "internalType": "uint256",
          "name": "cursor",
          "type": "uint256"
        },
        {
          "internalType": "uint256",
          "name": "count",
          "type": "uint256"
        }
      ],
      "name": "getOrgIds",
      "outputs": [
        {
          "internalType": "bytes32[]",
          "name": "orgIds",
          "type": "bytes32[]"
        }
      ],
      "stateMutability": "view",
      "type": "function"
    },
    {
      "inputs": [],
      "name": "getOrgIds",
      "outputs": [
        {
          "internalType": "bytes32[]",
          "name": "orgIds",
          "type": "bytes32[]"
        }
      ],
      "stateMutability": "view",
      "type": "function"
    },
    {
      "inputs": [],
      "name": "initialize",
      "outputs": [],
      "stateMutability": "nonpayable",
      "type": "function"
    },
    {
      "inputs": [
        {
          "internalType": "address",
          "name": "owner",
          "type": "address"
        },
        {
          "internalType": "address",
          "name": "operator",
          "type": "address"
        }
      ],
      "name": "isApprovedForAll",
      "outputs": [
        {
          "internalType": "bool",
          "name": "",
          "type": "bool"
        }
      ],
      "stateMutability": "view",
      "type": "function"
    },
    {
      "inputs": [],
      "name": "name",
      "outputs": [
        {
          "internalType": "string",
          "name": "",
          "type": "string"
        }
      ],
      "stateMutability": "view",
      "type": "function"
    },
    {
      "inputs": [
        {
          "internalType": "uint256",
          "name": "tokenId",
          "type": "uint256"
        }
      ],
      "name": "ownerOf",
      "outputs": [
        {
          "internalType": "address",
          "name": "",
          "type": "address"
        }
      ],
      "stateMutability": "view",
      "type": "function"
    },
    {
      "inputs": [
        {
          "internalType": "address",
          "name": "from",
          "type": "address"
        },
        {
          "internalType": "address",
          "name": "to",
          "type": "address"
        },
        {
          "internalType": "uint256",
          "name": "tokenId",
          "type": "uint256"
        }
      ],
      "name": "safeTransferFrom",
      "outputs": [],
      "stateMutability": "nonpayable",
      "type": "function"
    },
    {
      "inputs": [
        {
          "internalType": "address",
          "name": "from",
          "type": "address"
        },
        {
          "internalType": "address",
          "name": "to",
          "type": "address"
        },
        {
          "internalType": "uint256",
          "name": "tokenId",
          "type": "uint256"
        },
        {
          "internalType": "bytes",
          "name": "_data",
          "type": "bytes"
        }
      ],
      "name": "safeTransferFrom",
      "outputs": [],
      "stateMutability": "nonpayable",
      "type": "function"
    },
    {
      "inputs": [
        {
          "internalType": "address",
          "name": "operator",
          "type": "address"
        },
        {
          "internalType": "bool",
          "name": "approved",
          "type": "bool"
        }
      ],
      "name": "setApprovalForAll",
      "outputs": [],
      "stateMutability": "nonpayable",
      "type": "function"
    },
    {
      "inputs": [
        {
          "internalType": "bytes32",
          "name": "orgId",
          "type": "bytes32"
        },
        {
          "internalType": "string",
          "name": "orgJsonUri",
          "type": "string"
        }
      ],
      "name": "setOrgJson",
      "outputs": [],
      "stateMutability": "nonpayable",
      "type": "function"
    },
    {
      "inputs": [
        {
          "internalType": "bytes4",
          "name": "interfaceId",
          "type": "bytes4"
        }
      ],
      "name": "supportsInterface",
      "outputs": [
        {
          "internalType": "bool",
          "name": "",
          "type": "bool"
        }
      ],
      "stateMutability": "view",
      "type": "function"
    },
    {
      "inputs": [],
      "name": "symbol",
      "outputs": [
        {
          "internalType": "string",
          "name": "",
          "type": "string"
        }
      ],
      "stateMutability": "view",
      "type": "function"
    },
    {
      "inputs": [
        {
          "internalType": "uint256",
          "name": "index",
          "type": "uint256"
        }
      ],
      "name": "tokenByIndex",
      "outputs": [
        {
          "internalType": "uint256",
          "name": "",
          "type": "uint256"
        }
      ],
      "stateMutability": "view",
      "type": "function"
    },
    {
      "inputs": [
        {
          "internalType": "address",
          "name": "owner",
          "type": "address"
        },
        {
          "internalType": "uint256",
          "name": "index",
          "type": "uint256"
        }
      ],
      "name": "tokenOfOwnerByIndex",
      "outputs": [
        {
          "internalType": "uint256",
          "name": "",
          "type": "uint256"
        }
      ],
      "stateMutability": "view",
      "type": "function"
    },
    {
      "inputs": [
        {
          "internalType": "uint256",
          "name": "tokenId",
          "type": "uint256"
        }
      ],
      "name": "tokenURI",
      "outputs": [
        {
          "internalType": "string",
          "name": "",
          "type": "string"
        }
      ],
      "stateMutability": "view",
      "type": "function"
    },
    {
      "inputs": [],
      "name": "totalSupply",
      "outputs": [
        {
          "internalType": "uint256",
          "name": "",
          "type": "uint256"
        }
      ],
      "stateMutability": "view",
      "type": "function"
    },
    {
      "inputs": [
        {
          "internalType": "address",
          "name": "from",
          "type": "address"
        },
        {
          "internalType": "address",
          "name": "to",
          "type": "address"
        },
        {
          "internalType": "uint256",
          "name": "tokenId",
          "type": "uint256"
        }
      ],
      "name": "transferFrom",
      "outputs": [],
      "stateMutability": "nonpayable",
      "type": "function"
    },
    {
      "inputs": [],
      "name": "version",
      "outputs": [
        {
          "internalType": "string",
          "name": "",
          "type": "string"
        }
      ],
      "stateMutability": "view",
      "type": "function"
    }
  ],
  "bytecode": "0x608060405234801561001057600080fd5b50612370806100206000396000f3fe608060405234801561001057600080fd5b50600436106101585760003560e01c80634f6ccce7116100c357806395d89b411161007c57806395d89b41146102e3578063a22cb465146102eb578063b88d4fde146102fe578063c87b56dd14610311578063e4f6499014610324578063e985e9c51461032c57600080fd5b80634f6ccce71461029257806354fd4d50146102a55780636352211e146102ad57806370a08231146102c057806374427b1e146102d35780638129fc1c146102db57600080fd5b80630ad0abce116101155780630ad0abce1461022157806318160ddd1461023457806323b872dd146102465780632f745c591461025957806335178d911461026c57806342842e0e1461027f57600080fd5b80630193eda61461015d57806301ffc9a714610186578063037640df146101a957806306fdde03146101cc578063081812fc146101e1578063095ea7b31461020c575b600080fd5b61017061016b366004612013565b610368565b60405161017d91906120bf565b60405180910390f35b610199610194366004611fd9565b61053f565b604051901515815260200161017d565b6101bc6101b7366004611f44565b61056a565b60405161017d9493929190612103565b6101d4610651565b60405161017d919061216c565b6101f46101ef366004611f44565b6106e3565b6040516001600160a01b03909116815260200161017d565b61021f61021a366004611f1a565b61077d565b005b61021f61022f366004611f5d565b610893565b6099545b60405190815260200161017d565b61021f610254366004611dc6565b610a1d565b610238610267366004611f1a565b610a4e565b61021f61027a366004611f5d565b610ae4565b61021f61028d366004611dc6565b610be3565b6102386102a0366004611f44565b610bfe565b6101d4610c91565b6101f46102bb366004611f44565b610ca1565b6102386102ce366004611d71565b610d18565b61021f610d9f565b61021f610e54565b6101d4610f0c565b61021f6102f9366004611ede565b610f1b565b61021f61030c366004611e02565b610fe0565b6101d461031f366004611f44565b611018565b6101706110f1565b61019961033a366004611d93565b6001600160a01b039182166000908152606a6020908152604080832093909416825291909152205460ff1690565b606060008267ffffffffffffffff81111561038557610385612337565b6040519080825280602002602001820160405280156103ae578160200160208202803683370190505b509050600080855b60cb54811080156103cf57506103cc8688612270565b81105b156104655760cb81815481106103e7576103e7612321565b906000526020600020015484848151811061040457610404612321565b6020026020010181815250506000801b60cb828154811061042757610427612321565b9060005260206000200154146104455781610441816122da565b9250505b8261044f816122da565b935050808061045d906122da565b9150506103b6565b508067ffffffffffffffff81111561047f5761047f612337565b6040519080825280602002602001820160405280156104a8578160200160208202803683370190505b5093506000915060005b8351811015610535576000801b8482815181106104d1576104d1612321565b602002602001015114610523578381815181106104f0576104f0612321565b602002602001015185848151811061050a5761050a612321565b60209081029190910101528261051f816122da565b9350505b8061052d816122da565b9150506104b2565b5050505092915050565b60006001600160e01b03198216636cea615b60e11b1480610564575061056482611148565b92915050565b600081815260c9602052604081205460608261059d836000908152606760205260409020546001600160a01b0316151590565b9350831561064a57600083815260ca6020526040902080546105be9061229f565b80601f01602080910402602001604051908101604052809291908181526020018280546105ea9061229f565b80156106375780601f1061060c57610100808354040283529160200191610637565b820191906000526020600020905b81548152906001019060200180831161061a57829003601f168201915b5050505050915061064783610ca1565b90505b9193509193565b6060606580546106609061229f565b80601f016020809104026020016040519081016040528092919081815260200182805461068c9061229f565b80156106d95780601f106106ae576101008083540402835291602001916106d9565b820191906000526020600020905b8154815290600101906020018083116106bc57829003601f168201915b5050505050905090565b6000818152606760205260408120546001600160a01b03166107615760405162461bcd60e51b815260206004820152602c60248201527f4552433732313a20617070726f76656420717565727920666f72206e6f6e657860448201526b34b9ba32b73a103a37b5b2b760a11b60648201526084015b60405180910390fd5b506000908152606960205260409020546001600160a01b031690565b600061078882610ca1565b9050806001600160a01b0316836001600160a01b031614156107f65760405162461bcd60e51b815260206004820152602160248201527f4552433732313a20617070726f76616c20746f2063757272656e74206f776e656044820152603960f91b6064820152608401610758565b336001600160a01b03821614806108125750610812813361033a565b6108845760405162461bcd60e51b815260206004820152603860248201527f4552433732313a20617070726f76652063616c6c6572206973206e6f74206f7760448201527f6e6572206e6f7220617070726f76656420666f7220616c6c00000000000000006064820152608401610758565b61088e838361116d565b505050565b806108b157604051633f0e0a7f60e21b815260040160405180910390fd5b6000336040516bffffffffffffffffffffffff19606083901b1660208201526034810186905290915060009060540160408051601f19818403018152918152815160209283012060cb8054600181019091557fa7ce836d032b2bf62b7e2097a8e0a6d8aeb35405ad15271e96d3b0188a1d06fb01819055600081815260c990935291205490915015610959576040516358dc901360e01b815260048101829052602401610758565b600061096460995490565b61096f906001612270565b905061097b83826111db565b600082815260c96020908152604080832084905583835260ca90915290206109a4908686611c48565b506040516001600160a01b0384169083907f49422f7ad2eca08595f1596952d2d805b5d5ba06f8c371dcb617c86a5b42ba0790600090a3817f4e0249d19860daeb2f0627d804cc93426e237cb754fef478c3a6cbcbc27626578686604051610a0d92919061213d565b60405180910390a2505050505050565b610a2733826111f9565b610a435760405162461bcd60e51b81526004016107589061221f565b61088e8383836112f0565b6000610a5983610d18565b8210610abb5760405162461bcd60e51b815260206004820152602b60248201527f455243373231456e756d657261626c653a206f776e657220696e646578206f7560448201526a74206f6620626f756e647360a81b6064820152608401610758565b506001600160a01b03919091166000908152609760209081526040808320938352929052205490565b821580610afd5750600083815260c96020526040902054155b15610b1e576040516387fe3aad60e01b815260048101849052602401610758565b80610b3c57604051633f0e0a7f60e21b815260040160405180910390fd5b600083815260c960205260409020543390610b5690610ca1565b6001600160a01b031614610b7d57604051635612e54f60e11b815260040160405180910390fd5b600083815260c96020908152604080832054835260ca9091529020610ba3908383611c48565b50827f4e0249d19860daeb2f0627d804cc93426e237cb754fef478c3a6cbcbc27626578383604051610bd692919061213d565b60405180910390a2505050565b61088e83838360405180602001604052806000815250610fe0565b6000610c0960995490565b8210610c6c5760405162461bcd60e51b815260206004820152602c60248201527f455243373231456e756d657261626c653a20676c6f62616c20696e646578206f60448201526b7574206f6620626f756e647360a01b6064820152608401610758565b60998281548110610c7f57610c7f612321565b90600052602060002001549050919050565b606061013280546106609061229f565b6000818152606760205260408120546001600160a01b0316806105645760405162461bcd60e51b815260206004820152602960248201527f4552433732313a206f776e657220717565727920666f72206e6f6e657869737460448201526832b73a103a37b5b2b760b91b6064820152608401610758565b60006001600160a01b038216610d835760405162461bcd60e51b815260206004820152602a60248201527f4552433732313a2062616c616e636520717565727920666f7220746865207a65604482015269726f206164647265737360b01b6064820152608401610758565b506001600160a01b031660009081526068602052604090205490565b7fded1bc4b362adace04037b7f4031e750ed9c50f2b9d021df6a563f7277b743cf600081905260ff60208190527ee471509ca746300a8fbda3089438bf7143873274a4f6ab69590a1f0fbf7874541615610e0e57604051625c34b160e11b815260048101829052602401610758565b604080518082019091526002808252612b1960f11b6020909201918252610e389161013291611ccc565b50600090815260ff60205260409020805460ff19166001179055565b600054610100900460ff1680610e6d575060005460ff16155b610e895760405162461bcd60e51b8152600401610758906121d1565b600054610100900460ff16158015610eab576000805461ffff19166101011790555b610eef6040518060400160405280600581526020016413d491da5160da1b8152506040518060400160405280600581526020016413d491da5160da1b81525061149b565b610ef7611522565b8015610f09576000805461ff00191690555b50565b6060606680546106609061229f565b6001600160a01b038216331415610f745760405162461bcd60e51b815260206004820152601960248201527f4552433732313a20617070726f766520746f2063616c6c6572000000000000006044820152606401610758565b336000818152606a602090815260408083206001600160a01b03871680855290835292819020805460ff191686151590811790915590519081529192917f17307eab39ab6107e8899845ad3d59bd9653f200f220920489ca2b5937696c31910160405180910390a35050565b610fea33836111f9565b6110065760405162461bcd60e51b81526004016107589061221f565b61101284848484611581565b50505050565b6000818152606760205260409020546060906001600160a01b0316611053576040516306caeb1360e41b815260048101839052602401610758565b600082815260ca60205260409020805461106c9061229f565b80601f01602080910402602001604051908101604052809291908181526020018280546110989061229f565b80156110e55780601f106110ba576101008083540402835291602001916110e5565b820191906000526020600020905b8154815290600101906020018083116110c857829003601f168201915b50505050509050919050565b606060cb8054806020026020016040519081016040528092919081815260200182805480156106d957602002820191906000526020600020905b81548152602001906001019080831161112b575050505050905090565b60006001600160e01b0319821663780e9d6360e01b14806105645750610564826115b4565b600081815260696020526040902080546001600160a01b0319166001600160a01b03841690811790915581906111a282610ca1565b6001600160a01b03167f8c5be1e5ebec7d5bd14f71427d1e84f3dd0314c0f7b2291e5b200ac8c7c3b92560405160405180910390a45050565b6111f5828260405180602001604052806000815250611604565b5050565b6000818152606760205260408120546001600160a01b03166112725760405162461bcd60e51b815260206004820152602c60248201527f4552433732313a206f70657261746f7220717565727920666f72206e6f6e657860448201526b34b9ba32b73a103a37b5b2b760a11b6064820152608401610758565b600061127d83610ca1565b9050806001600160a01b0316846001600160a01b031614806112b85750836001600160a01b03166112ad846106e3565b6001600160a01b0316145b806112e857506001600160a01b038082166000908152606a602090815260408083209388168352929052205460ff165b949350505050565b826001600160a01b031661130382610ca1565b6001600160a01b03161461136b5760405162461bcd60e51b815260206004820152602960248201527f4552433732313a207472616e73666572206f6620746f6b656e2074686174206960448201526839903737ba1037bbb760b91b6064820152608401610758565b6001600160a01b0382166113cd5760405162461bcd60e51b8152602060048201526024808201527f4552433732313a207472616e7366657220746f20746865207a65726f206164646044820152637265737360e01b6064820152608401610758565b6113d8838383611637565b6113e360008261116d565b6001600160a01b038316600090815260686020526040812080546001929061140c908490612288565b90915550506001600160a01b038216600090815260686020526040812080546001929061143a908490612270565b909155505060008181526067602052604080822080546001600160a01b0319166001600160a01b0386811691821790925591518493918716917fddf252ad1be2c89b69c2b068fc378daa952ba7f163c4a11628f55a4df523b3ef91a4505050565b600054610100900460ff16806114b4575060005460ff16155b6114d05760405162461bcd60e51b8152600401610758906121d1565b600054610100900460ff161580156114f2576000805461ffff19166101011790555b6114fa6116ef565b6115026116ef565b61150c8383611759565b801561088e576000805461ff0019169055505050565b600054610100900460ff168061153b575060005460ff16155b6115575760405162461bcd60e51b8152600401610758906121d1565b600054610100900460ff16158015611579576000805461ffff19166101011790555b610ef76117ee565b61158c8484846112f0565b6115988484848461185d565b6110125760405162461bcd60e51b81526004016107589061217f565b60006001600160e01b031982166380ac58cd60e01b14806115e557506001600160e01b03198216635b5e139f60e01b145b8061056457506301ffc9a760e01b6001600160e01b0319831614610564565b61160e838361196a565b61161b600084848461185d565b61088e5760405162461bcd60e51b81526004016107589061217f565b6001600160a01b0383166116925761168d81609980546000838152609a60205260408120829055600182018355919091527f72a152ddfb8e864297c917af52ea6c1c68aead0fee1a62673fcc7e0c94979d000155565b6116b5565b816001600160a01b0316836001600160a01b0316146116b5576116b58382611ab8565b6001600160a01b0382166116cc5761088e81611b55565b826001600160a01b0316826001600160a01b03161461088e5761088e8282611c04565b600054610100900460ff1680611708575060005460ff16155b6117245760405162461bcd60e51b8152600401610758906121d1565b600054610100900460ff16158015610ef7576000805461ffff19166101011790558015610f09576000805461ff001916905550565b600054610100900460ff1680611772575060005460ff16155b61178e5760405162461bcd60e51b8152600401610758906121d1565b600054610100900460ff161580156117b0576000805461ffff19166101011790555b82516117c3906065906020860190611ccc565b5081516117d7906066906020850190611ccc565b50801561088e576000805461ff0019169055505050565b600054610100900460ff1680611807575060005460ff16155b6118235760405162461bcd60e51b8152600401610758906121d1565b600054610100900460ff16158015611845576000805461ffff19166101011790555b61184d6116ef565b6118556116ef565b610ef76116ef565b60006001600160a01b0384163b1561195f57604051630a85bd0160e11b81526001600160a01b0385169063150b7a02906118a1903390899088908890600401612082565b602060405180830381600087803b1580156118bb57600080fd5b505af19250505080156118eb575060408051601f3d908101601f191682019092526118e891810190611ff6565b60015b611945573d808015611919576040519150601f19603f3d011682016040523d82523d6000602084013e61191e565b606091505b50805161193d5760405162461bcd60e51b81526004016107589061217f565b805181602001fd5b6001600160e01b031916630a85bd0160e11b1490506112e8565b506001949350505050565b6001600160a01b0382166119c05760405162461bcd60e51b815260206004820181905260248201527f4552433732313a206d696e7420746f20746865207a65726f20616464726573736044820152606401610758565b6000818152606760205260409020546001600160a01b031615611a255760405162461bcd60e51b815260206004820152601c60248201527f4552433732313a20746f6b656e20616c7265616479206d696e746564000000006044820152606401610758565b611a3160008383611637565b6001600160a01b0382166000908152606860205260408120805460019290611a5a908490612270565b909155505060008181526067602052604080822080546001600160a01b0319166001600160a01b03861690811790915590518392907fddf252ad1be2c89b69c2b068fc378daa952ba7f163c4a11628f55a4df523b3ef908290a45050565b60006001611ac584610d18565b611acf9190612288565b600083815260986020526040902054909150808214611b22576001600160a01b03841660009081526097602090815260408083208584528252808320548484528184208190558352609890915290208190555b5060009182526098602090815260408084208490556001600160a01b039094168352609781528383209183525290812055565b609954600090611b6790600190612288565b6000838152609a602052604081205460998054939450909284908110611b8f57611b8f612321565b906000526020600020015490508060998381548110611bb057611bb0612321565b6000918252602080832090910192909255828152609a90915260408082208490558582528120556099805480611be857611be861230b565b6001900381819060005260206000200160009055905550505050565b6000611c0f83610d18565b6001600160a01b039093166000908152609760209081526040808320868452825280832085905593825260989052919091209190915550565b828054611c549061229f565b90600052602060002090601f016020900481019282611c765760008555611cbc565b82601f10611c8f5782800160ff19823516178555611cbc565b82800160010185558215611cbc579182015b82811115611cbc578235825591602001919060010190611ca1565b50611cc8929150611d40565b5090565b828054611cd89061229f565b90600052602060002090601f016020900481019282611cfa5760008555611cbc565b82601f10611d1357805160ff1916838001178555611cbc565b82800160010185558215611cbc579182015b82811115611cbc578251825591602001919060010190611d25565b5b80821115611cc85760008155600101611d41565b80356001600160a01b0381168114611d6c57600080fd5b919050565b600060208284031215611d8357600080fd5b611d8c82611d55565b9392505050565b60008060408385031215611da657600080fd5b611daf83611d55565b9150611dbd60208401611d55565b90509250929050565b600080600060608486031215611ddb57600080fd5b611de484611d55565b9250611df260208501611d55565b9150604084013590509250925092565b60008060008060808587031215611e1857600080fd5b611e2185611d55565b9350611e2f60208601611d55565b925060408501359150606085013567ffffffffffffffff80821115611e5357600080fd5b818701915087601f830112611e6757600080fd5b813581811115611e7957611e79612337565b604051601f8201601f19908116603f01168101908382118183101715611ea157611ea1612337565b816040528281528a6020848701011115611eba57600080fd5b82602086016020830137600060208483010152809550505050505092959194509250565b60008060408385031215611ef157600080fd5b611efa83611d55565b915060208301358015158114611f0f57600080fd5b809150509250929050565b60008060408385031215611f2d57600080fd5b611f3683611d55565b946020939093013593505050565b600060208284031215611f5657600080fd5b5035919050565b600080600060408486031215611f7257600080fd5b83359250602084013567ffffffffffffffff80821115611f9157600080fd5b818601915086601f830112611fa557600080fd5b813581811115611fb457600080fd5b876020828501011115611fc657600080fd5b6020830194508093505050509250925092565b600060208284031215611feb57600080fd5b8135611d8c8161234d565b60006020828403121561200857600080fd5b8151611d8c8161234d565b6000806040838503121561202657600080fd5b50508035926020909101359150565b6000815180845260005b8181101561205b5760208185018101518683018201520161203f565b8181111561206d576000602083870101525b50601f01601f19169290920160200192915050565b6001600160a01b03858116825284166020820152604081018390526080606082018190526000906120b590830184612035565b9695505050505050565b6020808252825182820181905260009190848201906040850190845b818110156120f7578351835292840192918401916001016120db565b50909695505050505050565b84151581528360208201526080604082015260006121246080830185612035565b905060018060a01b038316606083015295945050505050565b60208152816020820152818360408301376000818301604090810191909152601f909201601f19160101919050565b602081526000611d8c6020830184612035565b60208082526032908201527f4552433732313a207472616e7366657220746f206e6f6e20455243373231526560408201527131b2b4bb32b91034b6b83632b6b2b73a32b960711b606082015260800190565b6020808252602e908201527f496e697469616c697a61626c653a20636f6e747261637420697320616c72656160408201526d191e481a5b9a5d1a585b1a5e995960921b606082015260800190565b60208082526031908201527f4552433732313a207472616e736665722063616c6c6572206973206e6f74206f6040820152701ddb995c881b9bdc88185c1c1c9bdd9959607a1b606082015260800190565b60008219821115612283576122836122f5565b500190565b60008282101561229a5761229a6122f5565b500390565b600181811c908216806122b357607f821691505b602082108114156122d457634e487b7160e01b600052602260045260246000fd5b50919050565b60006000198214156122ee576122ee6122f5565b5060010190565b634e487b7160e01b600052601160045260246000fd5b634e487b7160e01b600052603160045260246000fd5b634e487b7160e01b600052603260045260246000fd5b634e487b7160e01b600052604160045260246000fd5b6001600160e01b031981168114610f0957600080fdfea164736f6c6343000807000a",
  "linkReferences": {},
  "deployedLinkReferences": {}
}