{
  "_format": "hh-sol-artifact-1",
  "contractName": "OrgIdUpgradeabilityTest",
  "sourceName": "contracts/test/OrgIdUpgradeabilityTest.sol",
  "abi": [
    {
      "inputs": [],
      "name": "CalledNotByOrgIdOwner",
      "type": "error"
    },
    {
      "inputs": [
        {
          "internalType": "bytes32",
          "name": "versionDomain",
          "type": "bytes32"
        }
      ],
      "name": "ContractAlreadyInitialized",
      "type": "error"
    },
    {
      "inputs": [
        {
          "internalType": "bytes32",
          "name": "orgId",
          "type": "bytes32"
        }
      ],
      "name": "OrgIdAlreadyExists",
      "type": "error"
    },
    {
      "inputs": [
        {
          "internalType": "bytes32",
          "name": "orgId",
          "type": "bytes32"
        }
      ],
      "name": "OrgIdNotFound",
      "type": "error"
    },
    {
      "inputs": [],
      "name": "OrgJsonUriEmpty",
      "type": "error"
    },
    {
      "inputs": [
        {
          "internalType": "uint256",
          "name": "tokenId",
          "type": "uint256"
        }
      ],
      "name": "TokenNotFound",
      "type": "error"
    },
    {
      "anonymous": false,
      "inputs": [
        {
          "indexed": true,
          "internalType": "address",
          "name": "owner",
          "type": "address"
        },
        {
          "indexed": true,
          "internalType": "address",
          "name": "approved",
          "type": "address"
        },
        {
          "indexed": true,
          "internalType": "uint256",
          "name": "tokenId",
          "type": "uint256"
        }
      ],
      "name": "Approval",
      "type": "event"
    },
    {
      "anonymous": false,
      "inputs": [
        {
          "indexed": true,
          "internalType": "address",
          "name": "owner",
          "type": "address"
        },
        {
          "indexed": true,
          "internalType": "address",
          "name": "operator",
          "type": "address"
        },
        {
          "indexed": false,
          "internalType": "bool",
          "name": "approved",
          "type": "bool"
        }
      ],
      "name": "ApprovalForAll",
      "type": "event"
    },
    {
      "anonymous": false,
      "inputs": [
        {
          "indexed": true,
          "internalType": "bytes32",
          "name": "orgId",
          "type": "bytes32"
        },
        {
          "indexed": true,
          "internalType": "address",
          "name": "owner",
          "type": "address"
        }
      ],
      "name": "OrgIdCreated",
      "type": "event"
    },
    {
      "anonymous": false,
      "inputs": [
        {
          "indexed": true,
          "internalType": "bytes32",
          "name": "orgId",
          "type": "bytes32"
        },
        {
          "indexed": false,
          "internalType": "string",
          "name": "orgJsonUri",
          "type": "string"
        }
      ],
      "name": "OrgJsonUriChanged",
      "type": "event"
    },
    {
      "anonymous": false,
      "inputs": [
        {
          "indexed": true,
          "internalType": "address",
          "name": "from",
          "type": "address"
        },
        {
          "indexed": true,
          "internalType": "address",
          "name": "to",
          "type": "address"
        },
        {
          "indexed": true,
          "internalType": "uint256",
          "name": "tokenId",
          "type": "uint256"
        }
      ],
      "name": "Transfer",
      "type": "event"
    },
    {
      "inputs": [],
      "name": "__OrgIdV2_init",
      "outputs": [],
      "stateMutability": "nonpayable",
      "type": "function"
    },
    {
      "inputs": [
        {
          "internalType": "address",
          "name": "to",
          "type": "address"
        },
        {
          "internalType": "uint256",
          "name": "tokenId",
          "type": "uint256"
        }
      ],
      "name": "approve",
      "outputs": [],
      "stateMutability": "nonpayable",
      "type": "function"
    },
    {
      "inputs": [
        {
          "internalType": "address",
          "name": "owner",
          "type": "address"
        }
      ],
      "name": "balanceOf",
      "outputs": [
        {
          "internalType": "uint256",
          "name": "",
          "type": "uint256"
        }
      ],
      "stateMutability": "view",
      "type": "function"
    },
    {
      "inputs": [
        {
          "internalType": "bytes32",
          "name": "salt",
          "type": "bytes32"
        },
        {
          "internalType": "string",
          "name": "orgJsonUri",
          "type": "string"
        }
      ],
      "name": "createOrgId",
      "outputs": [],
      "stateMutability": "nonpayable",
      "type": "function"
    },
    {
      "inputs": [
        {
          "internalType": "uint256",
          "name": "tokenId",
          "type": "uint256"
        }
      ],
      "name": "getApproved",
      "outputs": [
        {
          "internalType": "address",
          "name": "",
          "type": "address"
        }
      ],
      "stateMutability": "view",
      "type": "function"
    },
    {
      "inputs": [
        {
          "internalType": "uint256",
          "name": "tokenId",
          "type": "uint256"
        }
      ],
      "name": "getOrgId",
      "outputs": [
        {
          "internalType": "bool",
          "name": "exists",
          "type": "bool"
        },
        {
          "internalType": "bytes32",
          "name": "orgId",
          "type": "bytes32"
        },
        {
          "internalType": "string",
          "name": "orgJsonUri",
          "type": "string"
        },
        {
          "internalType": "address",
          "name": "owner",
          "type": "address"
        }
      ],
      "stateMutability": "view",
      "type": "function"
    },
    {
      "inputs": [
        {
          "internalType": "uint256",
          "name": "cursor",
          "type": "uint256"
        },
        {
          "internalType": "uint256",
          "name": "count",
          "type": "uint256"
        }
      ],
      "name": "getOrgIds",
      "outputs": [
        {
          "internalType": "bytes32[]",
          "name": "orgIds",
          "type": "bytes32[]"
        }
      ],
      "stateMutability": "view",
      "type": "function"
    },
    {
      "inputs": [],
      "name": "getOrgIds",
      "outputs": [
        {
          "internalType": "bytes32[]",
          "name": "orgIds",
          "type": "bytes32[]"
        }
      ],
      "stateMutability": "view",
      "type": "function"
    },
    {
      "inputs": [
        {
          "internalType": "bytes32",
          "name": "orgId",
          "type": "bytes32"
        }
      ],
      "name": "getTokenId",
      "outputs": [
        {
          "internalType": "uint256",
          "name": "tokenId",
          "type": "uint256"
        }
      ],
      "stateMutability": "view",
      "type": "function"
    },
    {
      "inputs": [],
      "name": "initialize",
      "outputs": [],
      "stateMutability": "nonpayable",
      "type": "function"
    },
    {
      "inputs": [
        {
          "internalType": "address",
          "name": "owner",
          "type": "address"
        },
        {
          "internalType": "address",
          "name": "operator",
          "type": "address"
        }
      ],
      "name": "isApprovedForAll",
      "outputs": [
        {
          "internalType": "bool",
          "name": "",
          "type": "bool"
        }
      ],
      "stateMutability": "view",
      "type": "function"
    },
    {
      "inputs": [],
      "name": "name",
      "outputs": [
        {
          "internalType": "string",
          "name": "",
          "type": "string"
        }
      ],
      "stateMutability": "view",
      "type": "function"
    },
    {
      "inputs": [
        {
          "internalType": "uint256",
          "name": "tokenId",
          "type": "uint256"
        }
      ],
      "name": "ownerOf",
      "outputs": [
        {
          "internalType": "address",
          "name": "",
          "type": "address"
        }
      ],
      "stateMutability": "view",
      "type": "function"
    },
    {
      "inputs": [
        {
          "internalType": "address",
          "name": "from",
          "type": "address"
        },
        {
          "internalType": "address",
          "name": "to",
          "type": "address"
        },
        {
          "internalType": "uint256",
          "name": "tokenId",
          "type": "uint256"
        }
      ],
      "name": "safeTransferFrom",
      "outputs": [],
      "stateMutability": "nonpayable",
      "type": "function"
    },
    {
      "inputs": [
        {
          "internalType": "address",
          "name": "from",
          "type": "address"
        },
        {
          "internalType": "address",
          "name": "to",
          "type": "address"
        },
        {
          "internalType": "uint256",
          "name": "tokenId",
          "type": "uint256"
        },
        {
          "internalType": "bytes",
          "name": "_data",
          "type": "bytes"
        }
      ],
      "name": "safeTransferFrom",
      "outputs": [],
      "stateMutability": "nonpayable",
      "type": "function"
    },
    {
      "inputs": [
        {
          "internalType": "address",
          "name": "operator",
          "type": "address"
        },
        {
          "internalType": "bool",
          "name": "approved",
          "type": "bool"
        }
      ],
      "name": "setApprovalForAll",
      "outputs": [],
      "stateMutability": "nonpayable",
      "type": "function"
    },
    {
      "inputs": [
        {
          "internalType": "bytes32",
          "name": "orgId",
          "type": "bytes32"
        },
        {
          "internalType": "string",
          "name": "orgJsonUri",
          "type": "string"
        }
      ],
      "name": "setOrgJson",
      "outputs": [],
      "stateMutability": "nonpayable",
      "type": "function"
    },
    {
      "inputs": [
        {
          "internalType": "bytes4",
          "name": "interfaceId",
          "type": "bytes4"
        }
      ],
      "name": "supportsInterface",
      "outputs": [
        {
          "internalType": "bool",
          "name": "",
          "type": "bool"
        }
      ],
      "stateMutability": "view",
      "type": "function"
    },
    {
      "inputs": [],
      "name": "symbol",
      "outputs": [
        {
          "internalType": "string",
          "name": "",
          "type": "string"
        }
      ],
      "stateMutability": "view",
      "type": "function"
    },
    {
      "inputs": [
        {
          "internalType": "uint256",
          "name": "index",
          "type": "uint256"
        }
      ],
      "name": "tokenByIndex",
      "outputs": [
        {
          "internalType": "uint256",
          "name": "",
          "type": "uint256"
        }
      ],
      "stateMutability": "view",
      "type": "function"
    },
    {
      "inputs": [
        {
          "internalType": "address",
          "name": "owner",
          "type": "address"
        },
        {
          "internalType": "uint256",
          "name": "index",
          "type": "uint256"
        }
      ],
      "name": "tokenOfOwnerByIndex",
      "outputs": [
        {
          "internalType": "uint256",
          "name": "",
          "type": "uint256"
        }
      ],
      "stateMutability": "view",
      "type": "function"
    },
    {
      "inputs": [
        {
          "internalType": "uint256",
          "name": "tokenId",
          "type": "uint256"
        }
      ],
      "name": "tokenURI",
      "outputs": [
        {
          "internalType": "string",
          "name": "",
          "type": "string"
        }
      ],
      "stateMutability": "view",
      "type": "function"
    },
    {
      "inputs": [],
      "name": "totalSupply",
      "outputs": [
        {
          "internalType": "uint256",
          "name": "",
          "type": "uint256"
        }
      ],
      "stateMutability": "view",
      "type": "function"
    },
    {
      "inputs": [
        {
          "internalType": "address",
          "name": "from",
          "type": "address"
        },
        {
          "internalType": "address",
          "name": "to",
          "type": "address"
        },
        {
          "internalType": "uint256",
          "name": "tokenId",
          "type": "uint256"
        }
      ],
      "name": "transferFrom",
      "outputs": [],
      "stateMutability": "nonpayable",
      "type": "function"
    },
    {
      "inputs": [],
      "name": "version",
      "outputs": [
        {
          "internalType": "string",
          "name": "",
          "type": "string"
        }
      ],
      "stateMutability": "view",
      "type": "function"
    }
  ],
  "bytecode": "0x608060405234801561001057600080fd5b506123ab806100206000396000f3fe608060405234801561001057600080fd5b50600436106101735760003560e01c806354fd4d50116100de57806398980a8a11610097578063c87b56dd11610071578063c87b56dd1461032c578063c9cb65e11461033f578063e4f649901461035f578063e985e9c51461036757600080fd5b806398980a8a146102e3578063a22cb46514610306578063b88d4fde1461031957600080fd5b806354fd4d501461029d5780636352211e146102a557806370a08231146102b857806374427b1e146102cb5780638129fc1c146102d357806395d89b41146102db57600080fd5b806318160ddd1161013057806318160ddd1461022c57806323b872dd1461023e5780632f745c591461025157806335178d911461026457806342842e0e146102775780634f6ccce71461028a57600080fd5b80630193eda61461017857806301ffc9a7146101a157806306fdde03146101c4578063081812fc146101d9578063095ea7b3146102045780630ad0abce14610219575b600080fd5b61018b61018636600461204e565b6103a3565b60405161019891906120fa565b60405180910390f35b6101b46101af366004612014565b61057a565b6040519015158152602001610198565b6101cc6105a5565b60405161019891906121a7565b6101ec6101e7366004611f7f565b610637565b6040516001600160a01b039091168152602001610198565b610217610212366004611f55565b6106d1565b005b610217610227366004611f98565b6107e7565b6099545b604051908152602001610198565b61021761024c366004611e01565b61097b565b61023061025f366004611f55565b6109ac565b610217610272366004611f98565b610a42565b610217610285366004611e01565b610b41565b610230610298366004611f7f565b610b5c565b6101cc610bef565b6101ec6102b3366004611f7f565b610bff565b6102306102c6366004611dac565b610c76565b610217610cfd565b610217610db5565b6101cc610e6d565b6102f66102f1366004611f7f565b610e7c565b604051610198949392919061213e565b610217610314366004611f19565b610f56565b610217610327366004611e3d565b61101b565b6101cc61033a366004611f7f565b611053565b61023061034d366004611f7f565b600090815260c9602052604090205490565b61018b61112c565b6101b4610375366004611dce565b6001600160a01b039182166000908152606a6020908152604080832093909416825291909152205460ff1690565b606060008267ffffffffffffffff8111156103c0576103c0612372565b6040519080825280602002602001820160405280156103e9578160200160208202803683370190505b509050600080855b60cc548110801561040a575061040786886122ab565b81105b156104a05760cc81815481106104225761042261235c565b906000526020600020015484848151811061043f5761043f61235c565b6020026020010181815250506000801b60cc82815481106104625761046261235c565b906000526020600020015414610480578161047c81612315565b9250505b8261048a81612315565b935050808061049890612315565b9150506103f1565b508067ffffffffffffffff8111156104ba576104ba612372565b6040519080825280602002602001820160405280156104e3578160200160208202803683370190505b5093506000915060005b8351811015610570576000801b84828151811061050c5761050c61235c565b60200260200101511461055e5783818151811061052b5761052b61235c565b60200260200101518584815181106105455761054561235c565b60209081029190910101528261055a81612315565b9350505b8061056881612315565b9150506104ed565b5050505092915050565b60006001600160e01b031982166345f8f68160e11b148061059f575061059f82611183565b92915050565b6060606580546105b4906122da565b80601f01602080910402602001604051908101604052809291908181526020018280546105e0906122da565b801561062d5780601f106106025761010080835404028352916020019161062d565b820191906000526020600020905b81548152906001019060200180831161061057829003601f168201915b5050505050905090565b6000818152606760205260408120546001600160a01b03166106b55760405162461bcd60e51b815260206004820152602c60248201527f4552433732313a20617070726f76656420717565727920666f72206e6f6e657860448201526b34b9ba32b73a103a37b5b2b760a11b60648201526084015b60405180910390fd5b506000908152606960205260409020546001600160a01b031690565b60006106dc82610bff565b9050806001600160a01b0316836001600160a01b0316141561074a5760405162461bcd60e51b815260206004820152602160248201527f4552433732313a20617070726f76616c20746f2063757272656e74206f776e656044820152603960f91b60648201526084016106ac565b336001600160a01b038216148061076657506107668133610375565b6107d85760405162461bcd60e51b815260206004820152603860248201527f4552433732313a20617070726f76652063616c6c6572206973206e6f74206f7760448201527f6e6572206e6f7220617070726f76656420666f7220616c6c000000000000000060648201526084016106ac565b6107e283836111a8565b505050565b8061080557604051633f0e0a7f60e21b815260040160405180910390fd5b6000336040516bffffffffffffffffffffffff19606083901b1660208201526034810186905290915060009060540160408051601f19818403018152918152815160209283012060cc8054600181019091557f47197230e1e4b29fc0bd84d7d78966c0925452aff72a2a121538b102457e9ebe01819055600081815260c9909352912054909150156108ad576040516358dc901360e01b8152600481018290526024016106ac565b60006108b860995490565b6108c39060016122ab565b90506108cf8382611216565b600082815260c96020908152604080832084905583835260ca825280832085905560cb9091529020610902908686611c83565b506040516001600160a01b0384169083907f49422f7ad2eca08595f1596952d2d805b5d5ba06f8c371dcb617c86a5b42ba0790600090a3817f4e0249d19860daeb2f0627d804cc93426e237cb754fef478c3a6cbcbc2762657868660405161096b929190612178565b60405180910390a2505050505050565b6109853382611234565b6109a15760405162461bcd60e51b81526004016106ac9061225a565b6107e283838361132b565b60006109b783610c76565b8210610a195760405162461bcd60e51b815260206004820152602b60248201527f455243373231456e756d657261626c653a206f776e657220696e646578206f7560448201526a74206f6620626f756e647360a81b60648201526084016106ac565b506001600160a01b03919091166000908152609760209081526040808320938352929052205490565b821580610a5b5750600083815260c96020526040902054155b15610a7c576040516387fe3aad60e01b8152600481018490526024016106ac565b80610a9a57604051633f0e0a7f60e21b815260040160405180910390fd5b600083815260c960205260409020543390610ab490610bff565b6001600160a01b031614610adb57604051635612e54f60e11b815260040160405180910390fd5b600083815260c96020908152604080832054835260cb9091529020610b01908383611c83565b50827f4e0249d19860daeb2f0627d804cc93426e237cb754fef478c3a6cbcbc27626578383604051610b34929190612178565b60405180910390a2505050565b6107e28383836040518060200160405280600081525061101b565b6000610b6760995490565b8210610bca5760405162461bcd60e51b815260206004820152602c60248201527f455243373231456e756d657261626c653a20676c6f62616c20696e646578206f60448201526b7574206f6620626f756e647360a01b60648201526084016106ac565b60998281548110610bdd57610bdd61235c565b90600052602060002001549050919050565b606061013380546105b4906122da565b6000818152606760205260408120546001600160a01b03168061059f5760405162461bcd60e51b815260206004820152602960248201527f4552433732313a206f776e657220717565727920666f72206e6f6e657869737460448201526832b73a103a37b5b2b760b91b60648201526084016106ac565b60006001600160a01b038216610ce15760405162461bcd60e51b815260206004820152602a60248201527f4552433732313a2062616c616e636520717565727920666f7220746865207a65604482015269726f206164647265737360b01b60648201526084016106ac565b506001600160a01b031660009081526068602052604090205490565b7fded1bc4b362adace04037b7f4031e750ed9c50f2b9d021df6a563f7277b743cf60008190526101006020527fbac95e975ddae97c30abcf6cd6aed248725a70b655e842f7e156aa9e976bc2725460ff1615610d6e57604051625c34b160e11b8152600481018290526024016106ac565b604080518082019091526002808252612b1960f11b6020909201918252610d989161013391611d07565b50600090815261010060205260409020805460ff19166001179055565b600054610100900460ff1680610dce575060005460ff16155b610dea5760405162461bcd60e51b81526004016106ac9061220c565b600054610100900460ff16158015610e0c576000805461ffff19166101011790555b610e506040518060400160405280600581526020016413d491da5160da1b8152506040518060400160405280600581526020016413d491da5160da1b8152506114d6565b610e5861155d565b8015610e6a576000805461ff00191690555b50565b6060606680546105b4906122da565b600081815260ca602090815260408083205460679092528220546001600160a01b031615801592606091610f4f57600085815260cb602052604090208054610ec3906122da565b80601f0160208091040260200160405190810160405280929190818152602001828054610eef906122da565b8015610f3c5780601f10610f1157610100808354040283529160200191610f3c565b820191906000526020600020905b815481529060010190602001808311610f1f57829003601f168201915b50505050509150610f4c85610bff565b90505b9193509193565b6001600160a01b038216331415610faf5760405162461bcd60e51b815260206004820152601960248201527f4552433732313a20617070726f766520746f2063616c6c65720000000000000060448201526064016106ac565b336000818152606a602090815260408083206001600160a01b03871680855290835292819020805460ff191686151590811790915590519081529192917f17307eab39ab6107e8899845ad3d59bd9653f200f220920489ca2b5937696c31910160405180910390a35050565b6110253383611234565b6110415760405162461bcd60e51b81526004016106ac9061225a565b61104d848484846115bc565b50505050565b6000818152606760205260409020546060906001600160a01b031661108e576040516306caeb1360e41b8152600481018390526024016106ac565b600082815260cb6020526040902080546110a7906122da565b80601f01602080910402602001604051908101604052809291908181526020018280546110d3906122da565b80156111205780601f106110f557610100808354040283529160200191611120565b820191906000526020600020905b81548152906001019060200180831161110357829003601f168201915b50505050509050919050565b606060cc80548060200260200160405190810160405280929190818152602001828054801561062d57602002820191906000526020600020905b815481526020019060010190808311611166575050505050905090565b60006001600160e01b0319821663780e9d6360e01b148061059f575061059f826115ef565b600081815260696020526040902080546001600160a01b0319166001600160a01b03841690811790915581906111dd82610bff565b6001600160a01b03167f8c5be1e5ebec7d5bd14f71427d1e84f3dd0314c0f7b2291e5b200ac8c7c3b92560405160405180910390a45050565b61123082826040518060200160405280600081525061163f565b5050565b6000818152606760205260408120546001600160a01b03166112ad5760405162461bcd60e51b815260206004820152602c60248201527f4552433732313a206f70657261746f7220717565727920666f72206e6f6e657860448201526b34b9ba32b73a103a37b5b2b760a11b60648201526084016106ac565b60006112b883610bff565b9050806001600160a01b0316846001600160a01b031614806112f35750836001600160a01b03166112e884610637565b6001600160a01b0316145b8061132357506001600160a01b038082166000908152606a602090815260408083209388168352929052205460ff165b949350505050565b826001600160a01b031661133e82610bff565b6001600160a01b0316146113a65760405162461bcd60e51b815260206004820152602960248201527f4552433732313a207472616e73666572206f6620746f6b656e2074686174206960448201526839903737ba1037bbb760b91b60648201526084016106ac565b6001600160a01b0382166114085760405162461bcd60e51b8152602060048201526024808201527f4552433732313a207472616e7366657220746f20746865207a65726f206164646044820152637265737360e01b60648201526084016106ac565b611413838383611672565b61141e6000826111a8565b6001600160a01b03831660009081526068602052604081208054600192906114479084906122c3565b90915550506001600160a01b03821660009081526068602052604081208054600192906114759084906122ab565b909155505060008181526067602052604080822080546001600160a01b0319166001600160a01b0386811691821790925591518493918716917fddf252ad1be2c89b69c2b068fc378daa952ba7f163c4a11628f55a4df523b3ef91a4505050565b600054610100900460ff16806114ef575060005460ff16155b61150b5760405162461bcd60e51b81526004016106ac9061220c565b600054610100900460ff1615801561152d576000805461ffff19166101011790555b61153561172a565b61153d61172a565b6115478383611794565b80156107e2576000805461ff0019169055505050565b600054610100900460ff1680611576575060005460ff16155b6115925760405162461bcd60e51b81526004016106ac9061220c565b600054610100900460ff161580156115b4576000805461ffff19166101011790555b610e58611829565b6115c784848461132b565b6115d384848484611898565b61104d5760405162461bcd60e51b81526004016106ac906121ba565b60006001600160e01b031982166380ac58cd60e01b148061162057506001600160e01b03198216635b5e139f60e01b145b8061059f57506301ffc9a760e01b6001600160e01b031983161461059f565b61164983836119a5565b6116566000848484611898565b6107e25760405162461bcd60e51b81526004016106ac906121ba565b6001600160a01b0383166116cd576116c881609980546000838152609a60205260408120829055600182018355919091527f72a152ddfb8e864297c917af52ea6c1c68aead0fee1a62673fcc7e0c94979d000155565b6116f0565b816001600160a01b0316836001600160a01b0316146116f0576116f08382611af3565b6001600160a01b038216611707576107e281611b90565b826001600160a01b0316826001600160a01b0316146107e2576107e28282611c3f565b600054610100900460ff1680611743575060005460ff16155b61175f5760405162461bcd60e51b81526004016106ac9061220c565b600054610100900460ff16158015610e58576000805461ffff19166101011790558015610e6a576000805461ff001916905550565b600054610100900460ff16806117ad575060005460ff16155b6117c95760405162461bcd60e51b81526004016106ac9061220c565b600054610100900460ff161580156117eb576000805461ffff19166101011790555b82516117fe906065906020860190611d07565b508151611812906066906020850190611d07565b5080156107e2576000805461ff0019169055505050565b600054610100900460ff1680611842575060005460ff16155b61185e5760405162461bcd60e51b81526004016106ac9061220c565b600054610100900460ff16158015611880576000805461ffff19166101011790555b61188861172a565b61189061172a565b610e5861172a565b60006001600160a01b0384163b1561199a57604051630a85bd0160e11b81526001600160a01b0385169063150b7a02906118dc9033908990889088906004016120bd565b602060405180830381600087803b1580156118f657600080fd5b505af1925050508015611926575060408051601f3d908101601f1916820190925261192391810190612031565b60015b611980573d808015611954576040519150601f19603f3d011682016040523d82523d6000602084013e611959565b606091505b5080516119785760405162461bcd60e51b81526004016106ac906121ba565b805181602001fd5b6001600160e01b031916630a85bd0160e11b149050611323565b506001949350505050565b6001600160a01b0382166119fb5760405162461bcd60e51b815260206004820181905260248201527f4552433732313a206d696e7420746f20746865207a65726f206164647265737360448201526064016106ac565b6000818152606760205260409020546001600160a01b031615611a605760405162461bcd60e51b815260206004820152601c60248201527f4552433732313a20746f6b656e20616c7265616479206d696e7465640000000060448201526064016106ac565b611a6c60008383611672565b6001600160a01b0382166000908152606860205260408120805460019290611a959084906122ab565b909155505060008181526067602052604080822080546001600160a01b0319166001600160a01b03861690811790915590518392907fddf252ad1be2c89b69c2b068fc378daa952ba7f163c4a11628f55a4df523b3ef908290a45050565b60006001611b0084610c76565b611b0a91906122c3565b600083815260986020526040902054909150808214611b5d576001600160a01b03841660009081526097602090815260408083208584528252808320548484528184208190558352609890915290208190555b5060009182526098602090815260408084208490556001600160a01b039094168352609781528383209183525290812055565b609954600090611ba2906001906122c3565b6000838152609a602052604081205460998054939450909284908110611bca57611bca61235c565b906000526020600020015490508060998381548110611beb57611beb61235c565b6000918252602080832090910192909255828152609a90915260408082208490558582528120556099805480611c2357611c23612346565b6001900381819060005260206000200160009055905550505050565b6000611c4a83610c76565b6001600160a01b039093166000908152609760209081526040808320868452825280832085905593825260989052919091209190915550565b828054611c8f906122da565b90600052602060002090601f016020900481019282611cb15760008555611cf7565b82601f10611cca5782800160ff19823516178555611cf7565b82800160010185558215611cf7579182015b82811115611cf7578235825591602001919060010190611cdc565b50611d03929150611d7b565b5090565b828054611d13906122da565b90600052602060002090601f016020900481019282611d355760008555611cf7565b82601f10611d4e57805160ff1916838001178555611cf7565b82800160010185558215611cf7579182015b82811115611cf7578251825591602001919060010190611d60565b5b80821115611d035760008155600101611d7c565b80356001600160a01b0381168114611da757600080fd5b919050565b600060208284031215611dbe57600080fd5b611dc782611d90565b9392505050565b60008060408385031215611de157600080fd5b611dea83611d90565b9150611df860208401611d90565b90509250929050565b600080600060608486031215611e1657600080fd5b611e1f84611d90565b9250611e2d60208501611d90565b9150604084013590509250925092565b60008060008060808587031215611e5357600080fd5b611e5c85611d90565b9350611e6a60208601611d90565b925060408501359150606085013567ffffffffffffffff80821115611e8e57600080fd5b818701915087601f830112611ea257600080fd5b813581811115611eb457611eb4612372565b604051601f8201601f19908116603f01168101908382118183101715611edc57611edc612372565b816040528281528a6020848701011115611ef557600080fd5b82602086016020830137600060208483010152809550505050505092959194509250565b60008060408385031215611f2c57600080fd5b611f3583611d90565b915060208301358015158114611f4a57600080fd5b809150509250929050565b60008060408385031215611f6857600080fd5b611f7183611d90565b946020939093013593505050565b600060208284031215611f9157600080fd5b5035919050565b600080600060408486031215611fad57600080fd5b83359250602084013567ffffffffffffffff80821115611fcc57600080fd5b818601915086601f830112611fe057600080fd5b813581811115611fef57600080fd5b87602082850101111561200157600080fd5b6020830194508093505050509250925092565b60006020828403121561202657600080fd5b8135611dc781612388565b60006020828403121561204357600080fd5b8151611dc781612388565b6000806040838503121561206157600080fd5b50508035926020909101359150565b6000815180845260005b818110156120965760208185018101518683018201520161207a565b818111156120a8576000602083870101525b50601f01601f19169290920160200192915050565b6001600160a01b03858116825284166020820152604081018390526080606082018190526000906120f090830184612070565b9695505050505050565b6020808252825182820181905260009190848201906040850190845b8181101561213257835183529284019291840191600101612116565b50909695505050505050565b841515815283602082015260806040820152600061215f6080830185612070565b905060018060a01b038316606083015295945050505050565b60208152816020820152818360408301376000818301604090810191909152601f909201601f19160101919050565b602081526000611dc76020830184612070565b60208082526032908201527f4552433732313a207472616e7366657220746f206e6f6e20455243373231526560408201527131b2b4bb32b91034b6b83632b6b2b73a32b960711b606082015260800190565b6020808252602e908201527f496e697469616c697a61626c653a20636f6e747261637420697320616c72656160408201526d191e481a5b9a5d1a585b1a5e995960921b606082015260800190565b60208082526031908201527f4552433732313a207472616e736665722063616c6c6572206973206e6f74206f6040820152701ddb995c881b9bdc88185c1c1c9bdd9959607a1b606082015260800190565b600082198211156122be576122be612330565b500190565b6000828210156122d5576122d5612330565b500390565b600181811c908216806122ee57607f821691505b6020821081141561230f57634e487b7160e01b600052602260045260246000fd5b50919050565b600060001982141561232957612329612330565b5060010190565b634e487b7160e01b600052601160045260246000fd5b634e487b7160e01b600052603160045260246000fd5b634e487b7160e01b600052603260045260246000fd5b634e487b7160e01b600052604160045260246000fd5b6001600160e01b031981168114610e6a57600080fdfea164736f6c6343000807000a",
  "linkReferences": {},
  "deployedLinkReferences": {}
}