{
  "_format": "hh-sol-artifact-1",
  "contractName": "OrgIdUpgradeabilityTest",
  "sourceName": "contracts/test/OrgIdUpgradeabilityTest.sol",
  "abi": [
    {
      "inputs": [],
      "name": "CalledNotByOrgIdOwner",
      "type": "error"
    },
    {
      "inputs": [
        {
          "internalType": "bytes32",
          "name": "versionDomain",
          "type": "bytes32"
        }
      ],
      "name": "ContractAlreadyInitialized",
      "type": "error"
    },
    {
      "inputs": [],
      "name": "InvalidDelegatesInput",
      "type": "error"
    },
    {
      "inputs": [
        {
          "internalType": "bytes32",
          "name": "orgId",
          "type": "bytes32"
        }
      ],
      "name": "OrgIdAlreadyExists",
      "type": "error"
    },
    {
      "inputs": [
        {
          "internalType": "bytes32",
          "name": "orgId",
          "type": "bytes32"
        }
      ],
      "name": "OrgIdNotFound",
      "type": "error"
    },
    {
      "inputs": [],
      "name": "OrgJsonUriEmpty",
      "type": "error"
    },
    {
      "inputs": [
        {
          "internalType": "uint256",
          "name": "tokenId",
          "type": "uint256"
        }
      ],
      "name": "TokenNotFound",
      "type": "error"
    },
    {
      "anonymous": false,
      "inputs": [
        {
          "indexed": true,
          "internalType": "address",
          "name": "owner",
          "type": "address"
        },
        {
          "indexed": true,
          "internalType": "address",
          "name": "approved",
          "type": "address"
        },
        {
          "indexed": true,
          "internalType": "uint256",
          "name": "tokenId",
          "type": "uint256"
        }
      ],
      "name": "Approval",
      "type": "event"
    },
    {
      "anonymous": false,
      "inputs": [
        {
          "indexed": true,
          "internalType": "address",
          "name": "owner",
          "type": "address"
        },
        {
          "indexed": true,
          "internalType": "address",
          "name": "operator",
          "type": "address"
        },
        {
          "indexed": false,
          "internalType": "bool",
          "name": "approved",
          "type": "bool"
        }
      ],
      "name": "ApprovalForAll",
      "type": "event"
    },
    {
      "anonymous": false,
      "inputs": [
        {
          "indexed": true,
          "internalType": "bytes32",
          "name": "orgId",
          "type": "bytes32"
        },
        {
          "indexed": true,
          "internalType": "address",
          "name": "owner",
          "type": "address"
        }
      ],
      "name": "OrgIdCreated",
      "type": "event"
    },
    {
      "anonymous": false,
      "inputs": [
        {
          "indexed": true,
          "internalType": "bytes32",
          "name": "orgId",
          "type": "bytes32"
        },
        {
          "indexed": false,
          "internalType": "string[]",
          "name": "delegates",
          "type": "string[]"
        }
      ],
      "name": "OrgIdDelegatesAdded",
      "type": "event"
    },
    {
      "anonymous": false,
      "inputs": [
        {
          "indexed": true,
          "internalType": "bytes32",
          "name": "orgId",
          "type": "bytes32"
        },
        {
          "indexed": false,
          "internalType": "string[]",
          "name": "delegates",
          "type": "string[]"
        }
      ],
      "name": "OrgIdDelegatesRemoved",
      "type": "event"
    },
    {
      "anonymous": false,
      "inputs": [
        {
          "indexed": true,
          "internalType": "bytes32",
          "name": "orgId",
          "type": "bytes32"
        },
        {
          "indexed": false,
          "internalType": "string",
          "name": "orgJsonUri",
          "type": "string"
        }
      ],
      "name": "OrgJsonUriChanged",
      "type": "event"
    },
    {
      "anonymous": false,
      "inputs": [
        {
          "indexed": true,
          "internalType": "address",
          "name": "from",
          "type": "address"
        },
        {
          "indexed": true,
          "internalType": "address",
          "name": "to",
          "type": "address"
        },
        {
          "indexed": true,
          "internalType": "uint256",
          "name": "tokenId",
          "type": "uint256"
        }
      ],
      "name": "Transfer",
      "type": "event"
    },
    {
      "inputs": [],
      "name": "__OrgIdV2_init",
      "outputs": [],
      "stateMutability": "nonpayable",
      "type": "function"
    },
    {
      "inputs": [
        {
          "internalType": "bytes32",
          "name": "orgId",
          "type": "bytes32"
        },
        {
          "internalType": "string[]",
          "name": "dids",
          "type": "string[]"
        }
      ],
      "name": "addDelegates",
      "outputs": [],
      "stateMutability": "nonpayable",
      "type": "function"
    },
    {
      "inputs": [
        {
          "internalType": "address",
          "name": "to",
          "type": "address"
        },
        {
          "internalType": "uint256",
          "name": "tokenId",
          "type": "uint256"
        }
      ],
      "name": "approve",
      "outputs": [],
      "stateMutability": "nonpayable",
      "type": "function"
    },
    {
      "inputs": [
        {
          "internalType": "address",
          "name": "owner",
          "type": "address"
        }
      ],
      "name": "balanceOf",
      "outputs": [
        {
          "internalType": "uint256",
          "name": "",
          "type": "uint256"
        }
      ],
      "stateMutability": "view",
      "type": "function"
    },
    {
      "inputs": [
        {
          "internalType": "bytes32",
          "name": "salt",
          "type": "bytes32"
        },
        {
          "internalType": "string",
          "name": "orgJsonUri",
          "type": "string"
        }
      ],
      "name": "createOrgId",
      "outputs": [],
      "stateMutability": "nonpayable",
      "type": "function"
    },
    {
      "inputs": [
        {
          "internalType": "uint256",
          "name": "tokenId",
          "type": "uint256"
        }
      ],
      "name": "getApproved",
      "outputs": [
        {
          "internalType": "address",
          "name": "",
          "type": "address"
        }
      ],
      "stateMutability": "view",
      "type": "function"
    },
    {
      "inputs": [
        {
          "internalType": "bytes32",
          "name": "orgId",
          "type": "bytes32"
        }
      ],
      "name": "getDelegates",
      "outputs": [
        {
          "internalType": "string[]",
          "name": "dids",
          "type": "string[]"
        }
      ],
      "stateMutability": "view",
      "type": "function"
    },
    {
      "inputs": [
        {
          "internalType": "uint256",
          "name": "tokenId",
          "type": "uint256"
        }
      ],
      "name": "getOrgId",
      "outputs": [
        {
          "internalType": "bool",
          "name": "exists",
          "type": "bool"
        },
        {
          "internalType": "bytes32",
          "name": "orgId",
          "type": "bytes32"
        },
        {
          "internalType": "string",
          "name": "orgJsonUri",
          "type": "string"
        },
        {
          "internalType": "address",
          "name": "owner",
          "type": "address"
        }
      ],
      "stateMutability": "view",
      "type": "function"
    },
    {
      "inputs": [
        {
          "internalType": "uint256",
          "name": "cursor",
          "type": "uint256"
        },
        {
          "internalType": "uint256",
          "name": "count",
          "type": "uint256"
        }
      ],
      "name": "getOrgIds",
      "outputs": [
        {
          "internalType": "bytes32[]",
          "name": "orgIds",
          "type": "bytes32[]"
        }
      ],
      "stateMutability": "view",
      "type": "function"
    },
    {
      "inputs": [],
      "name": "getOrgIds",
      "outputs": [
        {
          "internalType": "bytes32[]",
          "name": "orgIds",
          "type": "bytes32[]"
        }
      ],
      "stateMutability": "view",
      "type": "function"
    },
    {
      "inputs": [
        {
          "internalType": "bytes32",
          "name": "orgId",
          "type": "bytes32"
        }
      ],
      "name": "getTokenId",
      "outputs": [
        {
          "internalType": "uint256",
          "name": "tokenId",
          "type": "uint256"
        }
      ],
      "stateMutability": "view",
      "type": "function"
    },
    {
      "inputs": [],
      "name": "initialize",
      "outputs": [],
      "stateMutability": "nonpayable",
      "type": "function"
    },
    {
      "inputs": [
        {
          "internalType": "address",
          "name": "owner",
          "type": "address"
        },
        {
          "internalType": "address",
          "name": "operator",
          "type": "address"
        }
      ],
      "name": "isApprovedForAll",
      "outputs": [
        {
          "internalType": "bool",
          "name": "",
          "type": "bool"
        }
      ],
      "stateMutability": "view",
      "type": "function"
    },
    {
      "inputs": [],
      "name": "name",
      "outputs": [
        {
          "internalType": "string",
          "name": "",
          "type": "string"
        }
      ],
      "stateMutability": "view",
      "type": "function"
    },
    {
      "inputs": [
        {
          "internalType": "uint256",
          "name": "tokenId",
          "type": "uint256"
        }
      ],
      "name": "ownerOf",
      "outputs": [
        {
          "internalType": "address",
          "name": "",
          "type": "address"
        }
      ],
      "stateMutability": "view",
      "type": "function"
    },
    {
      "inputs": [
        {
          "internalType": "bytes32",
          "name": "orgId",
          "type": "bytes32"
        }
      ],
      "name": "removeDelegates",
      "outputs": [],
      "stateMutability": "nonpayable",
      "type": "function"
    },
    {
      "inputs": [
        {
          "internalType": "bytes32",
          "name": "orgId",
          "type": "bytes32"
        },
        {
          "internalType": "string[]",
          "name": "dids",
          "type": "string[]"
        }
      ],
      "name": "removeDelegates",
      "outputs": [],
      "stateMutability": "nonpayable",
      "type": "function"
    },
    {
      "inputs": [
        {
          "internalType": "address",
          "name": "from",
          "type": "address"
        },
        {
          "internalType": "address",
          "name": "to",
          "type": "address"
        },
        {
          "internalType": "uint256",
          "name": "tokenId",
          "type": "uint256"
        }
      ],
      "name": "safeTransferFrom",
      "outputs": [],
      "stateMutability": "nonpayable",
      "type": "function"
    },
    {
      "inputs": [
        {
          "internalType": "address",
          "name": "from",
          "type": "address"
        },
        {
          "internalType": "address",
          "name": "to",
          "type": "address"
        },
        {
          "internalType": "uint256",
          "name": "tokenId",
          "type": "uint256"
        },
        {
          "internalType": "bytes",
          "name": "_data",
          "type": "bytes"
        }
      ],
      "name": "safeTransferFrom",
      "outputs": [],
      "stateMutability": "nonpayable",
      "type": "function"
    },
    {
      "inputs": [
        {
          "internalType": "address",
          "name": "operator",
          "type": "address"
        },
        {
          "internalType": "bool",
          "name": "approved",
          "type": "bool"
        }
      ],
      "name": "setApprovalForAll",
      "outputs": [],
      "stateMutability": "nonpayable",
      "type": "function"
    },
    {
      "inputs": [
        {
          "internalType": "bytes32",
          "name": "orgId",
          "type": "bytes32"
        },
        {
          "internalType": "string",
          "name": "orgJsonUri",
          "type": "string"
        }
      ],
      "name": "setOrgJson",
      "outputs": [],
      "stateMutability": "nonpayable",
      "type": "function"
    },
    {
      "inputs": [
        {
          "internalType": "bytes4",
          "name": "interfaceId",
          "type": "bytes4"
        }
      ],
      "name": "supportsInterface",
      "outputs": [
        {
          "internalType": "bool",
          "name": "",
          "type": "bool"
        }
      ],
      "stateMutability": "view",
      "type": "function"
    },
    {
      "inputs": [],
      "name": "symbol",
      "outputs": [
        {
          "internalType": "string",
          "name": "",
          "type": "string"
        }
      ],
      "stateMutability": "view",
      "type": "function"
    },
    {
      "inputs": [
        {
          "internalType": "uint256",
          "name": "index",
          "type": "uint256"
        }
      ],
      "name": "tokenByIndex",
      "outputs": [
        {
          "internalType": "uint256",
          "name": "",
          "type": "uint256"
        }
      ],
      "stateMutability": "view",
      "type": "function"
    },
    {
      "inputs": [
        {
          "internalType": "address",
          "name": "owner",
          "type": "address"
        },
        {
          "internalType": "uint256",
          "name": "index",
          "type": "uint256"
        }
      ],
      "name": "tokenOfOwnerByIndex",
      "outputs": [
        {
          "internalType": "uint256",
          "name": "",
          "type": "uint256"
        }
      ],
      "stateMutability": "view",
      "type": "function"
    },
    {
      "inputs": [
        {
          "internalType": "uint256",
          "name": "tokenId",
          "type": "uint256"
        }
      ],
      "name": "tokenURI",
      "outputs": [
        {
          "internalType": "string",
          "name": "",
          "type": "string"
        }
      ],
      "stateMutability": "view",
      "type": "function"
    },
    {
      "inputs": [],
      "name": "totalSupply",
      "outputs": [
        {
          "internalType": "uint256",
          "name": "",
          "type": "uint256"
        }
      ],
      "stateMutability": "view",
      "type": "function"
    },
    {
      "inputs": [
        {
          "internalType": "address",
          "name": "from",
          "type": "address"
        },
        {
          "internalType": "address",
          "name": "to",
          "type": "address"
        },
        {
          "internalType": "uint256",
          "name": "tokenId",
          "type": "uint256"
        }
      ],
      "name": "transferFrom",
      "outputs": [],
      "stateMutability": "nonpayable",
      "type": "function"
    },
    {
      "inputs": [],
      "name": "version",
      "outputs": [
        {
          "internalType": "string",
          "name": "",
          "type": "string"
        }
      ],
      "stateMutability": "view",
      "type": "function"
    }
  ],
  "bytecode": "0x608060405234801561001057600080fd5b50612fd7806100206000396000f3fe608060405234801561001057600080fd5b50600436106101cf5760003560e01c80636352211e11610104578063a22cb465116100a2578063c9cb65e111610071578063c9cb65e1146103e1578063dfe0f51114610401578063e4f6499014610414578063e985e9c51461041c57600080fd5b8063a22cb46514610395578063b88d4fde146103a8578063bc52570b146103bb578063c87b56dd146103ce57600080fd5b806374427b1e116100de57806374427b1e1461035a5780638129fc1c1461036257806395d89b411461036a57806398980a8a1461037257600080fd5b80636352211e1461031457806363ceab541461032757806370a082311461034757600080fd5b806323b872dd1161017157806342842e0e1161014b57806342842e0e146102d35780634f6ccce7146102e657806354fd4d50146102f95780635d96b7391461030157600080fd5b806323b872dd1461029a5780632f745c59146102ad57806335178d91146102c057600080fd5b8063081812fc116101ad578063081812fc14610235578063095ea7b3146102605780630ad0abce1461027557806318160ddd1461028857600080fd5b80630193eda6146101d457806301ffc9a7146101fd57806306fdde0314610220575b600080fd5b6101e76101e2366004612646565b610458565b6040516101f49190612668565b60405180910390f35b61021061020b3660046126c2565b61062f565b60405190151581526020016101f4565b610228610640565b6040516101f49190612736565b610248610243366004612749565b6106d2565b6040516001600160a01b0390911681526020016101f4565b61027361026e366004612779565b61076c565b005b6102736102833660046127a3565b610881565b6099545b6040519081526020016101f4565b6102736102a836600461281f565b610a19565b61028c6102bb366004612779565b610a4a565b6102736102ce3660046127a3565b610ae0565b6102736102e136600461281f565b610be5565b61028c6102f4366004612749565b610c00565b610228610c93565b61027361030f3660046128fa565b610ca3565b610248610322366004612749565b610df0565b61033a610335366004612749565b610e67565b6040516101f491906129df565b61028c610355366004612a41565b610e82565b610273610f09565b610273610fbe565b610228611076565b610385610380366004612749565b611085565b6040516101f49493929190612a5c565b6102736103a3366004612a96565b61115f565b6102736103b6366004612ad2565b611223565b6102736103c9366004612749565b61125b565b6102286103dc366004612749565b61135b565b61028c6103ef366004612749565b600090815260c9602052604090205490565b61027361040f3660046128fa565b611434565b6101e7611581565b61021061042a366004612b4e565b6001600160a01b039182166000908152606a6020908152604080832093909416825291909152205460ff1690565b606060008267ffffffffffffffff8111156104755761047561285b565b60405190808252806020026020018201604052801561049e578160200160208202803683370190505b509050600080855b60cc54811080156104bf57506104bc8688612b97565b81105b156105555760cc81815481106104d7576104d7612baa565b90600052602060002001548484815181106104f4576104f4612baa565b6020026020010181815250506000801b60cc828154811061051757610517612baa565b906000526020600020015414610535578161053181612bc0565b9250505b8261053f81612bc0565b935050808061054d90612bc0565b9150506104a6565b508067ffffffffffffffff81111561056f5761056f61285b565b604051908082528060200260200182016040528015610598578160200160208202803683370190505b5093506000915060005b8351811015610625576000801b8482815181106105c1576105c1612baa565b602002602001015114610613578381815181106105e0576105e0612baa565b60200260200101518584815181106105fa576105fa612baa565b60209081029190910101528261060f81612bc0565b9350505b8061061d81612bc0565b9150506105a2565b5050505092915050565b600061063a826115d8565b92915050565b60606065805461064f90612bd9565b80601f016020809104026020016040519081016040528092919081815260200182805461067b90612bd9565b80156106c85780601f1061069d576101008083540402835291602001916106c8565b820191906000526020600020905b8154815290600101906020018083116106ab57829003601f168201915b5050505050905090565b6000818152606760205260408120546001600160a01b03166107505760405162461bcd60e51b815260206004820152602c60248201527f4552433732313a20617070726f76656420717565727920666f72206e6f6e657860448201526b34b9ba32b73a103a37b5b2b760a11b60648201526084015b60405180910390fd5b506000908152606960205260409020546001600160a01b031690565b600061077782610df0565b9050806001600160a01b0316836001600160a01b0316036107e45760405162461bcd60e51b815260206004820152602160248201527f4552433732313a20617070726f76616c20746f2063757272656e74206f776e656044820152603960f91b6064820152608401610747565b336001600160a01b03821614806108005750610800813361042a565b6108725760405162461bcd60e51b815260206004820152603860248201527f4552433732313a20617070726f76652063616c6c6572206973206e6f74206f7760448201527f6e6572206e6f7220617070726f76656420666f7220616c6c00000000000000006064820152608401610747565b61087c83836115fd565b505050565b60008190036108a357604051633f0e0a7f60e21b815260040160405180910390fd5b6000336040516bffffffffffffffffffffffff19606083901b1660208201526034810186905290915060009060540160408051601f19818403018152918152815160209283012060cc8054600181019091557f47197230e1e4b29fc0bd84d7d78966c0925452aff72a2a121538b102457e9ebe01819055600081815260c99093529120549091501561094b576040516358dc901360e01b815260048101829052602401610747565b600061095660995490565b610961906001612b97565b905061096d838261166b565b600082815260c96020908152604080832084905583835260ca825280832085905560cb90915290206109a0858783612c61565b506040516001600160a01b0384169083907f49422f7ad2eca08595f1596952d2d805b5d5ba06f8c371dcb617c86a5b42ba0790600090a3817f4e0249d19860daeb2f0627d804cc93426e237cb754fef478c3a6cbcbc27626578686604051610a09929190612d22565b60405180910390a2505050505050565b610a233382611689565b610a3f5760405162461bcd60e51b815260040161074790612d51565b61087c838383611780565b6000610a5583610e82565b8210610ab75760405162461bcd60e51b815260206004820152602b60248201527f455243373231456e756d657261626c653a206f776e657220696e646578206f7560448201526a74206f6620626f756e647360a81b6064820152608401610747565b506001600160a01b03919091166000908152609760209081526040808320938352929052205490565b82801580610afa5750600081815260c96020526040902054155b15610b1b576040516387fe3aad60e01b815260048101829052602401610747565b600081815260c960205260409020543390610b3590610df0565b6001600160a01b031614610b5c57604051635612e54f60e11b815260040160405180910390fd5b6000829003610b7e57604051633f0e0a7f60e21b815260040160405180910390fd5b600084815260c96020908152604080832054835260cb9091529020610ba4838583612c61565b50837f4e0249d19860daeb2f0627d804cc93426e237cb754fef478c3a6cbcbc27626578484604051610bd7929190612d22565b60405180910390a250505050565b61087c83838360405180602001604052806000815250611223565b6000610c0b60995490565b8210610c6e5760405162461bcd60e51b815260206004820152602c60248201527f455243373231456e756d657261626c653a20676c6f62616c20696e646578206f60448201526b7574206f6620626f756e647360a01b6064820152608401610747565b60998281548110610c8157610c81612baa565b90600052602060002001549050919050565b6060610134805461064f90612bd9565b81801580610cbd5750600081815260c96020526040902054155b15610cde576040516387fe3aad60e01b815260048101829052602401610747565b600081815260c960205260409020543390610cf890610df0565b6001600160a01b031614610d1f57604051635612e54f60e11b815260040160405180910390fd5b8151600003610d4157604051634816a76760e01b815260040160405180910390fd5b6000805b8351811015610dbf57610d8d848281518110610d6357610d63612baa565b6020026020010151610100600088815260200190815260200160002061192b90919063ffffffff16565b915081610dad57604051634816a76760e01b815260040160405180910390fd5b80610db781612bc0565b915050610d45565b50837f9af1bf1f55d94dc29bfe249a6e5c1f9b82c06fee0cdaeada46f044b69f68c7cc84604051610bd791906129df565b6000818152606760205260408120546001600160a01b03168061063a5760405162461bcd60e51b815260206004820152602960248201527f4552433732313a206f776e657220717565727920666f72206e6f6e657869737460448201526832b73a103a37b5b2b760b91b6064820152608401610747565b60008181526101006020526040902060609061063a906119cc565b60006001600160a01b038216610eed5760405162461bcd60e51b815260206004820152602a60248201527f4552433732313a2062616c616e636520717565727920666f7220746865207a65604482015269726f206164647265737360b01b6064820152608401610747565b506001600160a01b031660009081526068602052604090205490565b7fded1bc4b362adace04037b7f4031e750ed9c50f2b9d021df6a563f7277b743cf60008190526101016020527f154de1e2f0d12a95d70575f306499a7207e336b3faf6530768c03baf015982db5460ff1615610f7a57604051625c34b160e11b815260048101829052602401610747565b6040805180820190915260028152612b1960f11b602082015261013490610fa19082612da2565b50600090815261010160205260409020805460ff19166001179055565b600054610100900460ff1680610fd7575060005460ff16155b610ff35760405162461bcd60e51b815260040161074790612e62565b600054610100900460ff16158015611015576000805461ffff19166101011790555b6110596040518060400160405280600581526020016413d491da5160da1b8152506040518060400160405280600581526020016413d491da5160da1b815250611aa9565b611061611b30565b8015611073576000805461ff00191690555b50565b60606066805461064f90612bd9565b600081815260ca602090815260408083205460679092528220546001600160a01b03161580159260609161115857600085815260cb6020526040902080546110cc90612bd9565b80601f01602080910402602001604051908101604052809291908181526020018280546110f890612bd9565b80156111455780601f1061111a57610100808354040283529160200191611145565b820191906000526020600020905b81548152906001019060200180831161112857829003601f168201915b5050505050915061115585610df0565b90505b9193509193565b336001600160a01b038316036111b75760405162461bcd60e51b815260206004820152601960248201527f4552433732313a20617070726f766520746f2063616c6c6572000000000000006044820152606401610747565b336000818152606a602090815260408083206001600160a01b03871680855290835292819020805460ff191686151590811790915590519081529192917f17307eab39ab6107e8899845ad3d59bd9653f200f220920489ca2b5937696c31910160405180910390a35050565b61122d3383611689565b6112495760405162461bcd60e51b815260040161074790612d51565b61125584848484611b8f565b50505050565b808015806112755750600081815260c96020526040902054155b15611296576040516387fe3aad60e01b815260048101829052602401610747565b600081815260c9602052604090205433906112b090610df0565b6001600160a01b0316146112d757604051635612e54f60e11b815260040160405180910390fd5b6000828152610100602052604081206112ef906119cc565b6000848152610100602052604081209192509061130b90611bc2565b90508061132b57604051634816a76760e01b815260040160405180910390fd5b837fb3c3b87d0ea8237b590c2dbf7d3acf90e54a40cf0ef1e4c0d948736e1fabd8a983604051610bd791906129df565b6000818152606760205260409020546060906001600160a01b0316611396576040516306caeb1360e41b815260048101839052602401610747565b600082815260cb6020526040902080546113af90612bd9565b80601f01602080910402602001604051908101604052809291908181526020018280546113db90612bd9565b80156114285780601f106113fd57610100808354040283529160200191611428565b820191906000526020600020905b81548152906001019060200180831161140b57829003601f168201915b50505050509050919050565b8180158061144e5750600081815260c96020526040902054155b1561146f576040516387fe3aad60e01b815260048101829052602401610747565b600081815260c96020526040902054339061148990610df0565b6001600160a01b0316146114b057604051635612e54f60e11b815260040160405180910390fd5b81516000036114d257604051634816a76760e01b815260040160405180910390fd5b6000805b83518110156115505761151e8482815181106114f4576114f4612baa565b60200260200101516101006000888152602001908152602001600020611ce690919063ffffffff16565b91508161153e57604051634816a76760e01b815260040160405180910390fd5b8061154881612bc0565b9150506114d6565b50837fb3c3b87d0ea8237b590c2dbf7d3acf90e54a40cf0ef1e4c0d948736e1fabd8a984604051610bd791906129df565b606060cc8054806020026020016040519081016040528092919081815260200182805480156106c857602002820191906000526020600020905b8154815260200190600101908083116115bb575050505050905090565b60006001600160e01b03198216635deabe7760e01b148061063a575061063a82611ec4565b600081815260696020526040902080546001600160a01b0319166001600160a01b038416908117909155819061163282610df0565b6001600160a01b03167f8c5be1e5ebec7d5bd14f71427d1e84f3dd0314c0f7b2291e5b200ac8c7c3b92560405160405180910390a45050565b611685828260405180602001604052806000815250611ee9565b5050565b6000818152606760205260408120546001600160a01b03166117025760405162461bcd60e51b815260206004820152602c60248201527f4552433732313a206f70657261746f7220717565727920666f72206e6f6e657860448201526b34b9ba32b73a103a37b5b2b760a11b6064820152608401610747565b600061170d83610df0565b9050806001600160a01b0316846001600160a01b031614806117485750836001600160a01b031661173d846106d2565b6001600160a01b0316145b8061177857506001600160a01b038082166000908152606a602090815260408083209388168352929052205460ff165b949350505050565b826001600160a01b031661179382610df0565b6001600160a01b0316146117fb5760405162461bcd60e51b815260206004820152602960248201527f4552433732313a207472616e73666572206f6620746f6b656e2074686174206960448201526839903737ba1037bbb760b91b6064820152608401610747565b6001600160a01b03821661185d5760405162461bcd60e51b8152602060048201526024808201527f4552433732313a207472616e7366657220746f20746865207a65726f206164646044820152637265737360e01b6064820152608401610747565b611868838383611f1c565b6118736000826115fd565b6001600160a01b038316600090815260686020526040812080546001929061189c908490612eb0565b90915550506001600160a01b03821660009081526068602052604081208054600192906118ca908490612b97565b909155505060008181526067602052604080822080546001600160a01b0319166001600160a01b0386811691821790925591518493918716917fddf252ad1be2c89b69c2b068fc378daa952ba7f163c4a11628f55a4df523b3ef91a4505050565b6000815160000361193e5750600061063a565b600061194983611fd4565b600081815260018601602052604090205490915060ff166119b1576000818152600185810160209081526040808420805460ff19168417905587546002890183529084208190559182018755868352909120016119a68482612da2565b50600191505061063a565b600090815260018401602052604090205460ff16905061063a565b606081600001805480602002602001604051908101604052809291908181526020016000905b82821015611a9e578382906000526020600020018054611a1190612bd9565b80601f0160208091040260200160405190810160405280929190818152602001828054611a3d90612bd9565b8015611a8a5780601f10611a5f57610100808354040283529160200191611a8a565b820191906000526020600020905b815481529060010190602001808311611a6d57829003601f168201915b5050505050815260200190600101906119f2565b505050509050919050565b600054610100900460ff1680611ac2575060005460ff16155b611ade5760405162461bcd60e51b815260040161074790612e62565b600054610100900460ff16158015611b00576000805461ffff19166101011790555b611b08612004565b611b10612004565b611b1a838361206e565b801561087c576000805461ff0019169055505050565b600054610100900460ff1680611b49575060005460ff16155b611b655760405162461bcd60e51b815260040161074790612e62565b600054610100900460ff16158015611b87576000805461ffff19166101011790555b6110616120f5565b611b9a848484611780565b611ba684848484612164565b6112555760405162461bcd60e51b815260040161074790612ec3565b805460009015611cd9576000805b8354811015611cc457611c89846000018281548110611bf157611bf1612baa565b906000526020600020018054611c0690612bd9565b80601f0160208091040260200160405190810160405280929190818152602001828054611c3290612bd9565b8015611c7f5780601f10611c5457610100808354040283529160200191611c7f565b820191906000526020600020905b815481529060010190602001808311611c6257829003601f168201915b5050505050611fd4565b60008181526002860160209081526040808320839055600188019091529020805460ff19169055915080611cbc81612bc0565b915050611bd0565b50611cd08360006125b8565b50600192915050565b506000919050565b919050565b60008151600003611cf95750600061063a565b6000611d0483611fd4565b600081815260018601602052604090205490915060ff1615611ea85760008181526002850160205260408120548554909190611d4290600190612eb0565b9050818114611e47576000866000018281548110611d6257611d62612baa565b906000526020600020018054611d7790612bd9565b80601f0160208091040260200160405190810160405280929190818152602001828054611da390612bd9565b8015611df05780601f10611dc557610100808354040283529160200191611df0565b820191906000526020600020905b815481529060010190602001808311611dd357829003601f168201915b5050505050905080876000018481548110611e0d57611e0d612baa565b906000526020600020019081611e239190612da2565b5082876002016000611e3484611fd4565b8152602081019190915260400160002055505b8554869080611e5857611e58612f15565b600190038181906000526020600020016000611e7491906125d6565b90555050600090815260028401602090815260408083208390556001808701909252909120805460ff19169055905061063a565b600090815260018401602052604090205460ff1615905061063a565b60006001600160e01b031982166345f8f68160e11b148061063a575061063a82612265565b611ef3838361228a565b611f006000848484612164565b61087c5760405162461bcd60e51b815260040161074790612ec3565b6001600160a01b038316611f7757611f7281609980546000838152609a60205260408120829055600182018355919091527f72a152ddfb8e864297c917af52ea6c1c68aead0fee1a62673fcc7e0c94979d000155565b611f9a565b816001600160a01b0316836001600160a01b031614611f9a57611f9a83826123d8565b6001600160a01b038216611fb15761087c81612475565b826001600160a01b0316826001600160a01b03161461087c5761087c8282612524565b600081604051602001611fe79190612f2b565b604051602081830303815290604052805190602001209050919050565b600054610100900460ff168061201d575060005460ff16155b6120395760405162461bcd60e51b815260040161074790612e62565b600054610100900460ff16158015611061576000805461ffff19166101011790558015611073576000805461ff001916905550565b600054610100900460ff1680612087575060005460ff16155b6120a35760405162461bcd60e51b815260040161074790612e62565b600054610100900460ff161580156120c5576000805461ffff19166101011790555b60656120d18482612da2565b5060666120de8382612da2565b50801561087c576000805461ff0019169055505050565b600054610100900460ff168061210e575060005460ff16155b61212a5760405162461bcd60e51b815260040161074790612e62565b600054610100900460ff1615801561214c576000805461ffff19166101011790555b612154612004565b61215c612004565b611061612004565b60006001600160a01b0384163b1561225a57604051630a85bd0160e11b81526001600160a01b0385169063150b7a02906121a8903390899088908890600401612f47565b6020604051808303816000875af19250505080156121e3575060408051601f3d908101601f191682019092526121e091810190612f84565b60015b612240573d808015612211576040519150601f19603f3d011682016040523d82523d6000602084013e612216565b606091505b5080516000036122385760405162461bcd60e51b815260040161074790612ec3565b805181602001fd5b6001600160e01b031916630a85bd0160e11b149050611778565b506001949350505050565b60006001600160e01b0319821663780e9d6360e01b148061063a575061063a82612568565b6001600160a01b0382166122e05760405162461bcd60e51b815260206004820181905260248201527f4552433732313a206d696e7420746f20746865207a65726f20616464726573736044820152606401610747565b6000818152606760205260409020546001600160a01b0316156123455760405162461bcd60e51b815260206004820152601c60248201527f4552433732313a20746f6b656e20616c7265616479206d696e746564000000006044820152606401610747565b61235160008383611f1c565b6001600160a01b038216600090815260686020526040812080546001929061237a908490612b97565b909155505060008181526067602052604080822080546001600160a01b0319166001600160a01b03861690811790915590518392907fddf252ad1be2c89b69c2b068fc378daa952ba7f163c4a11628f55a4df523b3ef908290a45050565b600060016123e584610e82565b6123ef9190612eb0565b600083815260986020526040902054909150808214612442576001600160a01b03841660009081526097602090815260408083208584528252808320548484528184208190558352609890915290208190555b5060009182526098602090815260408084208490556001600160a01b039094168352609781528383209183525290812055565b60995460009061248790600190612eb0565b6000838152609a6020526040812054609980549394509092849081106124af576124af612baa565b9060005260206000200154905080609983815481106124d0576124d0612baa565b6000918252602080832090910192909255828152609a9091526040808220849055858252812055609980548061250857612508612f15565b6001900381819060005260206000200160009055905550505050565b600061252f83610e82565b6001600160a01b039093166000908152609760209081526040808320868452825280832085905593825260989052919091209190915550565b60006001600160e01b031982166380ac58cd60e01b148061259957506001600160e01b03198216635b5e139f60e01b145b8061063a57506301ffc9a760e01b6001600160e01b031983161461063a565b50805460008255906000526020600020908101906110739190612610565b5080546125e290612bd9565b6000825580601f106125f2575050565b601f0160209004906000526020600020908101906110739190612631565b8082111561262d57600061262482826125d6565b50600101612610565b5090565b5b8082111561262d5760008155600101612632565b6000806040838503121561265957600080fd5b50508035926020909101359150565b6020808252825182820181905260009190848201906040850190845b818110156126a057835183529284019291840191600101612684565b50909695505050505050565b6001600160e01b03198116811461107357600080fd5b6000602082840312156126d457600080fd5b81356126df816126ac565b9392505050565b60005b838110156127015781810151838201526020016126e9565b50506000910152565b600081518084526127228160208601602086016126e6565b601f01601f19169290920160200192915050565b6020815260006126df602083018461270a565b60006020828403121561275b57600080fd5b5035919050565b80356001600160a01b0381168114611ce157600080fd5b6000806040838503121561278c57600080fd5b61279583612762565b946020939093013593505050565b6000806000604084860312156127b857600080fd5b83359250602084013567ffffffffffffffff808211156127d757600080fd5b818601915086601f8301126127eb57600080fd5b8135818111156127fa57600080fd5b87602082850101111561280c57600080fd5b6020830194508093505050509250925092565b60008060006060848603121561283457600080fd5b61283d84612762565b925061284b60208501612762565b9150604084013590509250925092565b634e487b7160e01b600052604160045260246000fd5b604051601f8201601f1916810167ffffffffffffffff8111828210171561289a5761289a61285b565b604052919050565b600067ffffffffffffffff8311156128bc576128bc61285b565b6128cf601f8401601f1916602001612871565b90508281528383830111156128e357600080fd5b828260208301376000602084830101529392505050565b600080604080848603121561290e57600080fd5b8335925060208085013567ffffffffffffffff8082111561292e57600080fd5b818701915087601f83011261294257600080fd5b8135818111156129545761295461285b565b8060051b612963858201612871565b918252838101850191858101908b84111561297d57600080fd5b86860192505b838310156129cd5782358581111561299b5760008081fd5b8601603f81018d136129ad5760008081fd5b6129bd8d898301358b84016128a2565b8352509186019190860190612983565b80985050505050505050509250929050565b6000602080830181845280855180835260408601915060408160051b870101925083870160005b82811015612a3457603f19888603018452612a2285835161270a565b94509285019290850190600101612a06565b5092979650505050505050565b600060208284031215612a5357600080fd5b6126df82612762565b8415158152836020820152608060408201526000612a7d608083018561270a565b905060018060a01b038316606083015295945050505050565b60008060408385031215612aa957600080fd5b612ab283612762565b915060208301358015158114612ac757600080fd5b809150509250929050565b60008060008060808587031215612ae857600080fd5b612af185612762565b9350612aff60208601612762565b925060408501359150606085013567ffffffffffffffff811115612b2257600080fd5b8501601f81018713612b3357600080fd5b612b42878235602084016128a2565b91505092959194509250565b60008060408385031215612b6157600080fd5b612b6a83612762565b9150612b7860208401612762565b90509250929050565b634e487b7160e01b600052601160045260246000fd5b8082018082111561063a5761063a612b81565b634e487b7160e01b600052603260045260246000fd5b600060018201612bd257612bd2612b81565b5060010190565b600181811c90821680612bed57607f821691505b602082108103612c0d57634e487b7160e01b600052602260045260246000fd5b50919050565b601f82111561087c57600081815260208120601f850160051c81016020861015612c3a5750805b601f850160051c820191505b81811015612c5957828155600101612c46565b505050505050565b67ffffffffffffffff831115612c7957612c7961285b565b612c8d83612c878354612bd9565b83612c13565b6000601f841160018114612cc15760008515612ca95750838201355b600019600387901b1c1916600186901b178355612d1b565b600083815260209020601f19861690835b82811015612cf25786850135825560209485019460019092019101612cd2565b5086821015612d0f5760001960f88860031b161c19848701351681555b505060018560011b0183555b5050505050565b60208152816020820152818360408301376000818301604090810191909152601f909201601f19160101919050565b60208082526031908201527f4552433732313a207472616e736665722063616c6c6572206973206e6f74206f6040820152701ddb995c881b9bdc88185c1c1c9bdd9959607a1b606082015260800190565b815167ffffffffffffffff811115612dbc57612dbc61285b565b612dd081612dca8454612bd9565b84612c13565b602080601f831160018114612e055760008415612ded5750858301515b600019600386901b1c1916600185901b178555612c59565b600085815260208120601f198616915b82811015612e3457888601518255948401946001909101908401612e15565b5085821015612e525787850151600019600388901b60f8161c191681555b5050505050600190811b01905550565b6020808252602e908201527f496e697469616c697a61626c653a20636f6e747261637420697320616c72656160408201526d191e481a5b9a5d1a585b1a5e995960921b606082015260800190565b8181038181111561063a5761063a612b81565b60208082526032908201527f4552433732313a207472616e7366657220746f206e6f6e20455243373231526560408201527131b2b4bb32b91034b6b83632b6b2b73a32b960711b606082015260800190565b634e487b7160e01b600052603160045260246000fd5b60008251612f3d8184602087016126e6565b9190910192915050565b6001600160a01b0385811682528416602082015260408101839052608060608201819052600090612f7a9083018461270a565b9695505050505050565b600060208284031215612f9657600080fd5b81516126df816126ac56fea2646970667358221220f83dad5f8efd02a83d848ada051801f029b2cd2322bec6d67025434a6040af5164736f6c63430008110033",
  "linkReferences": {},
  "deployedLinkReferences": {}
}