{
  "_format": "hh-sol-artifact-1",
  "contractName": "OrgIdUpgradeabilityTest",
  "sourceName": "contracts/test/OrgIdUpgradeabilityTest.sol",
  "abi": [
    {
      "inputs": [],
      "name": "CalledNotByOrgIdOwner",
      "type": "error"
    },
    {
      "inputs": [
        {
          "internalType": "bytes32",
          "name": "versionDomain",
          "type": "bytes32"
        }
      ],
      "name": "ContractAlreadyInitialized",
      "type": "error"
    },
    {
      "inputs": [],
      "name": "InvalidDelegatesInput",
      "type": "error"
    },
    {
      "inputs": [
        {
          "internalType": "bytes32",
          "name": "orgId",
          "type": "bytes32"
        }
      ],
      "name": "OrgIdAlreadyExists",
      "type": "error"
    },
    {
      "inputs": [
        {
          "internalType": "bytes32",
          "name": "orgId",
          "type": "bytes32"
        }
      ],
      "name": "OrgIdNotFound",
      "type": "error"
    },
    {
      "inputs": [],
      "name": "OrgJsonUriEmpty",
      "type": "error"
    },
    {
      "inputs": [
        {
          "internalType": "uint256",
          "name": "tokenId",
          "type": "uint256"
        }
      ],
      "name": "TokenNotFound",
      "type": "error"
    },
    {
      "anonymous": false,
      "inputs": [
        {
          "indexed": true,
          "internalType": "address",
          "name": "owner",
          "type": "address"
        },
        {
          "indexed": true,
          "internalType": "address",
          "name": "approved",
          "type": "address"
        },
        {
          "indexed": true,
          "internalType": "uint256",
          "name": "tokenId",
          "type": "uint256"
        }
      ],
      "name": "Approval",
      "type": "event"
    },
    {
      "anonymous": false,
      "inputs": [
        {
          "indexed": true,
          "internalType": "address",
          "name": "owner",
          "type": "address"
        },
        {
          "indexed": true,
          "internalType": "address",
          "name": "operator",
          "type": "address"
        },
        {
          "indexed": false,
          "internalType": "bool",
          "name": "approved",
          "type": "bool"
        }
      ],
      "name": "ApprovalForAll",
      "type": "event"
    },
    {
      "anonymous": false,
      "inputs": [
        {
          "indexed": true,
          "internalType": "bytes32",
          "name": "orgId",
          "type": "bytes32"
        },
        {
          "indexed": true,
          "internalType": "address",
          "name": "owner",
          "type": "address"
        }
      ],
      "name": "OrgIdCreated",
      "type": "event"
    },
    {
      "anonymous": false,
      "inputs": [
        {
          "indexed": true,
          "internalType": "bytes32",
          "name": "orgId",
          "type": "bytes32"
        },
        {
          "indexed": false,
          "internalType": "string[]",
          "name": "delegates",
          "type": "string[]"
        }
      ],
      "name": "OrgIdDelegatesAdded",
      "type": "event"
    },
    {
      "anonymous": false,
      "inputs": [
        {
          "indexed": true,
          "internalType": "bytes32",
          "name": "orgId",
          "type": "bytes32"
        },
        {
          "indexed": false,
          "internalType": "string[]",
          "name": "delegates",
          "type": "string[]"
        }
      ],
      "name": "OrgIdDelegatesRemoved",
      "type": "event"
    },
    {
      "anonymous": false,
      "inputs": [
        {
          "indexed": true,
          "internalType": "bytes32",
          "name": "orgId",
          "type": "bytes32"
        },
        {
          "indexed": false,
          "internalType": "string",
          "name": "orgJsonUri",
          "type": "string"
        }
      ],
      "name": "OrgJsonUriChanged",
      "type": "event"
    },
    {
      "anonymous": false,
      "inputs": [
        {
          "indexed": true,
          "internalType": "address",
          "name": "from",
          "type": "address"
        },
        {
          "indexed": true,
          "internalType": "address",
          "name": "to",
          "type": "address"
        },
        {
          "indexed": true,
          "internalType": "uint256",
          "name": "tokenId",
          "type": "uint256"
        }
      ],
      "name": "Transfer",
      "type": "event"
    },
    {
      "inputs": [],
      "name": "__OrgIdV2_init",
      "outputs": [],
      "stateMutability": "nonpayable",
      "type": "function"
    },
    {
      "inputs": [
        {
          "internalType": "bytes32",
          "name": "orgId",
          "type": "bytes32"
        },
        {
          "internalType": "string[]",
          "name": "dids",
          "type": "string[]"
        }
      ],
      "name": "addDelegates",
      "outputs": [],
      "stateMutability": "nonpayable",
      "type": "function"
    },
    {
      "inputs": [
        {
          "internalType": "address",
          "name": "to",
          "type": "address"
        },
        {
          "internalType": "uint256",
          "name": "tokenId",
          "type": "uint256"
        }
      ],
      "name": "approve",
      "outputs": [],
      "stateMutability": "nonpayable",
      "type": "function"
    },
    {
      "inputs": [
        {
          "internalType": "address",
          "name": "owner",
          "type": "address"
        }
      ],
      "name": "balanceOf",
      "outputs": [
        {
          "internalType": "uint256",
          "name": "",
          "type": "uint256"
        }
      ],
      "stateMutability": "view",
      "type": "function"
    },
    {
      "inputs": [
        {
          "internalType": "bytes32",
          "name": "c__0x19e4eb6c",
          "type": "bytes32"
        }
      ],
      "name": "c_0x19e4eb6c",
      "outputs": [],
      "stateMutability": "pure",
      "type": "function"
    },
    {
      "inputs": [
        {
          "internalType": "bytes32",
          "name": "c__0x2664f453",
          "type": "bytes32"
        }
      ],
      "name": "c_0x2664f453",
      "outputs": [],
      "stateMutability": "pure",
      "type": "function"
    },
    {
      "inputs": [
        {
          "internalType": "bytes32",
          "name": "c__0x3bed8f0b",
          "type": "bytes32"
        }
      ],
      "name": "c_0x3bed8f0b",
      "outputs": [],
      "stateMutability": "pure",
      "type": "function"
    },
    {
      "inputs": [
        {
          "internalType": "bytes32",
          "name": "c__0x44655cf7",
          "type": "bytes32"
        }
      ],
      "name": "c_0x44655cf7",
      "outputs": [],
      "stateMutability": "pure",
      "type": "function"
    },
    {
      "inputs": [
        {
          "internalType": "bytes32",
          "name": "c__0xc39a2e1c",
          "type": "bytes32"
        }
      ],
      "name": "c_0xc39a2e1c",
      "outputs": [],
      "stateMutability": "pure",
      "type": "function"
    },
    {
      "inputs": [
        {
          "internalType": "bytes32",
          "name": "c__0xf29f1bae",
          "type": "bytes32"
        }
      ],
      "name": "c_0xf29f1bae",
      "outputs": [],
      "stateMutability": "pure",
      "type": "function"
    },
    {
      "inputs": [
        {
          "internalType": "bytes32",
          "name": "c__0xf78ce2b1",
          "type": "bytes32"
        }
      ],
      "name": "c_0xf78ce2b1",
      "outputs": [],
      "stateMutability": "pure",
      "type": "function"
    },
    {
      "inputs": [
        {
          "internalType": "bytes32",
          "name": "salt",
          "type": "bytes32"
        },
        {
          "internalType": "string",
          "name": "orgJsonUri",
          "type": "string"
        }
      ],
      "name": "createOrgId",
      "outputs": [],
      "stateMutability": "nonpayable",
      "type": "function"
    },
    {
      "inputs": [
        {
          "internalType": "uint256",
          "name": "tokenId",
          "type": "uint256"
        }
      ],
      "name": "getApproved",
      "outputs": [
        {
          "internalType": "address",
          "name": "",
          "type": "address"
        }
      ],
      "stateMutability": "view",
      "type": "function"
    },
    {
      "inputs": [
        {
          "internalType": "bytes32",
          "name": "orgId",
          "type": "bytes32"
        }
      ],
      "name": "getDelegates",
      "outputs": [
        {
          "internalType": "string[]",
          "name": "dids",
          "type": "string[]"
        }
      ],
      "stateMutability": "view",
      "type": "function"
    },
    {
      "inputs": [
        {
          "internalType": "uint256",
          "name": "tokenId",
          "type": "uint256"
        }
      ],
      "name": "getOrgId",
      "outputs": [
        {
          "internalType": "bool",
          "name": "exists",
          "type": "bool"
        },
        {
          "internalType": "bytes32",
          "name": "orgId",
          "type": "bytes32"
        },
        {
          "internalType": "string",
          "name": "orgJsonUri",
          "type": "string"
        },
        {
          "internalType": "address",
          "name": "owner",
          "type": "address"
        }
      ],
      "stateMutability": "view",
      "type": "function"
    },
    {
      "inputs": [
        {
          "internalType": "uint256",
          "name": "cursor",
          "type": "uint256"
        },
        {
          "internalType": "uint256",
          "name": "count",
          "type": "uint256"
        }
      ],
      "name": "getOrgIds",
      "outputs": [
        {
          "internalType": "bytes32[]",
          "name": "orgIds",
          "type": "bytes32[]"
        }
      ],
      "stateMutability": "view",
      "type": "function"
    },
    {
      "inputs": [],
      "name": "getOrgIds",
      "outputs": [
        {
          "internalType": "bytes32[]",
          "name": "orgIds",
          "type": "bytes32[]"
        }
      ],
      "stateMutability": "view",
      "type": "function"
    },
    {
      "inputs": [
        {
          "internalType": "bytes32",
          "name": "orgId",
          "type": "bytes32"
        }
      ],
      "name": "getTokenId",
      "outputs": [
        {
          "internalType": "uint256",
          "name": "tokenId",
          "type": "uint256"
        }
      ],
      "stateMutability": "view",
      "type": "function"
    },
    {
      "inputs": [],
      "name": "initialize",
      "outputs": [],
      "stateMutability": "nonpayable",
      "type": "function"
    },
    {
      "inputs": [
        {
          "internalType": "address",
          "name": "owner",
          "type": "address"
        },
        {
          "internalType": "address",
          "name": "operator",
          "type": "address"
        }
      ],
      "name": "isApprovedForAll",
      "outputs": [
        {
          "internalType": "bool",
          "name": "",
          "type": "bool"
        }
      ],
      "stateMutability": "view",
      "type": "function"
    },
    {
      "inputs": [],
      "name": "name",
      "outputs": [
        {
          "internalType": "string",
          "name": "",
          "type": "string"
        }
      ],
      "stateMutability": "view",
      "type": "function"
    },
    {
      "inputs": [
        {
          "internalType": "uint256",
          "name": "tokenId",
          "type": "uint256"
        }
      ],
      "name": "ownerOf",
      "outputs": [
        {
          "internalType": "address",
          "name": "",
          "type": "address"
        }
      ],
      "stateMutability": "view",
      "type": "function"
    },
    {
      "inputs": [
        {
          "internalType": "bytes32",
          "name": "orgId",
          "type": "bytes32"
        }
      ],
      "name": "removeDelegates",
      "outputs": [],
      "stateMutability": "nonpayable",
      "type": "function"
    },
    {
      "inputs": [
        {
          "internalType": "bytes32",
          "name": "orgId",
          "type": "bytes32"
        },
        {
          "internalType": "string[]",
          "name": "dids",
          "type": "string[]"
        }
      ],
      "name": "removeDelegates",
      "outputs": [],
      "stateMutability": "nonpayable",
      "type": "function"
    },
    {
      "inputs": [
        {
          "internalType": "address",
          "name": "from",
          "type": "address"
        },
        {
          "internalType": "address",
          "name": "to",
          "type": "address"
        },
        {
          "internalType": "uint256",
          "name": "tokenId",
          "type": "uint256"
        }
      ],
      "name": "safeTransferFrom",
      "outputs": [],
      "stateMutability": "nonpayable",
      "type": "function"
    },
    {
      "inputs": [
        {
          "internalType": "address",
          "name": "from",
          "type": "address"
        },
        {
          "internalType": "address",
          "name": "to",
          "type": "address"
        },
        {
          "internalType": "uint256",
          "name": "tokenId",
          "type": "uint256"
        },
        {
          "internalType": "bytes",
          "name": "_data",
          "type": "bytes"
        }
      ],
      "name": "safeTransferFrom",
      "outputs": [],
      "stateMutability": "nonpayable",
      "type": "function"
    },
    {
      "inputs": [
        {
          "internalType": "address",
          "name": "operator",
          "type": "address"
        },
        {
          "internalType": "bool",
          "name": "approved",
          "type": "bool"
        }
      ],
      "name": "setApprovalForAll",
      "outputs": [],
      "stateMutability": "nonpayable",
      "type": "function"
    },
    {
      "inputs": [
        {
          "internalType": "bytes32",
          "name": "orgId",
          "type": "bytes32"
        },
        {
          "internalType": "string",
          "name": "orgJsonUri",
          "type": "string"
        }
      ],
      "name": "setOrgJson",
      "outputs": [],
      "stateMutability": "nonpayable",
      "type": "function"
    },
    {
      "inputs": [
        {
          "internalType": "bytes4",
          "name": "interfaceId",
          "type": "bytes4"
        }
      ],
      "name": "supportsInterface",
      "outputs": [
        {
          "internalType": "bool",
          "name": "",
          "type": "bool"
        }
      ],
      "stateMutability": "view",
      "type": "function"
    },
    {
      "inputs": [],
      "name": "symbol",
      "outputs": [
        {
          "internalType": "string",
          "name": "",
          "type": "string"
        }
      ],
      "stateMutability": "view",
      "type": "function"
    },
    {
      "inputs": [
        {
          "internalType": "uint256",
          "name": "index",
          "type": "uint256"
        }
      ],
      "name": "tokenByIndex",
      "outputs": [
        {
          "internalType": "uint256",
          "name": "",
          "type": "uint256"
        }
      ],
      "stateMutability": "view",
      "type": "function"
    },
    {
      "inputs": [
        {
          "internalType": "address",
          "name": "owner",
          "type": "address"
        },
        {
          "internalType": "uint256",
          "name": "index",
          "type": "uint256"
        }
      ],
      "name": "tokenOfOwnerByIndex",
      "outputs": [
        {
          "internalType": "uint256",
          "name": "",
          "type": "uint256"
        }
      ],
      "stateMutability": "view",
      "type": "function"
    },
    {
      "inputs": [
        {
          "internalType": "uint256",
          "name": "tokenId",
          "type": "uint256"
        }
      ],
      "name": "tokenURI",
      "outputs": [
        {
          "internalType": "string",
          "name": "",
          "type": "string"
        }
      ],
      "stateMutability": "view",
      "type": "function"
    },
    {
      "inputs": [],
      "name": "totalSupply",
      "outputs": [
        {
          "internalType": "uint256",
          "name": "",
          "type": "uint256"
        }
      ],
      "stateMutability": "view",
      "type": "function"
    },
    {
      "inputs": [
        {
          "internalType": "address",
          "name": "from",
          "type": "address"
        },
        {
          "internalType": "address",
          "name": "to",
          "type": "address"
        },
        {
          "internalType": "uint256",
          "name": "tokenId",
          "type": "uint256"
        }
      ],
      "name": "transferFrom",
      "outputs": [],
      "stateMutability": "nonpayable",
      "type": "function"
    },
    {
      "inputs": [],
      "name": "version",
      "outputs": [
        {
          "internalType": "string",
          "name": "",
          "type": "string"
        }
      ],
      "stateMutability": "view",
      "type": "function"
    }
  ],
  "bytecode": "0x60806040523480156200001157600080fd5b50618b9680620000226000396000f3fe608060405234801561001057600080fd5b506004361061021c5760003560e01c80636352211e11610125578063a22cb465116100ad578063c9cb65e11161007c578063c9cb65e114610634578063dfe0f51114610664578063e4f6499014610680578063e985e9c51461069e578063ed1a690d146106ce5761021c565b8063a22cb465146105b0578063b88d4fde146105cc578063bc52570b146105e8578063c87b56dd146106045761021c565b80638129fc1c116100f45780638129fc1c1461051d57806385af5d43146105275780638d2e61c41461054357806395d89b411461055f57806398980a8a1461057d5761021c565b80636352211e1461048357806363ceab54146104b357806370a08231146104e357806374427b1e146105135761021c565b8063203ecf7f116101a857806341e0460b1161017757806341e0460b146103e157806342842e0e146103fd5780634f6ccce71461041957806354fd4d50146104495780635d96b739146104675761021c565b8063203ecf7f1461035d57806323b872dd146103795780632f745c591461039557806335178d91146103c55761021c565b806308800768116101ef57806308800768146102cf578063095ea7b3146102eb5780630ad0abce146103075780630ead1d2d1461032357806318160ddd1461033f5761021c565b80630193eda61461022157806301ffc9a71461025157806306fdde0314610281578063081812fc1461029f575b600080fd5b61023b60048036038101906102369190617912565b6106ea565b6040516102489190617ead565b60405180910390f35b61026b6004803603810190610266919061788b565b610e13565b6040516102789190617ef1565b60405180910390f35b610289610ea9565b6040516102969190617f97565b60405180910390f35b6102b960048036038101906102b491906178e5565b610f3b565b6040516102c69190617e46565b60405180910390f35b6102e960048036038101906102e491906177a2565b610fc0565b005b61030560048036038101906103009190617762565b610fc3565b005b610321600480360381019061031c919061782b565b6110db565b005b61033d600480360381019061033891906177a2565b611822565b005b610347611825565b60405161035491906181b9565b60405180910390f35b610377600480360381019061037291906177a2565b611832565b005b610393600480360381019061038e919061764c565b611835565b005b6103af60048036038101906103aa9190617762565b611895565b6040516103bc91906181b9565b60405180910390f35b6103df60048036038101906103da919061782b565b61193a565b005b6103fb60048036038101906103f691906177a2565b611ea4565b005b6104176004803603810190610412919061764c565b611ea7565b005b610433600480360381019061042e91906178e5565b611ec7565b60405161044091906181b9565b60405180910390f35b610451611f38565b60405161045e9190617f97565b60405180910390f35b610481600480360381019061047c91906177cf565b61204f565b005b61049d600480360381019061049891906178e5565b6127a5565b6040516104aa9190617e46565b60405180910390f35b6104cd60048036038101906104c891906177a2565b612857565b6040516104da9190617ecf565b60405180910390f35b6104fd60048036038101906104f891906175df565b612900565b60405161050a91906181b9565b60405180910390f35b61051b6129b8565b005b610525612cc9565b005b610541600480360381019061053c91906177a2565b612efa565b005b61055d600480360381019061055891906177a2565b612efd565b005b610567612f00565b6040516105749190617f97565b60405180910390f35b610597600480360381019061059291906178e5565b612f92565b6040516105a79493929190617f0c565b60405180910390f35b6105ca60048036038101906105c59190617722565b6132b2565b005b6105e660048036038101906105e1919061769f565b613433565b005b61060260048036038101906105fd91906177a2565b613495565b005b61061e600480360381019061061991906178e5565b613a58565b60405161062b9190617f97565b60405180910390f35b61064e600480360381019061064991906177a2565b613ca7565b60405161065b91906181b9565b60405180910390f35b61067e600480360381019061067991906177cf565b613d48565b005b61068861449f565b6040516106959190617ead565b60405180910390f35b6106b860048036038101906106b3919061760c565b61457b565b6040516106c59190617ef1565b60405180910390f35b6106e860048036038101906106e391906177a2565b61460f565b005b60606107187fd8e7d57c01c379fac66cbc8d9fa04d828132d6185262ae0a7b3fb211de23ba0f60001b612efa565b6107447f5b146a09148f24aa213b5d9aca65cba9eb2676170f10e180285f9c745ab44a5760001b612efa565b6107707fdb8527043f01ab38cf1ffb956fa801f2a2bf7cf05dc3988262f322d31e99a0a360001b612efa565b60008267ffffffffffffffff81111561078c5761078b61862d565b5b6040519080825280602002602001820160405280156107ba5781602001602082028036833780820191505090505b5090506107e87ee1357599482cdce9bd26d70c8c00799235ecd22de40f64035668d41bd2526a60001b612efa565b6108147fdd0f659d2271d67140d44910f5b29814e0db722b663503325049d2ee8350a4b160001b612efa565b60006108427f968122dceded9975b1cedae956668fefb53846cdf7f8e6cf1ce27e30ce5de68360001b612efa565b61086e7ffe31cbaaf4e0934f961fb4b64e7907b306f3f30108c14aa1397ab77208a2c9ca60001b612efa565b600061089c7f13e8943af175cd90955c5d04b42f1568a03f6992e6a651fc5b8f1630fdc3d58360001b612efa565b6108c87faa4547f57dddaf11b202655089a4e8c07cc10d3a21563a1498bb89cde2aff41f60001b612efa565b60008690505b60cc80549050811080156108ec575085876108e9919061834d565b81105b15610aec5761091d7f2f6176f5ea2f6f0829efeb551ded4370b9cc6192a55f478f7beec68ab14eb20f60001b612efa565b6109497fa1a2bb582c9a96ce10ba8512260d5b91a78d4a1520b2ef7732af1f49d247e92460001b612efa565b60cc818154811061095d5761095c6185fe565b5b906000526020600020015484848151811061097b5761097a6185fe565b5b6020026020010181815250506109b37f8efc1b320d477d2577d3dfa557fc0801209465952cb99ee38f7a6e48fff77d5360001b612efa565b6109df7f93c30962a967bb17f475025210fa627e6135057562e66903c7bdeefd88b991f660001b612efa565b6000801b60cc82815481106109f7576109f66185fe565b5b906000526020600020015414610a7257610a337f176aa0d47c8335590033d40d041c35478ff1e9dde83ed5688d80fd9e4c575c4860001b612efa565b610a5f7f872cae219a15dcff9bf7b50203318174318442bb705d85e9f701d319688a69cb60001b612efa565b8180610a6a906184fa565b925050610a9f565b610a9e7f9c36c99d064ef04c128e4ce711df5d693d399add47ab310f02ead86f1b0dfaa760001b612efa565b5b610acb7fc33e6659b697da236991f886fed15d692ea1c7d8e4a5ff8421a8446d3eaf7f0260001b612efa565b8280610ad6906184fa565b9350508080610ae4906184fa565b9150506108ce565b50610b197f14159c6d79f8d2c3cbb90686960b1d45b48d5f86c05e0f88e6612c9647f1c39960001b612efa565b610b457f597a3aab40e37d0438c2fa620a638ee3979f9e91b0d95a51b3ac979231fd6c9a60001b612efa565b8067ffffffffffffffff811115610b5f57610b5e61862d565b5b604051908082528060200260200182016040528015610b8d5781602001602082028036833780820191505090505b509350610bbc7f8918996e71819f47d671136e62968a65fa1c525f36a3897e8f45cbff41a91f7c60001b612efa565b610be87f74efcdc59c5c9bdfa83017f02ea2bc437784474afa50e09a4e4cef097717dab560001b612efa565b60009150610c187f13e65fc20f8b1de3f15123254dae2def9508d9966db218d388f1342ec5a0eac560001b612efa565b610c447f46aafcde6ba2c93b739ea4c64213e6c45be8c88387e73268d383e203496403be60001b612efa565b60005b8351811015610e0957610c7c7f77440fb7e61a398b7fa8cac2887758f543477de29871032d7451d18631cea64460001b612efa565b610ca87ff816ebfa9b65a336e7c85c6e8d9c51a5fe55c9af76f78569f9c1d47314704e0760001b612efa565b6000801b848281518110610cbf57610cbe6185fe565b5b602002602001015114610dc957610cf87fa5eb310e1b2e515bec99bafc93c004a828ffe9a85407efeafdfb2af68871a88860001b612efa565b610d247fe6068c6d164eecf7d4b8c79354f3d2ebdcf5db2cf4284a26b50771ae39913be260001b612efa565b610d507fd5beb7b3f34e0c05ea1310b87556eb499b281de1e0ee197ba0f2bb0617830ef160001b612efa565b838181518110610d6357610d626185fe565b5b6020026020010151858481518110610d7e57610d7d6185fe565b5b602002602001018181525050610db67fbf2dce5ae35ae4b80a6a77f3b7102012693eff03c66607734a65e7366da9631660001b612efa565b8280610dc1906184fa565b935050610df6565b610df57fdab7c08754b34cb4a191016f295a197cb9d358c5e11c656e0ab4edea71ad9fa860001b612efa565b5b8080610e01906184fa565b915050610c47565b5050505092915050565b6000610e417f4b41f79acba7d346638eb971236ac54e54dce3c4e72a8ff585c969aa9f6b786160001b610fc0565b610e6d7fee27702d8634e1d17c61dad23850b8d310b4aef30799bcbb20477c31382b8b6760001b610fc0565b610e997fd6ab4ab32a71b93d35c87753819bc6704c54114717d2158c51ed3543b2d45ae560001b610fc0565b610ea282614612565b9050919050565b606060658054610eb890618497565b80601f0160208091040260200160405190810160405280929190818152602001828054610ee490618497565b8015610f315780601f10610f0657610100808354040283529160200191610f31565b820191906000526020600020905b815481529060010190602001808311610f1457829003601f168201915b5050505050905090565b6000610f4682614710565b610f85576040517f08c379a0000000000000000000000000000000000000000000000000000000008152600401610f7c90618119565b60405180910390fd5b6069600083815260200190815260200160002060009054906101000a900473ffffffffffffffffffffffffffffffffffffffff169050919050565b50565b6000610fce826127a5565b90508073ffffffffffffffffffffffffffffffffffffffff168373ffffffffffffffffffffffffffffffffffffffff16141561103f576040517f08c379a000000000000000000000000000000000000000000000000000000000815260040161103690618159565b60405180910390fd5b8073ffffffffffffffffffffffffffffffffffffffff1661105e61477c565b73ffffffffffffffffffffffffffffffffffffffff16148061108d575061108c8161108761477c565b61457b565b5b6110cc576040517f08c379a00000000000000000000000000000000000000000000000000000000081526004016110c390618079565b60405180910390fd5b6110d68383614784565b505050565b6111077f2b8a41091866028acf39357e125372f8b3da25bc799d90fd5e20c8fba278d7a860001b612efa565b6111337f7ae593114728777c580022130316144de5ef7a6c28de83d3002a9a1c7341379460001b612efa565b61115f7f72b5cca4790eb17eed1042a443ebc4c88a5256d04da8be9052b9c77df682239660001b612efa565b60008282905014156111f5576111977f1f881b034ceffea6917ebc6f1b918e521379a7092b77bd9a58e8a4cf94fb712e60001b612efa565b6111c37f2f1ed7139430a377c50a50207b4ba91e102f2789208d11832d00cd31dd8a7a4e60001b612efa565b6040517ffc3829fc00000000000000000000000000000000000000000000000000000000815260040160405180910390fd5b6112217fc981e9a1de61c00e509523aa83040f79a4cd62366e482eaefedb811c39ee9bd460001b612efa565b61124d7f525b6bc51cce58df716207cc19449b0a4ec19c678c0b9167d27dfa41c0a1a61e60001b612efa565b6112797fb540b35200061430ad45a9a0805f5190233f3699e1a930eb1209b67928e376e560001b612efa565b600061128361477c565b90506112b17f758d47aad4126c9b25edb3dc20082d50650ac287fd3983a11792a5d51fb9f54f60001b612efa565b6112dd7f33cd42d6d0317bfc3d390c5f436266d7935bc4890d719a348b5c6b96ea49dd9060001b612efa565b600081856040516020016112f2929190617e03565b6040516020818303038152906040528051906020012090506113367fba6fc30a8f6b980870c86b59af4d506969fce92b7edab8ff9b5fe3ea324f53a560001b612efa565b6113627f2fc753f9d8d1135837ed549c9c0a26e48863d2918d46a25fdd81e3e977cde69a60001b612efa565b60cc8190806001815401808255809150506001900390600052602060002001600090919091909150556113b77ff76eebb515e8aebfbbddc7736359d217269c6583709581be51e18e77df25a9df60001b612efa565b6113e37f518d5da3148c6da0a5107cc8edc8f6c4f5bd5c3004faac5ca60419cf3366e23460001b612efa565b600060c9600083815260200190815260200160002054146114935761142a7f42400690b7bd958083bddbb960e49897cbd8bd6ab9f2abf0a4e9f9ec075cf4bf60001b612efa565b6114567f1b488d1c7daedc77d11da60efcb7c273f61a2aebfc17283922e25624324d11c160001b612efa565b806040517f58dc901300000000000000000000000000000000000000000000000000000000815260040161148a9190617f58565b60405180910390fd5b6114bf7f88eaa187091f21c327ab911890ccdcf700f0de60a4829c9164129a480ddbb55b60001b612efa565b6114eb7f63d67c4884a3e5373e1c8b58af6a23813bd236223e37358798f120cfdc11b0cf60001b612efa565b6115177f29d2f219c3c0ca7cd7c468c665766c5fc625094e1995beb2982823e60e49706360001b612efa565b60006001611523611825565b61152d919061834d565b905061155b7fb77bcc787baad330780f6ba4c0e235cf39daae46f040544a61985591c46b120060001b612efa565b6115877f53efdbf6e0e1810e3b36cd1b3b1cda3d0dc94ab90e38e0c6f1ca37705592f81060001b612efa565b611591838261483d565b6115bd7f3a6f939af25cac356a0b8d0257149720ab6f79b2486aa8f3b61b08d2a4f0cb5960001b612efa565b6115e97f0a8a0add4c818f6e72a971a20f26cba2e330a8336974b70509a9ac4290e6e4a760001b612efa565b8060c960008481526020019081526020016000208190555061162d7f160da43b4f08972bed528a451785490d8b04dda3e8b2faa9304eddea4538b1ac60001b612efa565b6116597fa67ca8cee02aa9e5dd32e96c0ac6f3e3b5f03f9a8628afb0dd04b60a7b5cc3cb60001b612efa565b8160ca60008381526020019081526020016000208190555061169d7fd9b7ad788c040862b20f5ff046cb788bbb84c40dd1239955520933ea693b7f2a60001b612efa565b6116c97f7bb9c82322c6b06d298999efaa00cee1529f6c1f50b6e00b557223c10327be1760001b612efa565b848460cb600084815260200190815260200160002091906116eb9291906171c1565b506117187f9934eb9188b879361d1d77bb328ad9100cc6022a704e9aa7a976293b7fc0c52b60001b612efa565b6117447f75e56114c1ad6f5a0e0d111d68e5d519b668cbda758c40580e0800556db4f08b60001b612efa565b8273ffffffffffffffffffffffffffffffffffffffff16827f49422f7ad2eca08595f1596952d2d805b5d5ba06f8c371dcb617c86a5b42ba0760405160405180910390a36117b47f7d3e4ce8ee0290e6e9d1f164cdc07edc5b534599e9445bc7934b145318e8f60560001b612efa565b6117e07f8ff49bf146951638f0e1fd3cad36d123d2eed0f7c7254885f623bdd18453cb4860001b612efa565b817f4e0249d19860daeb2f0627d804cc93426e237cb754fef478c3a6cbcbc27626578686604051611812929190617f73565b60405180910390a2505050505050565b50565b6000609980549050905090565b50565b61184661184061477c565b8261485b565b611885576040517f08c379a000000000000000000000000000000000000000000000000000000000815260040161187c90618179565b60405180910390fd5b611890838383614939565b505050565b60006118a083612900565b82106118e1576040517f08c379a00000000000000000000000000000000000000000000000000000000081526004016118d890617fb9565b60405180910390fd5b609760008473ffffffffffffffffffffffffffffffffffffffff1673ffffffffffffffffffffffffffffffffffffffff168152602001908152602001600020600083815260200190815260200160002054905092915050565b826119677fe2c8a8c128d5cc18c8829a1585fb21234e9a1954c5e076929835c56be423a65860001b612efa565b6119937ff23a7aa56730080fa3e0e43d026cfb5a8d860f73898bc4c886349221837c0e0060001b612efa565b6119bf7fa4d78f085442d0d24b647847dbcf4f177a07870bb6cd1bbd96162c24f6d8530460001b612efa565b6000801b8114806119e35750600060c9600083815260200190815260200160002054145b15611a7d57611a147f0f2495851de4278f80a327cc2b0809131ebdee7024f93c9bfff480f0af21fbd060001b612efa565b611a407fe0734e7a2773e66d4723aa5c1a6cc3b2cd1a2103a2b65d46e12062174028c55f60001b612efa565b806040517f87fe3aad000000000000000000000000000000000000000000000000000000008152600401611a749190617f58565b60405180910390fd5b611aa97f9eedb6fcce92818283b0b47bac3409802e3f98e3d8482240d941846faa25d8df60001b612efa565b611ad57fd60e2903b3aa5079b5a20b8165b9bcf1fb137993d711fa3891a4cccc14a0723060001b612efa565b611b017fb5f13655dc2b0734c8119a77750ce1f034d0987d1a9d2718e382f44390ae887260001b612efa565b611b0961477c565b73ffffffffffffffffffffffffffffffffffffffff16611b3b60c96000848152602001908152602001600020546127a5565b73ffffffffffffffffffffffffffffffffffffffff1614611be057611b827ffa3d20131447c953bd0c6b904732a951e70129dc51a5337622692a4467f2670560001b612efa565b611bae7f9ccc7dc5b0417438b3c56a3daa67e7b40bb2637eb1c1fead22a63499711a8d1e60001b612efa565b6040517fac25ca9e00000000000000000000000000000000000000000000000000000000815260040160405180910390fd5b611c0c7fd77e9835a0aeda14d5b5634bc9371259591b5fb6d6226f07f4b3d10570cf005360001b612efa565b611c387f1f2205f5a67124a81c5e62b68dfbb34998192e6b0b547856c2f718155ecc31cb60001b612efa565b611c647f9924f7f2fbaec70f56e9eeceba7a763f045cfdba7ddff21592710071fc51ddb060001b612efa565b611c907f4d743dd3dba078cdfddcb8134a60f5c0c03d528fd81062161ade9dbb93168f6460001b612efa565b611cbc7f9eb334e0a3b22cf3508308f74f77f579cd82a247dee5a097a7a0550a2e09ab4060001b612efa565b6000838390501415611d5257611cf47ff718d420ef3fe7ea5d56b6daaf12671ddfacd7178b173d2e78891a9d2cf5c64e60001b612efa565b611d207fa3cf8dcfc2ba6fef892cad81f86a3c9e543c72e46df2f9d23b821aa0a05d105a60001b612efa565b6040517ffc3829fc00000000000000000000000000000000000000000000000000000000815260040160405180910390fd5b611d7e7fd26e9a5f6a8726c69c5b4514901e690682fc512919eec1e9a84dc9f5ce2961c860001b612efa565b611daa7f2efdb57bed4eaefd3a4bb6b616349cc7c11c0dbbf6bd15589050812815915b3560001b612efa565b611dd67ffe6fef7c36c282f2c43228c49516cd4c618ab43ee301d39e9e6deb20bc6e651160001b612efa565b828260cb600060c960008981526020019081526020016000205481526020019081526020016000209190611e0b9291906171c1565b50611e387f39cffc45d1efc6e41e2ca1380f0604aad18478a41cc945e6573c7b3d9674c9b760001b612efa565b611e647f69f7766001c86a87b1e61f56bedff2e439a61274c657535ffb05aca6514841a960001b612efa565b837f4e0249d19860daeb2f0627d804cc93426e237cb754fef478c3a6cbcbc27626578484604051611e96929190617f73565b60405180910390a250505050565b50565b611ec283838360405180602001604052806000815250613433565b505050565b6000611ed1611825565b8210611f12576040517f08c379a0000000000000000000000000000000000000000000000000000000008152600401611f0990618199565b60405180910390fd5b60998281548110611f2657611f256185fe565b5b90600052602060002001549050919050565b6060611f667f3903ff2b53f463134a56c9b20f67ca351a1f1826571005b1ef7d949b45c8c32560001b611822565b611f927fb004aaf164d4c8f7b62ac4ed01e5378d4351fe2dbf2f28a59a7bfcebfb107e9e60001b611822565b611fbe7f37b1be90cf42a08e73a032a1f5f1f750c058c68a5417fef9efa00a72778c3d0b60001b611822565b6101348054611fcc90618497565b80601f0160208091040260200160405190810160405280929190818152602001828054611ff890618497565b80156120455780601f1061201a57610100808354040283529160200191612045565b820191906000526020600020905b81548152906001019060200180831161202857829003601f168201915b5050505050905090565b8161207c7fe2c8a8c128d5cc18c8829a1585fb21234e9a1954c5e076929835c56be423a65860001b612efa565b6120a87ff23a7aa56730080fa3e0e43d026cfb5a8d860f73898bc4c886349221837c0e0060001b612efa565b6120d47fa4d78f085442d0d24b647847dbcf4f177a07870bb6cd1bbd96162c24f6d8530460001b612efa565b6000801b8114806120f85750600060c9600083815260200190815260200160002054145b15612192576121297f0f2495851de4278f80a327cc2b0809131ebdee7024f93c9bfff480f0af21fbd060001b612efa565b6121557fe0734e7a2773e66d4723aa5c1a6cc3b2cd1a2103a2b65d46e12062174028c55f60001b612efa565b806040517f87fe3aad0000000000000000000000000000000000000000000000000000000081526004016121899190617f58565b60405180910390fd5b6121be7f9eedb6fcce92818283b0b47bac3409802e3f98e3d8482240d941846faa25d8df60001b612efa565b6121ea7fd60e2903b3aa5079b5a20b8165b9bcf1fb137993d711fa3891a4cccc14a0723060001b612efa565b6122167fb5f13655dc2b0734c8119a77750ce1f034d0987d1a9d2718e382f44390ae887260001b612efa565b61221e61477c565b73ffffffffffffffffffffffffffffffffffffffff1661225060c96000848152602001908152602001600020546127a5565b73ffffffffffffffffffffffffffffffffffffffff16146122f5576122977ffa3d20131447c953bd0c6b904732a951e70129dc51a5337622692a4467f2670560001b612efa565b6122c37f9ccc7dc5b0417438b3c56a3daa67e7b40bb2637eb1c1fead22a63499711a8d1e60001b612efa565b6040517fac25ca9e00000000000000000000000000000000000000000000000000000000815260040160405180910390fd5b6123217fd77e9835a0aeda14d5b5634bc9371259591b5fb6d6226f07f4b3d10570cf005360001b612efa565b61234d7f1f2205f5a67124a81c5e62b68dfbb34998192e6b0b547856c2f718155ecc31cb60001b612efa565b6123797f0cfc83ebfe672c126eeefaab2e8a3b35dc4772c62573db709ffc979c90b957b360001b612efd565b6123a57f1f84177acaa56be331d767dceeedbae755bda54cdf7cb2ec87b5dea69fa7a05960001b612efd565b6123d17f14208a83d578c84460eb46de1c1f5202401300b7e35f21ece0412ad7c961aa6360001b612efd565b600082511415612465576124077f8e23ffcad9aba9a21d6c47554cce0f2bf4e2c9dd8a0417de486745e81a3eda3460001b612efd565b6124337fb286e8f9c467e9151b51449a9575912783075b66954fe938430ab39764fc501c60001b612efd565b6040517f4816a76700000000000000000000000000000000000000000000000000000000815260040160405180910390fd5b6124917f135a828b1005fdf0747850da3b519e66c99bf5afa83711869157c0b5b319f69260001b612efd565b6124bd7fbcf998cbc0ebde2f84b632aa98364fe3767b1420c99858ba8fe570643d939dab60001b612efd565b6124e97fc43b58666e55bf297c19f73d5cfaf2653c70e5cdefce26544aa1f54cf50cf6d960001b612efd565b60006125177faf288bd48ddc71cada296a770307a4dc9ba60f16189c1f640719e4bccfc76e9760001b612efd565b6125427e657c371a9398a58bd64bc1eb05fe3be8fefff9295e37a1576c3e3890ff295360001b612efd565b60005b835181101561270e5761257a7f23f59b08e3b6b88aa3540dc55e807d83a008cd221d51e30b76f25c1ae7492d2660001b612efd565b6125a67f6282d67d760635d648c11db2d6d04d8f560684bb99f3272f981fcc6b48fb175360001b612efd565b6125e68482815181106125bc576125bb6185fe565b5b60200260200101516101006000888152602001908152602001600020614b9590919063ffffffff16565b91506126147f2feb7e46396a86342736918a5fb11eb008a0af1630fa04a70db4b8762e54016960001b612efd565b6126407f45f6c273391fb37968d7acb3a3b11bc273bfefde38821204e1582dfc7d53a5e060001b612efd565b816126cf576126717f95d292515c4108e0468b149d69e3843389cdb503d45447b8cf8137e2d831c5e860001b612efd565b61269d7f17b884c4aaf06a79b2122c2608af22b1dc281f0ff3a9f80244396208a45ed65e60001b612efd565b6040517f4816a76700000000000000000000000000000000000000000000000000000000815260040160405180910390fd5b6126fb7f91cfa7e22cc74b9ff34620da1c88da9aac881855e9a06221dd53d4cb65dcc8bb60001b612efd565b8080612706906184fa565b915050612545565b5061273b7f125c88dff11598063235f2da6c9fad61301be07cbee197487904607da32598df60001b612efd565b6127677f7ede007111366453fef1871a21066f4dc71ccfac59b2748ce20feab83360fa6860001b612efd565b837f9af1bf1f55d94dc29bfe249a6e5c1f9b82c06fee0cdaeada46f044b69f68c7cc846040516127979190617ecf565b60405180910390a250505050565b6000806067600084815260200190815260200160002060009054906101000a900473ffffffffffffffffffffffffffffffffffffffff169050600073ffffffffffffffffffffffffffffffffffffffff168173ffffffffffffffffffffffffffffffffffffffff16141561284e576040517f08c379a0000000000000000000000000000000000000000000000000000000008152600401612845906180b9565b60405180910390fd5b80915050919050565b60606128857fe7ca16945515578a78eb5217f049a8c02853c93728f385590e005b08d2a3602e60001b612efd565b6128b17f7bba11116f48035ced2a91045e80258969fe88c4104cffcfbc5792be1e45036d60001b612efd565b6128dd7f95dd431a8d0dccefaf4688203605f806f4e3198ab16dc53a37caa9a26da9ba2860001b612efd565b6128f9610100600084815260200190815260200160002061507d565b9050919050565b60008073ffffffffffffffffffffffffffffffffffffffff168273ffffffffffffffffffffffffffffffffffffffff161415612971576040517f08c379a000000000000000000000000000000000000000000000000000000000815260040161296890618099565b60405180910390fd5b606860008373ffffffffffffffffffffffffffffffffffffffff1673ffffffffffffffffffffffffffffffffffffffff168152602001908152602001600020549050919050565b7fded1bc4b362adace04037b7f4031e750ed9c50f2b9d021df6a563f7277b743cf612a057fd1fa1b4767da47489c735f36084df60b37d7ffa278a5e3b8e6823d83991adf8a60001b611ea4565b612a317f1630e26cb90ef8f1e98609fd6694807bf511fab5cb384ba174e403f210849c1160001b611ea4565b612a5d7fadc1e4bdaa20ab3e446f24f72fc6719a1619867f75008a002933742c02783ae760001b611ea4565b610101600082815260200190815260200160002060009054906101000a900460ff1615612b1857612ab07f139eeeaa352bad50dcda84e7af097fc23242a9afc909236e870458e7438a692260001b611ea4565b612adc7f465a947a89a23242ba5a201a88e232dc5fc3cbb065c7f323f27e8c614b71d3e560001b611ea4565b806040517eb86962000000000000000000000000000000000000000000000000000000008152600401612b0f9190617f58565b60405180910390fd5b612b447feaf438cc32e3960a09332ba375c9034d035b63665af067dbb0434ec985004ef360001b611ea4565b612b707ff6acb0867bfbfa44e3c9c81d84c21f1f1f01bc5e8360992a55ea03fb9f89caa460001b611ea4565b612b9c7f7d0d07cc209c6583d5f6787cf676dd86ca690475a321da51f171c959d2e9427060001b611822565b612bc87f6d1c08abad07ba84a95812bef1859a4fc9dc5e1b9fabe4e4d801cf822b1d839860001b611822565b612bf47f1b48c02a7de772be285c9376840a708d65e28cd09bcad09143c21f20210d4bfd60001b611822565b6040518060400160405280600281526020017f56320000000000000000000000000000000000000000000000000000000000008152506101349080519060200190612c40929190617247565b50612c6d7f5524dff51333aa15c8d832303931786b72788fb6ed1dde8e1652f47eba55b24560001b611ea4565b612c997f047b84365dc3324db3e41d63c7983912a1bcdc2197397bafa61989434f56fa9060001b611ea4565b6001610101600083815260200190815260200160002060006101000a81548160ff02191690831515021790555050565b600060019054906101000a900460ff1680612cef575060008054906101000a900460ff16155b612d2e576040517f08c379a0000000000000000000000000000000000000000000000000000000008152600401612d25906180d9565b60405180910390fd5b60008060019054906101000a900460ff161590508015612d7e576001600060016101000a81548160ff02191690831515021790555060016000806101000a81548160ff0219169083151502179055505b612daa7f649979ae8400f3711b2af97f9db8af3d72e967c50d92b4dda7870aa050b2b2a960001b610fc0565b612dd67f40f06889b501786781a8f7b8f36142407ba7fda3961cb1a3add6f6c02d0d1b3c60001b610fc0565b612e027fef80ab62d2af1e7151d40be4c7fc980a1cab8db08f067c0309886d0c5f182f1c60001b610fc0565b612e766040518060400160405280600581526020017f4f524769440000000000000000000000000000000000000000000000000000008152506040518060400160405280600581526020017f4f524769440000000000000000000000000000000000000000000000000000008152506151de565b612ea27f851797ac86b703bb73f99fe6e76b3e6feb655962b9922f2f1a26b442093e538860001b610fc0565b612ece7fa315296128c60f49c306b8543476de3c22218d5b81e4fb1714b7dbc563d1a82f60001b610fc0565b612ed66152d3565b8015612ef75760008060016101000a81548160ff0219169083151502179055505b50565b50565b50565b606060668054612f0f90618497565b80601f0160208091040260200160405190810160405280929190818152602001828054612f3b90618497565b8015612f885780601f10612f5d57610100808354040283529160200191612f88565b820191906000526020600020905b815481529060010190602001808311612f6b57829003601f168201915b5050505050905090565b60008060606000612fc57f684a7ff3ad785a4afd1998f270d2186fb5c6018d84786352ced79731c5170c1760001b612efa565b612ff17f8ee2a7b98709fd9902156b1dc9270514cf4cf3b80a2805bc0177bdd44a7169c260001b612efa565b61301d7f0270731c30a41f9b42f0eb95d682326fba28b433999cb31361f1fdce746e1e9160001b612efa565b60ca600086815260200190815260200160002054925061305f7f9a058c3fa64f56e628a6cedf6c9a771fd256362e7f9eec58949c90d241a2437060001b612efa565b61308b7ff63745f478097202b1c1891e6aa48c7ca947f2db9ebae426ebc1b5ec8ee9d2fa60001b612efa565b61309485614710565b93506130c27f3c9366bf4c64d52ac0abf65ff80052b86f067af8ed3ac177131caf12c2ca319860001b612efa565b6130ee7f9348a109a95dbd84d29842c68ed3758ab4433fc5164fcc3f0ba5554e04d0a79060001b612efa565b831561327e576131207f501387921ffd33326eef1a5f3c49c277366463f74ba900d6f435dc8d6235891460001b612efa565b61314c7f0b5ad236d89f89eb4bc8f99cfeb839ac49ff347552bf196d6ed45612a92c723360001b612efa565b6131787fab8b14520971363c242fb1b03f633bb2fc18868796b290aa69ba3fa660c2f80a60001b612efa565b60cb6000868152602001908152602001600020805461319690618497565b80601f01602080910402602001604051908101604052809291908181526020018280546131c290618497565b801561320f5780601f106131e45761010080835404028352916020019161320f565b820191906000526020600020905b8154815290600101906020018083116131f257829003601f168201915b505050505091506132427f5d0c4a47c127bb4efbc95f0d454c16ee49f38cb04eadb860f7dcb60017ff6bfd60001b612efa565b61326e7f35daf2fbf43e2d141e05a0c26a8f7afc23d927e87169af9bee3bcd366079952760001b612efa565b613277856127a5565b90506132ab565b6132aa7faf1f3a31fb105a682b271a456760db07b28568d3ee510dbf9b9a0a0aabac4a8b60001b612efa565b5b9193509193565b6132ba61477c565b73ffffffffffffffffffffffffffffffffffffffff168273ffffffffffffffffffffffffffffffffffffffff161415613328576040517f08c379a000000000000000000000000000000000000000000000000000000000815260040161331f90618039565b60405180910390fd5b80606a600061333561477c565b73ffffffffffffffffffffffffffffffffffffffff1673ffffffffffffffffffffffffffffffffffffffff16815260200190815260200160002060008473ffffffffffffffffffffffffffffffffffffffff1673ffffffffffffffffffffffffffffffffffffffff16815260200190815260200160002060006101000a81548160ff0219169083151502179055508173ffffffffffffffffffffffffffffffffffffffff166133e261477c565b73ffffffffffffffffffffffffffffffffffffffff167f17307eab39ab6107e8899845ad3d59bd9653f200f220920489ca2b5937696c31836040516134279190617ef1565b60405180910390a35050565b61344461343e61477c565b8361485b565b613483576040517f08c379a000000000000000000000000000000000000000000000000000000000815260040161347a90618179565b60405180910390fd5b61348f84848484615438565b50505050565b806134c27fe2c8a8c128d5cc18c8829a1585fb21234e9a1954c5e076929835c56be423a65860001b612efa565b6134ee7ff23a7aa56730080fa3e0e43d026cfb5a8d860f73898bc4c886349221837c0e0060001b612efa565b61351a7fa4d78f085442d0d24b647847dbcf4f177a07870bb6cd1bbd96162c24f6d8530460001b612efa565b6000801b81148061353e5750600060c9600083815260200190815260200160002054145b156135d85761356f7f0f2495851de4278f80a327cc2b0809131ebdee7024f93c9bfff480f0af21fbd060001b612efa565b61359b7fe0734e7a2773e66d4723aa5c1a6cc3b2cd1a2103a2b65d46e12062174028c55f60001b612efa565b806040517f87fe3aad0000000000000000000000000000000000000000000000000000000081526004016135cf9190617f58565b60405180910390fd5b6136047f9eedb6fcce92818283b0b47bac3409802e3f98e3d8482240d941846faa25d8df60001b612efa565b6136307fd60e2903b3aa5079b5a20b8165b9bcf1fb137993d711fa3891a4cccc14a0723060001b612efa565b61365c7fb5f13655dc2b0734c8119a77750ce1f034d0987d1a9d2718e382f44390ae887260001b612efa565b61366461477c565b73ffffffffffffffffffffffffffffffffffffffff1661369660c96000848152602001908152602001600020546127a5565b73ffffffffffffffffffffffffffffffffffffffff161461373b576136dd7ffa3d20131447c953bd0c6b904732a951e70129dc51a5337622692a4467f2670560001b612efa565b6137097f9ccc7dc5b0417438b3c56a3daa67e7b40bb2637eb1c1fead22a63499711a8d1e60001b612efa565b6040517fac25ca9e00000000000000000000000000000000000000000000000000000000815260040160405180910390fd5b6137677fd77e9835a0aeda14d5b5634bc9371259591b5fb6d6226f07f4b3d10570cf005360001b612efa565b6137937f1f2205f5a67124a81c5e62b68dfbb34998192e6b0b547856c2f718155ecc31cb60001b612efa565b6137bf7fb73ad39a33c0fd92d722567259d538b522bf25fa991e6ac1d15f390ec62c01e860001b612efd565b6137eb7ff144c2dd241fb7657f393befa78526551c1d8ba0074dff564d64b087183a008f60001b612efd565b6138177f71537d0f48e38a2d685739fc3731bcfaa7602450a40d5a12501f99f24d3f809a60001b612efd565b6000613835610100600085815260200190815260200160002061507d565b90506138637f15b76e2b33d0f822252376265ca80866d56127160c8bc42570811dad1814e95060001b612efd565b61388f7f838e177d6f55720cf66442a078dcd9c8c2cd0ece3b34d7f14560b4e9f7105ef260001b612efd565b60006138ad6101006000868152602001908152602001600020615494565b90506138db7f0986feb3ff3949897cea4521a6d3cb39cf56db4f725dec2532316a2297d64eee60001b612efd565b6139077f54c942df9e43445f5fd080be5925149e5e374674550295ebdd2baf5005989ef060001b612efd565b80613996576139387f42299909d850360b5bb6e2b8b6527a6e1600617fca00da1dfa68667275a2354860001b612efd565b6139647faa4dfce51de05e15adaed7d24e672fcc2a4a703e51339ce42e855882f51b783760001b612efd565b6040517f4816a76700000000000000000000000000000000000000000000000000000000815260040160405180910390fd5b6139c27fa8bfe2b0177007b30aa4fdfd4a4931d162a629ba4a64470a30808ab55307ec5960001b612efd565b6139ee7ff6e697537ceb6e09e1fc42304f5aa9503aeadc3c37c716d7bbfe89c333acf31660001b612efd565b613a1a7f49429d0f0da0bb3158d26cc2ab7059cb963ce62c36d312f2b20454085022bf1c60001b612efd565b837fb3c3b87d0ea8237b590c2dbf7d3acf90e54a40cf0ef1e4c0d948736e1fabd8a983604051613a4a9190617ecf565b60405180910390a250505050565b6060613a867f5a723870878205b04bb124d0efc85a4015b3367b14074bd4a4a5082ef556754660001b612efa565b613ab27f05715b8b83d111d8eb7c2c21401c6534afded7abdb99d854e83774bb97893b9b60001b612efa565b613ade7f2f6785a29bf5013160901b72a085810bf63278bc6d891e705e36c76ab419ac1d60001b612efa565b613ae782614710565b613b8057613b177fc74b2fdceb184f7fa15b9a2f22bdab7bab4ec4e5ea37178efba79a6e918bbd1260001b612efa565b613b437fffbc768d0cd39d5d57994c38b392988d50339d72559cfdf8c918205f17ff2cbb60001b612efa565b816040517f6caeb130000000000000000000000000000000000000000000000000000000008152600401613b7791906181b9565b60405180910390fd5b613bac7f3fb5cb62ec51e46dd980bd6b1f86dc532cdcb4d1c34d2eb26e820a2eb2b9ca2a60001b612efa565b613bd87f42d3111bcc8859e88b5e22fe9fa627ca9e066233d75e1332171e7569c90ea73f60001b612efa565b613c047fb3271a902471b87d158a2d7ba517a7bc506167c455913eaebe3c95e14689321e60001b612efa565b60cb60008381526020019081526020016000208054613c2290618497565b80601f0160208091040260200160405190810160405280929190818152602001828054613c4e90618497565b8015613c9b5780601f10613c7057610100808354040283529160200191613c9b565b820191906000526020600020905b815481529060010190602001808311613c7e57829003601f168201915b50505050509050919050565b6000613cd57f68912cb10ce09aec1f65ab67055702db60351dee25b13c1e06974782b5b84b9760001b612efa565b613d017f315790103986185c8ad236cc6adbeb2109d2e8cea4234cad8c3dfe2c916410c260001b612efa565b613d2d7fa02988f3a32d2cd21a9d3dc32ca1dd587317f811b28a1a46ea8f3b4fbbdcb04d60001b612efa565b60c96000838152602001908152602001600020549050919050565b81613d757fe2c8a8c128d5cc18c8829a1585fb21234e9a1954c5e076929835c56be423a65860001b612efa565b613da17ff23a7aa56730080fa3e0e43d026cfb5a8d860f73898bc4c886349221837c0e0060001b612efa565b613dcd7fa4d78f085442d0d24b647847dbcf4f177a07870bb6cd1bbd96162c24f6d8530460001b612efa565b6000801b811480613df15750600060c9600083815260200190815260200160002054145b15613e8b57613e227f0f2495851de4278f80a327cc2b0809131ebdee7024f93c9bfff480f0af21fbd060001b612efa565b613e4e7fe0734e7a2773e66d4723aa5c1a6cc3b2cd1a2103a2b65d46e12062174028c55f60001b612efa565b806040517f87fe3aad000000000000000000000000000000000000000000000000000000008152600401613e829190617f58565b60405180910390fd5b613eb77f9eedb6fcce92818283b0b47bac3409802e3f98e3d8482240d941846faa25d8df60001b612efa565b613ee37fd60e2903b3aa5079b5a20b8165b9bcf1fb137993d711fa3891a4cccc14a0723060001b612efa565b613f0f7fb5f13655dc2b0734c8119a77750ce1f034d0987d1a9d2718e382f44390ae887260001b612efa565b613f1761477c565b73ffffffffffffffffffffffffffffffffffffffff16613f4960c96000848152602001908152602001600020546127a5565b73ffffffffffffffffffffffffffffffffffffffff1614613fee57613f907ffa3d20131447c953bd0c6b904732a951e70129dc51a5337622692a4467f2670560001b612efa565b613fbc7f9ccc7dc5b0417438b3c56a3daa67e7b40bb2637eb1c1fead22a63499711a8d1e60001b612efa565b6040517fac25ca9e00000000000000000000000000000000000000000000000000000000815260040160405180910390fd5b61401a7fd77e9835a0aeda14d5b5634bc9371259591b5fb6d6226f07f4b3d10570cf005360001b612efa565b6140467f1f2205f5a67124a81c5e62b68dfbb34998192e6b0b547856c2f718155ecc31cb60001b612efa565b6140727f7124e1a3e635fb9547bc93fe8047fc91af56287c5a61311b94af73c7606ec7d760001b612efd565b61409e7f9c94b4f903e95b9e6a8f74b4cbfaef40d823eb97267ae114a08b2e4b0acf44b860001b612efd565b6140ca7fed341778b9538316ff0b978060d89b20d6f87eed14405cfb6295114d2529264d60001b612efd565b60008251141561415e576141007f74c3b6683ce170d10c5f0dea6a978918894b9937bd9baf2b11b43bbc5e9d21f660001b612efd565b61412c7f66f102212282b00ce99836e11c6e1b123d1ebaf07e9927dab87f5b3773e2ea4d60001b612efd565b6040517f4816a76700000000000000000000000000000000000000000000000000000000815260040160405180910390fd5b61418a7f68b2237c326f073fa0a2cf12259dd621b90837cd5b2546883a2517097aeed36760001b612efd565b6141b67f46bec12f8e2ba6c8b3a85bf82b7be8077425b7358d968f4b4571df41f6c538ab60001b612efd565b6141e27f076ea80d3933e1fce92cb1009d7f7437d4db3f984fe16f030b18b995a55e6d1060001b612efd565b60006142107fe8cc718e2ae737053831a1130c7f9f118db4d02bc878efe5cce8f74b5877285b60001b612efd565b61423c7fe80ef218af193c6970e0199d82e33faa27aa2a61f503c1ffb23dec6bba701ebe60001b612efd565b60005b8351811015614408576142747f2c8bd02af7810eca02c65fb114d90d84775d6de23f9dc4e17e26fc034c10581960001b612efd565b6142a07fa75092ce4bb97b003346fd235f02ae086bb539a64c3c0611f95aeab59d010c5a60001b612efd565b6142e08482815181106142b6576142b56185fe565b5b602002602001015161010060008881526020019081526020016000206158fb90919063ffffffff16565b915061430e7f14e6b6dfc4f97631970d329c1861d8959415e9538da48ada0110d08ec864494c60001b612efd565b61433a7fb8ea5633272b1ccd8da576b8dcfe7cb691fd48bd505b413e0d18967286a7af1c60001b612efd565b816143c95761436b7fc0a9fd14a6854141e4bfef555930ccd4c23f5df84693e93d4ba541cce366554160001b612efd565b6143977fdb47d27919266d3be13fde0a931ed56ff7c603b2eb39ed9ff043347fe5bddbd060001b612efd565b6040517f4816a76700000000000000000000000000000000000000000000000000000000815260040160405180910390fd5b6143f57ff87564706348a1482ecf13ddb2344ca4c2c5b0c405c275a31d16b80b281c8eec60001b612efd565b8080614400906184fa565b91505061423f565b506144357f0d96057cf3d8f2f581f1d312b935949821099dcd285b10afe19f564bb8b0d51360001b612efd565b6144617f86d69bce5d93ee88c9b8cafdda7f3279397afb1363a6e6d72fcbb3bc324af29c60001b612efd565b837fb3c3b87d0ea8237b590c2dbf7d3acf90e54a40cf0ef1e4c0d948736e1fabd8a9846040516144919190617ecf565b60405180910390a250505050565b60606144cd7fc0c79ba72209817c62367693fb075372985504b75e22909203b8f00171376f7560001b612efa565b6144f97f6dc4f25e3083f8fbaa3ba075bd42cbda444966e6059b4f143100a1660ed3bae060001b612efa565b6145257fc9bac8a8c62dbd9f3510f7c4f32e7be74834b1e302cbd5e52fd8cf063aa1950960001b612efa565b60cc80548060200260200160405190810160405280929190818152602001828054801561457157602002820191906000526020600020905b81548152602001906001019080831161455d575b5050505050905090565b6000606a60008473ffffffffffffffffffffffffffffffffffffffff1673ffffffffffffffffffffffffffffffffffffffff16815260200190815260200160002060008373ffffffffffffffffffffffffffffffffffffffff1673ffffffffffffffffffffffffffffffffffffffff16815260200190815260200160002060009054906101000a900460ff16905092915050565b50565b60006146407fe940228685e78abbe397f4a1da2e32b1f8593b70dc5f922170b8c758874bb24860001b612efd565b61466c7fa9de24160e87953795d5c10db45ee2eabcb71fc1109bcfda2df0581cebd5f58360001b612efd565b6146987f50e540ca5e2f0303965431990e1cde0e270a784e9c490d0da015b1e5a24c83ce60001b612efd565b7fb0f0d77a000000000000000000000000000000000000000000000000000000007bffffffffffffffffffffffffffffffffffffffffffffffffffffffff1916827bffffffffffffffffffffffffffffffffffffffffffffffffffffffff1916148061470957506147088261611e565b5b9050919050565b60008073ffffffffffffffffffffffffffffffffffffffff166067600084815260200190815260200160002060009054906101000a900473ffffffffffffffffffffffffffffffffffffffff1673ffffffffffffffffffffffffffffffffffffffff1614159050919050565b600033905090565b816069600083815260200190815260200160002060006101000a81548173ffffffffffffffffffffffffffffffffffffffff021916908373ffffffffffffffffffffffffffffffffffffffff160217905550808273ffffffffffffffffffffffffffffffffffffffff166147f7836127a5565b73ffffffffffffffffffffffffffffffffffffffff167f8c5be1e5ebec7d5bd14f71427d1e84f3dd0314c0f7b2291e5b200ac8c7c3b92560405160405180910390a45050565b61485782826040518060200160405280600081525061621c565b5050565b600061486682614710565b6148a5576040517f08c379a000000000000000000000000000000000000000000000000000000000815260040161489c90618059565b60405180910390fd5b60006148b0836127a5565b90508073ffffffffffffffffffffffffffffffffffffffff168473ffffffffffffffffffffffffffffffffffffffff16148061491f57508373ffffffffffffffffffffffffffffffffffffffff1661490784610f3b565b73ffffffffffffffffffffffffffffffffffffffff16145b80614930575061492f818561457b565b5b91505092915050565b8273ffffffffffffffffffffffffffffffffffffffff16614959826127a5565b73ffffffffffffffffffffffffffffffffffffffff16146149af576040517f08c379a00000000000000000000000000000000000000000000000000000000081526004016149a690618139565b60405180910390fd5b600073ffffffffffffffffffffffffffffffffffffffff168273ffffffffffffffffffffffffffffffffffffffff161415614a1f576040517f08c379a0000000000000000000000000000000000000000000000000000000008152600401614a1690618019565b60405180910390fd5b614a2a838383616277565b614a35600082614784565b6001606860008573ffffffffffffffffffffffffffffffffffffffff1673ffffffffffffffffffffffffffffffffffffffff1681526020019081526020016000206000828254614a8591906183a3565b925050819055506001606860008473ffffffffffffffffffffffffffffffffffffffff1673ffffffffffffffffffffffffffffffffffffffff1681526020019081526020016000206000828254614adc919061834d565b92505081905550816067600083815260200190815260200160002060006101000a81548173ffffffffffffffffffffffffffffffffffffffff021916908373ffffffffffffffffffffffffffffffffffffffff160217905550808273ffffffffffffffffffffffffffffffffffffffff168473ffffffffffffffffffffffffffffffffffffffff167fddf252ad1be2c89b69c2b068fc378daa952ba7f163c4a11628f55a4df523b3ef60405160405180910390a4505050565b6000614bc37fce7d91ba05a412b9f31ad97c81156ae684f97d7d3a6502ea5cc2ed8a719d6dc960001b61638b565b614bef7f284c89929c02b8326026395fb636adb35158ea91b4346044c0337b2ab255661260001b61638b565b614c1b7f761568339a5282fffb277b406a8271a299d20c058ddf22da5aa9542b91da9d8860001b61638b565b600082511415614cb257614c517f7c54bd0de9f4d63d2faa0840d9f2c780aafaa87e2254753561f1b96f05efe70560001b61638b565b614c7d7f12cfd85acadc22012feb0e6dd65dd92b2afb8852a2d5b725e767a33e5278b14860001b61638b565b614ca97f0555582499e35f9f9c6e4e067c457ac63a3adbb44a5c73945a527ceb3482a22860001b61638b565b60009050615077565b614cde7fb050407483d5b9f0dd31829890774e32c09c902a55f8989f318618937b7cabc260001b61638b565b614d0a7f7259f92f85cbf52a6cf904b75c534960e29f7d45d6728f48e16b9fc544e4ef1960001b61638b565b614d367f2ed3184f4720efd096b183d9516abb3af5752e74374d081547ce5d7da272367260001b61638b565b6000614d418361638e565b9050614d6f7f245515806e708f7127f4ac493f60d96c72fb67dfa6114002f7e844ea533c7eaf60001b61638b565b614d9b7f405d45a67de246338518edb38c03dd9c35ebc0874844fea564c171c3cd5d832560001b61638b565b83600101600082815260200190815260200160002060009054906101000a900460ff16614fe557614dee7f717f275d749bde612da334306f38dd1f4f8aff2e35f9e743f670e2465bf6fab660001b61638b565b614e1a7f6799b6109455532f6657d663c99005909e7216a68eb998d4e72528d9fa2596a360001b61638b565b614e467f04887bfa4fb0728309e16a10f4a1b4870046bb243ebf4a2637d3a161004b8a2f60001b61638b565b600184600101600083815260200190815260200160002060006101000a81548160ff021916908315150217905550614ea07fe29dc3209a2aec36f9ccc0d8bd18a57bbfa2a3246dca99e751ccfa858f8776b760001b61638b565b614ecc7fbbf164fa3e3ce3b68a407283df4036af6c36ecb54905c1030b8ed7edf07e04ed60001b61638b565b836000018054905084600201600083815260200190815260200160002081905550614f197fb121df75d7802cbe70bea4586c861b998a39e667874c744737b82963d10b020160001b61638b565b614f457f3d1136c7769cfe3d01695c323709acf7626d4625e997d9f554151b3b56ce74f060001b61638b565b8360000183908060018154018082558091505060019003906000526020600020016000909190919091509080519060200190614f82929190617247565b50614faf7f0dcfacd9a1ba64bcc471bc4b3e6126f33fc464743f957019a491148930f799b560001b61638b565b614fdb7f5724845fb941e8eca5f78ea6db7a6ccd78c635775b01ebc4e7ca4370f3f4ec4360001b61638b565b6001915050615077565b6150117f9a62a5f5210434aea826248160055c561450da865d7076da92b473ec1bb4490560001b61638b565b61503d7f8e30bcc83531814e077283f10157669dfb54807e73399e8e6885f70670ad764d60001b61638b565b6150697f5bd8b632afe588822a03f1cbca3e7e74b26b359ae4922a12286cc184e7af108060001b61638b565b6150738482616442565b9150505b92915050565b60606150ab7f71528a3f3cf3522b308016c116923971dc86af055a321fd44fa906baa5c4c96a60001b61638b565b6150d77fb4da77abdef6e07e02902d2bea9b84a99c2996d20b51a5bdc07ba383f9be3d7160001b61638b565b6151037fc37bbb6b70314a8578c34bd751d1562824525efc627c945250eccdb4a3fa4cb760001b61638b565b81600001805480602002602001604051908101604052809291908181526020016000905b828210156151d357838290600052602060002001805461514690618497565b80601f016020809104026020016040519081016040528092919081815260200182805461517290618497565b80156151bf5780601f10615194576101008083540402835291602001916151bf565b820191906000526020600020905b8154815290600101906020018083116151a257829003601f168201915b505050505081526020019060010190615127565b505050509050919050565b600060019054906101000a900460ff1680615204575060008054906101000a900460ff16155b615243576040517f08c379a000000000000000000000000000000000000000000000000000000000815260040161523a906180d9565b60405180910390fd5b60008060019054906101000a900460ff161590508015615293576001600060016101000a81548160ff02191690831515021790555060016000806101000a81548160ff0219169083151502179055505b61529b6164f3565b6152a36165cc565b6152ad83836166a5565b80156152ce5760008060016101000a81548160ff0219169083151502179055505b505050565b600060019054906101000a900460ff16806152f9575060008054906101000a900460ff16155b615338576040517f08c379a000000000000000000000000000000000000000000000000000000000815260040161532f906180d9565b60405180910390fd5b60008060019054906101000a900460ff161590508015615388576001600060016101000a81548160ff02191690831515021790555060016000806101000a81548160ff0219169083151502179055505b6153b47f7641b0862abc037551c9800689ec619a876c5c33f161cf7fb681781adb1395a360001b612efa565b6153e07f1dd90606b2af8cc2467504d3e942cea03131e8e00eecbb6ff008dbc3e386b37e60001b612efa565b61540c7fcdc943c438e72fe1e4f4e16bb2e0113eea92fd87f443ffb870b523438b96c58060001b612efa565b6154146167ae565b80156154355760008060016101000a81548160ff0219169083151502179055505b50565b615443848484614939565b61544f8484848461689f565b61548e576040517f08c379a000000000000000000000000000000000000000000000000000000000815260040161548590617fd9565b60405180910390fd5b50505050565b60006154c27fb92db2edb4ca56dc5d6e06328f166994142543167f86a66b92ace0eecc50b76660001b61638b565b6154ee7f85106c1846a2867952bb21918431df4cc0f0e2d8f09a606bc37a767386c5099660001b61638b565b61551a7f94833845a59aa7a734b028ea5925e09cc0aa2476f66ce34e48ef3274e9b68d1960001b61638b565b60008260000180549050111561586d576155567fa9ec921cafcb03238f02d561e8c50a7d957d74887c64912cdcbe38278f85c6e660001b61638b565b6155827f5fee971b09bd6a7625a141527f5349cbc89db556b2692dc1ffbe5b6dbdbe5e7a60001b61638b565b6155ae7fc1946256e7e98d3d344dfa024264d31cfc433e603d93224696616040c37d97f560001b61638b565b60006155dc7f0aade199e4f7397ad288a69bbe7d194b14550deda16903ea33f3543af7b0be1e60001b61638b565b6156087fff0d86f53f1ddb594cdb4434c5ce6b011dec6bf5a8c2be761f8614858f7d7d4e60001b61638b565b60005b83600001805490508110156157ce576156467f75fba19e293ac1534cda64701d55ff61378a1f5af48024d4c8e3350d5cca3cdc60001b61638b565b6156727fdd041139c396b453e8773d2410c66d3c8413ccb54aabbeae61305f62b65b27a460001b61638b565b61572384600001828154811061568b5761568a6185fe565b5b9060005260206000200180546156a090618497565b80601f01602080910402602001604051908101604052809291908181526020018280546156cc90618497565b80156157195780601f106156ee57610100808354040283529160200191615719565b820191906000526020600020905b8154815290600101906020018083116156fc57829003601f168201915b505050505061638e565b91506157517ffd97287e62c50a96bd71f18c9b19504450cc78ba3d90ef11e807a0051669c8f660001b61638b565b836002016000838152602001908152602001600020600090556157967f7c8346459404640bcc519171bfe83c2a104bb3347f49c3f04ba03eb33c701a9c60001b61638b565b83600101600083815260200190815260200160002060006101000a81549060ff021916905580806157c6906184fa565b91505061560b565b506157fb7f374532e1d2084bc541acb74d4bd0f3d2e2d67b1ebcf63165de112dea006a6a1b60001b61638b565b82600001600061580b91906172cd565b6158377f7eeba15fb05843828e4e8fd59c78198790db65b79c2da8de372b9e01406ad79a60001b61638b565b6158637ffd1bc5234b6c225d04293a7fce2f80ec669eb32ac5e54c65bf7126dcdedd68e660001b61638b565b60019150506158f6565b6158997f5429b6c949727184cd71439490c38f8e3056bb8232652ff5a29f68cd10515e1f60001b61638b565b6158c57fbd95967cf85f0e7056779f4ee83c487435d9a6388d8a4ca2bcb22924993e4c0560001b61638b565b6158f17f413d3c184cc67b15541d8a2e8def73fb86e1083fa4e9a5d2a137d741a91baa1460001b61638b565b600090505b919050565b60006159297f7e4b6b481678051c6ebb82af4d3ed265fa3f25875c3f9b8b1f299786de9e1aba60001b61638b565b6159557ff7bc64ed149397d3221cf4ffde3b185152af58700aecd30947d6c0a39291125260001b61638b565b6159817f11b9fdaf5bee146fd640c1443a866473c8836d5d3f672a47b7786b186e394e4960001b61638b565b600082511415615a18576159b77f243143f896e2e0337822f65a889d16c1cc7c4687c9533086a9df4cdc29e7f8fe60001b61638b565b6159e37fe42a770af22f0b74b724133d363d376adef3cf936f70021a0d81214b7b46090760001b61638b565b615a0f7fee2be5bd0ea9c805fe2f905e2a953685fc7653a484c0c90d5143db610375e3d260001b61638b565b60009050616118565b615a447f908439d377644477ee85e67728ccab2d76b0ef12bc8382f3fdf4e14d15eca06660001b61638b565b615a707f6c86c6786ba30680020430864bb94f9ac83e8f27fccbc7f2c570de65a969876b60001b61638b565b615a9c7f6910c538e6e50401419b45abc3dba4bc37d24db355ce447cb60e7a0c2d54d9c860001b61638b565b6000615aa78361638e565b9050615ad57fd52683398246642e43504d74e77eaad6a3eac0546a38255c6073c7583a5ec7ce60001b61638b565b615b017fd16bdeb44679dee00816b34b8508795ac0ed3c575ae61f112ad526a596321f5160001b61638b565b83600101600082815260200190815260200160002060009054906101000a900460ff161561608557615b557ff89230dae5fc2beeff3407ad0ceb468ebd77e6fa16977f120ff6bc2340d5f0d560001b61638b565b615b817f03902246d88f0c14ab9ab7b14169ca8473bb85c19b1f05f118d695071b6abe9160001b61638b565b615bad7faf8bd7d19db6f238f99d616cf2d9883bf3517528c60758f3e1f9880d73d846ac60001b61638b565b6000846002016000838152602001908152602001600020549050615bf37fa81527928d7f625546f4a9f9df7ba47b1f1f0329fa05c42a215b5a4152d4a69a60001b61638b565b615c1f7fda01fb93ae09581263fd7de905a3b71fab9cd1e7010d2170ca9d782cad6ecc7760001b61638b565b600060018660000180549050615c3591906183a3565b9050615c637fd6afbec535c983ce1a143a0da9778e1bbb4ec5c4e9e8189084924c961ee9c53660001b61638b565b615c8f7fcbcce748e4a4c4ca2cb722726135bdbb784e2a7f2bf1be453c66da61a6c14f3860001b61638b565b818114615ed457615cc27f478c63f250d9613aa8e7fa533c25934b63a9dc83ea17f28649653dad14d5cd1860001b61638b565b615cee7f99320684923a8acbadcd21ee5de3648930245728f376ab0a3bbdc5da3470e1d760001b61638b565b615d1a7f927c3a6cfd21188d13822fed745b6f8cd5e5fb0aeada71049aa79195617f7c5560001b61638b565b6000866000018281548110615d3257615d316185fe565b5b906000526020600020018054615d4790618497565b80601f0160208091040260200160405190810160405280929190818152602001828054615d7390618497565b8015615dc05780601f10615d9557610100808354040283529160200191615dc0565b820191906000526020600020905b815481529060010190602001808311615da357829003601f168201915b50505050509050615df37fb77ae7e6a95e13c90705f0fb8a720259b6fda97c1652119d2a287cf894d2167160001b61638b565b615e1f7f87951ee0b11ce6420f14572efb62fbbfe34b27f1e283829953943da7dc00cd9960001b61638b565b80876000018481548110615e3657615e356185fe565b5b906000526020600020019080519060200190615e53929190617247565b50615e807f6d4f35ae08cb3d213f5416ae6993d2e5fee65fc17489acb1fee2cbaa1aaaefde60001b61638b565b615eac7fb95a4992cbba4abc0d0fe461449ec2116f2f6250d644ac48349d8ccfcf26165a60001b61638b565b82876002016000615ebc8461638e565b81526020019081526020016000208190555050615f01565b615f007f5620822d3f86aa216b92fd1ebcbdc21db2ab3bfa2326a0c2bdf39a925fb3478f60001b61638b565b5b615f2d7f29997e52e006e218fa24ea3f9f288e4cfb8dac55933fc5c5f6d2ad9c4b27e9c160001b61638b565b615f597f8ee90e36bd87f2de52d0c7853e2cd88ec3097bfe540a198c89f2b64b8e6dcf5160001b61638b565b85600001805480615f6d57615f6c6185cf565b5b600190038181906000526020600020016000615f8991906172ee565b9055615fb77fee963c1b6ce5639d7f15685d09dba08559c9f0a75b275e49872046c9bbaf2a3a60001b61638b565b85600201600084815260200190815260200160002060009055615ffc7f1a5a758d9937db2cee745fd26374947861523907bcd3a7253a1fc0ec44ab724260001b61638b565b85600101600084815260200190815260200160002060006101000a81549060ff021916905561604d7f50ac4229c780a99d299084e20aa1a20bcc059cd99c5c1a08aef0a56fd0b295cf60001b61638b565b6160797fd5efd55e3938135741485b3391cdff77cabc4238eafba138cb98f01c89da657260001b61638b565b60019350505050616118565b6160b17f6b89204f48c93f509efe314f65e6438acdc1b593d48a7a35d5237fb234b0aef460001b61638b565b6160dd7f8885546217d5283706f03745932aa96a95e777775955d389525b48fb7dcbcac360001b61638b565b6161097f63407fba6373ddee3220d6288a6f5ba828a63f5d01eb674fbea2ad19c5c236b560001b61638b565b6161138482616442565b159150505b92915050565b600061614c7f21812340d980caba141e384b13bba2078649563bf4a0625d0e2c6f55150300eb60001b612efa565b6161787fd6c032e7ee8739b5cd2cb399e62c2e32437ddfb945ed8d62cb29f253fe8b724c60001b612efa565b6161a47f192e3e3274696fbbe255612f1035a831ef9e5049760d4867b6890621bf22c0aa60001b612efa565b7fabcf227d000000000000000000000000000000000000000000000000000000007bffffffffffffffffffffffffffffffffffffffffffffffffffffffff1916827bffffffffffffffffffffffffffffffffffffffffffffffffffffffff19161480616215575061621482616a36565b5b9050919050565b6162268383616ab0565b616233600084848461689f565b616272576040517f08c379a000000000000000000000000000000000000000000000000000000000815260040161626990617fd9565b60405180910390fd5b505050565b616282838383616c7e565b600073ffffffffffffffffffffffffffffffffffffffff168373ffffffffffffffffffffffffffffffffffffffff1614156162c5576162c081616c83565b616304565b8173ffffffffffffffffffffffffffffffffffffffff168373ffffffffffffffffffffffffffffffffffffffff1614616303576163028382616ccc565b5b5b600073ffffffffffffffffffffffffffffffffffffffff168273ffffffffffffffffffffffffffffffffffffffff1614156163475761634281616e39565b616386565b8273ffffffffffffffffffffffffffffffffffffffff168273ffffffffffffffffffffffffffffffffffffffff1614616385576163848282616f0a565b5b5b505050565b50565b60006163bc7f5e13dc35f9647ff13e3068cfa3b19080fce3ac2e81bb8279b942907a4ac44f1d60001b61638b565b6163e87fbf7e4e4a28fb0d4a176c0196c20e9c75d628b3f9fb5dd42a557d0d690335bc4b60001b61638b565b6164147f996acaf8fc211b07b97228437c2970bf94016e14c0996602abe44a7de1ebe2fb60001b61638b565b816040516020016164259190617e2f565b604051602081830303815290604052805190602001209050919050565b60006164707f6c3fd1eb3f831a2737d65f8df8899c31029e977ff7a08ff952f8f5577c460e7d60001b61638b565b61649c7f0c63969bc9f4c4be360960f0f4beb6ad9fa130418bf787e0f3d9db207f0a231c60001b61638b565b6164c87f40175b8219c6cd68b332c7aafbc12fbb57ae0734cef3079e9321ea9dc892f5a660001b61638b565b82600101600083815260200190815260200160002060009054906101000a900460ff16905092915050565b600060019054906101000a900460ff1680616519575060008054906101000a900460ff16155b616558576040517f08c379a000000000000000000000000000000000000000000000000000000000815260040161654f906180d9565b60405180910390fd5b60008060019054906101000a900460ff1615905080156165a8576001600060016101000a81548160ff02191690831515021790555060016000806101000a81548160ff0219169083151502179055505b80156165c95760008060016101000a81548160ff0219169083151502179055505b50565b600060019054906101000a900460ff16806165f2575060008054906101000a900460ff16155b616631576040517f08c379a0000000000000000000000000000000000000000000000000000000008152600401616628906180d9565b60405180910390fd5b60008060019054906101000a900460ff161590508015616681576001600060016101000a81548160ff02191690831515021790555060016000806101000a81548160ff0219169083151502179055505b80156166a25760008060016101000a81548160ff0219169083151502179055505b50565b600060019054906101000a900460ff16806166cb575060008054906101000a900460ff16155b61670a576040517f08c379a0000000000000000000000000000000000000000000000000000000008152600401616701906180d9565b60405180910390fd5b60008060019054906101000a900460ff16159050801561675a576001600060016101000a81548160ff02191690831515021790555060016000806101000a81548160ff0219169083151502179055505b8260659080519060200190616770929190617247565b508160669080519060200190616787929190617247565b5080156167a95760008060016101000a81548160ff0219169083151502179055505b505050565b600060019054906101000a900460ff16806167d4575060008054906101000a900460ff16155b616813576040517f08c379a000000000000000000000000000000000000000000000000000000000815260040161680a906180d9565b60405180910390fd5b60008060019054906101000a900460ff161590508015616863576001600060016101000a81548160ff02191690831515021790555060016000806101000a81548160ff0219169083151502179055505b61686b6164f3565b6168736165cc565b61687b616f89565b801561689c5760008060016101000a81548160ff0219169083151502179055505b50565b60006168c08473ffffffffffffffffffffffffffffffffffffffff16617062565b15616a29578373ffffffffffffffffffffffffffffffffffffffff1663150b7a026168e961477c565b8786866040518563ffffffff1660e01b815260040161690b9493929190617e61565b602060405180830381600087803b15801561692557600080fd5b505af192505050801561695657506040513d601f19601f8201168201806040525081019061695391906178b8565b60015b6169d9573d8060008114616986576040519150601f19603f3d011682016040523d82523d6000602084013e61698b565b606091505b506000815114156169d1576040517f08c379a00000000000000000000000000000000000000000000000000000000081526004016169c890617fd9565b60405180910390fd5b805181602001fd5b63150b7a0260e01b7bffffffffffffffffffffffffffffffffffffffffffffffffffffffff1916817bffffffffffffffffffffffffffffffffffffffffffffffffffffffff191614915050616a2e565b600190505b949350505050565b60007f780e9d63000000000000000000000000000000000000000000000000000000007bffffffffffffffffffffffffffffffffffffffffffffffffffffffff1916827bffffffffffffffffffffffffffffffffffffffffffffffffffffffff19161480616aa95750616aa882617075565b5b9050919050565b600073ffffffffffffffffffffffffffffffffffffffff168273ffffffffffffffffffffffffffffffffffffffff161415616b20576040517f08c379a0000000000000000000000000000000000000000000000000000000008152600401616b17906180f9565b60405180910390fd5b616b2981614710565b15616b69576040517f08c379a0000000000000000000000000000000000000000000000000000000008152600401616b6090617ff9565b60405180910390fd5b616b7560008383616277565b6001606860008473ffffffffffffffffffffffffffffffffffffffff1673ffffffffffffffffffffffffffffffffffffffff1681526020019081526020016000206000828254616bc5919061834d565b92505081905550816067600083815260200190815260200160002060006101000a81548173ffffffffffffffffffffffffffffffffffffffff021916908373ffffffffffffffffffffffffffffffffffffffff160217905550808273ffffffffffffffffffffffffffffffffffffffff16600073ffffffffffffffffffffffffffffffffffffffff167fddf252ad1be2c89b69c2b068fc378daa952ba7f163c4a11628f55a4df523b3ef60405160405180910390a45050565b505050565b609980549050609a600083815260200190815260200160002081905550609981908060018154018082558091505060019003906000526020600020016000909190919091505550565b60006001616cd984612900565b616ce391906183a3565b9050600060986000848152602001908152602001600020549050818114616dc8576000609760008673ffffffffffffffffffffffffffffffffffffffff1673ffffffffffffffffffffffffffffffffffffffff168152602001908152602001600020600084815260200190815260200160002054905080609760008773ffffffffffffffffffffffffffffffffffffffff1673ffffffffffffffffffffffffffffffffffffffff168152602001908152602001600020600084815260200190815260200160002081905550816098600083815260200190815260200160002081905550505b6098600084815260200190815260200160002060009055609760008573ffffffffffffffffffffffffffffffffffffffff1673ffffffffffffffffffffffffffffffffffffffff16815260200190815260200160002060008381526020019081526020016000206000905550505050565b60006001609980549050616e4d91906183a3565b90506000609a6000848152602001908152602001600020549050600060998381548110616e7d57616e7c6185fe565b5b906000526020600020015490508060998381548110616e9f57616e9e6185fe565b5b906000526020600020018190555081609a600083815260200190815260200160002081905550609a6000858152602001908152602001600020600090556099805480616eee57616eed6185cf565b5b6001900381819060005260206000200160009055905550505050565b6000616f1583612900565b905081609760008573ffffffffffffffffffffffffffffffffffffffff1673ffffffffffffffffffffffffffffffffffffffff168152602001908152602001600020600083815260200190815260200160002081905550806098600084815260200190815260200160002081905550505050565b600060019054906101000a900460ff1680616faf575060008054906101000a900460ff16155b616fee576040517f08c379a0000000000000000000000000000000000000000000000000000000008152600401616fe5906180d9565b60405180910390fd5b60008060019054906101000a900460ff16159050801561703e576001600060016101000a81548160ff02191690831515021790555060016000806101000a81548160ff0219169083151502179055505b801561705f5760008060016101000a81548160ff0219169083151502179055505b50565b600080823b905060008111915050919050565b60007f80ac58cd000000000000000000000000000000000000000000000000000000007bffffffffffffffffffffffffffffffffffffffffffffffffffffffff1916827bffffffffffffffffffffffffffffffffffffffffffffffffffffffff1916148061714057507f5b5e139f000000000000000000000000000000000000000000000000000000007bffffffffffffffffffffffffffffffffffffffffffffffffffffffff1916827bffffffffffffffffffffffffffffffffffffffffffffffffffffffff1916145b80617150575061714f82617157565b5b9050919050565b60007f01ffc9a7000000000000000000000000000000000000000000000000000000007bffffffffffffffffffffffffffffffffffffffffffffffffffffffff1916827bffffffffffffffffffffffffffffffffffffffffffffffffffffffff1916149050919050565b8280546171cd90618497565b90600052602060002090601f0160209004810192826171ef5760008555617236565b82601f1061720857803560ff1916838001178555617236565b82800160010185558215617236579182015b8281111561723557823582559160200191906001019061721a565b5b509050617243919061732e565b5090565b82805461725390618497565b90600052602060002090601f01602090048101928261727557600085556172bc565b82601f1061728e57805160ff19168380011785556172bc565b828001600101855582156172bc579182015b828111156172bb5782518255916020019190600101906172a0565b5b5090506172c9919061732e565b5090565b50805460008255906000526020600020908101906172eb919061734b565b50565b5080546172fa90618497565b6000825580601f1061730c575061732b565b601f01602090049060005260206000209081019061732a919061732e565b5b50565b5b8082111561734757600081600090555060010161732f565b5090565b5b8082111561736b576000818161736291906172ee565b5060010161734c565b5090565b600061738261737d846181f9565b6181d4565b905080838252602082019050828560208602820111156173a5576173a4618666565b5b60005b858110156173f357813567ffffffffffffffff8111156173cb576173ca618661565b5b8086016173d8898261759c565b855260208501945060208401935050506001810190506173a8565b5050509392505050565b600061741061740b84618225565b6181d4565b90508281526020810184848401111561742c5761742b61866b565b5b617437848285618455565b509392505050565b600061745261744d84618256565b6181d4565b90508281526020810184848401111561746e5761746d61866b565b5b617479848285618455565b509392505050565b60008135905061749081618b16565b92915050565b600082601f8301126174ab576174aa618661565b5b81356174bb84826020860161736f565b91505092915050565b6000813590506174d381618b2d565b92915050565b6000813590506174e881618b44565b92915050565b6000813590506174fd81618b5b565b92915050565b60008151905061751281618b5b565b92915050565b600082601f83011261752d5761752c618661565b5b813561753d8482602086016173fd565b91505092915050565b60008083601f84011261755c5761755b618661565b5b8235905067ffffffffffffffff8111156175795761757861865c565b5b60208301915083600182028301111561759557617594618666565b5b9250929050565b600082601f8301126175b1576175b0618661565b5b81356175c184826020860161743f565b91505092915050565b6000813590506175d981618b72565b92915050565b6000602082840312156175f5576175f4618675565b5b600061760384828501617481565b91505092915050565b6000806040838503121561762357617622618675565b5b600061763185828601617481565b925050602061764285828601617481565b9150509250929050565b60008060006060848603121561766557617664618675565b5b600061767386828701617481565b935050602061768486828701617481565b9250506040617695868287016175ca565b9150509250925092565b600080600080608085870312156176b9576176b8618675565b5b60006176c787828801617481565b94505060206176d887828801617481565b93505060406176e9878288016175ca565b925050606085013567ffffffffffffffff81111561770a57617709618670565b5b61771687828801617518565b91505092959194509250565b6000806040838503121561773957617738618675565b5b600061774785828601617481565b9250506020617758858286016174c4565b9150509250929050565b6000806040838503121561777957617778618675565b5b600061778785828601617481565b9250506020617798858286016175ca565b9150509250929050565b6000602082840312156177b8576177b7618675565b5b60006177c6848285016174d9565b91505092915050565b600080604083850312156177e6576177e5618675565b5b60006177f4858286016174d9565b925050602083013567ffffffffffffffff81111561781557617814618670565b5b61782185828601617496565b9150509250929050565b60008060006040848603121561784457617843618675565b5b6000617852868287016174d9565b935050602084013567ffffffffffffffff81111561787357617872618670565b5b61787f86828701617546565b92509250509250925092565b6000602082840312156178a1576178a0618675565b5b60006178af848285016174ee565b91505092915050565b6000602082840312156178ce576178cd618675565b5b60006178dc84828501617503565b91505092915050565b6000602082840312156178fb576178fa618675565b5b6000617909848285016175ca565b91505092915050565b6000806040838503121561792957617928618675565b5b6000617937858286016175ca565b9250506020617948858286016175ca565b9150509250929050565b600061795e8383617a86565b60208301905092915050565b60006179768383617b21565b905092915050565b617987816183d7565b82525050565b61799e617999826183d7565b618543565b82525050565b60006179af826182a7565b6179b981856182ed565b93506179c483618287565b8060005b838110156179f55781516179dc8882617952565b97506179e7836182d3565b9250506001810190506179c8565b5085935050505092915050565b6000617a0d826182b2565b617a1781856182fe565b935083602082028501617a2985618297565b8060005b85811015617a655784840389528151617a46858261796a565b9450617a51836182e0565b925060208a01995050600181019050617a2d565b50829750879550505050505092915050565b617a80816183e9565b82525050565b617a8f816183f5565b82525050565b617a9e816183f5565b82525050565b617ab5617ab0826183f5565b618555565b82525050565b6000617ac6826182bd565b617ad0818561830f565b9350617ae0818560208601618464565b617ae98161867a565b840191505092915050565b6000617b008385618331565b9350617b0d838584618455565b617b168361867a565b840190509392505050565b6000617b2c826182c8565b617b368185618320565b9350617b46818560208601618464565b617b4f8161867a565b840191505092915050565b6000617b65826182c8565b617b6f8185618331565b9350617b7f818560208601618464565b617b888161867a565b840191505092915050565b6000617b9e826182c8565b617ba88185618342565b9350617bb8818560208601618464565b80840191505092915050565b6000617bd1602b83618331565b9150617bdc82618698565b604082019050919050565b6000617bf4603283618331565b9150617bff826186e7565b604082019050919050565b6000617c17601c83618331565b9150617c2282618736565b602082019050919050565b6000617c3a602483618331565b9150617c458261875f565b604082019050919050565b6000617c5d601983618331565b9150617c68826187ae565b602082019050919050565b6000617c80602c83618331565b9150617c8b826187d7565b604082019050919050565b6000617ca3603883618331565b9150617cae82618826565b604082019050919050565b6000617cc6602a83618331565b9150617cd182618875565b604082019050919050565b6000617ce9602983618331565b9150617cf4826188c4565b604082019050919050565b6000617d0c602e83618331565b9150617d1782618913565b604082019050919050565b6000617d2f602083618331565b9150617d3a82618962565b602082019050919050565b6000617d52602c83618331565b9150617d5d8261898b565b604082019050919050565b6000617d75602983618331565b9150617d80826189da565b604082019050919050565b6000617d98602183618331565b9150617da382618a29565b604082019050919050565b6000617dbb603183618331565b9150617dc682618a78565b604082019050919050565b6000617dde602c83618331565b9150617de982618ac7565b604082019050919050565b617dfd8161844b565b82525050565b6000617e0f828561798d565b601482019150617e1f8284617aa4565b6020820191508190509392505050565b6000617e3b8284617b93565b915081905092915050565b6000602082019050617e5b600083018461797e565b92915050565b6000608082019050617e76600083018761797e565b617e83602083018661797e565b617e906040830185617df4565b8181036060830152617ea28184617abb565b905095945050505050565b60006020820190508181036000830152617ec781846179a4565b905092915050565b60006020820190508181036000830152617ee98184617a02565b905092915050565b6000602082019050617f066000830184617a77565b92915050565b6000608082019050617f216000830187617a77565b617f2e6020830186617a95565b8181036040830152617f408185617b5a565b9050617f4f606083018461797e565b95945050505050565b6000602082019050617f6d6000830184617a95565b92915050565b60006020820190508181036000830152617f8e818486617af4565b90509392505050565b60006020820190508181036000830152617fb18184617b5a565b905092915050565b60006020820190508181036000830152617fd281617bc4565b9050919050565b60006020820190508181036000830152617ff281617be7565b9050919050565b6000602082019050818103600083015261801281617c0a565b9050919050565b6000602082019050818103600083015261803281617c2d565b9050919050565b6000602082019050818103600083015261805281617c50565b9050919050565b6000602082019050818103600083015261807281617c73565b9050919050565b6000602082019050818103600083015261809281617c96565b9050919050565b600060208201905081810360008301526180b281617cb9565b9050919050565b600060208201905081810360008301526180d281617cdc565b9050919050565b600060208201905081810360008301526180f281617cff565b9050919050565b6000602082019050818103600083015261811281617d22565b9050919050565b6000602082019050818103600083015261813281617d45565b9050919050565b6000602082019050818103600083015261815281617d68565b9050919050565b6000602082019050818103600083015261817281617d8b565b9050919050565b6000602082019050818103600083015261819281617dae565b9050919050565b600060208201905081810360008301526181b281617dd1565b9050919050565b60006020820190506181ce6000830184617df4565b92915050565b60006181de6181ef565b90506181ea82826184c9565b919050565b6000604051905090565b600067ffffffffffffffff8211156182145761821361862d565b5b602082029050602081019050919050565b600067ffffffffffffffff8211156182405761823f61862d565b5b6182498261867a565b9050602081019050919050565b600067ffffffffffffffff8211156182715761827061862d565b5b61827a8261867a565b9050602081019050919050565b6000819050602082019050919050565b6000819050602082019050919050565b600081519050919050565b600081519050919050565b600081519050919050565b600081519050919050565b6000602082019050919050565b6000602082019050919050565b600082825260208201905092915050565b600082825260208201905092915050565b600082825260208201905092915050565b600082825260208201905092915050565b600082825260208201905092915050565b600081905092915050565b60006183588261844b565b91506183638361844b565b9250827fffffffffffffffffffffffffffffffffffffffffffffffffffffffffffffffff0382111561839857618397618571565b5b828201905092915050565b60006183ae8261844b565b91506183b98361844b565b9250828210156183cc576183cb618571565b5b828203905092915050565b60006183e28261842b565b9050919050565b60008115159050919050565b6000819050919050565b60007fffffffff0000000000000000000000000000000000000000000000000000000082169050919050565b600073ffffffffffffffffffffffffffffffffffffffff82169050919050565b6000819050919050565b82818337600083830152505050565b60005b83811015618482578082015181840152602081019050618467565b83811115618491576000848401525b50505050565b600060028204905060018216806184af57607f821691505b602082108114156184c3576184c26185a0565b5b50919050565b6184d28261867a565b810181811067ffffffffffffffff821117156184f1576184f061862d565b5b80604052505050565b60006185058261844b565b91507fffffffffffffffffffffffffffffffffffffffffffffffffffffffffffffffff82141561853857618537618571565b5b600182019050919050565b600061854e8261855f565b9050919050565b6000819050919050565b600061856a8261868b565b9050919050565b7f4e487b7100000000000000000000000000000000000000000000000000000000600052601160045260246000fd5b7f4e487b7100000000000000000000000000000000000000000000000000000000600052602260045260246000fd5b7f4e487b7100000000000000000000000000000000000000000000000000000000600052603160045260246000fd5b7f4e487b7100000000000000000000000000000000000000000000000000000000600052603260045260246000fd5b7f4e487b7100000000000000000000000000000000000000000000000000000000600052604160045260246000fd5b600080fd5b600080fd5b600080fd5b600080fd5b600080fd5b600080fd5b6000601f19601f8301169050919050565b60008160601b9050919050565b7f455243373231456e756d657261626c653a206f776e657220696e646578206f7560008201527f74206f6620626f756e6473000000000000000000000000000000000000000000602082015250565b7f4552433732313a207472616e7366657220746f206e6f6e20455243373231526560008201527f63656976657220696d706c656d656e7465720000000000000000000000000000602082015250565b7f4552433732313a20746f6b656e20616c7265616479206d696e74656400000000600082015250565b7f4552433732313a207472616e7366657220746f20746865207a65726f2061646460008201527f7265737300000000000000000000000000000000000000000000000000000000602082015250565b7f4552433732313a20617070726f766520746f2063616c6c657200000000000000600082015250565b7f4552433732313a206f70657261746f7220717565727920666f72206e6f6e657860008201527f697374656e7420746f6b656e0000000000000000000000000000000000000000602082015250565b7f4552433732313a20617070726f76652063616c6c6572206973206e6f74206f7760008201527f6e6572206e6f7220617070726f76656420666f7220616c6c0000000000000000602082015250565b7f4552433732313a2062616c616e636520717565727920666f7220746865207a6560008201527f726f206164647265737300000000000000000000000000000000000000000000602082015250565b7f4552433732313a206f776e657220717565727920666f72206e6f6e657869737460008201527f656e7420746f6b656e0000000000000000000000000000000000000000000000602082015250565b7f496e697469616c697a61626c653a20636f6e747261637420697320616c72656160008201527f647920696e697469616c697a6564000000000000000000000000000000000000602082015250565b7f4552433732313a206d696e7420746f20746865207a65726f2061646472657373600082015250565b7f4552433732313a20617070726f76656420717565727920666f72206e6f6e657860008201527f697374656e7420746f6b656e0000000000000000000000000000000000000000602082015250565b7f4552433732313a207472616e73666572206f6620746f6b656e2074686174206960008201527f73206e6f74206f776e0000000000000000000000000000000000000000000000602082015250565b7f4552433732313a20617070726f76616c20746f2063757272656e74206f776e6560008201527f7200000000000000000000000000000000000000000000000000000000000000602082015250565b7f4552433732313a207472616e736665722063616c6c6572206973206e6f74206f60008201527f776e6572206e6f7220617070726f766564000000000000000000000000000000602082015250565b7f455243373231456e756d657261626c653a20676c6f62616c20696e646578206f60008201527f7574206f6620626f756e64730000000000000000000000000000000000000000602082015250565b618b1f816183d7565b8114618b2a57600080fd5b50565b618b36816183e9565b8114618b4157600080fd5b50565b618b4d816183f5565b8114618b5857600080fd5b50565b618b64816183ff565b8114618b6f57600080fd5b50565b618b7b8161844b565b8114618b8657600080fd5b5056fea164736f6c6343000807000a",
  "linkReferences": {},
  "deployedLinkReferences": {}
}