{
  "_format": "hh-sol-artifact-1",
  "contractName": "NonERC721Receiver",
  "sourceName": "contracts/test/ERC721Receiver.sol",
  "abi": [
    {
      "inputs": [
        {
          "internalType": "bytes32",
          "name": "c__0xa2b921e2",
          "type": "bytes32"
        }
      ],
      "name": "c_0xa2b921e2",
      "outputs": [],
      "stateMutability": "pure",
      "type": "function"
    }
  ],
  "bytecode": "0x608060405234801561001057600080fd5b5060dc8061001f6000396000f3fe6080604052348015600f57600080fd5b506004361060285760003560e01c80637b7c960814602d575b600080fd5b60436004803603810190603f9190605b565b6045565b005b50565b6000813590506055816092565b92915050565b600060208284031215606e57606d608d565b5b6000607a848285016048565b91505092915050565b6000819050919050565b600080fd5b6099816083565b811460a357600080fd5b5056fea264697066735822122093139c2a4e9f07af03b069d11f8f3f77805c0f3efe372128743fe7f6e885508c64736f6c63430008070033",
  "linkReferences": {},
  "deployedLinkReferences": {}
}